{
  "_format": "hh-sol-artifact-1",
  "contractName": "AlpManager",
  "sourceName": "contracts/core/AlpManager.sol",
  "abi": [
    {
      "inputs": [
        {
          "internalType": "address",
          "name": "_vault",
          "type": "address"
        },
        {
          "internalType": "address",
          "name": "_usda",
          "type": "address"
        },
        {
          "internalType": "address",
          "name": "_alp",
          "type": "address"
        },
        {
          "internalType": "uint256",
          "name": "_cooldownDuration",
          "type": "uint256"
        }
      ],
      "stateMutability": "nonpayable",
      "type": "constructor"
    },
    {
      "anonymous": false,
      "inputs": [
        {
          "indexed": false,
          "internalType": "address",
          "name": "account",
          "type": "address"
        },
        {
          "indexed": false,
          "internalType": "address",
          "name": "token",
          "type": "address"
        },
        {
          "indexed": false,
          "internalType": "uint256",
          "name": "amount",
          "type": "uint256"
        },
        {
          "indexed": false,
          "internalType": "uint256",
          "name": "aumInUsda",
          "type": "uint256"
        },
        {
          "indexed": false,
          "internalType": "uint256",
          "name": "alpSupply",
          "type": "uint256"
        },
        {
          "indexed": false,
          "internalType": "uint256",
          "name": "usdaAmount",
          "type": "uint256"
        },
        {
          "indexed": false,
          "internalType": "uint256",
          "name": "mintAmount",
          "type": "uint256"
        }
      ],
      "name": "AddLiquidity",
      "type": "event"
    },
    {
      "anonymous": false,
      "inputs": [
        {
          "indexed": false,
          "internalType": "address",
          "name": "account",
          "type": "address"
        },
        {
          "indexed": false,
          "internalType": "address",
          "name": "token",
          "type": "address"
        },
        {
          "indexed": false,
          "internalType": "uint256",
          "name": "alpAmount",
          "type": "uint256"
        },
        {
          "indexed": false,
          "internalType": "uint256",
          "name": "aumInUsda",
          "type": "uint256"
        },
        {
          "indexed": false,
          "internalType": "uint256",
          "name": "alpSupply",
          "type": "uint256"
        },
        {
          "indexed": false,
          "internalType": "uint256",
          "name": "usdaAmount",
          "type": "uint256"
        },
        {
          "indexed": false,
          "internalType": "uint256",
          "name": "amountOut",
          "type": "uint256"
        }
      ],
      "name": "RemoveLiquidity",
      "type": "event"
    },
    {
      "inputs": [],
      "name": "MAX_COOLDOWN_DURATION",
      "outputs": [
        {
          "internalType": "uint256",
          "name": "",
          "type": "uint256"
        }
      ],
      "stateMutability": "view",
      "type": "function"
    },
    {
      "inputs": [],
      "name": "PRICE_PRECISION",
      "outputs": [
        {
          "internalType": "uint256",
          "name": "",
          "type": "uint256"
        }
      ],
      "stateMutability": "view",
      "type": "function"
    },
    {
      "inputs": [],
      "name": "USDA_DECIMALS",
      "outputs": [
        {
          "internalType": "uint256",
          "name": "",
          "type": "uint256"
        }
      ],
      "stateMutability": "view",
      "type": "function"
    },
    {
      "inputs": [
        {
          "internalType": "address",
          "name": "_token",
          "type": "address"
        },
        {
          "internalType": "uint256",
          "name": "_amount",
          "type": "uint256"
        },
        {
          "internalType": "uint256",
          "name": "_minUsda",
          "type": "uint256"
        },
        {
          "internalType": "uint256",
          "name": "_minAlp",
          "type": "uint256"
        }
      ],
      "name": "addLiquidity",
      "outputs": [
        {
          "internalType": "uint256",
          "name": "",
          "type": "uint256"
        }
      ],
      "stateMutability": "nonpayable",
      "type": "function"
    },
    {
      "inputs": [
        {
          "internalType": "address",
          "name": "_fundingAccount",
          "type": "address"
        },
        {
          "internalType": "address",
          "name": "_account",
          "type": "address"
        },
        {
          "internalType": "address",
          "name": "_token",
          "type": "address"
        },
        {
          "internalType": "uint256",
          "name": "_amount",
          "type": "uint256"
        },
        {
          "internalType": "uint256",
          "name": "_minUsda",
          "type": "uint256"
        },
        {
          "internalType": "uint256",
          "name": "_minAlp",
          "type": "uint256"
        }
      ],
      "name": "addLiquidityForAccount",
      "outputs": [
        {
          "internalType": "uint256",
          "name": "",
          "type": "uint256"
        }
      ],
      "stateMutability": "nonpayable",
      "type": "function"
    },
    {
      "inputs": [],
      "name": "alp",
      "outputs": [
        {
          "internalType": "address",
          "name": "",
          "type": "address"
        }
      ],
      "stateMutability": "view",
      "type": "function"
    },
    {
      "inputs": [],
      "name": "aumAddition",
      "outputs": [
        {
          "internalType": "uint256",
          "name": "",
          "type": "uint256"
        }
      ],
      "stateMutability": "view",
      "type": "function"
    },
    {
      "inputs": [],
      "name": "aumDeduction",
      "outputs": [
        {
          "internalType": "uint256",
          "name": "",
          "type": "uint256"
        }
      ],
      "stateMutability": "view",
      "type": "function"
    },
    {
      "inputs": [],
      "name": "cooldownDuration",
      "outputs": [
        {
          "internalType": "uint256",
          "name": "",
          "type": "uint256"
        }
      ],
      "stateMutability": "view",
      "type": "function"
    },
    {
      "inputs": [
        {
          "internalType": "bool",
          "name": "maximise",
          "type": "bool"
        }
      ],
      "name": "getAum",
      "outputs": [
        {
          "internalType": "uint256",
          "name": "",
          "type": "uint256"
        }
      ],
      "stateMutability": "view",
      "type": "function"
    },
    {
      "inputs": [
        {
          "internalType": "bool",
          "name": "maximise",
          "type": "bool"
        }
      ],
      "name": "getAumInUsda",
      "outputs": [
        {
          "internalType": "uint256",
          "name": "",
          "type": "uint256"
        }
      ],
      "stateMutability": "view",
      "type": "function"
    },
    {
      "inputs": [
        {
          "internalType": "bool",
          "name": "maximise",
          "type": "bool"
        }
      ],
      "name": "getAumInUsdaNoPnl",
      "outputs": [
        {
          "internalType": "uint256",
          "name": "",
          "type": "uint256"
        }
      ],
      "stateMutability": "view",
      "type": "function"
    },
    {
      "inputs": [
        {
          "internalType": "bool",
          "name": "maximise",
          "type": "bool"
        }
      ],
      "name": "getAumNoPnl",
      "outputs": [
        {
          "internalType": "uint256",
          "name": "",
          "type": "uint256"
        }
      ],
      "stateMutability": "view",
      "type": "function"
    },
    {
      "inputs": [],
      "name": "getAums",
      "outputs": [
        {
          "internalType": "uint256[]",
          "name": "",
          "type": "uint256[]"
        }
      ],
      "stateMutability": "view",
      "type": "function"
    },
    {
      "inputs": [],
      "name": "gov",
      "outputs": [
        {
          "internalType": "address",
          "name": "",
          "type": "address"
        }
      ],
      "stateMutability": "view",
      "type": "function"
    },
    {
      "inputs": [],
      "name": "inPrivateMode",
      "outputs": [
        {
          "internalType": "bool",
          "name": "",
          "type": "bool"
        }
      ],
      "stateMutability": "view",
      "type": "function"
    },
    {
      "inputs": [
        {
          "internalType": "address",
          "name": "",
          "type": "address"
        }
      ],
      "name": "isHandler",
      "outputs": [
        {
          "internalType": "bool",
          "name": "",
          "type": "bool"
        }
      ],
      "stateMutability": "view",
      "type": "function"
    },
    {
      "inputs": [
        {
          "internalType": "address",
          "name": "",
          "type": "address"
        }
      ],
      "name": "lastAddedAt",
      "outputs": [
        {
          "internalType": "uint256",
          "name": "",
          "type": "uint256"
        }
      ],
      "stateMutability": "view",
      "type": "function"
    },
    {
      "inputs": [
        {
          "internalType": "address",
          "name": "_tokenOut",
          "type": "address"
        },
        {
          "internalType": "uint256",
          "name": "_alpAmount",
          "type": "uint256"
        },
        {
          "internalType": "uint256",
          "name": "_minOut",
          "type": "uint256"
        },
        {
          "internalType": "address",
          "name": "_receiver",
          "type": "address"
        }
      ],
      "name": "removeLiquidity",
      "outputs": [
        {
          "internalType": "uint256",
          "name": "",
          "type": "uint256"
        }
      ],
      "stateMutability": "nonpayable",
      "type": "function"
    },
    {
      "inputs": [
        {
          "internalType": "address",
          "name": "_account",
          "type": "address"
        },
        {
          "internalType": "address",
          "name": "_tokenOut",
          "type": "address"
        },
        {
          "internalType": "uint256",
          "name": "_alpAmount",
          "type": "uint256"
        },
        {
          "internalType": "uint256",
          "name": "_minOut",
          "type": "uint256"
        },
        {
          "internalType": "address",
          "name": "_receiver",
          "type": "address"
        }
      ],
      "name": "removeLiquidityForAccount",
      "outputs": [
        {
          "internalType": "uint256",
          "name": "",
          "type": "uint256"
        }
      ],
      "stateMutability": "nonpayable",
      "type": "function"
    },
    {
      "inputs": [
        {
          "internalType": "uint256",
          "name": "_aumAddition",
          "type": "uint256"
        },
        {
          "internalType": "uint256",
          "name": "_aumDeduction",
          "type": "uint256"
        }
      ],
      "name": "setAumAdjustment",
      "outputs": [],
      "stateMutability": "nonpayable",
      "type": "function"
    },
    {
      "inputs": [
        {
          "internalType": "uint256",
          "name": "_cooldownDuration",
          "type": "uint256"
        }
      ],
      "name": "setCooldownDuration",
      "outputs": [],
      "stateMutability": "nonpayable",
      "type": "function"
    },
    {
      "inputs": [
        {
          "internalType": "address",
          "name": "_gov",
          "type": "address"
        }
      ],
      "name": "setGov",
      "outputs": [],
      "stateMutability": "nonpayable",
      "type": "function"
    },
    {
      "inputs": [
        {
          "internalType": "address",
          "name": "_handler",
          "type": "address"
        },
        {
          "internalType": "bool",
          "name": "_isActive",
          "type": "bool"
        }
      ],
      "name": "setHandler",
      "outputs": [],
      "stateMutability": "nonpayable",
      "type": "function"
    },
    {
      "inputs": [
        {
          "internalType": "bool",
          "name": "_inPrivateMode",
          "type": "bool"
        }
      ],
      "name": "setInPrivateMode",
      "outputs": [],
      "stateMutability": "nonpayable",
      "type": "function"
    },
    {
      "inputs": [],
      "name": "usda",
      "outputs": [
        {
          "internalType": "address",
          "name": "",
          "type": "address"
        }
      ],
      "stateMutability": "view",
      "type": "function"
    },
    {
      "inputs": [],
      "name": "vault",
      "outputs": [
        {
          "internalType": "contract IVault",
          "name": "",
          "type": "address"
        }
      ],
      "stateMutability": "view",
      "type": "function"
    }
  ],
  "bytecode": "0x608060405234801561001057600080fd5b506040516126cc3803806126cc8339818101604052608081101561003357600080fd5b50805160208201516040830151606090930151600160008181558154336001600160a01b031991821681178216179092556002805483166001600160a01b039687161790556003805483169486169490941790935560048054909116939094169290921790925560055561261f9081906100ad90396000f3fe608060405234801561001057600080fd5b50600436106101495760003560e01c8063033914761461014e578063070eacee1461017f5780630748d9451461019b5780631282f470146101bf57806312d43a51146101de57806312fc83d6146101e657806317eb2a15146101ee578063196b68cb146102365780631e9049cf1461023e5780631ece366a14610246578063352693151461027e57806346ea87af146102865780636a86da19146102ac57806371d597ad146102cd5780638b770e11146103115780638fed0b2c146103375780639116c4ae1461037157806395082d2514610394578063966be0751461039c5780639cb7de4b146103b9578063a7d06802146103e7578063b172bb0c14610406578063ce884c9c1461040e578063cfad57a21461042d578063e2b19ff014610453578063ed0d1c041461045b578063fbfa77cf146104b3575b600080fd5b61016d6004803603602081101561016457600080fd5b503515156104bb565b60408051918252519081900360200190f35b610187610b63565b604080519115158252519081900360200190f35b6101a3610b6c565b604080516001600160a01b039092168252519081900360200190f35b61016d600480360360208110156101d557600080fd5b50351515610b7b565b6101a3610bb2565b61016d610bc1565b61016d600480360360c081101561020457600080fd5b506001600160a01b03813581169160208101358216916040820135169060608101359060808101359060a00135610bc6565b61016d610c39565b61016d610c3f565b61016d6004803603608081101561025c57600080fd5b506001600160a01b038135169060208101359060408101359060600135610c46565b61016d610cf5565b6101876004803603602081101561029c57600080fd5b50356001600160a01b0316610cfb565b6102cb600480360360208110156102c257600080fd5b50351515610d10565b005b61016d600480360360a08110156102e357600080fd5b506001600160a01b038135811691602081013582169160408201359160608101359160809091013516610d70565b61016d6004803603602081101561032757600080fd5b50356001600160a01b0316610de1565b61016d6004803603608081101561034d57600080fd5b506001600160a01b0381358116916020810135916040820135916060013516610df3565b6102cb6004803603604081101561038757600080fd5b5080359060200135610e93565b61016d610eeb565b6102cb600480360360208110156103b257600080fd5b5035610efb565b6102cb600480360360408110156103cf57600080fd5b506001600160a01b0381351690602001351515610f8f565b61016d600480360360208110156103fd57600080fd5b50351515611007565b61016d611013565b61016d6004803603602081101561042457600080fd5b50351515611019565b6102cb6004803603602081101561044357600080fd5b50356001600160a01b0316611574565b6101a36115e3565b6104636115f2565b60408051602080825283518183015283519192839290830191858101910280838360005b8381101561049f578181015183820152602001610487565b505050509050019250505060405180910390f35b6101a3611660565b600080600260009054906101000a90046001600160a01b03166001600160a01b0316630842b0766040518163ffffffff1660e01b815260040160206040518083038186803b15801561050c57600080fd5b505afa158015610520573d6000803e3d6000fd5b505050506040513d602081101561053657600080fd5b50516007549091506000805b83811015610b105760025460408051630e468baf60e41b81526004810184905290516000926001600160a01b03169163e468baf0916024808301926020929190829003018186803b15801561059657600080fd5b505afa1580156105aa573d6000803e3d6000fd5b505050506040513d60208110156105c057600080fd5b505160025460408051630daf9c2160e41b81526001600160a01b0380851660048301529151939450600093919092169163daf9c210916024808301926020929190829003018186803b15801561061557600080fd5b505afa158015610629573d6000803e3d6000fd5b505050506040513d602081101561063f57600080fd5b505190508061064f575050610b08565b6000886106d457600254604080516340d3096b60e11b81526001600160a01b038681166004830152915191909216916381a612d6916024808301926020929190829003018186803b1580156106a357600080fd5b505afa1580156106b7573d6000803e3d6000fd5b505050506040513d60208110156106cd57600080fd5b505161074e565b60025460408051637092736960e11b81526001600160a01b0386811660048301529151919092169163e124e6d2916024808301926020929190829003018186803b15801561072157600080fd5b505afa158015610735573d6000803e3d6000fd5b505050506040513d602081101561074b57600080fd5b50515b600254604080516352f55eed60e01b81526001600160a01b038781166004830152915193945060009391909216916352f55eed916024808301926020929190829003018186803b1580156107a157600080fd5b505afa1580156107b5573d6000803e3d6000fd5b505050506040513d60208110156107cb57600080fd5b5051600254604080516323b95ceb60e21b81526001600160a01b03888116600483015291519394506000939190921691638ee573ac916024808301926020929190829003018186803b15801561082057600080fd5b505afa158015610834573d6000803e3d6000fd5b505050506040513d602081101561084a57600080fd5b5051600254604080516342b60b0360e01b81526001600160a01b03898116600483015291519394509116916342b60b0391602480820192602092909190829003018186803b15801561089b57600080fd5b505afa1580156108af573d6000803e3d6000fd5b505050506040513d60208110156108c557600080fd5b50511561097c576108ee6108e7600a83900a6108e1858761166f565b906116d1565b8990611710565b6002546040805163450c29f760e01b81526001600160a01b0389811660048301529151939b5061097593919092169163450c29f7916024808301926020929190829003018186803b15801561094257600080fd5b505afa158015610956573d6000803e3d6000fd5b505050506040513d602081101561096c57600080fd5b50518990611768565b9750610b02565b6109916108e7600a83900a6108e1858761166f565b6002546040805163450c29f760e01b81526001600160a01b0389811660048301529151939b506109e593919092169163450c29f7916024808301926020929190829003018186803b15801561094257600080fd5b60025460408051636cd5a63560e01b81526001600160a01b0389811660048301529151939b506000939190921691636cd5a635916024808301926020929190829003018186803b158015610a3857600080fd5b505afa158015610a4c573d6000803e3d6000fd5b505050506040513d6020811015610a6257600080fd5b505160025460408051631b9d1d0960e31b81526001600160a01b038a811660048301529151939450600093919092169163dce8e848916024808301926020929190829003018186803b158015610ab757600080fd5b505afa158015610acb573d6000803e3d6000fd5b505050506040513d6020811015610ae157600080fd5b50519050600082600a85900a87840281610af757fe5b050399909901985050505b50505050505b600101610542565b5060008112610b2a57610b238282611710565b9150610b3b565b610b38826000839003611768565b91505b8160085411610b5757600854610b52908390611768565b610b5a565b60005b95945050505050565b60095460ff1681565b6004546001600160a01b031681565b600080610b8783611019565b9050610bab68327cb2734119d3b7a9601e1b6108e183670de0b6b3a764000061166f565b9392505050565b6001546001600160a01b031681565b601281565b600060026000541415610c0e576040805162461bcd60e51b815260206004820152601f6024820152600080516020612481833981519152604482015290519081900360640190fd5b6002600055610c1b6117aa565b610c29878787878787611808565b6001600055979650505050505050565b60075481565b6202a30081565b600060026000541415610c8e576040805162461bcd60e51b815260206004820152601f6024820152600080516020612481833981519152604482015290519081900360640190fd5b600260005560095460ff1615610cd9576040805162461bcd60e51b815260206004820152601e60248201526000805160206124e4833981519152604482015290519081900360640190fd5b610ce7333387878787611808565b600160005595945050505050565b60055481565b600a6020526000908152604090205460ff1681565b6001546001600160a01b03163314610d5d576040805162461bcd60e51b815260206004820152601560248201526000805160206124c4833981519152604482015290519081900360640190fd5b6009805460ff1916911515919091179055565b600060026000541415610db8576040805162461bcd60e51b815260206004820152601f6024820152600080516020612481833981519152604482015290519081900360640190fd5b6002600055610dc56117aa565b610dd28686868686611b25565b60016000559695505050505050565b60066020526000908152604090205481565b600060026000541415610e3b576040805162461bcd60e51b815260206004820152601f6024820152600080516020612481833981519152604482015290519081900360640190fd5b600260005560095460ff1615610e86576040805162461bcd60e51b815260206004820152601e60248201526000805160206124e4833981519152604482015290519081900360640190fd5b610ce73386868686611b25565b6001546001600160a01b03163314610ee0576040805162461bcd60e51b815260206004820152601560248201526000805160206124c4833981519152604482015290519081900360640190fd5b600791909155600855565b68327cb2734119d3b7a9601e1b81565b6001546001600160a01b03163314610f48576040805162461bcd60e51b815260206004820152601560248201526000805160206124c4833981519152604482015290519081900360640190fd5b6202a300811115610f8a5760405162461bcd60e51b815260040180806020018281038252602581526020018061259b6025913960400191505060405180910390fd5b600555565b6001546001600160a01b03163314610fdc576040805162461bcd60e51b815260206004820152601560248201526000805160206124c4833981519152604482015290519081900360640190fd5b6001600160a01b03919091166000908152600a60205260409020805460ff1916911515919091179055565b600080610b87836104bb565b60085481565b600080600260009054906101000a90046001600160a01b03166001600160a01b0316630842b0766040518163ffffffff1660e01b815260040160206040518083038186803b15801561106a57600080fd5b505afa15801561107e573d6000803e3d6000fd5b505050506040513d602081101561109457600080fd5b505160075460408051808201909152600b81526a19d95d105d5b539bd41b9b60aa1b6020820152919250906000906110cb90611fc5565b60005b838110156115425760025460408051630e468baf60e41b81526004810184905290516000926001600160a01b03169163e468baf0916024808301926020929190829003018186803b15801561112257600080fd5b505afa158015611136573d6000803e3d6000fd5b505050506040513d602081101561114c57600080fd5b505160025460408051630daf9c2160e41b81526001600160a01b0380851660048301529151939450600093919092169163daf9c210916024808301926020929190829003018186803b1580156111a157600080fd5b505afa1580156111b5573d6000803e3d6000fd5b505050506040513d60208110156111cb57600080fd5b50519050806111db57505061153a565b60008861126057600254604080516340d3096b60e11b81526001600160a01b038681166004830152915191909216916381a612d6916024808301926020929190829003018186803b15801561122f57600080fd5b505afa158015611243573d6000803e3d6000fd5b505050506040513d602081101561125957600080fd5b50516112da565b60025460408051637092736960e11b81526001600160a01b0386811660048301529151919092169163e124e6d2916024808301926020929190829003018186803b1580156112ad57600080fd5b505afa1580156112c1573d6000803e3d6000fd5b505050506040513d60208110156112d757600080fd5b50515b600254604080516352f55eed60e01b81526001600160a01b038781166004830152915193945060009391909216916352f55eed916024808301926020929190829003018186803b15801561132d57600080fd5b505afa158015611341573d6000803e3d6000fd5b505050506040513d602081101561135757600080fd5b5051600254604080516323b95ceb60e21b81526001600160a01b03888116600483015291519394506000939190921691638ee573ac916024808301926020929190829003018186803b1580156113ac57600080fd5b505afa1580156113c0573d6000803e3d6000fd5b505050506040513d60208110156113d657600080fd5b5051600254604080516342b60b0360e01b81526001600160a01b03898116600483015291519394509116916342b60b0391602480820192602092909190829003018186803b15801561142757600080fd5b505afa15801561143b573d6000803e3d6000fd5b505050506040513d602081101561145157600080fd5b5051156114c85761146d6108e7600a83900a6108e1858761166f565b6002546040805163450c29f760e01b81526001600160a01b0389811660048301529151939b506114c193919092169163450c29f7916024808301926020929190829003018186803b15801561094257600080fd5b9750611534565b6114dd6108e7600a83900a6108e1858761166f565b6002546040805163450c29f760e01b81526001600160a01b0389811660048301529151939b5061153193919092169163450c29f7916024808301926020929190829003018186803b15801561094257600080fd5b97505b50505050505b6001016110ce565b50818111611559576115548282611768565b610b38565b600091508160085411610b5757600854610b52908390611768565b6001546001600160a01b031633146115c1576040805162461bcd60e51b815260206004820152601560248201526000805160206124c4833981519152604482015290519081900360640190fd5b600180546001600160a01b0319166001600160a01b0392909216919091179055565b6003546001600160a01b031681565b60408051600280825260608083018452928392919060208301908036833701905050905061162060016104bb565b8160008151811061162d57fe5b60200260200101818152505061164360006104bb565b8160018151811061165057fe5b6020908102919091010152905090565b6002546001600160a01b031681565b60008261167e575060006116cb565b8282028284828161168b57fe5b04146116c85760405162461bcd60e51b81526004018080602001828103825260218152602001806125566021913960400191505060405180910390fd5b90505b92915050565b60006116c883836040518060400160405280601a815260200179536166654d6174683a206469766973696f6e206279207a65726f60301b81525061206e565b6000828201838110156116c8576040805162461bcd60e51b815260206004820152601b60248201527a536166654d6174683a206164646974696f6e206f766572666c6f7760281b604482015290519081900360640190fd5b60006116c883836040518060400160405280601e81526020017f536166654d6174683a207375627472616374696f6e206f766572666c6f770000815250612110565b336000908152600a602052604090205460ff16611806576040805162461bcd60e51b815260206004820152601560248201527420b63826b0b730b3b2b91d103337b93134b23232b760591b604482015290519081900360640190fd5b565b600080841161185c576040805162461bcd60e51b815260206004820152601b60248201527a105b1c13585b9859d95c8e881a5b9d985b1a590817d85b5bdd5b9d602a1b604482015290519081900360640190fd5b60006118686001611007565b90506000600460009054906101000a90046001600160a01b03166001600160a01b03166318160ddd6040518163ffffffff1660e01b815260040160206040518083038186803b1580156118ba57600080fd5b505afa1580156118ce573d6000803e3d6000fd5b505050506040513d60208110156118e457600080fd5b5051600254909150611905906001600160a01b03898116918c91168961216a565b6002546040805163028f231960e31b81526001600160a01b038a811660048301523060248301529151600093929092169163147918c89160448082019260209290919082900301818787803b15801561195d57600080fd5b505af1158015611971573d6000803e3d6000fd5b505050506040513d602081101561198757600080fd5b50519050858110156119ca5760405162461bcd60e51b81526004018080602001828103825260248152602001806125776024913960400191505060405180910390fd5b600083156119e5576119e0846108e1848661166f565b6119e7565b815b905085811015611a285760405162461bcd60e51b81526004018080602001828103825260238152602001806124a16023913960400191505060405180910390fd5b60048054604080516340c10f1960e01b81526001600160a01b038e81169482019490945260248101859052905192909116916340c10f199160448082019260009290919082900301818387803b158015611a8157600080fd5b505af1158015611a95573d6000803e3d6000fd5b5050506001600160a01b03808c166000818152600660209081526040918290204290558151928352928d16928201929092528082018b9052606081018790526080810186905260a0810185905260c0810184905290517f38dc38b96482be64113daffd8d464ebda93e856b70ccfc605e69ccf892ab981e92509081900360e00190a19a9950505050505050505050565b6000808411611b7b576040805162461bcd60e51b815260206004820152601e60248201527f416c704d616e616765723a20696e76616c6964205f616c70416d6f756e740000604482015290519081900360640190fd5b6005546001600160a01b0387166000908152600660205260409020544291611ba39190611710565b1115611be05760405162461bcd60e51b815260040180806020018281038252602c815260200180612504602c913960400191505060405180910390fd5b6000611bec6000611007565b90506000600460009054906101000a90046001600160a01b03166001600160a01b03166318160ddd6040518163ffffffff1660e01b815260040160206040518083038186803b158015611c3e57600080fd5b505afa158015611c52573d6000803e3d6000fd5b505050506040513d6020811015611c6857600080fd5b505190506000611c7c826108e1898661166f565b600354604080516370a0823160e01b815230600482015290519293506000926001600160a01b03909216916370a0823191602480820192602092909190829003018186803b158015611ccd57600080fd5b505afa158015611ce1573d6000803e3d6000fd5b505050506040513d6020811015611cf757600080fd5b5051905080821115611d7e576003546001600160a01b03166340c10f1930611d1f8585611768565b6040518363ffffffff1660e01b815260040180836001600160a01b0316815260200182815260200192505050600060405180830381600087803b158015611d6557600080fd5b505af1158015611d79573d6000803e3d6000fd5b505050505b6004805460408051632770a7eb60e21b81526001600160a01b038e811694820194909452602481018c905290519290911691639dc29fac9160448082019260009290919082900301818387803b158015611dd757600080fd5b505af1158015611deb573d6000803e3d6000fd5b50506003546002546040805163a9059cbb60e01b81526001600160a01b03928316600482015260248101889052905191909216935063a9059cbb925060448083019260209291908290030181600087803b158015611e4857600080fd5b505af1158015611e5c573d6000803e3d6000fd5b505050506040513d6020811015611e7257600080fd5b50506002546040805163831cb76360e01b81526001600160a01b038c8116600483015289811660248301529151600093929092169163831cb7639160448082019260209290919082900301818787803b158015611ece57600080fd5b505af1158015611ee2573d6000803e3d6000fd5b505050506040513d6020811015611ef857600080fd5b5051905087811015611f51576040805162461bcd60e51b815260206004820152601f60248201527f416c704d616e616765723a20696e73756666696369656e74206f757470757400604482015290519081900360640190fd5b604080516001600160a01b03808e1682528c1660208201528082018b9052606081018790526080810186905260a0810185905260c0810183905290517f87b9679bb9a4944bafa98c267e7cd4a00ab29fed48afdefae25f0fca5da279409181900360e00190a19a9950505050505050505050565b61206b816040516024018080602001828103825283818151815260200191508051906020019080838360005b83811015612009578181015183820152602001611ff1565b50505050905090810190601f1680156120365780820380516001836020036101000a031916815260200191505b5060408051601f198184030181529190526020810180516001600160e01b031663104c13eb60e21b17905292506121ca915050565b50565b600081836120fa5760405162461bcd60e51b81526004018080602001828103825283818151815260200191508051906020019080838360005b838110156120bf5781810151838201526020016120a7565b50505050905090810190601f1680156120ec5780820380516001836020036101000a031916815260200191505b509250505060405180910390fd5b50600083858161210657fe5b0495945050505050565b600081848411156121625760405162461bcd60e51b81526020600482018181528351602484015283519092839260449091019190850190808383600083156120bf5781810151838201526020016120a7565b505050900390565b604080516001600160a01b0380861660248301528416604482015260648082018490528251808303909101815260849091019091526020810180516001600160e01b03166323b872dd60e01b1790526121c49085906121eb565b50505050565b80516a636f6e736f6c652e6c6f67602083016000808483855afa5050505050565b6060612240826040518060400160405280602081526020017f5361666545524332303a206c6f772d6c6576656c2063616c6c206661696c6564815250856001600160a01b03166122a19092919063ffffffff16565b80519091501561229c5780806020019051602081101561225f57600080fd5b505161229c5760405162461bcd60e51b815260040180806020018281038252602a8152602001806125c0602a913960400191505060405180910390fd5b505050565b60606122b084846000856122b8565b949350505050565b6060824710156122f95760405162461bcd60e51b81526004018080602001828103825260268152602001806125306026913960400191505060405180910390fd5b61230285612414565b612353576040805162461bcd60e51b815260206004820152601d60248201527f416464726573733a2063616c6c20746f206e6f6e2d636f6e7472616374000000604482015290519081900360640190fd5b60006060866001600160a01b031685876040518082805190602001908083835b602083106123925780518252601f199092019160209182019101612373565b6001836020036101000a03801982511681845116808217855250505050505090500191505060006040518083038185875af1925050503d80600081146123f4576040519150601f19603f3d011682016040523d82523d6000602084013e6123f9565b606091505b509150915061240982828661241a565b979650505050505050565b3b151590565b60608315612429575081610bab565b8251156124395782518084602001fd5b60405162461bcd60e51b81526020600482018181528451602484015284518593919283926044019190850190808383600083156120bf5781810151838201526020016120a756fe5265656e7472616e637947756172643a207265656e7472616e742063616c6c00416c704d616e616765723a20696e73756666696369656e7420414c50206f7574707574476f7665726e61626c653a20666f7262696464656e0000000000000000000000416c704d616e616765723a20616374696f6e206e6f7420656e61626c65640000416c704d616e616765723a20636f6f6c646f776e206475726174696f6e206e6f742079657420706173736564416464726573733a20696e73756666696369656e742062616c616e636520666f722063616c6c536166654d6174683a206d756c7469706c69636174696f6e206f766572666c6f77416c704d616e616765723a20696e73756666696369656e742055534441206f7574707574416c704d616e616765723a20696e76616c6964205f636f6f6c646f776e4475726174696f6e5361666545524332303a204552433230206f7065726174696f6e20646964206e6f742073756363656564a2646970667358221220d52ebf7aab578e05d6a59a9c0d235307ed54c745fe2f22b4b483cbf72aacbc5964736f6c634300060c0033",
  "linkReferences": {},
  "deployedLinkReferences": {}
}