{
  "_format": "hh-sol-artifact-1",
  "contractName": "OrderBook",
  "sourceName": "contracts/core/OrderBook.sol",
  "abi": [
    {
      "inputs": [],
      "stateMutability": "nonpayable",
      "type": "constructor"
    },
    {
      "anonymous": false,
      "inputs": [
        {
          "indexed": true,
          "internalType": "address",
          "name": "account",
          "type": "address"
        },
        {
          "indexed": false,
          "internalType": "uint256",
          "name": "orderIndex",
          "type": "uint256"
        },
        {
          "indexed": false,
          "internalType": "address",
          "name": "collateralToken",
          "type": "address"
        },
        {
          "indexed": false,
          "internalType": "uint256",
          "name": "collateralDelta",
          "type": "uint256"
        },
        {
          "indexed": false,
          "internalType": "address",
          "name": "indexToken",
          "type": "address"
        },
        {
          "indexed": false,
          "internalType": "uint256",
          "name": "sizeDelta",
          "type": "uint256"
        },
        {
          "indexed": false,
          "internalType": "bool",
          "name": "isLong",
          "type": "bool"
        },
        {
          "indexed": false,
          "internalType": "uint256",
          "name": "triggerPrice",
          "type": "uint256"
        },
        {
          "indexed": false,
          "internalType": "bool",
          "name": "triggerAboveThreshold",
          "type": "bool"
        },
        {
          "indexed": false,
          "internalType": "uint256",
          "name": "executionFee",
          "type": "uint256"
        }
      ],
      "name": "CancelDecreaseOrder",
      "type": "event"
    },
    {
      "anonymous": false,
      "inputs": [
        {
          "indexed": true,
          "internalType": "address",
          "name": "account",
          "type": "address"
        },
        {
          "indexed": false,
          "internalType": "uint256",
          "name": "orderIndex",
          "type": "uint256"
        },
        {
          "indexed": false,
          "internalType": "address",
          "name": "purchaseToken",
          "type": "address"
        },
        {
          "indexed": false,
          "internalType": "uint256",
          "name": "purchaseTokenAmount",
          "type": "uint256"
        },
        {
          "indexed": false,
          "internalType": "address",
          "name": "collateralToken",
          "type": "address"
        },
        {
          "indexed": false,
          "internalType": "address",
          "name": "indexToken",
          "type": "address"
        },
        {
          "indexed": false,
          "internalType": "uint256",
          "name": "sizeDelta",
          "type": "uint256"
        },
        {
          "indexed": false,
          "internalType": "bool",
          "name": "isLong",
          "type": "bool"
        },
        {
          "indexed": false,
          "internalType": "uint256",
          "name": "triggerPrice",
          "type": "uint256"
        },
        {
          "indexed": false,
          "internalType": "bool",
          "name": "triggerAboveThreshold",
          "type": "bool"
        },
        {
          "indexed": false,
          "internalType": "uint256",
          "name": "executionFee",
          "type": "uint256"
        }
      ],
      "name": "CancelIncreaseOrder",
      "type": "event"
    },
    {
      "anonymous": false,
      "inputs": [
        {
          "indexed": true,
          "internalType": "address",
          "name": "account",
          "type": "address"
        },
        {
          "indexed": false,
          "internalType": "uint256",
          "name": "orderIndex",
          "type": "uint256"
        },
        {
          "indexed": false,
          "internalType": "address[]",
          "name": "path",
          "type": "address[]"
        },
        {
          "indexed": false,
          "internalType": "uint256",
          "name": "amountIn",
          "type": "uint256"
        },
        {
          "indexed": false,
          "internalType": "uint256",
          "name": "minOut",
          "type": "uint256"
        },
        {
          "indexed": false,
          "internalType": "uint256",
          "name": "triggerRatio",
          "type": "uint256"
        },
        {
          "indexed": false,
          "internalType": "bool",
          "name": "triggerAboveThreshold",
          "type": "bool"
        },
        {
          "indexed": false,
          "internalType": "bool",
          "name": "shouldUnwrap",
          "type": "bool"
        },
        {
          "indexed": false,
          "internalType": "uint256",
          "name": "executionFee",
          "type": "uint256"
        }
      ],
      "name": "CancelSwapOrder",
      "type": "event"
    },
    {
      "anonymous": false,
      "inputs": [
        {
          "indexed": true,
          "internalType": "address",
          "name": "account",
          "type": "address"
        },
        {
          "indexed": false,
          "internalType": "uint256",
          "name": "orderIndex",
          "type": "uint256"
        },
        {
          "indexed": false,
          "internalType": "address",
          "name": "collateralToken",
          "type": "address"
        },
        {
          "indexed": false,
          "internalType": "uint256",
          "name": "collateralDelta",
          "type": "uint256"
        },
        {
          "indexed": false,
          "internalType": "address",
          "name": "indexToken",
          "type": "address"
        },
        {
          "indexed": false,
          "internalType": "uint256",
          "name": "sizeDelta",
          "type": "uint256"
        },
        {
          "indexed": false,
          "internalType": "bool",
          "name": "isLong",
          "type": "bool"
        },
        {
          "indexed": false,
          "internalType": "uint256",
          "name": "triggerPrice",
          "type": "uint256"
        },
        {
          "indexed": false,
          "internalType": "bool",
          "name": "triggerAboveThreshold",
          "type": "bool"
        },
        {
          "indexed": false,
          "internalType": "uint256",
          "name": "executionFee",
          "type": "uint256"
        }
      ],
      "name": "CreateDecreaseOrder",
      "type": "event"
    },
    {
      "anonymous": false,
      "inputs": [
        {
          "indexed": true,
          "internalType": "address",
          "name": "account",
          "type": "address"
        },
        {
          "indexed": false,
          "internalType": "uint256",
          "name": "orderIndex",
          "type": "uint256"
        },
        {
          "indexed": false,
          "internalType": "address",
          "name": "purchaseToken",
          "type": "address"
        },
        {
          "indexed": false,
          "internalType": "uint256",
          "name": "purchaseTokenAmount",
          "type": "uint256"
        },
        {
          "indexed": false,
          "internalType": "address",
          "name": "collateralToken",
          "type": "address"
        },
        {
          "indexed": false,
          "internalType": "address",
          "name": "indexToken",
          "type": "address"
        },
        {
          "indexed": false,
          "internalType": "uint256",
          "name": "sizeDelta",
          "type": "uint256"
        },
        {
          "indexed": false,
          "internalType": "bool",
          "name": "isLong",
          "type": "bool"
        },
        {
          "indexed": false,
          "internalType": "uint256",
          "name": "triggerPrice",
          "type": "uint256"
        },
        {
          "indexed": false,
          "internalType": "bool",
          "name": "triggerAboveThreshold",
          "type": "bool"
        },
        {
          "indexed": false,
          "internalType": "uint256",
          "name": "executionFee",
          "type": "uint256"
        }
      ],
      "name": "CreateIncreaseOrder",
      "type": "event"
    },
    {
      "anonymous": false,
      "inputs": [
        {
          "indexed": true,
          "internalType": "address",
          "name": "account",
          "type": "address"
        },
        {
          "indexed": false,
          "internalType": "uint256",
          "name": "orderIndex",
          "type": "uint256"
        },
        {
          "indexed": false,
          "internalType": "address[]",
          "name": "path",
          "type": "address[]"
        },
        {
          "indexed": false,
          "internalType": "uint256",
          "name": "amountIn",
          "type": "uint256"
        },
        {
          "indexed": false,
          "internalType": "uint256",
          "name": "minOut",
          "type": "uint256"
        },
        {
          "indexed": false,
          "internalType": "uint256",
          "name": "triggerRatio",
          "type": "uint256"
        },
        {
          "indexed": false,
          "internalType": "bool",
          "name": "triggerAboveThreshold",
          "type": "bool"
        },
        {
          "indexed": false,
          "internalType": "bool",
          "name": "shouldUnwrap",
          "type": "bool"
        },
        {
          "indexed": false,
          "internalType": "uint256",
          "name": "executionFee",
          "type": "uint256"
        }
      ],
      "name": "CreateSwapOrder",
      "type": "event"
    },
    {
      "anonymous": false,
      "inputs": [
        {
          "indexed": true,
          "internalType": "address",
          "name": "account",
          "type": "address"
        },
        {
          "indexed": false,
          "internalType": "uint256",
          "name": "orderIndex",
          "type": "uint256"
        },
        {
          "indexed": false,
          "internalType": "address",
          "name": "collateralToken",
          "type": "address"
        },
        {
          "indexed": false,
          "internalType": "uint256",
          "name": "collateralDelta",
          "type": "uint256"
        },
        {
          "indexed": false,
          "internalType": "address",
          "name": "indexToken",
          "type": "address"
        },
        {
          "indexed": false,
          "internalType": "uint256",
          "name": "sizeDelta",
          "type": "uint256"
        },
        {
          "indexed": false,
          "internalType": "bool",
          "name": "isLong",
          "type": "bool"
        },
        {
          "indexed": false,
          "internalType": "uint256",
          "name": "triggerPrice",
          "type": "uint256"
        },
        {
          "indexed": false,
          "internalType": "bool",
          "name": "triggerAboveThreshold",
          "type": "bool"
        },
        {
          "indexed": false,
          "internalType": "uint256",
          "name": "executionFee",
          "type": "uint256"
        },
        {
          "indexed": false,
          "internalType": "uint256",
          "name": "executionPrice",
          "type": "uint256"
        }
      ],
      "name": "ExecuteDecreaseOrder",
      "type": "event"
    },
    {
      "anonymous": false,
      "inputs": [
        {
          "indexed": true,
          "internalType": "address",
          "name": "account",
          "type": "address"
        },
        {
          "indexed": false,
          "internalType": "uint256",
          "name": "orderIndex",
          "type": "uint256"
        },
        {
          "indexed": false,
          "internalType": "address",
          "name": "purchaseToken",
          "type": "address"
        },
        {
          "indexed": false,
          "internalType": "uint256",
          "name": "purchaseTokenAmount",
          "type": "uint256"
        },
        {
          "indexed": false,
          "internalType": "address",
          "name": "collateralToken",
          "type": "address"
        },
        {
          "indexed": false,
          "internalType": "address",
          "name": "indexToken",
          "type": "address"
        },
        {
          "indexed": false,
          "internalType": "uint256",
          "name": "sizeDelta",
          "type": "uint256"
        },
        {
          "indexed": false,
          "internalType": "bool",
          "name": "isLong",
          "type": "bool"
        },
        {
          "indexed": false,
          "internalType": "uint256",
          "name": "triggerPrice",
          "type": "uint256"
        },
        {
          "indexed": false,
          "internalType": "bool",
          "name": "triggerAboveThreshold",
          "type": "bool"
        },
        {
          "indexed": false,
          "internalType": "uint256",
          "name": "executionFee",
          "type": "uint256"
        },
        {
          "indexed": false,
          "internalType": "uint256",
          "name": "executionPrice",
          "type": "uint256"
        }
      ],
      "name": "ExecuteIncreaseOrder",
      "type": "event"
    },
    {
      "anonymous": false,
      "inputs": [
        {
          "indexed": true,
          "internalType": "address",
          "name": "account",
          "type": "address"
        },
        {
          "indexed": false,
          "internalType": "uint256",
          "name": "orderIndex",
          "type": "uint256"
        },
        {
          "indexed": false,
          "internalType": "address[]",
          "name": "path",
          "type": "address[]"
        },
        {
          "indexed": false,
          "internalType": "uint256",
          "name": "amountIn",
          "type": "uint256"
        },
        {
          "indexed": false,
          "internalType": "uint256",
          "name": "minOut",
          "type": "uint256"
        },
        {
          "indexed": false,
          "internalType": "uint256",
          "name": "amountOut",
          "type": "uint256"
        },
        {
          "indexed": false,
          "internalType": "uint256",
          "name": "triggerRatio",
          "type": "uint256"
        },
        {
          "indexed": false,
          "internalType": "bool",
          "name": "triggerAboveThreshold",
          "type": "bool"
        },
        {
          "indexed": false,
          "internalType": "bool",
          "name": "shouldUnwrap",
          "type": "bool"
        },
        {
          "indexed": false,
          "internalType": "uint256",
          "name": "executionFee",
          "type": "uint256"
        }
      ],
      "name": "ExecuteSwapOrder",
      "type": "event"
    },
    {
      "anonymous": false,
      "inputs": [
        {
          "indexed": false,
          "internalType": "address",
          "name": "router",
          "type": "address"
        },
        {
          "indexed": false,
          "internalType": "address",
          "name": "vault",
          "type": "address"
        },
        {
          "indexed": false,
          "internalType": "address",
          "name": "weth",
          "type": "address"
        },
        {
          "indexed": false,
          "internalType": "address",
          "name": "usda",
          "type": "address"
        },
        {
          "indexed": false,
          "internalType": "uint256",
          "name": "minExecutionFee",
          "type": "uint256"
        },
        {
          "indexed": false,
          "internalType": "uint256",
          "name": "minPurchaseTokenAmountUsd",
          "type": "uint256"
        }
      ],
      "name": "Initialize",
      "type": "event"
    },
    {
      "anonymous": false,
      "inputs": [
        {
          "indexed": true,
          "internalType": "address",
          "name": "account",
          "type": "address"
        },
        {
          "indexed": false,
          "internalType": "uint256",
          "name": "orderIndex",
          "type": "uint256"
        },
        {
          "indexed": false,
          "internalType": "address",
          "name": "collateralToken",
          "type": "address"
        },
        {
          "indexed": false,
          "internalType": "uint256",
          "name": "collateralDelta",
          "type": "uint256"
        },
        {
          "indexed": false,
          "internalType": "address",
          "name": "indexToken",
          "type": "address"
        },
        {
          "indexed": false,
          "internalType": "uint256",
          "name": "sizeDelta",
          "type": "uint256"
        },
        {
          "indexed": false,
          "internalType": "bool",
          "name": "isLong",
          "type": "bool"
        },
        {
          "indexed": false,
          "internalType": "uint256",
          "name": "triggerPrice",
          "type": "uint256"
        },
        {
          "indexed": false,
          "internalType": "bool",
          "name": "triggerAboveThreshold",
          "type": "bool"
        }
      ],
      "name": "UpdateDecreaseOrder",
      "type": "event"
    },
    {
      "anonymous": false,
      "inputs": [
        {
          "indexed": false,
          "internalType": "address",
          "name": "gov",
          "type": "address"
        }
      ],
      "name": "UpdateGov",
      "type": "event"
    },
    {
      "anonymous": false,
      "inputs": [
        {
          "indexed": true,
          "internalType": "address",
          "name": "account",
          "type": "address"
        },
        {
          "indexed": false,
          "internalType": "uint256",
          "name": "orderIndex",
          "type": "uint256"
        },
        {
          "indexed": false,
          "internalType": "address",
          "name": "collateralToken",
          "type": "address"
        },
        {
          "indexed": false,
          "internalType": "address",
          "name": "indexToken",
          "type": "address"
        },
        {
          "indexed": false,
          "internalType": "bool",
          "name": "isLong",
          "type": "bool"
        },
        {
          "indexed": false,
          "internalType": "uint256",
          "name": "sizeDelta",
          "type": "uint256"
        },
        {
          "indexed": false,
          "internalType": "uint256",
          "name": "triggerPrice",
          "type": "uint256"
        },
        {
          "indexed": false,
          "internalType": "bool",
          "name": "triggerAboveThreshold",
          "type": "bool"
        }
      ],
      "name": "UpdateIncreaseOrder",
      "type": "event"
    },
    {
      "anonymous": false,
      "inputs": [
        {
          "indexed": false,
          "internalType": "uint256",
          "name": "minExecutionFee",
          "type": "uint256"
        }
      ],
      "name": "UpdateMinExecutionFee",
      "type": "event"
    },
    {
      "anonymous": false,
      "inputs": [
        {
          "indexed": false,
          "internalType": "uint256",
          "name": "minPurchaseTokenAmountUsd",
          "type": "uint256"
        }
      ],
      "name": "UpdateMinPurchaseTokenAmountUsd",
      "type": "event"
    },
    {
      "anonymous": false,
      "inputs": [
        {
          "indexed": true,
          "internalType": "address",
          "name": "account",
          "type": "address"
        },
        {
          "indexed": false,
          "internalType": "uint256",
          "name": "ordexIndex",
          "type": "uint256"
        },
        {
          "indexed": false,
          "internalType": "address[]",
          "name": "path",
          "type": "address[]"
        },
        {
          "indexed": false,
          "internalType": "uint256",
          "name": "amountIn",
          "type": "uint256"
        },
        {
          "indexed": false,
          "internalType": "uint256",
          "name": "minOut",
          "type": "uint256"
        },
        {
          "indexed": false,
          "internalType": "uint256",
          "name": "triggerRatio",
          "type": "uint256"
        },
        {
          "indexed": false,
          "internalType": "bool",
          "name": "triggerAboveThreshold",
          "type": "bool"
        },
        {
          "indexed": false,
          "internalType": "bool",
          "name": "shouldUnwrap",
          "type": "bool"
        },
        {
          "indexed": false,
          "internalType": "uint256",
          "name": "executionFee",
          "type": "uint256"
        }
      ],
      "name": "UpdateSwapOrder",
      "type": "event"
    },
    {
      "inputs": [],
      "name": "PRICE_PRECISION",
      "outputs": [
        {
          "internalType": "uint256",
          "name": "",
          "type": "uint256"
        }
      ],
      "stateMutability": "view",
      "type": "function"
    },
    {
      "inputs": [],
      "name": "USDA_PRECISION",
      "outputs": [
        {
          "internalType": "uint256",
          "name": "",
          "type": "uint256"
        }
      ],
      "stateMutability": "view",
      "type": "function"
    },
    {
      "inputs": [
        {
          "internalType": "uint256",
          "name": "_orderIndex",
          "type": "uint256"
        }
      ],
      "name": "cancelDecreaseOrder",
      "outputs": [],
      "stateMutability": "nonpayable",
      "type": "function"
    },
    {
      "inputs": [
        {
          "internalType": "uint256",
          "name": "_orderIndex",
          "type": "uint256"
        }
      ],
      "name": "cancelIncreaseOrder",
      "outputs": [],
      "stateMutability": "nonpayable",
      "type": "function"
    },
    {
      "inputs": [
        {
          "internalType": "uint256[]",
          "name": "_swapOrderIndexes",
          "type": "uint256[]"
        },
        {
          "internalType": "uint256[]",
          "name": "_increaseOrderIndexes",
          "type": "uint256[]"
        },
        {
          "internalType": "uint256[]",
          "name": "_decreaseOrderIndexes",
          "type": "uint256[]"
        }
      ],
      "name": "cancelMultiple",
      "outputs": [],
      "stateMutability": "nonpayable",
      "type": "function"
    },
    {
      "inputs": [
        {
          "internalType": "uint256",
          "name": "_orderIndex",
          "type": "uint256"
        }
      ],
      "name": "cancelSwapOrder",
      "outputs": [],
      "stateMutability": "nonpayable",
      "type": "function"
    },
    {
      "inputs": [
        {
          "internalType": "address",
          "name": "_indexToken",
          "type": "address"
        },
        {
          "internalType": "uint256",
          "name": "_sizeDelta",
          "type": "uint256"
        },
        {
          "internalType": "address",
          "name": "_collateralToken",
          "type": "address"
        },
        {
          "internalType": "uint256",
          "name": "_collateralDelta",
          "type": "uint256"
        },
        {
          "internalType": "bool",
          "name": "_isLong",
          "type": "bool"
        },
        {
          "internalType": "uint256",
          "name": "_triggerPrice",
          "type": "uint256"
        },
        {
          "internalType": "bool",
          "name": "_triggerAboveThreshold",
          "type": "bool"
        }
      ],
      "name": "createDecreaseOrder",
      "outputs": [],
      "stateMutability": "payable",
      "type": "function"
    },
    {
      "inputs": [
        {
          "internalType": "address[]",
          "name": "_path",
          "type": "address[]"
        },
        {
          "internalType": "uint256",
          "name": "_amountIn",
          "type": "uint256"
        },
        {
          "internalType": "address",
          "name": "_indexToken",
          "type": "address"
        },
        {
          "internalType": "uint256",
          "name": "_minOut",
          "type": "uint256"
        },
        {
          "internalType": "uint256",
          "name": "_sizeDelta",
          "type": "uint256"
        },
        {
          "internalType": "address",
          "name": "_collateralToken",
          "type": "address"
        },
        {
          "internalType": "bool",
          "name": "_isLong",
          "type": "bool"
        },
        {
          "internalType": "uint256",
          "name": "_triggerPrice",
          "type": "uint256"
        },
        {
          "internalType": "bool",
          "name": "_triggerAboveThreshold",
          "type": "bool"
        },
        {
          "internalType": "uint256",
          "name": "_executionFee",
          "type": "uint256"
        },
        {
          "internalType": "bool",
          "name": "_shouldWrap",
          "type": "bool"
        }
      ],
      "name": "createIncreaseOrder",
      "outputs": [],
      "stateMutability": "payable",
      "type": "function"
    },
    {
      "inputs": [
        {
          "internalType": "address[]",
          "name": "_path",
          "type": "address[]"
        },
        {
          "internalType": "uint256",
          "name": "_amountIn",
          "type": "uint256"
        },
        {
          "internalType": "uint256",
          "name": "_minOut",
          "type": "uint256"
        },
        {
          "internalType": "uint256",
          "name": "_triggerRatio",
          "type": "uint256"
        },
        {
          "internalType": "bool",
          "name": "_triggerAboveThreshold",
          "type": "bool"
        },
        {
          "internalType": "uint256",
          "name": "_executionFee",
          "type": "uint256"
        },
        {
          "internalType": "bool",
          "name": "_shouldWrap",
          "type": "bool"
        },
        {
          "internalType": "bool",
          "name": "_shouldUnwrap",
          "type": "bool"
        }
      ],
      "name": "createSwapOrder",
      "outputs": [],
      "stateMutability": "payable",
      "type": "function"
    },
    {
      "inputs": [
        {
          "internalType": "address",
          "name": "",
          "type": "address"
        },
        {
          "internalType": "uint256",
          "name": "",
          "type": "uint256"
        }
      ],
      "name": "decreaseOrders",
      "outputs": [
        {
          "internalType": "address",
          "name": "account",
          "type": "address"
        },
        {
          "internalType": "address",
          "name": "collateralToken",
          "type": "address"
        },
        {
          "internalType": "uint256",
          "name": "collateralDelta",
          "type": "uint256"
        },
        {
          "internalType": "address",
          "name": "indexToken",
          "type": "address"
        },
        {
          "internalType": "uint256",
          "name": "sizeDelta",
          "type": "uint256"
        },
        {
          "internalType": "bool",
          "name": "isLong",
          "type": "bool"
        },
        {
          "internalType": "uint256",
          "name": "triggerPrice",
          "type": "uint256"
        },
        {
          "internalType": "bool",
          "name": "triggerAboveThreshold",
          "type": "bool"
        },
        {
          "internalType": "uint256",
          "name": "executionFee",
          "type": "uint256"
        }
      ],
      "stateMutability": "view",
      "type": "function"
    },
    {
      "inputs": [
        {
          "internalType": "address",
          "name": "",
          "type": "address"
        }
      ],
      "name": "decreaseOrdersIndex",
      "outputs": [
        {
          "internalType": "uint256",
          "name": "",
          "type": "uint256"
        }
      ],
      "stateMutability": "view",
      "type": "function"
    },
    {
      "inputs": [
        {
          "internalType": "address",
          "name": "_address",
          "type": "address"
        },
        {
          "internalType": "uint256",
          "name": "_orderIndex",
          "type": "uint256"
        },
        {
          "internalType": "address payable",
          "name": "_feeReceiver",
          "type": "address"
        }
      ],
      "name": "executeDecreaseOrder",
      "outputs": [],
      "stateMutability": "nonpayable",
      "type": "function"
    },
    {
      "inputs": [
        {
          "internalType": "address",
          "name": "_address",
          "type": "address"
        },
        {
          "internalType": "uint256",
          "name": "_orderIndex",
          "type": "uint256"
        },
        {
          "internalType": "address payable",
          "name": "_feeReceiver",
          "type": "address"
        }
      ],
      "name": "executeIncreaseOrder",
      "outputs": [],
      "stateMutability": "nonpayable",
      "type": "function"
    },
    {
      "inputs": [
        {
          "internalType": "address",
          "name": "_account",
          "type": "address"
        },
        {
          "internalType": "uint256",
          "name": "_orderIndex",
          "type": "uint256"
        },
        {
          "internalType": "address payable",
          "name": "_feeReceiver",
          "type": "address"
        }
      ],
      "name": "executeSwapOrder",
      "outputs": [],
      "stateMutability": "nonpayable",
      "type": "function"
    },
    {
      "inputs": [
        {
          "internalType": "address",
          "name": "_account",
          "type": "address"
        },
        {
          "internalType": "uint256",
          "name": "_orderIndex",
          "type": "uint256"
        }
      ],
      "name": "getDecreaseOrder",
      "outputs": [
        {
          "internalType": "address",
          "name": "collateralToken",
          "type": "address"
        },
        {
          "internalType": "uint256",
          "name": "collateralDelta",
          "type": "uint256"
        },
        {
          "internalType": "address",
          "name": "indexToken",
          "type": "address"
        },
        {
          "internalType": "uint256",
          "name": "sizeDelta",
          "type": "uint256"
        },
        {
          "internalType": "bool",
          "name": "isLong",
          "type": "bool"
        },
        {
          "internalType": "uint256",
          "name": "triggerPrice",
          "type": "uint256"
        },
        {
          "internalType": "bool",
          "name": "triggerAboveThreshold",
          "type": "bool"
        },
        {
          "internalType": "uint256",
          "name": "executionFee",
          "type": "uint256"
        }
      ],
      "stateMutability": "view",
      "type": "function"
    },
    {
      "inputs": [
        {
          "internalType": "address",
          "name": "_account",
          "type": "address"
        },
        {
          "internalType": "uint256",
          "name": "_orderIndex",
          "type": "uint256"
        }
      ],
      "name": "getIncreaseOrder",
      "outputs": [
        {
          "internalType": "address",
          "name": "purchaseToken",
          "type": "address"
        },
        {
          "internalType": "uint256",
          "name": "purchaseTokenAmount",
          "type": "uint256"
        },
        {
          "internalType": "address",
          "name": "collateralToken",
          "type": "address"
        },
        {
          "internalType": "address",
          "name": "indexToken",
          "type": "address"
        },
        {
          "internalType": "uint256",
          "name": "sizeDelta",
          "type": "uint256"
        },
        {
          "internalType": "bool",
          "name": "isLong",
          "type": "bool"
        },
        {
          "internalType": "uint256",
          "name": "triggerPrice",
          "type": "uint256"
        },
        {
          "internalType": "bool",
          "name": "triggerAboveThreshold",
          "type": "bool"
        },
        {
          "internalType": "uint256",
          "name": "executionFee",
          "type": "uint256"
        }
      ],
      "stateMutability": "view",
      "type": "function"
    },
    {
      "inputs": [
        {
          "internalType": "address",
          "name": "_account",
          "type": "address"
        },
        {
          "internalType": "uint256",
          "name": "_orderIndex",
          "type": "uint256"
        }
      ],
      "name": "getSwapOrder",
      "outputs": [
        {
          "internalType": "address",
          "name": "path0",
          "type": "address"
        },
        {
          "internalType": "address",
          "name": "path1",
          "type": "address"
        },
        {
          "internalType": "address",
          "name": "path2",
          "type": "address"
        },
        {
          "internalType": "uint256",
          "name": "amountIn",
          "type": "uint256"
        },
        {
          "internalType": "uint256",
          "name": "minOut",
          "type": "uint256"
        },
        {
          "internalType": "uint256",
          "name": "triggerRatio",
          "type": "uint256"
        },
        {
          "internalType": "bool",
          "name": "triggerAboveThreshold",
          "type": "bool"
        },
        {
          "internalType": "bool",
          "name": "shouldUnwrap",
          "type": "bool"
        },
        {
          "internalType": "uint256",
          "name": "executionFee",
          "type": "uint256"
        }
      ],
      "stateMutability": "view",
      "type": "function"
    },
    {
      "inputs": [
        {
          "internalType": "address",
          "name": "_otherToken",
          "type": "address"
        }
      ],
      "name": "getUsdaMinPrice",
      "outputs": [
        {
          "internalType": "uint256",
          "name": "",
          "type": "uint256"
        }
      ],
      "stateMutability": "view",
      "type": "function"
    },
    {
      "inputs": [],
      "name": "gov",
      "outputs": [
        {
          "internalType": "address",
          "name": "",
          "type": "address"
        }
      ],
      "stateMutability": "view",
      "type": "function"
    },
    {
      "inputs": [
        {
          "internalType": "address",
          "name": "",
          "type": "address"
        },
        {
          "internalType": "uint256",
          "name": "",
          "type": "uint256"
        }
      ],
      "name": "increaseOrders",
      "outputs": [
        {
          "internalType": "address",
          "name": "account",
          "type": "address"
        },
        {
          "internalType": "address",
          "name": "purchaseToken",
          "type": "address"
        },
        {
          "internalType": "uint256",
          "name": "purchaseTokenAmount",
          "type": "uint256"
        },
        {
          "internalType": "address",
          "name": "collateralToken",
          "type": "address"
        },
        {
          "internalType": "address",
          "name": "indexToken",
          "type": "address"
        },
        {
          "internalType": "uint256",
          "name": "sizeDelta",
          "type": "uint256"
        },
        {
          "internalType": "bool",
          "name": "isLong",
          "type": "bool"
        },
        {
          "internalType": "uint256",
          "name": "triggerPrice",
          "type": "uint256"
        },
        {
          "internalType": "bool",
          "name": "triggerAboveThreshold",
          "type": "bool"
        },
        {
          "internalType": "uint256",
          "name": "executionFee",
          "type": "uint256"
        }
      ],
      "stateMutability": "view",
      "type": "function"
    },
    {
      "inputs": [
        {
          "internalType": "address",
          "name": "",
          "type": "address"
        }
      ],
      "name": "increaseOrdersIndex",
      "outputs": [
        {
          "internalType": "uint256",
          "name": "",
          "type": "uint256"
        }
      ],
      "stateMutability": "view",
      "type": "function"
    },
    {
      "inputs": [
        {
          "internalType": "address",
          "name": "_router",
          "type": "address"
        },
        {
          "internalType": "address",
          "name": "_vault",
          "type": "address"
        },
        {
          "internalType": "address",
          "name": "_weth",
          "type": "address"
        },
        {
          "internalType": "address",
          "name": "_usda",
          "type": "address"
        },
        {
          "internalType": "uint256",
          "name": "_minExecutionFee",
          "type": "uint256"
        },
        {
          "internalType": "uint256",
          "name": "_minPurchaseTokenAmountUsd",
          "type": "uint256"
        }
      ],
      "name": "initialize",
      "outputs": [],
      "stateMutability": "nonpayable",
      "type": "function"
    },
    {
      "inputs": [],
      "name": "isInitialized",
      "outputs": [
        {
          "internalType": "bool",
          "name": "",
          "type": "bool"
        }
      ],
      "stateMutability": "view",
      "type": "function"
    },
    {
      "inputs": [],
      "name": "minExecutionFee",
      "outputs": [
        {
          "internalType": "uint256",
          "name": "",
          "type": "uint256"
        }
      ],
      "stateMutability": "view",
      "type": "function"
    },
    {
      "inputs": [],
      "name": "minPurchaseTokenAmountUsd",
      "outputs": [
        {
          "internalType": "uint256",
          "name": "",
          "type": "uint256"
        }
      ],
      "stateMutability": "view",
      "type": "function"
    },
    {
      "inputs": [],
      "name": "router",
      "outputs": [
        {
          "internalType": "address",
          "name": "",
          "type": "address"
        }
      ],
      "stateMutability": "view",
      "type": "function"
    },
    {
      "inputs": [
        {
          "internalType": "address",
          "name": "_gov",
          "type": "address"
        }
      ],
      "name": "setGov",
      "outputs": [],
      "stateMutability": "nonpayable",
      "type": "function"
    },
    {
      "inputs": [
        {
          "internalType": "uint256",
          "name": "_minExecutionFee",
          "type": "uint256"
        }
      ],
      "name": "setMinExecutionFee",
      "outputs": [],
      "stateMutability": "nonpayable",
      "type": "function"
    },
    {
      "inputs": [
        {
          "internalType": "uint256",
          "name": "_minPurchaseTokenAmountUsd",
          "type": "uint256"
        }
      ],
      "name": "setMinPurchaseTokenAmountUsd",
      "outputs": [],
      "stateMutability": "nonpayable",
      "type": "function"
    },
    {
      "inputs": [
        {
          "internalType": "address",
          "name": "",
          "type": "address"
        },
        {
          "internalType": "uint256",
          "name": "",
          "type": "uint256"
        }
      ],
      "name": "swapOrders",
      "outputs": [
        {
          "internalType": "address",
          "name": "account",
          "type": "address"
        },
        {
          "internalType": "uint256",
          "name": "amountIn",
          "type": "uint256"
        },
        {
          "internalType": "uint256",
          "name": "minOut",
          "type": "uint256"
        },
        {
          "internalType": "uint256",
          "name": "triggerRatio",
          "type": "uint256"
        },
        {
          "internalType": "bool",
          "name": "triggerAboveThreshold",
          "type": "bool"
        },
        {
          "internalType": "bool",
          "name": "shouldUnwrap",
          "type": "bool"
        },
        {
          "internalType": "uint256",
          "name": "executionFee",
          "type": "uint256"
        }
      ],
      "stateMutability": "view",
      "type": "function"
    },
    {
      "inputs": [
        {
          "internalType": "address",
          "name": "",
          "type": "address"
        }
      ],
      "name": "swapOrdersIndex",
      "outputs": [
        {
          "internalType": "uint256",
          "name": "",
          "type": "uint256"
        }
      ],
      "stateMutability": "view",
      "type": "function"
    },
    {
      "inputs": [
        {
          "internalType": "uint256",
          "name": "_orderIndex",
          "type": "uint256"
        },
        {
          "internalType": "uint256",
          "name": "_collateralDelta",
          "type": "uint256"
        },
        {
          "internalType": "uint256",
          "name": "_sizeDelta",
          "type": "uint256"
        },
        {
          "internalType": "uint256",
          "name": "_triggerPrice",
          "type": "uint256"
        },
        {
          "internalType": "bool",
          "name": "_triggerAboveThreshold",
          "type": "bool"
        }
      ],
      "name": "updateDecreaseOrder",
      "outputs": [],
      "stateMutability": "nonpayable",
      "type": "function"
    },
    {
      "inputs": [
        {
          "internalType": "uint256",
          "name": "_orderIndex",
          "type": "uint256"
        },
        {
          "internalType": "uint256",
          "name": "_sizeDelta",
          "type": "uint256"
        },
        {
          "internalType": "uint256",
          "name": "_triggerPrice",
          "type": "uint256"
        },
        {
          "internalType": "bool",
          "name": "_triggerAboveThreshold",
          "type": "bool"
        }
      ],
      "name": "updateIncreaseOrder",
      "outputs": [],
      "stateMutability": "nonpayable",
      "type": "function"
    },
    {
      "inputs": [
        {
          "internalType": "uint256",
          "name": "_orderIndex",
          "type": "uint256"
        },
        {
          "internalType": "uint256",
          "name": "_minOut",
          "type": "uint256"
        },
        {
          "internalType": "uint256",
          "name": "_triggerRatio",
          "type": "uint256"
        },
        {
          "internalType": "bool",
          "name": "_triggerAboveThreshold",
          "type": "bool"
        }
      ],
      "name": "updateSwapOrder",
      "outputs": [],
      "stateMutability": "nonpayable",
      "type": "function"
    },
    {
      "inputs": [],
      "name": "usda",
      "outputs": [
        {
          "internalType": "address",
          "name": "",
          "type": "address"
        }
      ],
      "stateMutability": "view",
      "type": "function"
    },
    {
      "inputs": [
        {
          "internalType": "bool",
          "name": "_triggerAboveThreshold",
          "type": "bool"
        },
        {
          "internalType": "uint256",
          "name": "_triggerPrice",
          "type": "uint256"
        },
        {
          "internalType": "address",
          "name": "_indexToken",
          "type": "address"
        },
        {
          "internalType": "bool",
          "name": "_maximizePrice",
          "type": "bool"
        },
        {
          "internalType": "uint256",
          "name": "_sizeDelta",
          "type": "uint256"
        },
        {
          "internalType": "bool",
          "name": "_raise",
          "type": "bool"
        }
      ],
      "name": "validatePositionOrderPrice",
      "outputs": [
        {
          "internalType": "uint256",
          "name": "",
          "type": "uint256"
        },
        {
          "internalType": "bool",
          "name": "",
          "type": "bool"
        }
      ],
      "stateMutability": "view",
      "type": "function"
    },
    {
      "inputs": [
        {
          "internalType": "address[]",
          "name": "_path",
          "type": "address[]"
        },
        {
          "internalType": "uint256",
          "name": "_triggerRatio",
          "type": "uint256"
        }
      ],
      "name": "validateSwapOrderPriceWithTriggerAboveThreshold",
      "outputs": [
        {
          "internalType": "bool",
          "name": "",
          "type": "bool"
        }
      ],
      "stateMutability": "view",
      "type": "function"
    },
    {
      "inputs": [],
      "name": "vault",
      "outputs": [
        {
          "internalType": "address",
          "name": "",
          "type": "address"
        }
      ],
      "stateMutability": "view",
      "type": "function"
    },
    {
      "inputs": [],
      "name": "weth",
      "outputs": [
        {
          "internalType": "address",
          "name": "",
          "type": "address"
        }
      ],
      "stateMutability": "view",
      "type": "function"
    },
    {
      "stateMutability": "payable",
      "type": "receive"
    }
  ],
  "bytecode": "0x6080604052600e805460ff1916905534801561001a57600080fd5b506001600055600780546001600160a01b03191633179055615361806100416000396000f3fe6080604052600436106101c35760003560e01c8062cf066b1461022a578063026032ee1461026f57806307c7edc3146102fa5780630d5cc9381461033d57806311d9444a1461036757806312d43a51146103aa57806313a87d51146103db578063269ae6c2146103f05780632b7d6290146104bb578063392e53cd1461055b5780633fc8cef31461058457806347e0bbd0146105995780634a21ee50146105c357806363ae21031461063357806379221fa214610648578063807c5600146106c75780638de10c2e1461087957806395082d251461088e5780639983ee1b146108a35780639e71b0f0146108e1578063a397ea541461090b578063aec224551461094f578063b142a4b014610982578063c16cde8a14610a6c578063c4a1821b14610abc578063c86b0f7d14610b6c578063cfad57a214610baa578063d0d40cd614610bdd578063d38ab51914610c70578063d3bab1d114610cb3578063d566d0ca14610d47578063d7c41c7914610d7a578063e2b19ff014610dd3578063f2d2e01b14610de8578063f882ac0714610e7c578063f887ea4014610ea6578063fbfa77cf14610ebb578063fc2cee6214610ed0578063fed4466014610efa57610225565b36610225576008546001600160a01b03163314610223576040805162461bcd60e51b815260206004820152601960248201527827b93232b92137b7b59d1034b73b30b634b21039b2b73232b960391b604482015290519081900360640190fd5b005b600080fd5b34801561023657600080fd5b5061025d6004803603602081101561024d57600080fd5b50356001600160a01b0316610f2d565b60408051918252519081900360200190f35b34801561027b57600080fd5b506102a86004803603604081101561029257600080fd5b506001600160a01b038135169060200135610f3f565b604080516001600160a01b03998a168152602081019890985295909716868601526060860193909352901515608085015260a0840152151560c083015260e08201929092529051908190036101000190f35b34801561030657600080fd5b506102236004803603606081101561031d57600080fd5b506001600160a01b03813581169160208101359160409091013516611012565b34801561034957600080fd5b506102236004803603602081101561036057600080fd5b503561141d565b34801561037357600080fd5b506102236004803603606081101561038a57600080fd5b506001600160a01b038135811691602081013591604090910135166114ae565b3480156103b657600080fd5b506103bf611862565b604080516001600160a01b039092168252519081900360200190f35b3480156103e757600080fd5b5061025d611871565b610223600480360361010081101561040757600080fd5b810190602081018135600160201b81111561042157600080fd5b82018360208201111561043357600080fd5b803590602001918460208302840111600160201b8311171561045457600080fd5b91908080602002602001604051908101604052809392919081815260200183836020028082843760009201919091525092955050823593505050602081013590604081013590606081013515159060808101359060a081013515159060c00135151561187d565b3480156104c757600080fd5b506104f4600480360360408110156104de57600080fd5b506001600160a01b038135169060200135611c06565b604080516001600160a01b039b8c168152998b1660208b015289810198909852958916606089015293909716608087015260a0860191909152151560c085015260e08401949094529215156101008301526101208201929092529051908190036101400190f35b34801561056757600080fd5b50610570611c78565b604080519115158252519081900360200190f35b34801561059057600080fd5b506103bf611c81565b3480156105a557600080fd5b50610223600480360360208110156105bc57600080fd5b5035611c90565b3480156105cf57600080fd5b5061061a600480360360c08110156105e657600080fd5b5080351515906020810135906001600160a01b0360408201351690606081013515159060808101359060a001351515611f9a565b6040805192835290151560208301528051918290030190f35b34801561063f57600080fd5b5061025d612090565b34801561065457600080fd5b506106816004803603604081101561066b57600080fd5b506001600160a01b038135169060200135612096565b604080516001600160a01b039098168852602088019690965286860194909452606086019290925215156080850152151560a084015260c0830152519081900360e00190f35b3480156106d357600080fd5b50610223600480360360608110156106ea57600080fd5b810190602081018135600160201b81111561070457600080fd5b82018360208201111561071657600080fd5b803590602001918460208302840111600160201b8311171561073757600080fd5b9190808060200260200160405190810160405280939291908181526020018383602002808284376000920191909152509295949360208101935035915050600160201b81111561078657600080fd5b82018360208201111561079857600080fd5b803590602001918460208302840111600160201b831117156107b957600080fd5b9190808060200260200160405190810160405280939291908181526020018383602002808284376000920191909152509295949360208101935035915050600160201b81111561080857600080fd5b82018360208201111561081a57600080fd5b803590602001918460208302840111600160201b8311171561083b57600080fd5b9190808060200260200160405190810160405280939291908181526020018383602002808284376000920191909152509295506120ea945050505050565b34801561088557600080fd5b5061025d612182565b34801561089a57600080fd5b5061025d612188565b3480156108af57600080fd5b50610223600480360360808110156108c657600080fd5b50803590602081013590604081013590606001351515612198565b3480156108ed57600080fd5b506102236004803603602081101561090457600080fd5b50356122f0565b34801561091757600080fd5b50610223600480360360a081101561092e57600080fd5b50803590602081013590604081013590606081013590608001351515612562565b34801561095b57600080fd5b5061025d6004803603602081101561097257600080fd5b50356001600160a01b03166126ca565b610223600480360361016081101561099957600080fd5b810190602081018135600160201b8111156109b357600080fd5b8201836020820111156109c557600080fd5b803590602001918460208302840111600160201b831117156109e657600080fd5b9190808060200260200160405190810160405280939291908181526020018383602002808284376000920191909152509295505082359350506001600160a01b036020830135811692604081013592506060810135916080820135169060a081013515159060c08101359060e081013515159061010081013590610120013515156126dc565b610223600480360360e0811015610a8257600080fd5b506001600160a01b03813581169160208101359160408201351690606081013590608081013515159060a08101359060c001351515612ade565b348015610ac857600080fd5b5061057060048036036040811015610adf57600080fd5b810190602081018135600160201b811115610af957600080fd5b820183602082011115610b0b57600080fd5b803590602001918460208302840111600160201b83111715610b2c57600080fd5b9190808060200260200160405190810160405280939291908181526020018383602002808284376000920191909152509295505091359250612b8f915050565b348015610b7857600080fd5b5061022360048036036080811015610b8f57600080fd5b50803590602081013590604081013590606001351515612dac565b348015610bb657600080fd5b5061022360048036036020811015610bcd57600080fd5b50356001600160a01b0316612f75565b348015610be957600080fd5b50610c1660048036036040811015610c0057600080fd5b506001600160a01b03813516906020013561301f565b604080516001600160a01b039a8b168152988a1660208a015296909816878701526060870194909452608086019290925260a0850152151560c0840152151560e08301526101008201929092529051908190036101200190f35b348015610c7c57600080fd5b5061022360048036036060811015610c9357600080fd5b506001600160a01b038135811691602081013591604090910135166131dc565b348015610cbf57600080fd5b50610cec60048036036040811015610cd657600080fd5b506001600160a01b03813516906020013561364a565b604080516001600160a01b039a8b1681526020810199909952968916888801529490971660608701526080860192909252151560a085015260c084015292151560e08301526101008201929092529051908190036101200190f35b348015610d5357600080fd5b5061025d60048036036020811015610d6a57600080fd5b50356001600160a01b0316613730565b348015610d8657600080fd5b50610223600480360360c0811015610d9d57600080fd5b506001600160a01b0381358116916020810135821691604082013581169160608101359091169060808101359060a00135613742565b348015610ddf57600080fd5b506103bf6138b1565b348015610df457600080fd5b50610e2160048036036040811015610e0b57600080fd5b506001600160a01b0381351690602001356138c0565b604080516001600160a01b039a8b168152988a1660208a0152888101979097529490971660608701526080860192909252151560a085015260c084015292151560e08301526101008201929092529051908190036101200190f35b348015610e8857600080fd5b5061022360048036036020811015610e9f57600080fd5b503561392a565b348015610eb257600080fd5b506103bf613c67565b348015610ec757600080fd5b506103bf613c76565b348015610edc57600080fd5b5061022360048036036020811015610ef357600080fd5b5035613c85565b348015610f0657600080fd5b5061025d60048036036020811015610f1d57600080fd5b50356001600160a01b0316613d16565b60066020526000908152604090205481565b600080600080600080600080610f53614f6d565b505050506001600160a01b03968716600090815260036020818152604080842099845298815291889020885161012081018a5281548b16815260018201548b1693810184905260028201549981018a9052918101549099166060820181905260048a01546080830181905260058b015460ff908116151560a0850181905260068d015460c0860181905260078e0154909216151560e086018190526008909d0154610100909501859052949c9a9b929a91995093975092955093509150565b60026000541415611058576040805162461bcd60e51b815260206004820152601f602482015260008051602061513a833981519152604482015290519081900360640190fd5b6002600055611065614fb9565b6001600160a01b038085166000908152600560209081526040808320878452825291829020825161010081018452815490941684526001810180548451818502810185019095528085529193858401939092908301828280156110f157602002820191906000526020600020905b81546001600160a01b031681526001909101906020018083116110d3575b5050509183525050600282015460208201526003820154604082015260048201546060820152600582015460ff8082161515608084015261010090910416151560a082015260069091015460c09091015280519091506001600160a01b031661118f576040805162461bcd60e51b815260206004820152601d602482015260008051602061511a833981519152604482015290519081900360640190fd5b8060a00151156111e6576111ab81602001518260800151612b8f565b6111e65760405162461bcd60e51b815260040180806020018281038252602681526020018061528e6026913960400191505060405180910390fd5b6001600160a01b0384166000908152600560209081526040808320868452909152812080546001600160a01b031916815590611225600183018261500b565b50600060028201819055600382018190556004820181905560058201805461ffff191690556006909101819055600b54604083015160208401518051611298946001600160a01b03909416939061127857fe5b60200260200101516001600160a01b0316613eba9092919063ffffffff16565b600854602082015180516000926001600160a01b0316919060001981019081106112be57fe5b60200260200101516001600160a01b03161480156112dd57508160c001515b1561130a576112f58260200151836060015130613f11565b9050611305818360000151614040565b611324565b611321826020015183606001518460000151613f11565b90505b6113328260e0015184614040565b846001600160a01b03167f7e1fe496989eea92b738a562dbf9c0ae6aa6fcf3f1ef09e95ee4f7603721706b858460200151856040015186606001518688608001518960a001518a60c001518b60e00151604051808a8152602001806020018981526020018881526020018781526020018681526020018515158152602001841515815260200183815260200182810382528a818151815260200191508051906020019060200280838360005b838110156113f65781810151838201526020016113de565b505050509050019a505050505050505050505060405180910390a250506001600055505050565b6007546001600160a01b03163314611473576040805162461bcd60e51b815260206004820152601460248201527327b93232b92137b7b59d103337b93134b23232b760611b604482015290519081900360640190fd5b600d8190556040805182815290517fe46d9daf6d25f7615efa1d0183b90ac6759d85014b598e409aadf0fd918d59a69181900360200190a150565b600260005414156114f4576040805162461bcd60e51b815260206004820152601f602482015260008051602061513a833981519152604482015290519081900360640190fd5b6002600055611501614f6d565b506001600160a01b03808416600090815260036020818152604080842087855282529283902083516101208101855281548616808252600183015487169382019390935260028201549481019490945291820154909316606083015260048101546080830152600581015460ff908116151560a0840152600682015460c0840152600782015416151560e083015260080154610100820152906115d9576040805162461bcd60e51b815260206004820152601d602482015260008051602061511a833981519152604482015290519081900360640190fd5b60006115ff8260e001518360c0015184606001518560a001511586608001516001611f9a565b506001600160a01b0380871660009081526003602081815260408084208a8552825280842080546001600160a01b0319908116825560018201805482169055600282018690559381018054909416909355600480840185905560058401805460ff199081169091556006850186905560078501805490911690556008909301849055600a5488518984015160608b01518b85015160808d015160a08e01518751632662166b60e01b8152958c1699860199909952928a16602485015290891660448401526064830152608482015293151560a48501523060c4850152905195965092949290931692632662166b9260e48084019382900301818787803b15801561170857600080fd5b505af115801561171c573d6000803e3d6000fd5b505050506040513d602081101561173257600080fd5b505160085460208501519192506001600160a01b039182169116141561176557611760818460000151614040565b611782565b82516020840151611782916001600160a01b039091169083613eba565b61179183610100015185614040565b82600001516001600160a01b03167f9a382661d6573da86db000471303be6f0b2b1bb66089b08e3c16a85d7b6e94f88685602001518660400151876060015188608001518960a001518a60c001518b60e001518c61010001518c604051808b81526020018a6001600160a01b03168152602001898152602001886001600160a01b03168152602001878152602001861515815260200185815260200184151581526020018381526020018281526020019a505050505050505050505060405180910390a25050600160005550505050565b6007546001600160a01b031681565b670de0b6b3a764000081565b600260005414156118c3576040805162461bcd60e51b815260206004820152601f602482015260008051602061513a833981519152604482015290519081900360640190fd5b60026000819055885114806118d9575087516003145b611918576040805162461bcd60e51b815260206004820152601f60248201526000805160206152b4833981519152604482015290519081900360640190fd5b8760018951038151811061192857fe5b60200260200101516001600160a01b03168860008151811061194657fe5b60200260200101516001600160a01b031614156119a5576040805162461bcd60e51b815260206004820152601860248201527709ee4c8cae484deded67440d2dcecc2d8d2c840bee0c2e8d60431b604482015290519081900360640190fd5b600087116119f9576040805162461bcd60e51b815260206004820152601c60248201527b27b93232b92137b7b59d1034b73b30b634b2102fb0b6b7bab73a24b760211b604482015290519081900360640190fd5b600c54831015611a3a5760405162461bcd60e51b81526004018080602001828103825260258152602001806152226025913960400191505060405180910390fd5b611a426140bd565b8115611afd5760085488516001600160a01b03909116908990600090611a6457fe5b60200260200101516001600160a01b031614611ab15760405162461bcd60e51b81526004018080602001828103825260258152602001806151fd6025913960400191505060405180910390fd5b611abb838861412f565b3414611af85760405162461bcd60e51b81526004018080602001828103825260268152602001806152686026913960400191505060405180910390fd5b611be7565b823414611b3b5760405162461bcd60e51b815260040180806020018281038252602e8152602001806152fe602e913960400191505060405180910390fd5b600a5488516001600160a01b0390911690631b827878908a90600090611b5d57fe5b602002602001015133308b6040518563ffffffff1660e01b815260040180856001600160a01b03168152602001846001600160a01b03168152602001836001600160a01b03168152602001828152602001945050505050600060405180830381600087803b158015611bce57600080fd5b505af1158015611be2573d6000803e3d6000fd5b505050505b611bf7338989898989878a614187565b50506001600055505050505050565b6001602081815260009384526040808520909152918352912080549181015460028201546003830154600484015460058501546006860154600787015460088801546009909801546001600160a01b03998a1699978816989697958616969490951694929360ff92831693919216908a565b600e5460ff1681565b6008546001600160a01b031681565b60026000541415611cd6576040805162461bcd60e51b815260206004820152601f602482015260008051602061513a833981519152604482015290519081900360640190fd5b6002600055611ce361502c565b5033600090815260016020818152604080842085855282529283902083516101408101855281546001600160a01b039081168083529483015481169382019390935260028201549481019490945260038101548216606085015260048101549091166080840152600581015460a0840152600681015460ff908116151560c0850152600782015460e0850152600882015416151561010084015260090154610120830152611dc6576040805162461bcd60e51b815260206004820152601d602482015260008051602061511a833981519152604482015290519081900360640190fd5b3360009081526001602081815260408084208685528252832080546001600160a01b0319908116825592810180548416905560028101849055600381018054841690556004810180549093169092556005820183905560068201805460ff19908116909155600783018490556008808401805490921690915560099092019290925554908201516001600160a01b0390811691161415611e8a57611e85611e7f826040015183610120015161412f90919063ffffffff16565b33614040565b611ebf565b611eb033826040015183602001516001600160a01b0316613eba9092919063ffffffff16565b611ebf81610120015133614040565b80600001516001600160a01b03167fd500f34e0ec655b7614ae42e1d9c666d5e4dde909a1297829f8c5ecf00805d328383602001518460400151856060015186608001518760a001518860c001518960e001518a61010001518b6101200151604051808b81526020018a6001600160a01b03168152602001898152602001886001600160a01b03168152602001876001600160a01b03168152602001868152602001851515815260200184815260200183151581526020018281526020019a505050505050505050505060405180910390a250506001600055565b600b546040805163c559a4d760e01b81526001600160a01b03878116600483015260248201869052861515604483015291516000938493849391169163c559a4d791606480820192602092909190829003018186803b158015611ffc57600080fd5b505afa158015612010573d6000803e3d6000fd5b505050506040513d602081101561202657600080fd5b505190506000896120395788821061203d565b8882115b9050841561208157806120815760405162461bcd60e51b815260040180806020018281038252602681526020018061528e6026913960400191505060405180910390fd5b90999098509650505050505050565b600c5481565b600560208181526000938452604080852090915291835291208054600282015460038301546004840154948401546006909401546001600160a01b03909316949193909260ff808316926101009004169087565b60005b835181101561211a5761211284828151811061210557fe5b602002602001015161392a565b6001016120ed565b5060005b825181101561214b5761214383828151811061213657fe5b6020026020010151611c90565b60010161211e565b5060005b815181101561217c5761217482828151811061216757fe5b60200260200101516122f0565b60010161214f565b50505050565b600d5481565b68327cb2734119d3b7a9601e1b81565b600260005414156121de576040805162461bcd60e51b815260206004820152601f602482015260008051602061513a833981519152604482015290519081900360640190fd5b60026000908155338152600160209081526040808320878452909152902080546001600160a01b0316612246576040805162461bcd60e51b815260206004820152601d602482015260008051602061511a833981519152604482015290519081900360640190fd5b6007810183905560088101805483151560ff19909116811790915560058201859055600382015460048301546006840154604080518a81526001600160a01b039485166020820152929093168284015260ff16151560608201526080810187905260a0810186905260c08101929092525133917f0a0360dd5c354235bbf8d386ba3b24ef8134088e0785677de1504df219d9149a919081900360e00190a250506001600055505050565b60026000541415612336576040805162461bcd60e51b815260206004820152601f602482015260008051602061513a833981519152604482015290519081900360640190fd5b6002600055612343614f6d565b5033600090815260036020818152604080842085855282529283902083516101208101855281546001600160a01b03908116808352600184015482169483019490945260028301549582019590955292810154909316606083015260048301546080830152600583015460ff908116151560a0840152600684015460c0840152600784015416151560e08301526008909201546101008201529061241c576040805162461bcd60e51b815260206004820152601d602482015260008051602061511a833981519152604482015290519081900360640190fd5b336000818152600360208181526040808420878552909152822080546001600160a01b03199081168255600182018054821690556002820184905591810180549092169091556004810182905560058101805460ff199081169091556006820183905560078201805490911690556008015561010082015161249d91614040565b80600001516001600160a01b03167f1154174c82984656b028c8021671988f60a346497e56fe02554761184f82a0758383602001518460400151856060015186608001518760a001518860c001518960e001518a6101000151604051808a8152602001896001600160a01b03168152602001888152602001876001600160a01b0316815260200186815260200185151581526020018481526020018315158152602001828152602001995050505050505050505060405180910390a250506001600055565b600260005414156125a8576040805162461bcd60e51b815260206004820152601f602482015260008051602061513a833981519152604482015290519081900360640190fd5b60026000908155338152600360209081526040808320888452909152902080546001600160a01b0316612610576040805162461bcd60e51b815260206004820152601d602482015260008051602061511a833981519152604482015290519081900360640190fd5b6006810183905560078101805483151560ff1990911681179091556004820185905560028201869055600182015460038301546005840154604080518b81526001600160a01b0394851660208201528082018b90529290931660608301526080820188905260ff16151560a082015260c0810186905260e08101929092525133917f75781255bc71c83f89f29e5a2599f2c174a562d2cd8f2e818a47f132e728049891908190036101000190a25050600160005550505050565b60026020526000908152604090205481565b60026000541415612722576040805162461bcd60e51b815260206004820152601f602482015260008051602061513a833981519152604482015290519081900360640190fd5b600260005561272f6140bd565b600c548210156127705760405162461bcd60e51b81526004018080602001828103825260258152602001806152226025913960400191505060405180910390fd5b801561282b576008548b516001600160a01b03909116908c9060009061279257fe5b60200260200101516001600160a01b0316146127df5760405162461bcd60e51b81526004018080602001828103825260258152602001806151fd6025913960400191505060405180910390fd5b6127e9828b61412f565b34146128265760405162461bcd60e51b81526004018080602001828103825260268152602001806152686026913960400191505060405180910390fd5b612915565b8134146128695760405162461bcd60e51b815260040180806020018281038252602e8152602001806152fe602e913960400191505060405180910390fd5b600a548b516001600160a01b0390911690631b827878908d9060009061288b57fe5b602002602001015133308e6040518563ffffffff1660e01b815260040180856001600160a01b03168152602001846001600160a01b03168152602001836001600160a01b03168152602001828152602001945050505050600060405180830381600087803b1580156128fc57600080fd5b505af1158015612910573d6000803e3d6000fd5b505050505b60008b60018d51038151811061292757fe5b60200260200101519050600060018d5111156129ec57816001600160a01b03168d60008151811061295457fe5b60200260200101516001600160a01b031614156129b3576040805162461bcd60e51b815260206004820152601860248201527709ee4c8cae484deded67440d2dcecc2d8d2c840bee0c2e8d60431b604482015290519081900360640190fd5b6129da600b60009054906101000a90046001600160a01b03168d8f60008151811061127857fe5b6129e58d8b30613f11565b90506129ef565b508a5b600b5460408051630a48d5a960e01b81526001600160a01b0385811660048301526024820185905291516000939290921691630a48d5a991604480820192602092909190829003018186803b158015612a4757600080fd5b505afa158015612a5b573d6000803e3d6000fd5b505050506040513d6020811015612a7157600080fd5b5051600d54909150811015612ab75760405162461bcd60e51b815260040180806020018281038252602281526020018061515a6022913960400191505060405180910390fd5b50612aca3383838b8f8e8d8d8d8d614396565b505060016000555050505050505050505050565b60026000541415612b24576040805162461bcd60e51b815260206004820152601f602482015260008051602061513a833981519152604482015290519081900360640190fd5b6002600055612b316140bd565b600c543411612b715760405162461bcd60e51b81526004018080602001828103825260258152602001806152226025913960400191505060405180910390fd5b612b813386868a8a888888614669565b505060016000555050505050565b6000825160021480612ba2575082516003145b612be1576040805162461bcd60e51b815260206004820152601f60248201526000805160206152b4833981519152604482015290519081900360640190fd5b600083600081518110612bf057fe5b60200260200101519050600084600186510381518110612c0c57fe5b602090810291909101015160095490915060009081906001600160a01b0385811691161415612c5957612c5287600181518110612c4557fe5b6020026020010151613d16565b9150612cd5565b600b54604080516340d3096b60e11b81526001600160a01b038781166004830152915191909216916381a612d6916024808301926020929190829003018186803b158015612ca657600080fd5b505afa158015612cba573d6000803e3d6000fd5b505050506040513d6020811015612cd057600080fd5b505191505b6009546001600160a01b0384811691161415612cfe575068327cb2734119d3b7a9601e1b612d7a565b600b5460408051637092736960e11b81526001600160a01b0386811660048301529151919092169163e124e6d2916024808301926020929190829003018186803b158015612d4b57600080fd5b505afa158015612d5f573d6000803e3d6000fd5b505050506040513d6020811015612d7557600080fd5b505190505b6000612d9c83612d968468327cb2734119d3b7a9601e1b6148df565b90614938565b8710955050505050505b92915050565b60026000541415612df2576040805162461bcd60e51b815260206004820152601f602482015260008051602061513a833981519152604482015290519081900360640190fd5b60026000908155338152600560209081526040808320878452909152902080546001600160a01b0316612e5a576040805162461bcd60e51b815260206004820152601d602482015260008051602061511a833981519152604482015290519081900360640190fd5b838160030181905550828160040181905550818160050160006101000a81548160ff021916908315150217905550336001600160a01b03167fa7f9f4a25eb76f5ec01b1a429d95d6a00833f0f137c88827c58799a1c1ff0dfe868360010184600201548888888860050160019054906101000a900460ff1689600601546040518089815260200180602001888152602001878152602001868152602001851515815260200184151581526020018381526020018281038252898181548152602001915080548015612f5457602002820191906000526020600020905b81546001600160a01b03168152600190910190602001808311612f36575b5050995050505050505050505060405180910390a250506001600055505050565b6007546001600160a01b03163314612fcb576040805162461bcd60e51b815260206004820152601460248201527327b93232b92137b7b59d103337b93134b23232b760611b604482015290519081900360640190fd5b600780546001600160a01b0383166001600160a01b0319909116811790915560408051918252517fe24c39186e9137521953beaa8446e71f55b8f12296984f9d4273ceb1af728d909181900360200190a150565b6000806000806000806000806000613035614fb9565b6001600160a01b03808d1660009081526005602090815260408083208f8452825291829020825161010081018452815490941684526001810180548451818502810185019095528085529193858401939092908301828280156130c157602002820191906000526020600020905b81546001600160a01b031681526001909101906020018083116130a3575b505050918352505060028201546020808301919091526003830154604083015260048301546060830152600583015460ff8082161515608085015261010090910416151560a083015260069092015460c09091015281015151909150613128576000613142565b806020015160008151811061313957fe5b60200260200101515b600182602001515111613156576000613170565b816020015160018151811061316757fe5b60200260200101515b60028360200151511161318457600061319e565b826020015160028151811061319557fe5b60200260200101515b8360400151846060015185608001518660a001518760c001518860e00151995099509950995099509950995099509950509295985092959850929598565b60026000541415613222576040805162461bcd60e51b815260206004820152601f602482015260008051602061513a833981519152604482015290519081900360640190fd5b600260005561322f61502c565b506001600160a01b038084166000908152600160208181526040808420878552825292839020835161014081018552815486168082529382015486169281019290925260028101549382019390935260038301548416606082015260048301549093166080840152600582015460a0840152600682015460ff908116151560c0850152600783015460e08501526008830154161515610100840152600990910154610120830152613315576040805162461bcd60e51b815260206004820152601d602482015260008051602061511a833981519152604482015290519081900360640190fd5b600061333b8261010001518360e0015184608001518560c001518660a001516001611f9a565b506001600160a01b0380871660009081526001602081815260408084208a8552825280842080546001600160a01b0319908116825593810180548516905560028101859055600381018054851690556004810180549094169093556005830184905560068301805460ff19908116909155600784018590556008840180549091169055600990920192909255600b5490860151918601519394506133e3938316921690613eba565b81606001516001600160a01b031682602001516001600160a01b0316146134bb57604080516002808252606080830184529260208301908036833701905050905082602001518160008151811061343657fe5b60200260200101906001600160a01b031690816001600160a01b03168152505082606001518160018151811061346857fe5b60200260200101906001600160a01b031690816001600160a01b031681525050600061349682600030613f11565b600b5460608601519192506134b8916001600160a01b03908116911683613eba565b50505b600a5482516060840151608085015160a086015160c087015160408051630f8ee8bb60e11b81526001600160a01b03968716600482015294861660248601529285166044850152606484019190915215156084830152519190921691631f1dd1769160a480830192600092919082900301818387803b15801561353d57600080fd5b505af1158015613551573d6000803e3d6000fd5b5050505061356482610120015184614040565b81600001516001600160a01b03167f7fb1c74d1ea6aa1c9c585e17ce8274c8ff98745e85e7459b73f87d784494f58e8584602001518560400151866060015187608001518860a001518960c001518a60e001518b61010001518c61012001518c604051808c81526020018b6001600160a01b031681526020018a8152602001896001600160a01b03168152602001886001600160a01b03168152602001878152602001861515815260200185815260200184151581526020018381526020018281526020019b50505050505050505050505060405180910390a250506001600055505050565b600080600080600080600080600061366061502c565b505050506001600160a01b0397881660009081526001602081815260408084209a845299815291899020895161014081018b5281548c168152918101548b1692820183905260028101549982018a905260038101548b16606083018190526004820154909b1660808301819052600582015460a08401819052600683015460ff908116151560c08601819052600785015460e08701819052600886015490921615156101008701819052600990950154610120909601869052959e9c9d9c929b5090995093975092955093509150565b60046020526000908152604090205481565b6007546001600160a01b03163314613798576040805162461bcd60e51b815260206004820152601460248201527327b93232b92137b7b59d103337b93134b23232b760611b604482015290519081900360640190fd5b600e5460ff16156137f0576040805162461bcd60e51b815260206004820152601e60248201527f4f72646572426f6f6b3a20616c726561647920696e697469616c697a65640000604482015290519081900360640190fd5b600e805460ff19166001179055600a80546001600160a01b038089166001600160a01b03199283168117909355600b8054898316908416811790915560088054898416908516811790915560098054938916939094168317909355600c869055600d8590556040805194855260208501919091528381019290925260608301526080820184905260a08201839052517fcfb7ef8749fafc8da2af1ba3d025479ffc4e58f7dc420113e112512a3bda59639181900360c00190a1505050505050565b6009546001600160a01b031681565b600360208181526000938452604080852090915291835291208054600182015460028301549383015460048401546005850154600686015460078701546008909701546001600160a01b039687169895871697959690941694929360ff9283169391929091169089565b60026000541415613970576040805162461bcd60e51b815260206004820152601f602482015260008051602061513a833981519152604482015290519081900360640190fd5b600260005561397d614fb9565b33600090815260056020908152604080832085845282529182902082516101008101845281546001600160a01b0316815260018201805485518186028101860190965280865291949293858101939290830182828015613a0657602002820191906000526020600020905b81546001600160a01b031681526001909101906020018083116139e8575b5050509183525050600282015460208201526003820154604082015260048201546060820152600582015460ff8082161515608084015261010090910416151560a082015260069091015460c09091015280519091506001600160a01b0316613aa4576040805162461bcd60e51b815260206004820152601d602482015260008051602061511a833981519152604482015290519081900360640190fd5b336000908152600560209081526040808320858452909152812080546001600160a01b031916815590613ada600183018261500b565b50600060028201819055600382018190556004820181905560058201805461ffff191690556006909101819055600854602083015180516001600160a01b03909216929091613b2557fe5b60200260200101516001600160a01b03161415613b5f57613b5a611e7f82604001518360e0015161412f90919063ffffffff16565b613b87565b613b79338260400151836020015160008151811061127857fe5b613b878160e0015133614040565b336001600160a01b03167fefd66d4f9c2f880c70aedeb5b26a44fb474cea07e5d6c533f2d27c303d5d94538383602001518460400151856060015186608001518760a001518860c001518960e00151604051808981526020018060200188815260200187815260200186815260200185151581526020018415158152602001838152602001828103825289818151815260200191508051906020019060200280838360005b83811015613c44578181015183820152602001613c2c565b50505050905001995050505050505050505060405180910390a250506001600055565b600a546001600160a01b031681565b600b546001600160a01b031681565b6007546001600160a01b03163314613cdb576040805162461bcd60e51b815260206004820152601460248201527327b93232b92137b7b59d103337b93134b23232b760611b604482015290519081900360640190fd5b600c8190556040805182815290517fbde5eafdc37b81830d70124cddccaaa6d034e71dda3c8fc18a959ca76a7cbcfc9181900360200190a150565b600b5460408051632c668ec160e01b81526001600160a01b038481166004830152670de0b6b3a76400006024830152915160009384931691632c668ec1916044808301926020929190829003018186803b158015613d7357600080fd5b505afa158015613d87573d6000803e3d6000fd5b505050506040513d6020811015613d9d57600080fd5b5051600b54604080516340d3096b60e11b81526001600160a01b038781166004830152915193945060009391909216916381a612d6916024808301926020929190829003018186803b158015613df257600080fd5b505afa158015613e06573d6000803e3d6000fd5b505050506040513d6020811015613e1c57600080fd5b5051600b54604080516323b95ceb60e21b81526001600160a01b03888116600483015291519394506000939190921691638ee573ac916024808301926020929190829003018186803b158015613e7157600080fd5b505afa158015613e85573d6000803e3d6000fd5b505050506040513d6020811015613e9b57600080fd5b50519050613eb1600a82900a612d9685856148df565b95945050505050565b604080516001600160a01b038416602482015260448082018490528251808303909101815260649091019091526020810180516001600160e01b031663a9059cbb60e01b179052613f0c908490614977565b505050565b6000835160021415613f5857613f5184600081518110613f2d57fe5b602002602001015185600181518110613f4257fe5b60200260200101518585614a28565b9050614039565b835160031415613ffe576000613f9985600081518110613f7457fe5b602002602001015186600181518110613f8957fe5b6020026020010151600030614a28565b9050613fc2600b60009054906101000a90046001600160a01b0316828760018151811061127857fe5b613ff685600181518110613fd257fe5b602002602001015186600281518110613fe757fe5b60200260200101518686614a28565b915050614039565b6040805162461bcd60e51b815260206004820152601f60248201526000805160206152b4833981519152604482015290519081900360640190fd5b9392505050565b60085460408051632e1a7d4d60e01b81526004810185905290516001600160a01b0390921691632e1a7d4d9160248082019260009290919082900301818387803b15801561408d57600080fd5b505af11580156140a1573d6000803e3d6000fd5b506140b9925050506001600160a01b03821683614c07565b5050565b341561412d57600860009054906101000a90046001600160a01b03166001600160a01b031663d0e30db0346040518263ffffffff1660e01b81526004016000604051808303818588803b15801561411357600080fd5b505af1158015614127573d6000803e3d6000fd5b50505050505b565b600082820183811015614039576040805162461bcd60e51b815260206004820152601b60248201527a536166654d6174683a206164646974696f6e206f766572666c6f7760281b604482015290519081900360640190fd5b6001600160a01b0388166000908152600660205260409020546141a8614fb9565b6040518061010001604052808b6001600160a01b031681526020018a81526020018981526020018881526020018781526020018615158152602001851515815260200184815250905061420560018361412f90919063ffffffff16565b6001600160a01b038b8116600090815260066020908152604080832094909455600581528382208683528152929020835181546001600160a01b03191692169190911781558282015180518493614263926001850192910190615080565b5060408201518160020155606082015181600301556080820151816004015560a08201518160050160006101000a81548160ff02191690831515021790555060c08201518160050160016101000a81548160ff02191690831515021790555060e08201518160060155905050896001600160a01b03167fdf06bb56ffc4029dc0b62b68bb5bbadea93a38b530cefc9b81afb742a6555d88838b8b8b8b8b8b8b604051808981526020018060200188815260200187815260200186815260200185151581526020018415158152602001838152602001828103825289818151815260200191508051906020019060200280838360005b83811015614370578181015183820152602001614358565b50505050905001995050505050505050505060405180910390a250505050505050505050565b336000908152600260205260409020546143ae61502c565b6040518061014001604052808d6001600160a01b031681526020018c6001600160a01b031681526020018b81526020018a6001600160a01b03168152602001896001600160a01b031681526020018881526020018715158152602001868152602001851515815260200184815250905061443260018361412f90919063ffffffff16565b600260008e6001600160a01b03166001600160a01b031681526020019081526020016000208190555080600160008e6001600160a01b03166001600160a01b03168152602001908152602001600020600084815260200190815260200160002060008201518160000160006101000a8154816001600160a01b0302191690836001600160a01b0316021790555060208201518160010160006101000a8154816001600160a01b0302191690836001600160a01b031602179055506040820151816002015560608201518160030160006101000a8154816001600160a01b0302191690836001600160a01b0316021790555060808201518160040160006101000a8154816001600160a01b0302191690836001600160a01b0316021790555060a0820151816005015560c08201518160060160006101000a81548160ff02191690831515021790555060e082015181600701556101008201518160080160006101000a81548160ff02191690831515021790555061012082015181600901559050508b6001600160a01b03167fb27b9afe3043b93788c40cfc3cc73f5d928a2e40f3ba01820b246426de8fa1b9838d8d8d8d8d8d8d8d8d604051808b81526020018a6001600160a01b03168152602001898152602001886001600160a01b03168152602001876001600160a01b03168152602001868152602001851515815260200184815260200183151581526020018281526020019a505050505050505050505060405180910390a2505050505050505050505050565b6001600160a01b03881660009081526004602052604090205461468a614f6d565b5060408051610120810182526001600160a01b03808c1682528a8116602083015291810189905290871660608201526080810186905284151560a082015260c0810184905282151560e0820152346101008201526146e982600161412f565b600460008c6001600160a01b03166001600160a01b031681526020019081526020016000208190555080600360008c6001600160a01b03166001600160a01b03168152602001908152602001600020600084815260200190815260200160002060008201518160000160006101000a8154816001600160a01b0302191690836001600160a01b0316021790555060208201518160010160006101000a8154816001600160a01b0302191690836001600160a01b031602179055506040820151816002015560608201518160030160006101000a8154816001600160a01b0302191690836001600160a01b031602179055506080820151816004015560a08201518160050160006101000a81548160ff02191690831515021790555060c0820151816006015560e08201518160070160006101000a81548160ff0219169083151502179055506101008201518160080155905050896001600160a01b03167f48ee333d2a65cc45fdb83bc012920d89181c3377390cd239d2b63f2bef67a02d838b8b8b8b8b8b8b34604051808a8152602001896001600160a01b03168152602001888152602001876001600160a01b0316815260200186815260200185151581526020018481526020018315158152602001828152602001995050505050505050505060405180910390a250505050505050505050565b6000826148ee57506000612da6565b828202828482816148fb57fe5b04146140395760405162461bcd60e51b81526004018080602001828103825260218152602001806152476021913960400191505060405180910390fd5b600061403983836040518060400160405280601a815260200179536166654d6174683a206469766973696f6e206279207a65726f60301b815250614cec565b60606149cc826040518060400160405280602081526020017f5361666545524332303a206c6f772d6c6576656c2063616c6c206661696c6564815250856001600160a01b0316614d8e9092919063ffffffff16565b805190915015613f0c578080602001905160208110156149eb57600080fd5b5051613f0c5760405162461bcd60e51b815260040180806020018281038252602a8152602001806152d4602a913960400191505060405180910390fd5b60095460009081906001600160a01b0386811691161415614acd57600b546040805163028f231960e31b81526001600160a01b03898116600483015286811660248301529151919092169163147918c89160448083019260209291908290030181600087803b158015614a9a57600080fd5b505af1158015614aae573d6000803e3d6000fd5b505050506040513d6020811015614ac457600080fd5b50519050614bc8565b6009546001600160a01b0387811691161415614b3a57600b546040805163831cb76360e01b81526001600160a01b03888116600483015286811660248301529151919092169163831cb7639160448083019260209291908290030181600087803b158015614a9a57600080fd5b600b5460408051634998b10960e11b81526001600160a01b038981166004830152888116602483015286811660448301529151919092169163933162129160648083019260209291908290030181600087803b158015614b9957600080fd5b505af1158015614bad573d6000803e3d6000fd5b505050506040513d6020811015614bc357600080fd5b505190505b83811015613eb15760405162461bcd60e51b81526004018080602001828103825260218152602001806151dc6021913960400191505060405180910390fd5b80471015614c5c576040805162461bcd60e51b815260206004820152601d60248201527f416464726573733a20696e73756666696369656e742062616c616e6365000000604482015290519081900360640190fd5b6040516000906001600160a01b0384169083908381818185875af1925050503d8060008114614ca7576040519150601f19603f3d011682016040523d82523d6000602084013e614cac565b606091505b5050905080613f0c5760405162461bcd60e51b815260040180806020018281038252603a81526020018061517c603a913960400191505060405180910390fd5b60008183614d785760405162461bcd60e51b81526004018080602001828103825283818151815260200191508051906020019080838360005b83811015614d3d578181015183820152602001614d25565b50505050905090810190601f168015614d6a5780820380516001836020036101000a031916815260200191505b509250505060405180910390fd5b506000838581614d8457fe5b0495945050505050565b6060614d9d8484600085614da5565b949350505050565b606082471015614de65760405162461bcd60e51b81526004018080602001828103825260268152602001806151b66026913960400191505060405180910390fd5b614def85614f01565b614e40576040805162461bcd60e51b815260206004820152601d60248201527f416464726573733a2063616c6c20746f206e6f6e2d636f6e7472616374000000604482015290519081900360640190fd5b60006060866001600160a01b031685876040518082805190602001908083835b60208310614e7f5780518252601f199092019160209182019101614e60565b6001836020036101000a03801982511681845116808217855250505050505090500191505060006040518083038185875af1925050503d8060008114614ee1576040519150601f19603f3d011682016040523d82523d6000602084013e614ee6565b606091505b5091509150614ef6828286614f07565b979650505050505050565b3b151590565b60608315614f16575081614039565b825115614f265782518084602001fd5b60405162461bcd60e51b8152602060048201818152845160248401528451859391928392604401919085019080838360008315614d3d578181015183820152602001614d25565b6040805161012081018252600080825260208201819052918101829052606081018290526080810182905260a0810182905260c0810182905260e0810182905261010081019190915290565b60405180610100016040528060006001600160a01b0316815260200160608152602001600081526020016000815260200160008152602001600015158152602001600015158152602001600081525090565b508054600082559060005260206000209081019061502991906150e5565b50565b6040805161014081018252600080825260208201819052918101829052606081018290526080810182905260a0810182905260c0810182905260e08101829052610100810182905261012081019190915290565b8280548282559060005260206000209081019282156150d5579160200282015b828111156150d557825182546001600160a01b0319166001600160a01b039091161782556020909201916001909101906150a0565b506150e19291506150fa565b5090565b5b808211156150e157600081556001016150e6565b5b808211156150e15780546001600160a01b03191681556001016150fb56fe4f72646572426f6f6b3a206e6f6e2d6578697374656e74206f726465720000005265656e7472616e637947756172643a207265656e7472616e742063616c6c004f72646572426f6f6b3a20696e73756666696369656e7420636f6c6c61746572616c416464726573733a20756e61626c6520746f2073656e642076616c75652c20726563697069656e74206d61792068617665207265766572746564416464726573733a20696e73756666696369656e742062616c616e636520666f722063616c6c4f72646572426f6f6b3a20696e73756666696369656e7420616d6f756e744f75744f72646572426f6f6b3a206f6e6c79207765746820636f756c6420626520777261707065644f72646572426f6f6b3a20696e73756666696369656e7420657865637574696f6e20666565536166654d6174683a206d756c7469706c69636174696f6e206f766572666c6f774f72646572426f6f6b3a20696e636f72726563742076616c7565207472616e736665727265644f72646572426f6f6b3a20696e76616c696420707269636520666f7220657865637574696f6e4f72646572426f6f6b3a20696e76616c6964205f706174682e6c656e677468005361666545524332303a204552433230206f7065726174696f6e20646964206e6f7420737563636565644f72646572426f6f6b3a20696e636f727265637420657865637574696f6e20666565207472616e73666572726564a2646970667358221220e39c59264ec8322b28ea2e563045dfbd0cb8b6c504b2db4a9be944a894bf140a64736f6c634300060c0033",
  "linkReferences": {},
  "deployedLinkReferences": {}
}