{
  "_format": "hh-sol-artifact-1",
  "contractName": "RewardRouterV2",
  "sourceName": "contracts/staking/RewardRouterV2.sol",
  "abi": [
    {
      "inputs": [],
      "name": "alp",
      "outputs": [
        {
          "internalType": "address",
          "name": "",
          "type": "address"
        }
      ],
      "stateMutability": "view",
      "type": "function"
    },
    {
      "inputs": [],
      "name": "alpManager",
      "outputs": [
        {
          "internalType": "address",
          "name": "",
          "type": "address"
        }
      ],
      "stateMutability": "view",
      "type": "function"
    },
    {
      "inputs": [],
      "name": "gov",
      "outputs": [
        {
          "internalType": "address",
          "name": "",
          "type": "address"
        }
      ],
      "stateMutability": "view",
      "type": "function"
    },
    {
      "inputs": [
        {
          "internalType": "address",
          "name": "_weth",
          "type": "address"
        },
        {
          "internalType": "address",
          "name": "_alp",
          "type": "address"
        },
        {
          "internalType": "address",
          "name": "_alpManager",
          "type": "address"
        }
      ],
      "name": "initialize",
      "outputs": [],
      "stateMutability": "nonpayable",
      "type": "function"
    },
    {
      "inputs": [],
      "name": "isInitialized",
      "outputs": [
        {
          "internalType": "bool",
          "name": "",
          "type": "bool"
        }
      ],
      "stateMutability": "view",
      "type": "function"
    },
    {
      "inputs": [
        {
          "internalType": "address",
          "name": "_token",
          "type": "address"
        },
        {
          "internalType": "uint256",
          "name": "_amount",
          "type": "uint256"
        },
        {
          "internalType": "uint256",
          "name": "_minUsda",
          "type": "uint256"
        },
        {
          "internalType": "uint256",
          "name": "_minAlp",
          "type": "uint256"
        }
      ],
      "name": "mintAndStakeAlp",
      "outputs": [
        {
          "internalType": "uint256",
          "name": "",
          "type": "uint256"
        }
      ],
      "stateMutability": "nonpayable",
      "type": "function"
    },
    {
      "inputs": [
        {
          "internalType": "uint256",
          "name": "_minUsda",
          "type": "uint256"
        },
        {
          "internalType": "uint256",
          "name": "_minAlp",
          "type": "uint256"
        }
      ],
      "name": "mintAndStakeAlpETH",
      "outputs": [
        {
          "internalType": "uint256",
          "name": "",
          "type": "uint256"
        }
      ],
      "stateMutability": "payable",
      "type": "function"
    },
    {
      "inputs": [
        {
          "internalType": "address",
          "name": "_gov",
          "type": "address"
        }
      ],
      "name": "setGov",
      "outputs": [],
      "stateMutability": "nonpayable",
      "type": "function"
    },
    {
      "inputs": [
        {
          "internalType": "address",
          "name": "_tokenOut",
          "type": "address"
        },
        {
          "internalType": "uint256",
          "name": "_alpAmount",
          "type": "uint256"
        },
        {
          "internalType": "uint256",
          "name": "_minOut",
          "type": "uint256"
        },
        {
          "internalType": "address",
          "name": "_receiver",
          "type": "address"
        }
      ],
      "name": "unstakeAndRedeemAlp",
      "outputs": [
        {
          "internalType": "uint256",
          "name": "",
          "type": "uint256"
        }
      ],
      "stateMutability": "nonpayable",
      "type": "function"
    },
    {
      "inputs": [
        {
          "internalType": "uint256",
          "name": "_alpAmount",
          "type": "uint256"
        },
        {
          "internalType": "uint256",
          "name": "_minOut",
          "type": "uint256"
        },
        {
          "internalType": "address payable",
          "name": "_receiver",
          "type": "address"
        }
      ],
      "name": "unstakeAndRedeemAlpETH",
      "outputs": [
        {
          "internalType": "uint256",
          "name": "",
          "type": "uint256"
        }
      ],
      "stateMutability": "nonpayable",
      "type": "function"
    },
    {
      "inputs": [],
      "name": "weth",
      "outputs": [
        {
          "internalType": "address",
          "name": "",
          "type": "address"
        }
      ],
      "stateMutability": "view",
      "type": "function"
    },
    {
      "stateMutability": "payable",
      "type": "receive"
    }
  ],
  "bytecode": "0x608060405234801561001057600080fd5b506001600081905580546001600160a01b03191633179055610cb9806100376000396000f3fe6080604052600436106100905760003560e01c80630748d945146100f457806312d43a511461012557806324e8ece91461013a578063392e53cd1461018b5780633fc8cef3146101b457806363960074146101c9578063648d6b21146101de578063c0c53b8b14610201578063cfad57a214610246578063de0b3c6f14610279578063f84df286146102c0576100ef565b366100ef576002546001600160a01b031633146100ed576040805162461bcd60e51b81526020600482015260166024820152752937baba32b91d1034b73b30b634b21039b2b73232b960511b604482015290519081900360640190fd5b005b600080fd5b34801561010057600080fd5b50610109610305565b604080516001600160a01b039092168252519081900360200190f35b34801561013157600080fd5b50610109610314565b34801561014657600080fd5b506101796004803603606081101561015d57600080fd5b50803590602081013590604001356001600160a01b0316610323565b60408051918252519081900360200190f35b34801561019757600080fd5b506101a06104d7565b604080519115158252519081900360200190f35b3480156101c057600080fd5b506101096104e7565b3480156101d557600080fd5b506101096104f6565b610179600480360360408110156101f457600080fd5b5080359060200135610505565b34801561020d57600080fd5b506100ed6004803603606081101561022457600080fd5b506001600160a01b038135811691602081013582169160409091013516610745565b34801561025257600080fd5b506100ed6004803603602081101561026957600080fd5b50356001600160a01b0316610837565b34801561028557600080fd5b506101796004803603608081101561029c57600080fd5b506001600160a01b03813581169160208101359160408201359160600135166108b0565b3480156102cc57600080fd5b50610179600480360360808110156102e357600080fd5b506001600160a01b0381351690602081013590604081013590606001356109e9565b6003546001600160a01b031681565b6001546001600160a01b031681565b60006002600054141561036b576040805162461bcd60e51b815260206004820152601f6024820152600080516020610be9833981519152604482015290519081900360640190fd5b6002600055836103b0576040805162461bcd60e51b81526020600482018190526024820152600080516020610c64833981519152604482015290519081900360640190fd5b60048054600254604080516371d597ad60e01b8152339481018590526001600160a01b0392831660248201526044810189905260648101889052306084820152905160009392909216916371d597ad9160a48082019260209290919082900301818787803b15801561042157600080fd5b505af1158015610435573d6000803e3d6000fd5b505050506040513d602081101561044b57600080fd5b505160025460408051632e1a7d4d60e01b81526004810184905290519293506001600160a01b0390911691632e1a7d4d9160248082019260009290919082900301818387803b15801561049d57600080fd5b505af11580156104b1573d6000803e3d6000fd5b506104c9925050506001600160a01b03851682610afe565b600160005595945050505050565b600154600160a01b900460ff1681565b6002546001600160a01b031681565b6004546001600160a01b031681565b60006002600054141561054d576040805162461bcd60e51b815260206004820152601f6024820152600080516020610be9833981519152604482015290519081900360640190fd5b6002600055346105a4576040805162461bcd60e51b815260206004820152601f60248201527f526577617264526f757465723a20696e76616c6964206d73672e76616c756500604482015290519081900360640190fd5b600260009054906101000a90046001600160a01b03166001600160a01b031663d0e30db0346040518263ffffffff1660e01b81526004016000604051808303818588803b1580156105f457600080fd5b505af1158015610608573d6000803e3d6000fd5b5050600254600480546040805163095ea7b360e01b81526001600160a01b0392831693810193909352346024840152519216945063095ea7b3935060448082019350602092918290030181600087803b15801561066457600080fd5b505af1158015610678573d6000803e3d6000fd5b505050506040513d602081101561068e57600080fd5b505060048054600254604080516317eb2a1560e01b8152309481019490945233602485018190526001600160a01b0392831660448601523460648601526084850188905260a485018790529051909360009392909216916317eb2a159160c480830192602092919082900301818787803b15801561070b57600080fd5b505af115801561071f573d6000803e3d6000fd5b505050506040513d602081101561073557600080fd5b5051600160005595945050505050565b6001546001600160a01b0316331461079c576040805162461bcd60e51b815260206004820152601560248201527423b7bb32b93730b136329d103337b93134b23232b760591b604482015290519081900360640190fd5b600154600160a01b900460ff16156107e55760405162461bcd60e51b8152600401808060200182810382526021815260200180610c436021913960400191505060405180910390fd5b6001805460ff60a01b1916600160a01b179055600280546001600160a01b039485166001600160a01b031991821617909155600380549385169382169390931790925560048054919093169116179055565b6001546001600160a01b0316331461088e576040805162461bcd60e51b815260206004820152601560248201527423b7bb32b93730b136329d103337b93134b23232b760591b604482015290519081900360640190fd5b600180546001600160a01b0319166001600160a01b0392909216919091179055565b6000600260005414156108f8576040805162461bcd60e51b815260206004820152601f6024820152600080516020610be9833981519152604482015290519081900360640190fd5b60026000558361093d576040805162461bcd60e51b81526020600482018190526024820152600080516020610c64833981519152604482015290519081900360640190fd5b60048054604080516371d597ad60e01b8152339381018490526001600160a01b03898116602483015260448201899052606482018890528681166084830152915160009392909216916371d597ad9160a48082019260209290919082900301818787803b1580156109ad57600080fd5b505af11580156109c1573d6000803e3d6000fd5b505050506040513d60208110156109d757600080fd5b50516001600055979650505050505050565b600060026000541415610a31576040805162461bcd60e51b815260206004820152601f6024820152600080516020610be9833981519152604482015290519081900360640190fd5b600260005583610a88576040805162461bcd60e51b815260206004820152601d60248201527f526577617264526f757465723a20696e76616c6964205f616d6f756e74000000604482015290519081900360640190fd5b60048054604080516317eb2a1560e01b815233938101849052602481018490526001600160a01b038981166044830152606482018990526084820188905260a48201879052915160009392909216916317eb2a159160c48082019260209290919082900301818787803b1580156109ad57600080fd5b80471015610b53576040805162461bcd60e51b815260206004820152601d60248201527f416464726573733a20696e73756666696369656e742062616c616e6365000000604482015290519081900360640190fd5b6040516000906001600160a01b0384169083908381818185875af1925050503d8060008114610b9e576040519150601f19603f3d011682016040523d82523d6000602084013e610ba3565b606091505b5050905080610be35760405162461bcd60e51b815260040180806020018281038252603a815260200180610c09603a913960400191505060405180910390fd5b50505056fe5265656e7472616e637947756172643a207265656e7472616e742063616c6c00416464726573733a20756e61626c6520746f2073656e642076616c75652c20726563697069656e74206d61792068617665207265766572746564526577617264526f757465723a20616c726561647920696e697469616c697a6564526577617264526f757465723a20696e76616c6964205f616c70416d6f756e74a264697066735822122015f1eb890b1e552600696b174cca06ffe3e93096011b8f0d8076223b74e5c6d464736f6c634300060c0033",
  "linkReferences": {},
  "deployedLinkReferences": {}
}