{
  "_format": "hh-sol-artifact-1",
  "contractName": "Vault",
  "sourceName": "contracts/core/Vault.sol",
  "abi": [
    {
      "inputs": [],
      "stateMutability": "nonpayable",
      "type": "constructor"
    },
    {
      "anonymous": false,
      "inputs": [
        {
          "indexed": false,
          "internalType": "address",
          "name": "account",
          "type": "address"
        },
        {
          "indexed": false,
          "internalType": "address",
          "name": "token",
          "type": "address"
        },
        {
          "indexed": false,
          "internalType": "uint256",
          "name": "tokenAmount",
          "type": "uint256"
        },
        {
          "indexed": false,
          "internalType": "uint256",
          "name": "usdaAmount",
          "type": "uint256"
        },
        {
          "indexed": false,
          "internalType": "uint256",
          "name": "feeBasisPoints",
          "type": "uint256"
        }
      ],
      "name": "BuyUSDA",
      "type": "event"
    },
    {
      "anonymous": false,
      "inputs": [
        {
          "indexed": false,
          "internalType": "bytes32",
          "name": "key",
          "type": "bytes32"
        },
        {
          "indexed": false,
          "internalType": "uint256",
          "name": "size",
          "type": "uint256"
        },
        {
          "indexed": false,
          "internalType": "uint256",
          "name": "collateral",
          "type": "uint256"
        },
        {
          "indexed": false,
          "internalType": "uint256",
          "name": "averagePrice",
          "type": "uint256"
        },
        {
          "indexed": false,
          "internalType": "uint256",
          "name": "entryFundingRate",
          "type": "uint256"
        },
        {
          "indexed": false,
          "internalType": "uint256",
          "name": "reserveAmount",
          "type": "uint256"
        },
        {
          "indexed": false,
          "internalType": "int256",
          "name": "realisedPnl",
          "type": "int256"
        }
      ],
      "name": "ClosePosition",
      "type": "event"
    },
    {
      "anonymous": false,
      "inputs": [
        {
          "indexed": false,
          "internalType": "address",
          "name": "token",
          "type": "address"
        },
        {
          "indexed": false,
          "internalType": "uint256",
          "name": "feeUsd",
          "type": "uint256"
        },
        {
          "indexed": false,
          "internalType": "uint256",
          "name": "feeTokens",
          "type": "uint256"
        }
      ],
      "name": "CollectMarginFees",
      "type": "event"
    },
    {
      "anonymous": false,
      "inputs": [
        {
          "indexed": false,
          "internalType": "address",
          "name": "token",
          "type": "address"
        },
        {
          "indexed": false,
          "internalType": "uint256",
          "name": "feeUsd",
          "type": "uint256"
        },
        {
          "indexed": false,
          "internalType": "uint256",
          "name": "feeTokens",
          "type": "uint256"
        }
      ],
      "name": "CollectSwapFees",
      "type": "event"
    },
    {
      "anonymous": false,
      "inputs": [
        {
          "indexed": false,
          "internalType": "address",
          "name": "token",
          "type": "address"
        },
        {
          "indexed": false,
          "internalType": "uint256",
          "name": "amount",
          "type": "uint256"
        }
      ],
      "name": "DecreaseCollateralsPool",
      "type": "event"
    },
    {
      "anonymous": false,
      "inputs": [
        {
          "indexed": false,
          "internalType": "address",
          "name": "token",
          "type": "address"
        },
        {
          "indexed": false,
          "internalType": "uint256",
          "name": "amount",
          "type": "uint256"
        }
      ],
      "name": "DecreaseGlobalNetUsd",
      "type": "event"
    },
    {
      "anonymous": false,
      "inputs": [
        {
          "indexed": false,
          "internalType": "address",
          "name": "token",
          "type": "address"
        },
        {
          "indexed": false,
          "internalType": "uint256",
          "name": "amount",
          "type": "uint256"
        }
      ],
      "name": "DecreaseNetPosition",
      "type": "event"
    },
    {
      "anonymous": false,
      "inputs": [
        {
          "indexed": false,
          "internalType": "address",
          "name": "token",
          "type": "address"
        },
        {
          "indexed": false,
          "internalType": "uint256",
          "name": "amount",
          "type": "uint256"
        }
      ],
      "name": "DecreasePoolAmount",
      "type": "event"
    },
    {
      "anonymous": false,
      "inputs": [
        {
          "indexed": false,
          "internalType": "bytes32",
          "name": "key",
          "type": "bytes32"
        },
        {
          "indexed": false,
          "internalType": "address",
          "name": "account",
          "type": "address"
        },
        {
          "indexed": false,
          "internalType": "address",
          "name": "collateralToken",
          "type": "address"
        },
        {
          "indexed": false,
          "internalType": "address",
          "name": "indexToken",
          "type": "address"
        },
        {
          "indexed": false,
          "internalType": "uint256",
          "name": "collateralDelta",
          "type": "uint256"
        },
        {
          "indexed": false,
          "internalType": "uint256",
          "name": "sizeDelta",
          "type": "uint256"
        },
        {
          "indexed": false,
          "internalType": "bool",
          "name": "isLong",
          "type": "bool"
        },
        {
          "indexed": false,
          "internalType": "uint256",
          "name": "price",
          "type": "uint256"
        },
        {
          "indexed": false,
          "internalType": "uint256",
          "name": "fee",
          "type": "uint256"
        }
      ],
      "name": "DecreasePosition",
      "type": "event"
    },
    {
      "anonymous": false,
      "inputs": [
        {
          "indexed": false,
          "internalType": "address",
          "name": "token",
          "type": "address"
        },
        {
          "indexed": false,
          "internalType": "uint256",
          "name": "amount",
          "type": "uint256"
        }
      ],
      "name": "DecreaseReservedAmount",
      "type": "event"
    },
    {
      "anonymous": false,
      "inputs": [
        {
          "indexed": false,
          "internalType": "address",
          "name": "token",
          "type": "address"
        },
        {
          "indexed": false,
          "internalType": "uint256",
          "name": "amount",
          "type": "uint256"
        }
      ],
      "name": "DecreaseUsdaAmount",
      "type": "event"
    },
    {
      "anonymous": false,
      "inputs": [
        {
          "indexed": false,
          "internalType": "address",
          "name": "token",
          "type": "address"
        },
        {
          "indexed": false,
          "internalType": "uint256",
          "name": "amount",
          "type": "uint256"
        }
      ],
      "name": "DirectPoolDeposit",
      "type": "event"
    },
    {
      "anonymous": false,
      "inputs": [
        {
          "indexed": false,
          "internalType": "address",
          "name": "token",
          "type": "address"
        },
        {
          "indexed": false,
          "internalType": "uint256",
          "name": "amount",
          "type": "uint256"
        }
      ],
      "name": "IncreaseCollateralsPool",
      "type": "event"
    },
    {
      "anonymous": false,
      "inputs": [
        {
          "indexed": false,
          "internalType": "address",
          "name": "token",
          "type": "address"
        },
        {
          "indexed": false,
          "internalType": "uint256",
          "name": "amount",
          "type": "uint256"
        }
      ],
      "name": "IncreaseGlobalNetUsd",
      "type": "event"
    },
    {
      "anonymous": false,
      "inputs": [
        {
          "indexed": false,
          "internalType": "address",
          "name": "token",
          "type": "address"
        },
        {
          "indexed": false,
          "internalType": "uint256",
          "name": "amount",
          "type": "uint256"
        }
      ],
      "name": "IncreaseNetPosition",
      "type": "event"
    },
    {
      "anonymous": false,
      "inputs": [
        {
          "indexed": false,
          "internalType": "address",
          "name": "token",
          "type": "address"
        },
        {
          "indexed": false,
          "internalType": "uint256",
          "name": "amount",
          "type": "uint256"
        }
      ],
      "name": "IncreasePoolAmount",
      "type": "event"
    },
    {
      "anonymous": false,
      "inputs": [
        {
          "indexed": false,
          "internalType": "bytes32",
          "name": "key",
          "type": "bytes32"
        },
        {
          "indexed": false,
          "internalType": "address",
          "name": "account",
          "type": "address"
        },
        {
          "indexed": false,
          "internalType": "address",
          "name": "collateralToken",
          "type": "address"
        },
        {
          "indexed": false,
          "internalType": "address",
          "name": "indexToken",
          "type": "address"
        },
        {
          "indexed": false,
          "internalType": "uint256",
          "name": "collateralDelta",
          "type": "uint256"
        },
        {
          "indexed": false,
          "internalType": "uint256",
          "name": "sizeDelta",
          "type": "uint256"
        },
        {
          "indexed": false,
          "internalType": "bool",
          "name": "isLong",
          "type": "bool"
        },
        {
          "indexed": false,
          "internalType": "uint256",
          "name": "price",
          "type": "uint256"
        },
        {
          "indexed": false,
          "internalType": "uint256",
          "name": "fee",
          "type": "uint256"
        }
      ],
      "name": "IncreasePosition",
      "type": "event"
    },
    {
      "anonymous": false,
      "inputs": [
        {
          "indexed": false,
          "internalType": "address",
          "name": "token",
          "type": "address"
        },
        {
          "indexed": false,
          "internalType": "uint256",
          "name": "amount",
          "type": "uint256"
        }
      ],
      "name": "IncreaseReservedAmount",
      "type": "event"
    },
    {
      "anonymous": false,
      "inputs": [
        {
          "indexed": false,
          "internalType": "address",
          "name": "token",
          "type": "address"
        },
        {
          "indexed": false,
          "internalType": "uint256",
          "name": "amount",
          "type": "uint256"
        }
      ],
      "name": "IncreaseUsdaAmount",
      "type": "event"
    },
    {
      "anonymous": false,
      "inputs": [
        {
          "indexed": false,
          "internalType": "bytes32",
          "name": "key",
          "type": "bytes32"
        },
        {
          "indexed": false,
          "internalType": "address",
          "name": "account",
          "type": "address"
        },
        {
          "indexed": false,
          "internalType": "address",
          "name": "collateralToken",
          "type": "address"
        },
        {
          "indexed": false,
          "internalType": "address",
          "name": "indexToken",
          "type": "address"
        },
        {
          "indexed": false,
          "internalType": "bool",
          "name": "isLong",
          "type": "bool"
        },
        {
          "indexed": false,
          "internalType": "uint256",
          "name": "size",
          "type": "uint256"
        },
        {
          "indexed": false,
          "internalType": "uint256",
          "name": "collateral",
          "type": "uint256"
        },
        {
          "indexed": false,
          "internalType": "uint256",
          "name": "reserveAmount",
          "type": "uint256"
        },
        {
          "indexed": false,
          "internalType": "int256",
          "name": "realisedPnl",
          "type": "int256"
        },
        {
          "indexed": false,
          "internalType": "uint256",
          "name": "markPrice",
          "type": "uint256"
        }
      ],
      "name": "LiquidatePosition",
      "type": "event"
    },
    {
      "anonymous": false,
      "inputs": [
        {
          "indexed": false,
          "internalType": "address",
          "name": "account",
          "type": "address"
        },
        {
          "indexed": false,
          "internalType": "address",
          "name": "token",
          "type": "address"
        },
        {
          "indexed": false,
          "internalType": "uint256",
          "name": "usdaAmount",
          "type": "uint256"
        },
        {
          "indexed": false,
          "internalType": "uint256",
          "name": "tokenAmount",
          "type": "uint256"
        },
        {
          "indexed": false,
          "internalType": "uint256",
          "name": "feeBasisPoints",
          "type": "uint256"
        }
      ],
      "name": "SellUSDA",
      "type": "event"
    },
    {
      "anonymous": false,
      "inputs": [
        {
          "indexed": false,
          "internalType": "address",
          "name": "account",
          "type": "address"
        },
        {
          "indexed": false,
          "internalType": "address",
          "name": "tokenIn",
          "type": "address"
        },
        {
          "indexed": false,
          "internalType": "address",
          "name": "tokenOut",
          "type": "address"
        },
        {
          "indexed": false,
          "internalType": "uint256",
          "name": "amountIn",
          "type": "uint256"
        },
        {
          "indexed": false,
          "internalType": "uint256",
          "name": "amountOut",
          "type": "uint256"
        },
        {
          "indexed": false,
          "internalType": "uint256",
          "name": "amountOutAfterFees",
          "type": "uint256"
        },
        {
          "indexed": false,
          "internalType": "uint256",
          "name": "feeBasisPoints",
          "type": "uint256"
        }
      ],
      "name": "Swap",
      "type": "event"
    },
    {
      "anonymous": false,
      "inputs": [
        {
          "indexed": false,
          "internalType": "address",
          "name": "token",
          "type": "address"
        },
        {
          "indexed": false,
          "internalType": "uint256",
          "name": "borrowRate",
          "type": "uint256"
        }
      ],
      "name": "UpdateBorrowRate",
      "type": "event"
    },
    {
      "anonymous": false,
      "inputs": [
        {
          "indexed": false,
          "internalType": "bytes32",
          "name": "key",
          "type": "bytes32"
        },
        {
          "indexed": false,
          "internalType": "bool",
          "name": "hasProfit",
          "type": "bool"
        },
        {
          "indexed": false,
          "internalType": "uint256",
          "name": "delta",
          "type": "uint256"
        }
      ],
      "name": "UpdatePnl",
      "type": "event"
    },
    {
      "anonymous": false,
      "inputs": [
        {
          "indexed": false,
          "internalType": "bytes32",
          "name": "key",
          "type": "bytes32"
        },
        {
          "indexed": false,
          "internalType": "uint256",
          "name": "size",
          "type": "uint256"
        },
        {
          "indexed": false,
          "internalType": "uint256",
          "name": "collateral",
          "type": "uint256"
        },
        {
          "indexed": false,
          "internalType": "uint256",
          "name": "averagePrice",
          "type": "uint256"
        },
        {
          "indexed": false,
          "internalType": "uint256",
          "name": "entryFundingRate",
          "type": "uint256"
        },
        {
          "indexed": false,
          "internalType": "uint256",
          "name": "reserveAmount",
          "type": "uint256"
        },
        {
          "indexed": false,
          "internalType": "int256",
          "name": "realisedPnl",
          "type": "int256"
        },
        {
          "indexed": false,
          "internalType": "uint256",
          "name": "markPrice",
          "type": "uint256"
        }
      ],
      "name": "UpdatePosition",
      "type": "event"
    },
    {
      "inputs": [],
      "name": "BASIS_POINTS_DIVISOR",
      "outputs": [
        {
          "internalType": "uint256",
          "name": "",
          "type": "uint256"
        }
      ],
      "stateMutability": "view",
      "type": "function"
    },
    {
      "inputs": [],
      "name": "FUNDING_RATE_PRECISION",
      "outputs": [
        {
          "internalType": "uint256",
          "name": "",
          "type": "uint256"
        }
      ],
      "stateMutability": "view",
      "type": "function"
    },
    {
      "inputs": [],
      "name": "MAX_FEE_BASIS_POINTS",
      "outputs": [
        {
          "internalType": "uint256",
          "name": "",
          "type": "uint256"
        }
      ],
      "stateMutability": "view",
      "type": "function"
    },
    {
      "inputs": [],
      "name": "MAX_FUNDING_RATE_FACTOR",
      "outputs": [
        {
          "internalType": "uint256",
          "name": "",
          "type": "uint256"
        }
      ],
      "stateMutability": "view",
      "type": "function"
    },
    {
      "inputs": [],
      "name": "MAX_LIQUIDATION_FEE_USD",
      "outputs": [
        {
          "internalType": "uint256",
          "name": "",
          "type": "uint256"
        }
      ],
      "stateMutability": "view",
      "type": "function"
    },
    {
      "inputs": [],
      "name": "MIN_FUNDING_RATE_INTERVAL",
      "outputs": [
        {
          "internalType": "uint256",
          "name": "",
          "type": "uint256"
        }
      ],
      "stateMutability": "view",
      "type": "function"
    },
    {
      "inputs": [],
      "name": "MIN_LEVERAGE",
      "outputs": [
        {
          "internalType": "uint256",
          "name": "",
          "type": "uint256"
        }
      ],
      "stateMutability": "view",
      "type": "function"
    },
    {
      "inputs": [],
      "name": "PRICE_PRECISION",
      "outputs": [
        {
          "internalType": "uint256",
          "name": "",
          "type": "uint256"
        }
      ],
      "stateMutability": "view",
      "type": "function"
    },
    {
      "inputs": [],
      "name": "USDA_DECIMALS",
      "outputs": [
        {
          "internalType": "uint256",
          "name": "",
          "type": "uint256"
        }
      ],
      "stateMutability": "view",
      "type": "function"
    },
    {
      "inputs": [
        {
          "internalType": "address",
          "name": "_router",
          "type": "address"
        }
      ],
      "name": "addRouter",
      "outputs": [],
      "stateMutability": "nonpayable",
      "type": "function"
    },
    {
      "inputs": [
        {
          "internalType": "uint256",
          "name": "_amount",
          "type": "uint256"
        },
        {
          "internalType": "address",
          "name": "_tokenDiv",
          "type": "address"
        },
        {
          "internalType": "address",
          "name": "_tokenMul",
          "type": "address"
        }
      ],
      "name": "adjustForDecimals",
      "outputs": [
        {
          "internalType": "uint256",
          "name": "",
          "type": "uint256"
        }
      ],
      "stateMutability": "view",
      "type": "function"
    },
    {
      "inputs": [
        {
          "internalType": "uint256",
          "name": "",
          "type": "uint256"
        }
      ],
      "name": "allWhitelistedTokens",
      "outputs": [
        {
          "internalType": "address",
          "name": "",
          "type": "address"
        }
      ],
      "stateMutability": "view",
      "type": "function"
    },
    {
      "inputs": [],
      "name": "allWhitelistedTokensLength",
      "outputs": [
        {
          "internalType": "uint256",
          "name": "",
          "type": "uint256"
        }
      ],
      "stateMutability": "view",
      "type": "function"
    },
    {
      "inputs": [],
      "name": "alphaBasisPoints",
      "outputs": [
        {
          "internalType": "uint256",
          "name": "",
          "type": "uint256"
        }
      ],
      "stateMutability": "view",
      "type": "function"
    },
    {
      "inputs": [
        {
          "internalType": "address",
          "name": "",
          "type": "address"
        },
        {
          "internalType": "address",
          "name": "",
          "type": "address"
        }
      ],
      "name": "approvedRouters",
      "outputs": [
        {
          "internalType": "bool",
          "name": "",
          "type": "bool"
        }
      ],
      "stateMutability": "view",
      "type": "function"
    },
    {
      "inputs": [],
      "name": "baseFundingRate",
      "outputs": [
        {
          "internalType": "int256",
          "name": "",
          "type": "int256"
        }
      ],
      "stateMutability": "view",
      "type": "function"
    },
    {
      "inputs": [
        {
          "internalType": "address",
          "name": "",
          "type": "address"
        }
      ],
      "name": "bufferAmounts",
      "outputs": [
        {
          "internalType": "uint256",
          "name": "",
          "type": "uint256"
        }
      ],
      "stateMutability": "view",
      "type": "function"
    },
    {
      "inputs": [],
      "name": "burnFeeBasisPoints",
      "outputs": [
        {
          "internalType": "uint256",
          "name": "",
          "type": "uint256"
        }
      ],
      "stateMutability": "view",
      "type": "function"
    },
    {
      "inputs": [
        {
          "internalType": "address",
          "name": "_token",
          "type": "address"
        },
        {
          "internalType": "address",
          "name": "_receiver",
          "type": "address"
        }
      ],
      "name": "buyUSDA",
      "outputs": [
        {
          "internalType": "uint256",
          "name": "",
          "type": "uint256"
        }
      ],
      "stateMutability": "nonpayable",
      "type": "function"
    },
    {
      "inputs": [],
      "name": "closeBetaBasisPoints",
      "outputs": [
        {
          "internalType": "uint256",
          "name": "",
          "type": "uint256"
        }
      ],
      "stateMutability": "view",
      "type": "function"
    },
    {
      "inputs": [
        {
          "internalType": "address",
          "name": "",
          "type": "address"
        }
      ],
      "name": "collateralsPool",
      "outputs": [
        {
          "internalType": "uint256",
          "name": "",
          "type": "uint256"
        }
      ],
      "stateMutability": "view",
      "type": "function"
    },
    {
      "inputs": [
        {
          "internalType": "address",
          "name": "",
          "type": "address"
        }
      ],
      "name": "cumulativeBorrowRates",
      "outputs": [
        {
          "internalType": "uint256",
          "name": "",
          "type": "uint256"
        }
      ],
      "stateMutability": "view",
      "type": "function"
    },
    {
      "inputs": [
        {
          "internalType": "address",
          "name": "",
          "type": "address"
        }
      ],
      "name": "cumulativeFundingRates",
      "outputs": [
        {
          "internalType": "int256",
          "name": "",
          "type": "int256"
        }
      ],
      "stateMutability": "view",
      "type": "function"
    },
    {
      "inputs": [
        {
          "internalType": "address",
          "name": "_account",
          "type": "address"
        },
        {
          "internalType": "address",
          "name": "_collateralToken",
          "type": "address"
        },
        {
          "internalType": "address",
          "name": "_indexToken",
          "type": "address"
        },
        {
          "internalType": "uint256",
          "name": "_collateralDelta",
          "type": "uint256"
        },
        {
          "internalType": "uint256",
          "name": "_sizeDelta",
          "type": "uint256"
        },
        {
          "internalType": "bool",
          "name": "_isLong",
          "type": "bool"
        },
        {
          "internalType": "address",
          "name": "_receiver",
          "type": "address"
        }
      ],
      "name": "decreasePosition",
      "outputs": [
        {
          "internalType": "uint256",
          "name": "",
          "type": "uint256"
        }
      ],
      "stateMutability": "nonpayable",
      "type": "function"
    },
    {
      "inputs": [
        {
          "internalType": "address",
          "name": "_token",
          "type": "address"
        }
      ],
      "name": "directPoolDeposit",
      "outputs": [],
      "stateMutability": "nonpayable",
      "type": "function"
    },
    {
      "inputs": [],
      "name": "errorController",
      "outputs": [
        {
          "internalType": "address",
          "name": "",
          "type": "address"
        }
      ],
      "stateMutability": "view",
      "type": "function"
    },
    {
      "inputs": [
        {
          "internalType": "uint256",
          "name": "",
          "type": "uint256"
        }
      ],
      "name": "errors",
      "outputs": [
        {
          "internalType": "string",
          "name": "",
          "type": "string"
        }
      ],
      "stateMutability": "view",
      "type": "function"
    },
    {
      "inputs": [
        {
          "internalType": "address",
          "name": "",
          "type": "address"
        }
      ],
      "name": "feeReserves",
      "outputs": [
        {
          "internalType": "uint256",
          "name": "",
          "type": "uint256"
        }
      ],
      "stateMutability": "view",
      "type": "function"
    },
    {
      "inputs": [],
      "name": "fundingInterval",
      "outputs": [
        {
          "internalType": "uint256",
          "name": "",
          "type": "uint256"
        }
      ],
      "stateMutability": "view",
      "type": "function"
    },
    {
      "inputs": [],
      "name": "fundingRateCoefficient",
      "outputs": [
        {
          "internalType": "int256",
          "name": "",
          "type": "int256"
        }
      ],
      "stateMutability": "view",
      "type": "function"
    },
    {
      "inputs": [],
      "name": "fundingRateFactor",
      "outputs": [
        {
          "internalType": "uint256",
          "name": "",
          "type": "uint256"
        }
      ],
      "stateMutability": "view",
      "type": "function"
    },
    {
      "inputs": [
        {
          "internalType": "address",
          "name": "_account",
          "type": "address"
        },
        {
          "internalType": "address",
          "name": "_collateralToken",
          "type": "address"
        },
        {
          "internalType": "address",
          "name": "_indexToken",
          "type": "address"
        },
        {
          "internalType": "bool",
          "name": "_isLong",
          "type": "bool"
        },
        {
          "internalType": "uint256",
          "name": "_size",
          "type": "uint256"
        },
        {
          "internalType": "uint256",
          "name": "_entryBorrowRate",
          "type": "uint256"
        }
      ],
      "name": "getBorrowFee",
      "outputs": [
        {
          "internalType": "uint256",
          "name": "",
          "type": "uint256"
        }
      ],
      "stateMutability": "view",
      "type": "function"
    },
    {
      "inputs": [
        {
          "internalType": "address",
          "name": "_indexToken",
          "type": "address"
        },
        {
          "internalType": "uint256",
          "name": "_size",
          "type": "uint256"
        },
        {
          "internalType": "uint256",
          "name": "_averagePrice",
          "type": "uint256"
        },
        {
          "internalType": "bool",
          "name": "_isLong",
          "type": "bool"
        },
        {
          "internalType": "uint256",
          "name": "_lastIncreasedTime",
          "type": "uint256"
        },
        {
          "internalType": "bool",
          "name": "isUseMarketPrice",
          "type": "bool"
        }
      ],
      "name": "getDelta",
      "outputs": [
        {
          "internalType": "bool",
          "name": "",
          "type": "bool"
        },
        {
          "internalType": "uint256",
          "name": "",
          "type": "uint256"
        }
      ],
      "stateMutability": "view",
      "type": "function"
    },
    {
      "inputs": [
        {
          "internalType": "address",
          "name": "_collateralToken",
          "type": "address"
        },
        {
          "internalType": "address",
          "name": "_indexToken",
          "type": "address"
        },
        {
          "internalType": "bool",
          "name": "_isLong",
          "type": "bool"
        }
      ],
      "name": "getEntryBorrowRate",
      "outputs": [
        {
          "internalType": "uint256",
          "name": "",
          "type": "uint256"
        }
      ],
      "stateMutability": "view",
      "type": "function"
    },
    {
      "inputs": [
        {
          "internalType": "address",
          "name": "_token",
          "type": "address"
        },
        {
          "internalType": "uint256",
          "name": "_usdaDelta",
          "type": "uint256"
        },
        {
          "internalType": "uint256",
          "name": "_feeBasisPoints",
          "type": "uint256"
        },
        {
          "internalType": "uint256",
          "name": "_taxBasisPoints",
          "type": "uint256"
        },
        {
          "internalType": "bool",
          "name": "_increment",
          "type": "bool"
        }
      ],
      "name": "getFeeBasisPoints",
      "outputs": [
        {
          "internalType": "uint256",
          "name": "",
          "type": "uint256"
        }
      ],
      "stateMutability": "view",
      "type": "function"
    },
    {
      "inputs": [
        {
          "internalType": "address",
          "name": "_account",
          "type": "address"
        },
        {
          "internalType": "address",
          "name": "_collateralToken",
          "type": "address"
        },
        {
          "internalType": "address",
          "name": "_indexToken",
          "type": "address"
        },
        {
          "internalType": "bool",
          "name": "_isLong",
          "type": "bool"
        },
        {
          "internalType": "uint256",
          "name": "_size",
          "type": "uint256"
        },
        {
          "internalType": "int256",
          "name": "_entryFundingRate",
          "type": "int256"
        }
      ],
      "name": "getFundingFee",
      "outputs": [
        {
          "internalType": "int256",
          "name": "",
          "type": "int256"
        }
      ],
      "stateMutability": "view",
      "type": "function"
    },
    {
      "inputs": [
        {
          "internalType": "address",
          "name": "_token",
          "type": "address"
        },
        {
          "internalType": "uint256",
          "name": "_sizeDelta",
          "type": "uint256"
        },
        {
          "internalType": "bool",
          "name": "_isLong",
          "type": "bool"
        }
      ],
      "name": "getMarketPrice",
      "outputs": [
        {
          "internalType": "uint256",
          "name": "",
          "type": "uint256"
        }
      ],
      "stateMutability": "view",
      "type": "function"
    },
    {
      "inputs": [
        {
          "internalType": "address",
          "name": "_token",
          "type": "address"
        }
      ],
      "name": "getMaxPrice",
      "outputs": [
        {
          "internalType": "uint256",
          "name": "",
          "type": "uint256"
        }
      ],
      "stateMutability": "view",
      "type": "function"
    },
    {
      "inputs": [
        {
          "internalType": "address",
          "name": "_token",
          "type": "address"
        }
      ],
      "name": "getMinPrice",
      "outputs": [
        {
          "internalType": "uint256",
          "name": "",
          "type": "uint256"
        }
      ],
      "stateMutability": "view",
      "type": "function"
    },
    {
      "inputs": [
        {
          "internalType": "address",
          "name": "_indexToken",
          "type": "address"
        },
        {
          "internalType": "uint256",
          "name": "_size",
          "type": "uint256"
        },
        {
          "internalType": "uint256",
          "name": "_averagePrice",
          "type": "uint256"
        },
        {
          "internalType": "bool",
          "name": "_isLong",
          "type": "bool"
        },
        {
          "internalType": "uint256",
          "name": "_nextPrice",
          "type": "uint256"
        },
        {
          "internalType": "uint256",
          "name": "_sizeDelta",
          "type": "uint256"
        },
        {
          "internalType": "uint256",
          "name": "_lastIncreasedTime",
          "type": "uint256"
        }
      ],
      "name": "getNextAveragePrice",
      "outputs": [
        {
          "internalType": "uint256",
          "name": "",
          "type": "uint256"
        }
      ],
      "stateMutability": "view",
      "type": "function"
    },
    {
      "inputs": [
        {
          "internalType": "address",
          "name": "_token",
          "type": "address"
        }
      ],
      "name": "getNextBorrowRate",
      "outputs": [
        {
          "internalType": "uint256",
          "name": "",
          "type": "uint256"
        }
      ],
      "stateMutability": "view",
      "type": "function"
    },
    {
      "inputs": [
        {
          "internalType": "address",
          "name": "_token",
          "type": "address"
        }
      ],
      "name": "getNextFundingRate",
      "outputs": [
        {
          "internalType": "int256",
          "name": "",
          "type": "int256"
        }
      ],
      "stateMutability": "view",
      "type": "function"
    },
    {
      "inputs": [
        {
          "internalType": "address",
          "name": "_account",
          "type": "address"
        },
        {
          "internalType": "address",
          "name": "_collateralToken",
          "type": "address"
        },
        {
          "internalType": "address",
          "name": "_indexToken",
          "type": "address"
        },
        {
          "internalType": "bool",
          "name": "_isLong",
          "type": "bool"
        }
      ],
      "name": "getPosition",
      "outputs": [
        {
          "internalType": "uint256",
          "name": "",
          "type": "uint256"
        },
        {
          "internalType": "uint256",
          "name": "",
          "type": "uint256"
        },
        {
          "internalType": "uint256",
          "name": "",
          "type": "uint256"
        },
        {
          "internalType": "uint256",
          "name": "",
          "type": "uint256"
        },
        {
          "internalType": "uint256",
          "name": "",
          "type": "uint256"
        },
        {
          "internalType": "uint256",
          "name": "",
          "type": "uint256"
        },
        {
          "internalType": "bool",
          "name": "",
          "type": "bool"
        },
        {
          "internalType": "uint256",
          "name": "",
          "type": "uint256"
        },
        {
          "internalType": "int256",
          "name": "",
          "type": "int256"
        }
      ],
      "stateMutability": "view",
      "type": "function"
    },
    {
      "inputs": [
        {
          "internalType": "address",
          "name": "_account",
          "type": "address"
        },
        {
          "internalType": "address",
          "name": "_collateralToken",
          "type": "address"
        },
        {
          "internalType": "address",
          "name": "_indexToken",
          "type": "address"
        },
        {
          "internalType": "bool",
          "name": "_isLong",
          "type": "bool"
        }
      ],
      "name": "getPositionDelta",
      "outputs": [
        {
          "internalType": "bool",
          "name": "",
          "type": "bool"
        },
        {
          "internalType": "uint256",
          "name": "",
          "type": "uint256"
        }
      ],
      "stateMutability": "view",
      "type": "function"
    },
    {
      "inputs": [
        {
          "internalType": "address",
          "name": "_account",
          "type": "address"
        },
        {
          "internalType": "address",
          "name": "_collateralToken",
          "type": "address"
        },
        {
          "internalType": "address",
          "name": "_indexToken",
          "type": "address"
        },
        {
          "internalType": "bool",
          "name": "_isLong",
          "type": "bool"
        },
        {
          "internalType": "uint256",
          "name": "_sizeDelta",
          "type": "uint256"
        }
      ],
      "name": "getPositionFee",
      "outputs": [
        {
          "internalType": "uint256",
          "name": "",
          "type": "uint256"
        }
      ],
      "stateMutability": "view",
      "type": "function"
    },
    {
      "inputs": [
        {
          "internalType": "address",
          "name": "_account",
          "type": "address"
        },
        {
          "internalType": "address",
          "name": "_collateralToken",
          "type": "address"
        },
        {
          "internalType": "address",
          "name": "_indexToken",
          "type": "address"
        },
        {
          "internalType": "bool",
          "name": "_isLong",
          "type": "bool"
        }
      ],
      "name": "getPositionKey",
      "outputs": [
        {
          "internalType": "bytes32",
          "name": "",
          "type": "bytes32"
        }
      ],
      "stateMutability": "pure",
      "type": "function"
    },
    {
      "inputs": [
        {
          "internalType": "address",
          "name": "_account",
          "type": "address"
        },
        {
          "internalType": "address",
          "name": "_collateralToken",
          "type": "address"
        },
        {
          "internalType": "address",
          "name": "_indexToken",
          "type": "address"
        },
        {
          "internalType": "bool",
          "name": "_isLong",
          "type": "bool"
        }
      ],
      "name": "getPositionLeverage",
      "outputs": [
        {
          "internalType": "uint256",
          "name": "",
          "type": "uint256"
        }
      ],
      "stateMutability": "view",
      "type": "function"
    },
    {
      "inputs": [
        {
          "internalType": "address",
          "name": "_token",
          "type": "address"
        }
      ],
      "name": "getPrice",
      "outputs": [
        {
          "internalType": "uint256",
          "name": "",
          "type": "uint256"
        }
      ],
      "stateMutability": "view",
      "type": "function"
    },
    {
      "inputs": [
        {
          "internalType": "address",
          "name": "_token",
          "type": "address"
        },
        {
          "internalType": "uint256",
          "name": "_usdaAmount",
          "type": "uint256"
        }
      ],
      "name": "getRedemptionAmount",
      "outputs": [
        {
          "internalType": "uint256",
          "name": "",
          "type": "uint256"
        }
      ],
      "stateMutability": "view",
      "type": "function"
    },
    {
      "inputs": [
        {
          "internalType": "address",
          "name": "_token",
          "type": "address"
        }
      ],
      "name": "getTargetUsdaAmount",
      "outputs": [
        {
          "internalType": "uint256",
          "name": "",
          "type": "uint256"
        }
      ],
      "stateMutability": "view",
      "type": "function"
    },
    {
      "inputs": [
        {
          "internalType": "address",
          "name": "_token",
          "type": "address"
        }
      ],
      "name": "getUtilisation",
      "outputs": [
        {
          "internalType": "uint256",
          "name": "",
          "type": "uint256"
        }
      ],
      "stateMutability": "view",
      "type": "function"
    },
    {
      "inputs": [
        {
          "internalType": "address",
          "name": "",
          "type": "address"
        }
      ],
      "name": "globalNetUsd",
      "outputs": [
        {
          "internalType": "int256",
          "name": "",
          "type": "int256"
        }
      ],
      "stateMutability": "view",
      "type": "function"
    },
    {
      "inputs": [],
      "name": "gov",
      "outputs": [
        {
          "internalType": "address",
          "name": "",
          "type": "address"
        }
      ],
      "stateMutability": "view",
      "type": "function"
    },
    {
      "inputs": [],
      "name": "hasDynamicFees",
      "outputs": [
        {
          "internalType": "bool",
          "name": "",
          "type": "bool"
        }
      ],
      "stateMutability": "view",
      "type": "function"
    },
    {
      "inputs": [],
      "name": "inManagerMode",
      "outputs": [
        {
          "internalType": "bool",
          "name": "",
          "type": "bool"
        }
      ],
      "stateMutability": "view",
      "type": "function"
    },
    {
      "inputs": [],
      "name": "inPrivateLiquidationMode",
      "outputs": [
        {
          "internalType": "bool",
          "name": "",
          "type": "bool"
        }
      ],
      "stateMutability": "view",
      "type": "function"
    },
    {
      "inputs": [],
      "name": "includeAmmPrice",
      "outputs": [
        {
          "internalType": "bool",
          "name": "",
          "type": "bool"
        }
      ],
      "stateMutability": "view",
      "type": "function"
    },
    {
      "inputs": [
        {
          "internalType": "address",
          "name": "_account",
          "type": "address"
        },
        {
          "internalType": "address",
          "name": "_collateralToken",
          "type": "address"
        },
        {
          "internalType": "address",
          "name": "_indexToken",
          "type": "address"
        },
        {
          "internalType": "uint256",
          "name": "_sizeDelta",
          "type": "uint256"
        },
        {
          "internalType": "bool",
          "name": "_isLong",
          "type": "bool"
        }
      ],
      "name": "increasePosition",
      "outputs": [],
      "stateMutability": "nonpayable",
      "type": "function"
    },
    {
      "inputs": [
        {
          "internalType": "address",
          "name": "_router",
          "type": "address"
        },
        {
          "internalType": "address",
          "name": "_usda",
          "type": "address"
        },
        {
          "internalType": "address",
          "name": "_priceFeed",
          "type": "address"
        },
        {
          "internalType": "uint256",
          "name": "_liquidationFeeUsd",
          "type": "uint256"
        },
        {
          "internalType": "uint256",
          "name": "_fundingRateFactor",
          "type": "uint256"
        },
        {
          "internalType": "uint256",
          "name": "_stableFundingRateFactor",
          "type": "uint256"
        }
      ],
      "name": "initialize",
      "outputs": [],
      "stateMutability": "nonpayable",
      "type": "function"
    },
    {
      "inputs": [
        {
          "internalType": "address",
          "name": "",
          "type": "address"
        }
      ],
      "name": "insuranceFund",
      "outputs": [
        {
          "internalType": "uint256",
          "name": "",
          "type": "uint256"
        }
      ],
      "stateMutability": "view",
      "type": "function"
    },
    {
      "inputs": [],
      "name": "isInitialized",
      "outputs": [
        {
          "internalType": "bool",
          "name": "",
          "type": "bool"
        }
      ],
      "stateMutability": "view",
      "type": "function"
    },
    {
      "inputs": [],
      "name": "isLeverageEnabled",
      "outputs": [
        {
          "internalType": "bool",
          "name": "",
          "type": "bool"
        }
      ],
      "stateMutability": "view",
      "type": "function"
    },
    {
      "inputs": [
        {
          "internalType": "address",
          "name": "",
          "type": "address"
        }
      ],
      "name": "isLiquidator",
      "outputs": [
        {
          "internalType": "bool",
          "name": "",
          "type": "bool"
        }
      ],
      "stateMutability": "view",
      "type": "function"
    },
    {
      "inputs": [
        {
          "internalType": "address",
          "name": "",
          "type": "address"
        }
      ],
      "name": "isManager",
      "outputs": [
        {
          "internalType": "bool",
          "name": "",
          "type": "bool"
        }
      ],
      "stateMutability": "view",
      "type": "function"
    },
    {
      "inputs": [],
      "name": "isSwapEnabled",
      "outputs": [
        {
          "internalType": "bool",
          "name": "",
          "type": "bool"
        }
      ],
      "stateMutability": "view",
      "type": "function"
    },
    {
      "inputs": [
        {
          "internalType": "address",
          "name": "",
          "type": "address"
        }
      ],
      "name": "lastFundingTimes",
      "outputs": [
        {
          "internalType": "uint256",
          "name": "",
          "type": "uint256"
        }
      ],
      "stateMutability": "view",
      "type": "function"
    },
    {
      "inputs": [
        {
          "internalType": "address",
          "name": "_account",
          "type": "address"
        },
        {
          "internalType": "address",
          "name": "_collateralToken",
          "type": "address"
        },
        {
          "internalType": "address",
          "name": "_indexToken",
          "type": "address"
        },
        {
          "internalType": "bool",
          "name": "_isLong",
          "type": "bool"
        },
        {
          "internalType": "address",
          "name": "_feeReceiver",
          "type": "address"
        }
      ],
      "name": "liquidatePosition",
      "outputs": [],
      "stateMutability": "nonpayable",
      "type": "function"
    },
    {
      "inputs": [],
      "name": "liquidationFeeUsd",
      "outputs": [
        {
          "internalType": "uint256",
          "name": "",
          "type": "uint256"
        }
      ],
      "stateMutability": "view",
      "type": "function"
    },
    {
      "inputs": [],
      "name": "liquidationMarginRatio",
      "outputs": [
        {
          "internalType": "uint256",
          "name": "",
          "type": "uint256"
        }
      ],
      "stateMutability": "view",
      "type": "function"
    },
    {
      "inputs": [],
      "name": "liquidationPenaltyRate",
      "outputs": [
        {
          "internalType": "uint256",
          "name": "",
          "type": "uint256"
        }
      ],
      "stateMutability": "view",
      "type": "function"
    },
    {
      "inputs": [],
      "name": "marginFeeBasisPoints",
      "outputs": [
        {
          "internalType": "uint256",
          "name": "",
          "type": "uint256"
        }
      ],
      "stateMutability": "view",
      "type": "function"
    },
    {
      "inputs": [],
      "name": "maxGasPrice",
      "outputs": [
        {
          "internalType": "uint256",
          "name": "",
          "type": "uint256"
        }
      ],
      "stateMutability": "view",
      "type": "function"
    },
    {
      "inputs": [],
      "name": "maxLeverage",
      "outputs": [
        {
          "internalType": "uint256",
          "name": "",
          "type": "uint256"
        }
      ],
      "stateMutability": "view",
      "type": "function"
    },
    {
      "inputs": [
        {
          "internalType": "address",
          "name": "",
          "type": "address"
        }
      ],
      "name": "maxUsdaAmounts",
      "outputs": [
        {
          "internalType": "uint256",
          "name": "",
          "type": "uint256"
        }
      ],
      "stateMutability": "view",
      "type": "function"
    },
    {
      "inputs": [
        {
          "internalType": "address",
          "name": "",
          "type": "address"
        }
      ],
      "name": "minProfitBasisPoints",
      "outputs": [
        {
          "internalType": "uint256",
          "name": "",
          "type": "uint256"
        }
      ],
      "stateMutability": "view",
      "type": "function"
    },
    {
      "inputs": [],
      "name": "minProfitTime",
      "outputs": [
        {
          "internalType": "uint256",
          "name": "",
          "type": "uint256"
        }
      ],
      "stateMutability": "view",
      "type": "function"
    },
    {
      "inputs": [],
      "name": "mintFeeBasisPoints",
      "outputs": [
        {
          "internalType": "uint256",
          "name": "",
          "type": "uint256"
        }
      ],
      "stateMutability": "view",
      "type": "function"
    },
    {
      "inputs": [
        {
          "internalType": "address",
          "name": "",
          "type": "address"
        }
      ],
      "name": "netPosition",
      "outputs": [
        {
          "internalType": "int256",
          "name": "",
          "type": "int256"
        }
      ],
      "stateMutability": "view",
      "type": "function"
    },
    {
      "inputs": [],
      "name": "openBetaBasisPoints",
      "outputs": [
        {
          "internalType": "uint256",
          "name": "",
          "type": "uint256"
        }
      ],
      "stateMutability": "view",
      "type": "function"
    },
    {
      "inputs": [
        {
          "internalType": "address",
          "name": "",
          "type": "address"
        }
      ],
      "name": "poolAmounts",
      "outputs": [
        {
          "internalType": "uint256",
          "name": "",
          "type": "uint256"
        }
      ],
      "stateMutability": "view",
      "type": "function"
    },
    {
      "inputs": [
        {
          "internalType": "bytes32",
          "name": "",
          "type": "bytes32"
        }
      ],
      "name": "positions",
      "outputs": [
        {
          "internalType": "uint256",
          "name": "size",
          "type": "uint256"
        },
        {
          "internalType": "uint256",
          "name": "collateral",
          "type": "uint256"
        },
        {
          "internalType": "uint256",
          "name": "averagePrice",
          "type": "uint256"
        },
        {
          "internalType": "uint256",
          "name": "entryBorrowRate",
          "type": "uint256"
        },
        {
          "internalType": "uint256",
          "name": "reserveAmount",
          "type": "uint256"
        },
        {
          "internalType": "int256",
          "name": "realisedPnl",
          "type": "int256"
        },
        {
          "internalType": "uint256",
          "name": "lastIncreasedTime",
          "type": "uint256"
        },
        {
          "internalType": "int256",
          "name": "entryFundingRate",
          "type": "int256"
        }
      ],
      "stateMutability": "view",
      "type": "function"
    },
    {
      "inputs": [],
      "name": "priceFeed",
      "outputs": [
        {
          "internalType": "address",
          "name": "",
          "type": "address"
        }
      ],
      "stateMutability": "view",
      "type": "function"
    },
    {
      "inputs": [
        {
          "internalType": "address",
          "name": "_router",
          "type": "address"
        }
      ],
      "name": "removeRouter",
      "outputs": [],
      "stateMutability": "nonpayable",
      "type": "function"
    },
    {
      "inputs": [
        {
          "internalType": "address",
          "name": "",
          "type": "address"
        }
      ],
      "name": "reservedAmounts",
      "outputs": [
        {
          "internalType": "uint256",
          "name": "",
          "type": "uint256"
        }
      ],
      "stateMutability": "view",
      "type": "function"
    },
    {
      "inputs": [],
      "name": "router",
      "outputs": [
        {
          "internalType": "address",
          "name": "",
          "type": "address"
        }
      ],
      "stateMutability": "view",
      "type": "function"
    },
    {
      "inputs": [
        {
          "internalType": "address",
          "name": "_token",
          "type": "address"
        },
        {
          "internalType": "address",
          "name": "_receiver",
          "type": "address"
        }
      ],
      "name": "sellUSDA",
      "outputs": [
        {
          "internalType": "uint256",
          "name": "",
          "type": "uint256"
        }
      ],
      "stateMutability": "nonpayable",
      "type": "function"
    },
    {
      "inputs": [
        {
          "internalType": "address",
          "name": "_token",
          "type": "address"
        },
        {
          "internalType": "uint256",
          "name": "_amount",
          "type": "uint256"
        }
      ],
      "name": "setBufferAmount",
      "outputs": [],
      "stateMutability": "nonpayable",
      "type": "function"
    },
    {
      "inputs": [
        {
          "internalType": "uint256",
          "name": "_errorCode",
          "type": "uint256"
        },
        {
          "internalType": "string",
          "name": "_error",
          "type": "string"
        }
      ],
      "name": "setError",
      "outputs": [],
      "stateMutability": "nonpayable",
      "type": "function"
    },
    {
      "inputs": [
        {
          "internalType": "address",
          "name": "_errorController",
          "type": "address"
        }
      ],
      "name": "setErrorController",
      "outputs": [],
      "stateMutability": "nonpayable",
      "type": "function"
    },
    {
      "inputs": [
        {
          "internalType": "uint256",
          "name": "_taxBasisPoints",
          "type": "uint256"
        },
        {
          "internalType": "uint256",
          "name": "_stableTaxBasisPoints",
          "type": "uint256"
        },
        {
          "internalType": "uint256",
          "name": "_mintFeeBasisPoints",
          "type": "uint256"
        },
        {
          "internalType": "uint256",
          "name": "_burnFeeBasisPoints",
          "type": "uint256"
        },
        {
          "internalType": "uint256",
          "name": "_swapFeeBasisPoints",
          "type": "uint256"
        },
        {
          "internalType": "uint256",
          "name": "_stableSwapFeeBasisPoints",
          "type": "uint256"
        },
        {
          "internalType": "uint256",
          "name": "_marginFeeBasisPoints",
          "type": "uint256"
        },
        {
          "internalType": "uint256",
          "name": "_liquidationFeeUsd",
          "type": "uint256"
        },
        {
          "internalType": "uint256",
          "name": "_minProfitTime",
          "type": "uint256"
        },
        {
          "internalType": "bool",
          "name": "_hasDynamicFees",
          "type": "bool"
        }
      ],
      "name": "setFees",
      "outputs": [],
      "stateMutability": "nonpayable",
      "type": "function"
    },
    {
      "inputs": [
        {
          "internalType": "uint256",
          "name": "_fundingInterval",
          "type": "uint256"
        },
        {
          "internalType": "uint256",
          "name": "_fundingRateFactor",
          "type": "uint256"
        },
        {
          "internalType": "uint256",
          "name": "_stableFundingRateFactor",
          "type": "uint256"
        }
      ],
      "name": "setFundingRate",
      "outputs": [],
      "stateMutability": "nonpayable",
      "type": "function"
    },
    {
      "inputs": [
        {
          "internalType": "address",
          "name": "_gov",
          "type": "address"
        }
      ],
      "name": "setGov",
      "outputs": [],
      "stateMutability": "nonpayable",
      "type": "function"
    },
    {
      "inputs": [
        {
          "internalType": "bool",
          "name": "_inManagerMode",
          "type": "bool"
        }
      ],
      "name": "setInManagerMode",
      "outputs": [],
      "stateMutability": "nonpayable",
      "type": "function"
    },
    {
      "inputs": [
        {
          "internalType": "bool",
          "name": "_inPrivateLiquidationMode",
          "type": "bool"
        }
      ],
      "name": "setInPrivateLiquidationMode",
      "outputs": [],
      "stateMutability": "nonpayable",
      "type": "function"
    },
    {
      "inputs": [
        {
          "internalType": "bool",
          "name": "_isLeverageEnabled",
          "type": "bool"
        }
      ],
      "name": "setIsLeverageEnabled",
      "outputs": [],
      "stateMutability": "nonpayable",
      "type": "function"
    },
    {
      "inputs": [
        {
          "internalType": "bool",
          "name": "_isSwapEnabled",
          "type": "bool"
        }
      ],
      "name": "setIsSwapEnabled",
      "outputs": [],
      "stateMutability": "nonpayable",
      "type": "function"
    },
    {
      "inputs": [
        {
          "internalType": "address",
          "name": "_liquidator",
          "type": "address"
        },
        {
          "internalType": "bool",
          "name": "_isActive",
          "type": "bool"
        }
      ],
      "name": "setLiquidator",
      "outputs": [],
      "stateMutability": "nonpayable",
      "type": "function"
    },
    {
      "inputs": [
        {
          "internalType": "address",
          "name": "_manager",
          "type": "address"
        },
        {
          "internalType": "bool",
          "name": "_isManager",
          "type": "bool"
        }
      ],
      "name": "setManager",
      "outputs": [],
      "stateMutability": "nonpayable",
      "type": "function"
    },
    {
      "inputs": [
        {
          "internalType": "uint256",
          "name": "_maxGasPrice",
          "type": "uint256"
        }
      ],
      "name": "setMaxGasPrice",
      "outputs": [],
      "stateMutability": "nonpayable",
      "type": "function"
    },
    {
      "inputs": [
        {
          "internalType": "uint256",
          "name": "_maxLeverage",
          "type": "uint256"
        }
      ],
      "name": "setMaxLeverage",
      "outputs": [],
      "stateMutability": "nonpayable",
      "type": "function"
    },
    {
      "inputs": [
        {
          "internalType": "address",
          "name": "_priceFeed",
          "type": "address"
        }
      ],
      "name": "setPriceFeed",
      "outputs": [],
      "stateMutability": "nonpayable",
      "type": "function"
    },
    {
      "inputs": [
        {
          "internalType": "address",
          "name": "_token",
          "type": "address"
        },
        {
          "internalType": "uint256",
          "name": "_tokenDecimals",
          "type": "uint256"
        },
        {
          "internalType": "uint256",
          "name": "_tokenWeight",
          "type": "uint256"
        },
        {
          "internalType": "uint256",
          "name": "_minProfitBps",
          "type": "uint256"
        },
        {
          "internalType": "uint256",
          "name": "_maxUsdaAmount",
          "type": "uint256"
        },
        {
          "internalType": "bool",
          "name": "_isStable",
          "type": "bool"
        },
        {
          "internalType": "bool",
          "name": "_isShortable",
          "type": "bool"
        }
      ],
      "name": "setTokenConfig",
      "outputs": [],
      "stateMutability": "nonpayable",
      "type": "function"
    },
    {
      "inputs": [
        {
          "internalType": "address",
          "name": "_token",
          "type": "address"
        },
        {
          "internalType": "uint256",
          "name": "_amount",
          "type": "uint256"
        }
      ],
      "name": "setUsdaAmount",
      "outputs": [],
      "stateMutability": "nonpayable",
      "type": "function"
    },
    {
      "inputs": [
        {
          "internalType": "contract IVaultUtils",
          "name": "_vaultUtils",
          "type": "address"
        }
      ],
      "name": "setVaultUtils",
      "outputs": [],
      "stateMutability": "nonpayable",
      "type": "function"
    },
    {
      "inputs": [
        {
          "internalType": "address",
          "name": "",
          "type": "address"
        }
      ],
      "name": "shortableTokens",
      "outputs": [
        {
          "internalType": "bool",
          "name": "",
          "type": "bool"
        }
      ],
      "stateMutability": "view",
      "type": "function"
    },
    {
      "inputs": [],
      "name": "stableFundingRateFactor",
      "outputs": [
        {
          "internalType": "uint256",
          "name": "",
          "type": "uint256"
        }
      ],
      "stateMutability": "view",
      "type": "function"
    },
    {
      "inputs": [],
      "name": "stableSwapFeeBasisPoints",
      "outputs": [
        {
          "internalType": "uint256",
          "name": "",
          "type": "uint256"
        }
      ],
      "stateMutability": "view",
      "type": "function"
    },
    {
      "inputs": [],
      "name": "stableTaxBasisPoints",
      "outputs": [
        {
          "internalType": "uint256",
          "name": "",
          "type": "uint256"
        }
      ],
      "stateMutability": "view",
      "type": "function"
    },
    {
      "inputs": [
        {
          "internalType": "address",
          "name": "",
          "type": "address"
        }
      ],
      "name": "stableTokens",
      "outputs": [
        {
          "internalType": "bool",
          "name": "",
          "type": "bool"
        }
      ],
      "stateMutability": "view",
      "type": "function"
    },
    {
      "inputs": [
        {
          "internalType": "address",
          "name": "_tokenIn",
          "type": "address"
        },
        {
          "internalType": "address",
          "name": "_tokenOut",
          "type": "address"
        },
        {
          "internalType": "address",
          "name": "_receiver",
          "type": "address"
        }
      ],
      "name": "swap",
      "outputs": [
        {
          "internalType": "uint256",
          "name": "",
          "type": "uint256"
        }
      ],
      "stateMutability": "nonpayable",
      "type": "function"
    },
    {
      "inputs": [],
      "name": "swapFeeBasisPoints",
      "outputs": [
        {
          "internalType": "uint256",
          "name": "",
          "type": "uint256"
        }
      ],
      "stateMutability": "view",
      "type": "function"
    },
    {
      "inputs": [],
      "name": "taxBasisPoints",
      "outputs": [
        {
          "internalType": "uint256",
          "name": "",
          "type": "uint256"
        }
      ],
      "stateMutability": "view",
      "type": "function"
    },
    {
      "inputs": [
        {
          "internalType": "address",
          "name": "",
          "type": "address"
        }
      ],
      "name": "tokenBalances",
      "outputs": [
        {
          "internalType": "uint256",
          "name": "",
          "type": "uint256"
        }
      ],
      "stateMutability": "view",
      "type": "function"
    },
    {
      "inputs": [
        {
          "internalType": "address",
          "name": "",
          "type": "address"
        }
      ],
      "name": "tokenDecimals",
      "outputs": [
        {
          "internalType": "uint256",
          "name": "",
          "type": "uint256"
        }
      ],
      "stateMutability": "view",
      "type": "function"
    },
    {
      "inputs": [
        {
          "internalType": "address",
          "name": "_token",
          "type": "address"
        },
        {
          "internalType": "uint256",
          "name": "_tokenAmount",
          "type": "uint256"
        }
      ],
      "name": "tokenToUsdMin",
      "outputs": [
        {
          "internalType": "uint256",
          "name": "",
          "type": "uint256"
        }
      ],
      "stateMutability": "view",
      "type": "function"
    },
    {
      "inputs": [
        {
          "internalType": "address",
          "name": "",
          "type": "address"
        }
      ],
      "name": "tokenWeights",
      "outputs": [
        {
          "internalType": "uint256",
          "name": "",
          "type": "uint256"
        }
      ],
      "stateMutability": "view",
      "type": "function"
    },
    {
      "inputs": [],
      "name": "totalTokenWeights",
      "outputs": [
        {
          "internalType": "uint256",
          "name": "",
          "type": "uint256"
        }
      ],
      "stateMutability": "view",
      "type": "function"
    },
    {
      "inputs": [
        {
          "internalType": "address",
          "name": "_collateralToken",
          "type": "address"
        },
        {
          "internalType": "address",
          "name": "_indexToken",
          "type": "address"
        }
      ],
      "name": "updateFundingAndBorrowRate",
      "outputs": [],
      "stateMutability": "nonpayable",
      "type": "function"
    },
    {
      "inputs": [
        {
          "internalType": "address",
          "name": "_newVault",
          "type": "address"
        },
        {
          "internalType": "address",
          "name": "_token",
          "type": "address"
        },
        {
          "internalType": "uint256",
          "name": "_amount",
          "type": "uint256"
        }
      ],
      "name": "upgradeVault",
      "outputs": [],
      "stateMutability": "nonpayable",
      "type": "function"
    },
    {
      "inputs": [
        {
          "internalType": "address",
          "name": "_token",
          "type": "address"
        },
        {
          "internalType": "uint256",
          "name": "_usdAmount",
          "type": "uint256"
        },
        {
          "internalType": "uint256",
          "name": "_price",
          "type": "uint256"
        }
      ],
      "name": "usdToToken",
      "outputs": [
        {
          "internalType": "uint256",
          "name": "",
          "type": "uint256"
        }
      ],
      "stateMutability": "view",
      "type": "function"
    },
    {
      "inputs": [
        {
          "internalType": "address",
          "name": "_token",
          "type": "address"
        },
        {
          "internalType": "uint256",
          "name": "_usdAmount",
          "type": "uint256"
        }
      ],
      "name": "usdToTokenMax",
      "outputs": [
        {
          "internalType": "uint256",
          "name": "",
          "type": "uint256"
        }
      ],
      "stateMutability": "view",
      "type": "function"
    },
    {
      "inputs": [
        {
          "internalType": "address",
          "name": "_token",
          "type": "address"
        },
        {
          "internalType": "uint256",
          "name": "_usdAmount",
          "type": "uint256"
        }
      ],
      "name": "usdToTokenMin",
      "outputs": [
        {
          "internalType": "uint256",
          "name": "",
          "type": "uint256"
        }
      ],
      "stateMutability": "view",
      "type": "function"
    },
    {
      "inputs": [],
      "name": "usda",
      "outputs": [
        {
          "internalType": "address",
          "name": "",
          "type": "address"
        }
      ],
      "stateMutability": "view",
      "type": "function"
    },
    {
      "inputs": [
        {
          "internalType": "address",
          "name": "",
          "type": "address"
        }
      ],
      "name": "usdaAmounts",
      "outputs": [
        {
          "internalType": "uint256",
          "name": "",
          "type": "uint256"
        }
      ],
      "stateMutability": "view",
      "type": "function"
    },
    {
      "inputs": [],
      "name": "useSwapPricing",
      "outputs": [
        {
          "internalType": "bool",
          "name": "",
          "type": "bool"
        }
      ],
      "stateMutability": "view",
      "type": "function"
    },
    {
      "inputs": [
        {
          "internalType": "address",
          "name": "_account",
          "type": "address"
        },
        {
          "internalType": "address",
          "name": "_collateralToken",
          "type": "address"
        },
        {
          "internalType": "address",
          "name": "_indexToken",
          "type": "address"
        },
        {
          "internalType": "bool",
          "name": "_isLong",
          "type": "bool"
        },
        {
          "internalType": "bool",
          "name": "_raise",
          "type": "bool"
        }
      ],
      "name": "validateLiquidation",
      "outputs": [
        {
          "internalType": "uint256",
          "name": "",
          "type": "uint256"
        },
        {
          "internalType": "uint256",
          "name": "",
          "type": "uint256"
        }
      ],
      "stateMutability": "view",
      "type": "function"
    },
    {
      "inputs": [],
      "name": "vaultUtils",
      "outputs": [
        {
          "internalType": "contract IVaultUtils",
          "name": "",
          "type": "address"
        }
      ],
      "stateMutability": "view",
      "type": "function"
    },
    {
      "inputs": [],
      "name": "whitelistedTokenCount",
      "outputs": [
        {
          "internalType": "uint256",
          "name": "",
          "type": "uint256"
        }
      ],
      "stateMutability": "view",
      "type": "function"
    },
    {
      "inputs": [
        {
          "internalType": "address",
          "name": "",
          "type": "address"
        }
      ],
      "name": "whitelistedTokens",
      "outputs": [
        {
          "internalType": "bool",
          "name": "",
          "type": "bool"
        }
      ],
      "stateMutability": "view",
      "type": "function"
    },
    {
      "inputs": [
        {
          "internalType": "address",
          "name": "_token",
          "type": "address"
        },
        {
          "internalType": "address",
          "name": "_receiver",
          "type": "address"
        }
      ],
      "name": "withdrawFees",
      "outputs": [
        {
          "internalType": "uint256",
          "name": "",
          "type": "uint256"
        }
      ],
      "stateMutability": "nonpayable",
      "type": "function"
    }
  ],
  "bytecode": "0x60806040526001805462ff00001961ff00199091166101001716620100001781556207a120600855604b6009556034600a9081556014600b8190556032600d819055600e829055601e600f81905560108190556011556004601255601392909255610271905560196015556017805460ff19908116909155610e10601855601c805463ffffff0019921690931716909155600560315580553480156100a357600080fd5b506001600055600680546001600160a01b03191633179055615d3480620000cb6000396000f3fe608060405234801561001057600080fd5b50600436106105e65760003560e01c806381a612d61161030a578063c3c7b9e9116101a5578063c3c7b9e9146112da578063c4f718bf14611300578063c559a4d714611308578063c65bc7b11461133c578063c7e074c314611362578063cc018b7c146113a2578063cea0c328146113aa578063cfad57a2146113e0578063d2fa635e14611406578063d3127e6314611423578063d54d5a9f14611440578063d8f897c31461149f578063d9ac4225146114c5578063daf9c210146114cd578063db3555fb146114f3578063db97495f14611519578063dc8f5fac14611565578063dce8e8481461156d578063de2ea94814611593578063df73a267146115db578063e124e6d214610942578063e2b19ff0146115e3578063e468baf0146115eb578063e8cfa11a14611608578063f07bbf7714611640578063f25552781461165f578063f3ae24151461168d578063f887ea40146116b3578063fa12dbc0146116bb578063fc32298a146116ed578063fce28c1014611713578063fdaf6ac31461171b578063fed1a6061461175f576105e6565b806381a612d614610ef557806382a0849014610f1b578063831cb76314610f6f57806384947bb814610f9d5780638585f4d214610fc957806388b1fbdf14610ff55780638a27d4681461101b5780638a39735a1461068d5780638ee573ac146110445780638f7b84041461106a578063905880e0146110905780639060b1ca146110b657806390e3ea5c146110be57806393316212146110c657806395082d25146110fe57806397f0685d146111065780639849e4121461110e5780639899cd021461111657806399bff104146111425780639c2ba402146111685780639f392eb314611170578063a22f239214611178578063a42ab3d214611180578063a5e90eee146111ac578063a93acac2146111da578063ab08c1c614611200578063ab2f3ad414611208578063ae3302c21461122e578063b06423f314611236578063b08b12b81461123e578063b63ee4f114611288578063b6ffd04e146112d2576105e6565b80634215287311610485578063421528731461096857806342b60b031461099c5780634453a374146109c2578063450c29f7146109f05780634540be4d14610a1657806345a6f37014610a7957806348d91abf14610ab757806348f35cbb14610afb5780634a3f088d14610b035780634a993ee914610b8a5780634befe2ca14610bb0578063514ea4bf14610bb857806351723e8214610c16578063523fba7f14610c54578063529a356f14610c7a57806352f55eed14610ca05780635f7bc11914610cc65780635feeacda14610cec5780636092219914610d1a57806362287a3214610d4857806366f80d3614610d505780636abbe0c814610d765780636ae0b15414610d7e5780636be6026b14610da45780636cd5a63514610dac57806371089f4d14610dd2578063724e78da14610df8578063728cdbca14610e1e578063741bef1a14610e6657806379c36d9f14610e6e5780637a210a2b14610ec65780637c2eb9f714610ece57806380cd768b14610eed576105e6565b806304fef1db146105eb578063077aace51461062357806307c58752146106495780630842b076146106515780630a48d5a91461065957806310eb56c214610685578063126082cf1461068d57806312d43a511461069557806312fc83d6146106b9578063134ca63b146106c1578063147918c8146106c9578063174d2694146106f7578063181e210e146106ff5780631ce9cb8f1461071b5780632098fff314610741578063247272441461076757806324b0c04d1461076f57806324ca984e1461079057806328e67be5146107b65780632c668ec11461082b5780632d4b0576146108575780632de900b51461089557806330455ede1461089d578063318bc689146108bc57806331934d76146108c457806334c1557d146108cc578063351a964d146108d4578063392e53cd146108dc5780633c5a6e35146108e45780633de39c11146109325780633e72a2621461093a57806341976e0914610942575b600080fd5b6106116004803603602081101561060157600080fd5b50356001600160a01b03166117f1565b60408051918252519081900360200190f35b6106116004803603602081101561063957600080fd5b50356001600160a01b0316611854565b610611611866565b610611611877565b6106116004803603604081101561066f57600080fd5b506001600160a01b03813516906020013561187d565b6106116118d0565b6106116118d6565b61069d6118dc565b604080516001600160a01b039092168252519081900360200190f35b6106116118eb565b6106116118f0565b610611600480360360408110156106df57600080fd5b506001600160a01b03813581169160200135166118f6565b610611611bbc565b610707611bc2565b604080519115158252519081900360200190f35b6106116004803603602081101561073157600080fd5b50356001600160a01b0316611bd2565b6106116004803603602081101561075757600080fd5b50356001600160a01b0316611be4565b610611611c7a565b61078e6004803603602081101561078557600080fd5b50351515611c80565b005b61078e600480360360208110156107a657600080fd5b50356001600160a01b0316611ca4565b61078e600480360360408110156107cc57600080fd5b81359190810190604081016020820135600160201b8111156107ed57600080fd5b8201836020820111156107ff57600080fd5b803590602001918460018302840111600160201b8311171561082057600080fd5b509092509050611cd5565b6106116004803603604081101561084157600080fd5b506001600160a01b038135169060200135611d53565b6106116004803603608081101561086d57600080fd5b506001600160a01b038135811691602081013582169160408201351690606001351515611d98565b610611611dee565b61078e600480360360208110156108b357600080fd5b50351515611df4565b610611611e16565b610611611e1c565b610611611e22565b610707611e27565b610707611e35565b61078e600480360360e08110156108fa57600080fd5b506001600160a01b038135169060208101359060408101359060608101359060808101359060a081013515159060c001351515611e3e565b610611611f82565b610707611f88565b6106116004803603602081101561095857600080fd5b50356001600160a01b0316611f97565b6106116004803603606081101561097e57600080fd5b508035906001600160a01b036020820135811691604001351661200f565b610707600480360360208110156109b257600080fd5b50356001600160a01b03166120b1565b61078e600480360360408110156109d857600080fd5b506001600160a01b03813516906020013515156120c6565b61061160048036036020811015610a0657600080fd5b50356001600160a01b03166120f9565b610a5e600480360360c0811015610a2c57600080fd5b506001600160a01b0381351690602081013590604081013590606081013515159060808101359060a00135151561210b565b60408051921515835260208301919091528051918290030190f35b610a5e60048036036080811015610a8f57600080fd5b506001600160a01b038135811691602081013582169160408201351690606001351515612220565b61078e600480360360a0811015610acd57600080fd5b506001600160a01b0381358116916020810135821691604082013516906060810135906080013515156122c9565b61069d612640565b610b4160048036036080811015610b1957600080fd5b506001600160a01b03813581169160208101358216916040820135169060600135151561264f565b60408051998a5260208a0198909852888801969096526060880194909452608087019290925260a0860152151560c085015260e084015261010083015251908190036101200190f35b61061160048036036020811015610ba057600080fd5b50356001600160a01b0316612759565b61061161276b565b610bd560048036036020811015610bce57600080fd5b5035612771565b604080519889526020890197909752878701959095526060870193909352608086019190915260a085015260c084015260e083015251908190036101000190f35b61061160048036036080811015610c2c57600080fd5b506001600160a01b0381358116916020810135821691604082013516906060013515156127b4565b61061160048036036020811015610c6a57600080fd5b50356001600160a01b0316612865565b61070760048036036020811015610c9057600080fd5b50356001600160a01b0316612877565b61061160048036036020811015610cb657600080fd5b50356001600160a01b031661288c565b61078e60048036036020811015610cdc57600080fd5b50356001600160a01b031661289e565b61078e60048036036040811015610d0257600080fd5b506001600160a01b0381358116916020013516612981565b61070760048036036040811015610d3057600080fd5b506001600160a01b0381358116916020013516612b11565b610611612b31565b61061160048036036020811015610d6657600080fd5b50356001600160a01b0316612b37565b61069d612b49565b61078e60048036036020811015610d9457600080fd5b50356001600160a01b0316612b5f565b610611612b8d565b61061160048036036020811015610dc257600080fd5b50356001600160a01b0316612b94565b61078e60048036036020811015610de857600080fd5b50356001600160a01b0316612ba6565b61078e60048036036020811015610e0e57600080fd5b50356001600160a01b0316612bda565b61078e600480360360c0811015610e3457600080fd5b506001600160a01b03813581169160208101358216916040820135169060608101359060808101359060a00135612c04565b61069d612c7b565b61078e6004803603610140811015610e8557600080fd5b5080359060208101359060408101359060608101359060808101359060a08101359060c08101359060e0810135906101008101359061012001351515612c8a565b610611612d5a565b61078e60048036036020811015610ee457600080fd5b50351515612d60565b610611612d84565b61061160048036036020811015610f0b57600080fd5b50356001600160a01b0316612d8a565b610611600480360360e0811015610f3157600080fd5b506001600160a01b0381358116916020810135821691604082013581169160608101359160808201359160a081013515159160c09091013516612e03565b61061160048036036040811015610f8557600080fd5b506001600160a01b0381358116916020013516612e81565b61078e60048036036040811015610fb357600080fd5b506001600160a01b03813516906020013561310b565b61078e60048036036040811015610fdf57600080fd5b506001600160a01b038135169060200135613113565b6106116004803603602081101561100b57600080fd5b50356001600160a01b0316613137565b61078e6004803603606081101561103157600080fd5b5080359060208101359060400135613149565b6106116004803603602081101561105a57600080fd5b50356001600160a01b031661318f565b61078e6004803603602081101561108057600080fd5b50356001600160a01b03166131a1565b610611600480360360208110156110a657600080fd5b50356001600160a01b03166131cb565b6107076131dd565b6106116131ec565b610611600480360360608110156110dc57600080fd5b506001600160a01b0381358116916020810135821691604090910135166131f2565b6106116134c6565b6106116134d6565b6106116134dc565b6106116004803603604081101561112c57600080fd5b506001600160a01b0381351690602001356134e2565b6106116004803603602081101561115857600080fd5b50356001600160a01b0316613504565b6106116135c4565b6107076135ca565b6106116135d3565b6106116004803603604081101561119657600080fd5b506001600160a01b0381351690602001356135d9565b61078e600480360360408110156111c257600080fd5b506001600160a01b03813516906020013515156135f6565b610611600480360360208110156111f057600080fd5b50356001600160a01b0316613628565b61070761368c565b6106116004803603602081101561121e57600080fd5b50356001600160a01b0316613695565b6106116136a7565b6107076136ad565b610611600480360360c081101561125457600080fd5b506001600160a01b038135811691602081013582169160408201351690606081013515159060808101359060a001356136bb565b610611600480360360c081101561129e57600080fd5b506001600160a01b038135811691602081013582169160408201351690606081013515159060808101359060a0013561376f565b6106116137ec565b610611600480360360208110156112f057600080fd5b50356001600160a01b03166137f2565b610611613804565b6106116004803603606081101561131e57600080fd5b506001600160a01b038135169060208101359060400135151561380a565b6106116004803603602081101561135257600080fd5b50356001600160a01b03166138a4565b610611600480360360a081101561137857600080fd5b506001600160a01b03813516906020810135906040810135906060810135906080013515156138b6565b610611613960565b61078e600480360360608110156113c057600080fd5b506001600160a01b03813581169160208101359091169060400135613966565b61078e600480360360208110156113f657600080fd5b50356001600160a01b0316613987565b61078e6004803603602081101561141c57600080fd5b50356139b1565b61078e6004803603602081101561143957600080fd5b50356139be565b611486600480360360a081101561145657600080fd5b506001600160a01b03813581169160208101358216916040820135169060608101351515906080013515156139d9565b6040805192835260208301919091528051918290030190f35b610611600480360360208110156114b557600080fd5b50356001600160a01b0316613a90565b610611613aa2565b610707600480360360208110156114e357600080fd5b50356001600160a01b0316613aa8565b6107076004803603602081101561150957600080fd5b50356001600160a01b0316613abd565b610611600480360360e081101561152f57600080fd5b506001600160a01b0381351690602081013590604081013590606081013515159060808101359060a08101359060c00135613ad2565b610611613b65565b6106116004803603602081101561158357600080fd5b50356001600160a01b0316613b6b565b61078e600480360360a08110156115a957600080fd5b506001600160a01b03813581169160208101358216916040820135811691606081013515159160809091013516613b7d565b610611613f22565b61069d613f28565b61069d6004803603602081101561160157600080fd5b5035613f37565b6106116004803603606081101561161e57600080fd5b506001600160a01b038135811691602081013590911690604001351515613f5e565b61078e6004803603602081101561165657600080fd5b50351515613fc5565b6106116004803603604081101561167557600080fd5b506001600160a01b0381358116916020013516613feb565b610707600480360360208110156116a357600080fd5b50356001600160a01b0316614041565b61069d614055565b610611600480360360608110156116d157600080fd5b506001600160a01b038135169060208101359060400135614064565b6106116004803603602081101561170357600080fd5b50356001600160a01b03166140a7565b6106116140b9565b610611600480360360a081101561173157600080fd5b506001600160a01b0381358116916020810135821691604082013516906060810135151590608001356140bf565b61177c6004803603602081101561177557600080fd5b5035614135565b6040805160208082528351818301528351919283929083019185019080838360005b838110156117b657818101518382015260200161179e565b50505050905090810190601f1680156117e35780820380516001836020036101000a031916815260200191505b509250505060405180910390f35b6001600160a01b0381166000908152602b60205260408120548061181957600091505061184f565b6001600160a01b0383166000908152602d602052604090205461184b90829061184590620f42406141d0565b90614229565b9150505b919050565b602f6020526000908152604090205481565b6904ee2d6d415b85acef8160201b81565b60215490565b60008161188c575060006118ca565b600061189784612d8a565b6001600160a01b0385166000908152602360205260409020549091506118c5600a82900a61184586856141d0565b925050505b92915050565b600e5481565b61271081565b6006546001600160a01b031681565b601281565b601a5481565b60006002600054141561193e576040805162461bcd60e51b815260206004820152601f6024820152600080516020615c34833981519152604482015290519081900360640190fd5b600260005561194b614268565b6001600160a01b0383166000908152602260205260409020546119729060ff166010614298565b601c805461ff001916610100179055600061198c84614344565b905061199c600082116011614298565b6119a68485612981565b60006119b185612d8a565b905060006119cf68327cb2734119d3b7a9601e1b61184585856141d0565b6005549091506119eb90829088906001600160a01b031661200f565b90506119fb600082116012614298565b60015460408051630e9b7e6160e41b81526001600160a01b038981166004830152602482018590529151600093630100000090049092169163e9b7e61091604480820192602092909190829003018186803b158015611a5957600080fd5b505afa158015611a6d573d6000803e3d6000fd5b505050506040513d6020811015611a8357600080fd5b505190506000611a948886846143f1565b90506000611ab268327cb2734119d3b7a9601e1b61184584886141d0565b600554909150611ace9082908b906001600160a01b031661200f565b9050611ada89836144b9565b600554604080516340c10f1960e01b81526001600160a01b038b8116600483015260248201859052915191909216916340c10f1991604480830192600092919082900301818387803b158015611b2f57600080fd5b505af1158015611b43573d6000803e3d6000fd5b5050604080516001600160a01b03808d1682528d1660208201528082018a9052606081018590526080810187905290517f154d5ccdba87010e86e8ad1ded709e1c7e8f5f3adcce746d8381218722ca641793509081900360a0019150a1601c805461ff0019169055600160005598975050505050505050565b600c5481565b601c546301000000900460ff1681565b60356020526000908152604090205481565b6000600160039054906101000a90046001600160a01b03166001600160a01b0316632098fff3836040518263ffffffff1660e01b815260040180826001600160a01b0316815260200191505060206040518083038186803b158015611c4857600080fd5b505afa158015611c5c573d6000803e3d6000fd5b505050506040513d6020811015611c7257600080fd5b505192915050565b60145481565b611c886145d1565b601c8054911515620100000262ff000019909216919091179055565b336000908152601e602090815260408083206001600160a01b0394909416835292905220805460ff19166001179055565b6002546001600160a01b03163314611d34576040805162461bcd60e51b815260206004820152601e60248201527f5661756c743a20696e76616c6964206572726f72436f6e74726f6c6c65720000604482015290519081900360640190fd5b6000838152603860205260409020611d4d908383615b5b565b50505050565b600080611d5f84611f97565b90506000611d7d826118458668327cb2734119d3b7a9601e1b6141d0565b6005549091506118c59082906001600160a01b03168761200f565b604080516001600160601b0319606096871b811660208084019190915295871b811660348301529390951b9092166048850152151560f81b605c8401528051603d818503018152605d9093019052815191012090565b60325481565b611dfc6145d1565b600180549115156101000261ff0019909216919091179055565b60135481565b60105481565b600081565b600154610100900460ff1681565b60015460ff1681565b611e466145d1565b6001600160a01b03871660009081526022602052604090205460ff16611ec357600754611e749060016145ea565b600755602180546001810182556000919091527f3a6357012c1a3ae0a17d304c9920310382d968ebcc4b1771f41c6b304205b5700180546001600160a01b0319166001600160a01b0389161790555b601b546001600160a01b038816600090815260286020526040902054611eea908290614642565b6001600160a01b03891660009081526022602090815260408083208054600160ff1991821617909155602383528184208c9055602883528184208b9055602483528184208a9055602a83528184208990556025835281842080548216891515179055602690925290912080549091168415151790559050611f6b81876145ea565b601b55611f7788611f97565b505050505050505050565b601d5481565b60015462010000900460ff1681565b60048054601c54604080516317e1d38560e11b81526001600160a01b03868116958201959095526001602482015260ff80841615156044830152610100909304909216151560648301525160009390921691632fc3a70a91608480820192602092909190829003018186803b158015611c4857600080fd5b60055460009081906001600160a01b03858116911614612047576001600160a01b03841660009081526023602052604090205461204a565b60125b6005549091506000906001600160a01b03858116911614612083576001600160a01b038416600090815260236020526040902054612086565b60125b90506120a582600a0a61184583600a0a896141d090919063ffffffff16565b925050505b9392505050565b60256020526000908152604090205460ff1681565b6120ce6145d1565b6001600160a01b03919091166000908152601f60205260409020805460ff1916911515919091179055565b602c6020526000908152604090205481565b60008061211c600087116026614298565b60008315612137576121308989881561380a565b9050612156565b8561214a5761214589611f97565b612153565b61215389612d8a565b90505b600081881161216e576121698289614642565b612178565b6121788883614642565b9050600061218a896118458c856141d0565b90506000881561219d57508883116121a2565b508289115b60006121b96016548a6145ea90919063ffffffff16565b42116121dd576001600160a01b038d166000908152602460205260409020546121e0565b60005b905081801561220357506121f48c826141d0565b612200846127106141d0565b11155b1561220d57600092505b509450925050505b965096945050505050565b600080600061223187878787611d98565b905061223b615bd9565b506000818152603460209081526040808320815161010081018352815480825260018301549482019490945260028201549281018390526003820154606082015260048201546080820152600582015460a0820152600682015460c0820181905260079092015460e0820152936122ba938a93909290918a919061210b565b93509350505094509492505050565b6002600054141561230f576040805162461bcd60e51b815260206004820152601f6024820152600080516020615c34833981519152604482015290519081900360640190fd5b600260005560015461232b9062010000900460ff16601c614298565b612333614684565b61233c856146a0565b612347848483614703565b6123518484612981565b600061235f86868685611d98565b600081815260346020526040812091925061237b86868661380a565b825490915061238c57600282018190555b81541580159061239c5750600085115b156123c2576123bc868360000154846002015487858a8860060154613ad2565b60028301555b60006123db898989888a88600001548960030154614821565b905060006123e889614344565b905060006123f68a8361187d565b600186015490915061240890826145ea565b60018601556124178a826148dd565b6124298386600101541015601d614298565b60018501546124389084614642565b60018601556124478a8461495c565b6124528a8a89613f5e565b60038601556001600160a01b0389166000908152603060205260409020546007860155845461248190896145ea565b808655426006870155612497901515601e614298565b6124a985600001548660010154614a13565b6124b78b8b8b8a60016139d9565b505060006124c58b8a6135d9565b60048701549091506124d790826145ea565b60048701556124e68b82614a29565b6124f08b846144b9565b6125038b6124fe8d876134e2565b614ac9565b871561252c5761251d8a6125188c8c89614064565b614b9c565b6125278a8a614c65565b61254a565b6125408a61253b8c8c89614064565b614d2e565b61254a8a8a614df7565b604080518881526001600160a01b03808f166020830152808e16828401528c1660608201526080810184905260a081018b905289151560c082015260e08101879052610100810186905290517f2fe68525253654c21998f35787a8d0f361905ef647c854092430ab65f2f15022918190036101200190a1855460018701546002880154600389015460048a015460058b0154604080518e81526020810197909752868101959095526060860193909352608085019190915260a084015260c083015260e0820187905251600080516020615c54833981519152918190036101000190a15050600160005550505050505050505050565b6002546001600160a01b031681565b60008060008060008060008060008061266a8e8e8e8e611d98565b9050612674615bd9565b60346000838152602001908152602001600020604051806101000160405290816000820154815260200160018201548152602001600282015481526020016003820154815260200160048201548152602001600582015481526020016006820154815260200160078201548152505090506000808260a00151136126ff578160a00151600003612705565b8160a001515b9050816000015182602001518360400151846060015185608001518560008860a0015112158860c001518960e001519b509b509b509b509b509b509b509b509b505050509499509499509499509499909550565b602e6020526000908152604090205481565b6101f481565b6034602052600090815260409020805460018201546002830154600384015460048501546005860154600687015460079097015495969495939492939192909188565b6000806127c386868686611d98565b90506127cd615bd9565b506000818152603460209081526040918290208251610100810184528154815260018201549281018390526002820154938101939093526003810154606084015260048101546080840152600581015460a0840152600681015460c08401526007015460e08301526128429015156025614298565b6020810151815161285a9190611845906127106141d0565b979650505050505050565b60276020526000908152604090205481565b601f6020526000908152604090205460ff1681565b602b6020526000908152604090205481565b600260005414156128e4576040805162461bcd60e51b815260206004820152601f6024820152600080516020615c34833981519152604482015290519081900360640190fd5b600260009081556001600160a01b03821681526022602052604090205461290f9060ff16600e614298565b600061291a82614344565b905061292a60008211600f614298565b61293482826144b9565b604080516001600160a01b03841681526020810183905281517fa5a389190ebf6170a133bda5c769b77f4d6715b8aa172ec0ddf8473d0b4944bd929181900390910190a150506001600055565b6001600160a01b0382166000908152603360205260409020546129d3576018546129b5906129af4282614229565b906141d0565b6001600160a01b038316600090815260336020526040902055612b0d565b6018546001600160a01b03831660009081526033602052604090205442916129fb91906145ea565b1115612a0657612b0d565b6000612a1183611be4565b6001600160a01b0384166000908152602f6020526040902054909150612a3790826145ea565b6001600160a01b0384166000908152602f6020526040812091909155612a5c83613628565b6001600160a01b038416600090815260306020526040902054909150612a829082614ec0565b6001600160a01b038416600090815260306020526040902055601854612aac906129af4282614229565b6001600160a01b038516600081815260336020908152604080832094909455602f8152908390205483519283529082015281517fbd9e43b091a178f7d08f8a8d00a25bfe74e7f6c783a455f422e799d7c9f56ad8929181900390910190a150505b5050565b601e60209081526000928352604080842090915290825290205460ff1681565b60075481565b60296020526000908152604090205481565b600154630100000090046001600160a01b031681565b336000908152601e602090815260408083206001600160a01b0394909416835292905220805460ff19169055565b620f424081565b60376020526000908152604090205481565b612bae6145d1565b600180546001600160a01b039092166301000000026301000000600160b81b0319909216919091179055565b612be26145d1565b600480546001600160a01b0319166001600160a01b0392909216919091179055565b612c0c6145d1565b60018054612c209160ff9091161590614298565b6001805460ff191681179055600380546001600160a01b03199081166001600160a01b039889161790915560058054821696881696909617909555600480549095169390951692909217909255600c91909155601955601a55565b6004546001600160a01b031681565b612c926145d1565b612ca26101f48b11156003614298565b612cb26101f48a11156004614298565b612cc26101f48911156005614298565b612cd26101f48811156005614298565b612ce26101f48711156006614298565b612cf26101f48611156007614298565b612d026101f48511156008614298565b612d1d6904ee2d6d415b85acef8160201b8411156009614298565b600d99909955600e97909755600f95909555601093909355601191909155601255601355600c556016556017805460ff1916911515919091179055565b600d5481565b612d686145d1565b60018054911515620100000262ff000019909216919091179055565b600a5481565b60048054601c54604080516317e1d38560e11b81526001600160a01b038681169582019590955260006024820181905260ff80851615156044840152610100909404909316151560648201529051919390921691632fc3a70a916084808301926020929190829003018186803b158015611c4857600080fd5b600060026000541415612e4b576040805162461bcd60e51b815260206004820152601f6024820152600080516020615c34833981519152604482015290519081900360640190fd5b6002600055612e58614684565b612e61886146a0565b612e7088888888888888614ef3565b600160005598975050505050505050565b600060026000541415612ec9576040805162461bcd60e51b815260206004820152601f6024820152600080516020615c34833981519152604482015290519081900360640190fd5b6002600055612ed6614268565b6001600160a01b038316600090815260226020526040902054612efd9060ff166013614298565b601c805461ff001916610100179055600554600090612f24906001600160a01b0316614344565b9050612f34600082116014614298565b612f3e8485612981565b6000612f4a8583611d53565b9050612f5a600082116015614298565b612f648582614ac9565b60055460408051632770a7eb60e21b81523060048201526024810185905290516001600160a01b0390921691639dc29fac9160448082019260009290919082900301818387803b158015612fb757600080fd5b505af1158015612fcb573d6000803e3d6000fd5b5050600554612fe592506001600160a01b03169050615358565b600154604080516375d90baf60e01b81526001600160a01b03888116600483015260248201869052915160009363010000009004909216916375d90baf91604480820192602092909190829003018186803b15801561304357600080fd5b505afa158015613057573d6000803e3d6000fd5b505050506040513d602081101561306d57600080fd5b50519050600061307e8784846143f1565b905061308e600082116016614298565b6130998782886153f3565b604080516001600160a01b03808916825289166020820152808201869052606081018390526080810184905290517fc2369d964b25bbf8a37b4ac177bbfa5816a46910151c201625d5335693e6d7399181900360a00190a1601c805461ff001916905560016000559695505050505050565b612b0d6145d1565b61311b6145d1565b6001600160a01b039091166000908152602e6020526040902055565b60246020526000908152604090205481565b6131516145d1565b613161610e10841015600a614298565b613171612710831115600b614298565b613181612710821115600c614298565b601892909255601955601a55565b60236020526000908152604090205481565b6131a96145d1565b600280546001600160a01b0319166001600160a01b0392909216919091179055565b602a6020526000908152604090205481565b601c5462010000900460ff1681565b600f5481565b60006002600054141561323a576040805162461bcd60e51b815260206004820152601f6024820152600080516020615c34833981519152604482015290519081900360640190fd5b600260005560015461325590610100900460ff166017614298565b6001600160a01b03841660009081526022602052604090205461327c9060ff166018614298565b6001600160a01b0383166000908152602260205260409020546132a39060ff166019614298565b6132c3836001600160a01b0316856001600160a01b03161415601a614298565b601c805461ff0019166101001790556132dc8480612981565b6132e68384612981565b60006132f185614344565b905061330160008211601b614298565b600061330c86612d8a565b9050600061331986611f97565b9050600061332b8261184586866141d0565b905061333881898961200f565b9050600061335668327cb2734119d3b7a9601e1b61184587876141d0565b6005549091506133729082908b906001600160a01b031661200f565b60015460408051636d099c0b60e11b81526001600160a01b038d811660048301528c8116602483015260448201859052915193945060009363010000009093049091169163da13381691606480820192602092909190829003018186803b1580156133dc57600080fd5b505afa1580156133f0573d6000803e3d6000fd5b505050506040513d602081101561340657600080fd5b5051905060006134178a85846143f1565b90506134238b886144b9565b61342d8a85614ac9565b6134368a61549a565b6134418a828b6153f3565b604080516001600160a01b03808c168252808e1660208301528c1681830152606081018990526080810186905260a0810183905260c0810184905290517f0874b2d545cb271cdbda4e093020c452328b24af12382ed62c4d00f5c26709db9181900360e00190a1601c805461ff001916905560016000559a9950505050505050505050565b68327cb2734119d3b7a9601e1b81565b60095481565b60185481565b6000816134f1575060006118ca565b6120aa83836134ff86611f97565b614064565b600080600560009054906101000a90046001600160a01b03166001600160a01b03166318160ddd6040518163ffffffff1660e01b815260040160206040518083038186803b15801561355557600080fd5b505afa158015613569573d6000803e3d6000fd5b505050506040513d602081101561357f57600080fd5b505190508061359257600091505061184f565b6001600160a01b038316600090815260286020526040902054601b546135bc9061184583856141d0565b949350505050565b600b5481565b60175460ff1681565b60115481565b6000816135e8575060006118ca565b6120aa83836134ff86612d8a565b6135fe6145d1565b6001600160a01b039190911660009081526020805260409020805460ff1916911515919091179055565b6000600160039054906101000a90046001600160a01b03166001600160a01b031663a93acac2836040518263ffffffff1660e01b815260040180826001600160a01b0316815260200191505060206040518083038186803b158015611c4857600080fd5b601c5460ff1681565b60286020526000908152604090205481565b60085481565b601c54610100900460ff1681565b60015460408051631611625760e31b81526001600160a01b0389811660048301528881166024830152878116604483015286151560648301526084820186905260a482018590529151600093630100000090049092169163b08b12b89160c480820192602092909190829003018186803b15801561373857600080fd5b505afa15801561374c573d6000803e3d6000fd5b505050506040513d602081101561376257600080fd5b5051979650505050505050565b6001546040805163b63ee4f160e01b81526001600160a01b0389811660048301528881166024830152878116604483015286151560648301526084820186905260a482018590529151600093630100000090049092169163b63ee4f19160c480820192602092909190829003018186803b15801561373857600080fd5b60155481565b602d6020526000908152604090205481565b60195481565b6001546040805163c559a4d760e01b81526001600160a01b0386811660048301526024820186905284151560448301529151600093630100000090049092169163c559a4d791606480820192602092909190829003018186803b15801561387057600080fd5b505afa158015613884573d6000803e3d6000fd5b505050506040513d602081101561389a57600080fd5b5051949350505050565b60306020526000908152604090205481565b6001546040805163c7e074c360e01b81526001600160a01b03888116600483015260248201889052604482018790526064820186905284151560848301529151600093630100000090049092169163c7e074c39160a480820192602092909190829003018186803b15801561392a57600080fd5b505afa15801561393e573d6000803e3d6000fd5b505050506040513d602081101561395457600080fd5b50519695505050505050565b60315481565b61396e6145d1565b6139826001600160a01b038316848361550f565b505050565b61398f6145d1565b600680546001600160a01b0319166001600160a01b0392909216919091179055565b6139b96145d1565b601d55565b6139c66145d1565b6139d4600082116002614298565b600855565b6001546040805163d54d5a9f60e01b81526001600160a01b03888116600483015287811660248301528681166044830152851515606483015284151560848301528251600094859463010000009091049092169263d54d5a9f9260a4808301939192829003018186803b158015613a4f57600080fd5b505afa158015613a63573d6000803e3d6000fd5b505050506040513d6040811015613a7957600080fd5b508051602090910151909890975095505050505050565b60336020526000908152604090205481565b60165481565b60226020526000908152604090205460ff1681565b60266020526000908152604090205460ff1681565b6000806000613ae68a8a8a8a88600061210b565b90925090506000613af78a876145ea565b905060008815613b265783613b1557613b108284614642565b613b1f565b613b1f82846145ea565b9050613b47565b83613b3a57613b3582846145ea565b613b44565b613b448284614642565b90505b613b55816118458a856141d0565b9c9b505050505050505050505050565b601b5481565b60366020526000908152604090205481565b60026000541415613bc3576040805162461bcd60e51b815260206004820152601f6024820152600080516020615c34833981519152604482015290519081900360640190fd5b6002600055601c546301000000900460ff1615613bf857336000908152601f6020526040902054613bf89060ff166022614298565b601c805460ff19169055613c0c8484612981565b6000613c1a86868686611d98565b9050613c24615bd9565b5060008181526034602090815260409182902082516101008101845281548082526001830154938201939093526002820154938101939093526003810154606084015260048101546080840152600581015460a0840152600681015460c08401526007015460e0830152613c9b9015156023614298565b600080613cac8989898960006139d9565b91509150613cbf82600014156024614298565b8160021415613cf457613cdc898989600087600001518b8f614ef3565b5050601c805460ff1916600117905550613f16915050565b6000613d0089836134e2565b6001600160a01b038a16600090815260356020526040902054909150613d2690826145ea565b6001600160a01b038a166000818152603560209081526040918290209390935580519182529181018490528082018390529051600080516020615cdf8339815191529181900360600190a1613d7f898560800151615561565b6000613d918986600001518a1561380a565b90507f2e1f85a64a2f22cf2f0c42584e7c919ed4abe8d53675cff0f62bf1e95a1c676f868c8c8c8c8a600001518b602001518c608001518d60a001518a604051808b81526020018a6001600160a01b03168152602001896001600160a01b03168152602001886001600160a01b0316815260200187151581526020018681526020018581526020018481526020018381526020018281526020019a505050505050505050505060405180910390a187613e6a57613e57896125188b886000015185614064565b613e65898660000151614c65565b613e8b565b613e7d8961253b8b886000015185614064565b613e8b898660000151614df7565b613e998a866020015161495c565b6000868152603460205260408120818155600181018290556002810182905560038101829055600481018290556005810182905560068101829055600701819055600c54613ee8908c906134e2565b9050613ef68b848301614ac9565b613f018b828a6153f3565b5050601c805460ff1916600117905550505050505b50506001600055505050565b60125481565b6005546001600160a01b031681565b60218181548110613f4457fe5b6000918252602090912001546001600160a01b0316905081565b60015460408051637467d08d60e11b81526001600160a01b038681166004830152858116602483015284151560448301529151600093630100000090049092169163e8cfa11a91606480820192602092909190829003018186803b15801561387057600080fd5b613fcd6145d1565b601c805491151563010000000263ff00000019909216919091179055565b6000613ff56145d1565b6001600160a01b0383166000908152603560205260409020548061401d5760009150506118ca565b6001600160a01b0384166000908152603560205260408120556120aa8482856153f3565b602080526000908152604090205460ff1681565b6003546001600160a01b031681565b600082614073575060006120aa565b6001600160a01b03841660009081526023602052604090205461409e8361184586600a85900a6141d0565b95945050505050565b60396020526000908152604090205481565b610e1081565b6001546040805163fdaf6ac360e01b81526001600160a01b038881166004830152878116602483015286811660448301528515156064830152608482018590529151600093630100000090049092169163fdaf6ac39160a480820192602092909190829003018186803b15801561392a57600080fd5b60386020908152600091825260409182902080548351601f6002600019610100600186161502019093169290920491820184900484028101840190945280845290918301828280156141c85780601f1061419d576101008083540402835291602001916141c8565b820191906000526020600020905b8154815290600101906020018083116141ab57829003601f168201915b505050505081565b6000826141df575060006118ca565b828202828482816141ec57fe5b04146120aa5760405162461bcd60e51b8152600401808060200182810382526021815260200180615c946021913960400191505060405180910390fd5b60006120aa83836040518060400160405280601a815260200179536166654d6174683a206469766973696f6e206279207a65726f60301b815250615616565b601c5462010000900460ff1615614296573360009081526020805260409020546142969060ff166036614298565b565b6000818152603860205260409020826139825760405162461bcd60e51b81526020600482019081528254600260001961010060018416150201909116046024830181905290918291604490910190849080156143355780601f1061430a57610100808354040283529160200191614335565b820191906000526020600020905b81548152906001019060200180831161431857829003601f168201915b50509250505060405180910390fd5b6001600160a01b03811660008181526027602090815260408083205481516370a0823160e01b8152306004820152915193949093859391926370a08231926024808301939192829003018186803b15801561439e57600080fd5b505afa1580156143b2573d6000803e3d6000fd5b505050506040513d60208110156143c857600080fd5b50516001600160a01b038516600090815260276020526040902081905590506135bc8183614642565b60008061440e6127106118456144078287614642565b87906141d0565b9050600061441c8583614642565b6001600160a01b03871660009081526035602052604090205490915061444290826145ea565b6001600160a01b0387166000908152603560205260409020557f47cd9dda0e50ce30bcaaacd0488452b596221c07ac402a581cfae4d3933cac2b86614487818461187d565b604080516001600160a01b0390931683526020830191909152818101849052519081900360600190a150949350505050565b6001600160a01b0382166000908152602b60205260409020546144dc90826145ea565b6001600160a01b0383166000818152602b602090815260408083209490945583516370a0823160e01b8152306004820152935191936370a082319260248083019392829003018186803b15801561453257600080fd5b505afa158015614546573d6000803e3d6000fd5b505050506040513d602081101561455c57600080fd5b50516001600160a01b0384166000908152602b6020526040902054909150614588908210156031614298565b604080516001600160a01b03851681526020810184905281517f976177fbe09a15e5e43f848844963a42b41ef919ef17ff21a17a5421de8f4737929181900390910190a1505050565b600654614296906001600160a01b031633146035614298565b6000828201838110156120aa576040805162461bcd60e51b815260206004820152601b60248201527a536166654d6174683a206164646974696f6e206f766572666c6f7760281b604482015290519081900360640190fd5b60006120aa83836040518060400160405280601e81526020017f536166654d6174683a207375627472616374696f6e206f766572666c6f7700008152506156b8565b601d5461469057614296565b614296601d543a11156037614298565b336001600160a01b03821614156146b657614700565b6003546001600160a01b03163314156146ce57614700565b6001600160a01b0381166000908152601e602090815260408083203384529091529020546147009060ff166029614298565b50565b8015614784576001600160a01b0382166000908152602260205260409020546147309060ff16602d614298565b6001600160a01b0383166000908152602260205260409020546147579060ff16602b614298565b6001600160a01b03821660009081526025602052604090205461477f9060ff1615602f614298565b613982565b6001600160a01b0383166000908152602260205260409020546147ab9060ff16602d614298565b6001600160a01b0382166000908152602560205260409020546147d39060ff1615602f614298565b6001600160a01b0382166000908152602660205260409020546147fa9060ff166030614298565b6001600160a01b0382166000908152602260205260409020546139829060ff166013614298565b60008061483189898989896140bf565b905060006148438a8a8a8a89896136bb565b905061484f82826145ea565b9150600061485d8a846134e2565b6001600160a01b038b1660009081526035602052604090205490915061488390826145ea565b6001600160a01b038b166000818152603560209081526040918290209390935580519182529181018390528082018390529051600080516020615cdf8339815191529181900360600190a150909998505050505050505050565b6001600160a01b0382166000908152602c602052604090205461490090826145ea565b6001600160a01b0383166000818152602c602090815260409182902093909355805191825291810183905281517f2723857b0797d9743fe2cf2350c5f6d830873b762c779258adf8aac5141115fb929181900390910190a15050565b604080518082018252601f81527f5661756c743a20636f6c6c61746572616c73506f6f6c206578636565646564006020808301919091526001600160a01b0385166000908152602c90915291909120546149b79183906156b8565b6001600160a01b0383166000818152602c602090815260409182902093909355805191825291810183905281517f471aa8f67f22c85eb286b60fa0925ddc03f91f313e12c32b75dc79d54a6a8ba4929181900390910190a15050565b81612b0d57614a2481156027614298565b612b0d565b6001600160a01b0382166000908152602d6020526040902054614a4c90826145ea565b6001600160a01b0383166000908152602d60208181526040808420859055602b8252909220549152614a819111156034614298565b604080516001600160a01b03841681526020810183905281517faa5649d82f5462be9d19b0f2b31a59b2259950a6076550bac9f3a1c07db9f66d929181900390910190a15050565b604080518082018252601a81527915985d5b1d0e881c1bdbdb105b5bdd5b9d08195e18d95959195960321b6020808301919091526001600160a01b0385166000908152602b9091529190912054614b219183906156b8565b6001600160a01b0383166000908152602b60209081526040808320849055602d909152902054614b549110156032614298565b604080516001600160a01b03841681526020810183905281517f112726233fbeaeed0f5b1dba5cb0b2b81883dee49fb35ff99fd98ed9f6d31eb0929181900390910190a15050565b806000811215614be5576040805162461bcd60e51b815260206004820152600f60248201526e696e74323536206f766572666c6f7760881b604482015290519081900360640190fd5b6001600160a01b038316600090815260366020526040902054614c089082615712565b6001600160a01b03841660008181526036602090815260409182902093909355805191825291810184905281517f59416bb15d23b92d4b79749be09c6d9fd741efbdc5c0537c10c425e92b2d243b929181900390910190a1505050565b806000811215614cae576040805162461bcd60e51b815260206004820152600f60248201526e696e74323536206f766572666c6f7760881b604482015290519081900360640190fd5b6001600160a01b038316600090815260376020526040902054614cd19082615712565b6001600160a01b03841660008181526037602090815260409182902093909355805191825291810184905281517f6f45fbe4fd81db72a83b41b1c3d5059376a556287e235b0fc3d4524bea3008a9929181900390910190a1505050565b806000811215614d77576040805162461bcd60e51b815260206004820152600f60248201526e696e74323536206f766572666c6f7760881b604482015290519081900360640190fd5b6001600160a01b038316600090815260366020526040902054614d9a9082614ec0565b6001600160a01b03841660008181526036602090815260409182902093909355805191825291810184905281517fadf05ade52cc26be850ee233bf3ba444ee030f2447af69892741dc800757f494929181900390910190a1505050565b806000811215614e40576040805162461bcd60e51b815260206004820152600f60248201526e696e74323536206f766572666c6f7760881b604482015290519081900360640190fd5b6001600160a01b038316600090815260376020526040902054614e639082614ec0565b6001600160a01b03841660008181526037602090815260409182902093909355805191825291810184905281517faaa7de8e5132a6e02709a4bcddedb5449210b3a53771c73c2755344f8169313f929181900390910190a1505050565b6000828201818312801590614ed55750838112155b80614eea5750600083128015614eea57508381125b6120aa57600080fd5b600154604080516381d11a2360e01b81526001600160a01b038a8116600483015289811660248301528881166044830152606482018890526084820187905285151560a483015284811660c4830152915160009363010000009004909216916381d11a239160e4808201928692909190829003018186803b158015614f7757600080fd5b505afa158015614f8b573d6000803e3d6000fd5b50505050614f998787612981565b6000614fa789898987611d98565b6000818152603460205260409020805491925090614fc8901515601f614298565b614fda86826000015410156020614298565b614fec87826001015410156021614298565b8054600482015460009161500491611845908a6141d0565b60048301549091506150169082614642565b60048301556150258a82615561565b506000806150378c8c8c8c8c8c615744565b9150915060006150498b8a8a1561380a565b905087615072576150638b6125188d8c8860020154614064565b61506d8b8a614c65565b61508f565b6150858b61253b8d8c8860020154614064565b61508f8b8a614df7565b835489146151dd576150a28c8c8a613f5e565b60038501556001600160a01b038b16600090815260306020526040902054600785015583546150d1908a614642565b80855560018501546150e39190614a13565b6150f18d8d8d8b60016139d9565b50600080516020615c748339815191529050858e8e8e8e8e8e886151158c8c614642565b60408051998a526001600160a01b0398891660208b015296881689880152949096166060880152608087019290925260a0860152151560c085015260e084019290925261010083019190915251908190036101200190a1835460018501546002860154600387015460048801546005890154604080518c81526020810197909752868101959095526060860193909352608085019190915260a084015260c083015260e0820183905251600080516020615c54833981519152918190036101000190a161530b565b600080516020615c74833981519152858e8e8e8e8e8e886151fe8c8c614642565b60408051998a526001600160a01b0398891660208b015296881689880152949096166060880152608087019290925260a0860152151560c085015260e084019290925261010083019190915251908190036101200190a1835460018501546002860154600387015460048801546005890154604080518c81526020810197909752868101959095526060860193909352608085019190915260a084015260c0830152517f73af1d417d82c240fdb6d319b34ad884487c6bf2845d98980cc52ad9171cb4559181900360e00190a16000858152603460205260408120818155600181018290556002810182905560038101829055600481018290556005810182905560068101829055600701555b82156153455761531f8c6124fe8e866134e2565b600061532b8d846134e2565b90506153388d828a6153f3565b955061285a945050505050565b5060009c9b505050505050505050505050565b6000816001600160a01b03166370a08231306040518263ffffffff1660e01b815260040180826001600160a01b0316815260200191505060206040518083038186803b1580156153a757600080fd5b505afa1580156153bb573d6000803e3d6000fd5b505050506040513d60208110156153d157600080fd5b50516001600160a01b0390921660009081526027602052604090209190915550565b6154076001600160a01b038416828461550f565b604080516370a0823160e01b815230600482015290516001600160a01b038516916370a08231916024808301926020929190829003018186803b15801561544d57600080fd5b505afa158015615461573d6000803e3d6000fd5b505050506040513d602081101561547757600080fd5b50516001600160a01b039093166000908152602760205260409020929092555050565b6001600160a01b0381166000908152602e6020908152604080832054602b909252909120541015614700576040805162461bcd60e51b815260206004820152601a6024820152792b30bab63a1d103837b7b620b6b7bab73a101e10313ab33332b960311b604482015290519081900360640190fd5b604080516001600160a01b038416602482015260448082018490528251808303909101815260649091019091526020810180516001600160e01b031663a9059cbb60e01b179052613982908490615923565b604080518082018252601b81527a5661756c743a20696e73756666696369656e74207265736572766560281b6020808301919091526001600160a01b0385166000908152602d90915291909120546155ba9183906156b8565b6001600160a01b0383166000818152602d602090815260409182902093909355805191825291810183905281517f533cb5ed32be6a90284e96b5747a1bfc2d38fdb5768a6b5f67ff7d62144ed67b929181900390910190a15050565b600081836156a25760405162461bcd60e51b81526004018080602001828103825283818151815260200191508051906020019080838360005b8381101561566757818101518382015260200161564f565b50505050905090810190601f1680156156945780820380516001836020036101000a031916815260200191505b509250505060405180910390fd5b5060008385816156ae57fe5b0495945050505050565b6000818484111561570a5760405162461bcd60e51b815260206004820181815283516024840152835190928392604490910191908501908083836000831561566757818101518382015260200161564f565b505050900390565b60008183038183128015906157275750838113155b80614eea5750600083128015614eea57508381136120aa57600080fd5b600080600061575589898987611d98565b6000818152603460205260408120805460038201549394509092615782918d918d918d918b918d91614821565b90506000806000806157a58d876000015488600201548d8a60060154600161210b565b875491955085935091506157bd906118458d846141d0565b9250505060008280156157d05750600082115b156157e2575060058401805482019055805b821580156157f05750600082115b1561581f5760018501546158049083614642565b60018601556158138d8361495c565b60058501805483900390555b8a156158505761582f818c6145ea565b6001860154909150615841908c614642565b60018601556158508d8c61495c565b84548a14156158815760018501546158699082906145ea565b90506158798d866001015461495c565b600060018601555b838111156158a357806158948186614642565b97509750505050505050612215565b60018501546158b29085614642565b60018601556158c18d8561495c565b6158cf8d6124fe8f876134e2565b60408051878152841515602082015280820184905290517f3ff41bdde87755b687ae83d0221a232b6be51a803330ed9661c1b5d0105e0d8a9181900360600190a19d8e9d509b505050505050505050505050565b6060615978826040518060400160405280602081526020017f5361666545524332303a206c6f772d6c6576656c2063616c6c206661696c6564815250856001600160a01b03166159d49092919063ffffffff16565b8051909150156139825780806020019051602081101561599757600080fd5b50516139825760405162461bcd60e51b815260040180806020018281038252602a815260200180615cb5602a913960400191505060405180910390fd5b60606135bc8484600085856159e885615aef565b615a39576040805162461bcd60e51b815260206004820152601d60248201527f416464726573733a2063616c6c20746f206e6f6e2d636f6e7472616374000000604482015290519081900360640190fd5b60006060866001600160a01b031685876040518082805190602001908083835b60208310615a785780518252601f199092019160209182019101615a59565b6001836020036101000a03801982511681845116808217855250505050505090500191505060006040518083038185875af1925050503d8060008114615ada576040519150601f19603f3d011682016040523d82523d6000602084013e615adf565b606091505b509150915061285a828286615af5565b3b151590565b60608315615b045750816120aa565b825115615b145782518084602001fd5b60405162461bcd60e51b815260206004820181815284516024840152845185939192839260440191908501908083836000831561566757818101518382015260200161564f565b828054600181600116156101000203166002900490600052602060002090601f016020900481019282601f10615b9c5782800160ff19823516178555615bc9565b82800160010185558215615bc9579182015b82811115615bc9578235825591602001919060010190615bae565b50615bd5929150615c1e565b5090565b60405180610100016040528060008152602001600081526020016000815260200160008152602001600081526020016000815260200160008152602001600081525090565b5b80821115615bd55760008155600101615c1f56fe5265656e7472616e637947756172643a207265656e7472616e742063616c6c0020853733b590dce729d9f4628682ebd9a34d2354e72679e66f43a008fc03b77393d75d64d1f84fc6f430a64fc578bdd4c1e090e90ea2d51773e626d19de56d30536166654d6174683a206d756c7469706c69636174696f6e206f766572666c6f775361666545524332303a204552433230206f7065726174696f6e20646964206e6f7420737563636565645d0c0019d3d45fadeb74eff9d2c9924d146d000ac6bcf3c28bf0ac3c9baa011aa2646970667358221220c1eef2c863039b4fad0a8cbd187bfa2262945ff7fc5a0b5d1bc42aabddbd1e4d64736f6c634300060c0033",
  "linkReferences": {},
  "deployedLinkReferences": {}
}