{
	"data": {
		"bytecode": {
			"linkReferences": {},
			"object": "6080604052600060045560006006553480156200001b57600080fd5b506002805460ff191690556001600355620000577f6077685936c8169d09204a1d97db12e41713588c38e1d29a61867d3dcee98aff33620000b5565b620000837f65d7a28e3265b37a6474929f336521b332c1681b933f6cb9f3376673440d862a33620000b5565b620000af7f8619cecd8b9e095ab43867f5b69d492180450fe862e6b50bfbfb24b75dd84c8a33620000b5565b6200021a565b620000cc8282620000f860201b620023a81760201c565b6000828152600160209081526040909120620000f3918390620023b662000108821b17901c565b505050565b62000104828262000128565b5050565b60006200011f836001600160a01b038416620001c8565b90505b92915050565b6000828152602081815260408083206001600160a01b038516845290915290205460ff1662000104576000828152602081815260408083206001600160a01b03851684529091529020805460ff19166001179055620001843390565b6001600160a01b0316816001600160a01b0316837f2f8788117e7eff1d82e926ec794901d17c78024a50270940304540a733656f0d60405160405180910390a45050565b6000818152600183016020526040812054620002115750815460018181018455600084815260208082209093018490558454848252828601909352604090209190915562000122565b50600062000122565b6138c4806200022a6000396000f3fe608060405234801561001057600080fd5b50600436106102d55760003560e01c806379dd13ca11610182578063abfd0954116100e9578063d3faade9116100a2578063e46bbc9e1161007c578063e46bbc9e14610775578063e63ab1e914610788578063ea8960a4146107af578063f9226d31146107cf57600080fd5b8063d3faade91461073c578063d547741f1461074f578063dd3256d01461076257600080fd5b8063abfd09541461067d578063ad4683a41461069d578063b7a5adca146106f0578063c4ee5c4414610703578063ca15c87314610716578063d32fff2b1461072957600080fd5b80639214bd4d1161013b5780639214bd4d14610609578063942b29e31461061c578063959b87de1461063c578063a217fddf1461064f578063a3461b5a14610657578063a41fe49f1461066a57600080fd5b806379dd13ca146105745780638456cb59146105b5578063849687c7146105bd57806385096902146105d05780639010d07c146105e357806391d14854146105f657600080fd5b80633634bba611610241578063570618e1116101fa578063630b5ba1116101d4578063630b5ba1146105265780636dce9fbd1461052e57806373bf876114610541578063793f08511461055457600080fd5b8063570618e1146104eb5780635c975abb146105125780635e71823b1461051d57600080fd5b80633634bba61461047557806336568abe1461048857806338d6ca991461049b5780633f4ba83a146104bb57806351eb05a6146104c357806356d73568146104d657600080fd5b8063265fb54a11610293578063265fb54a146103ed5780632803a1af146104205780632ddc65af146104335780632ded0fb5146104465780632f2ff15d1461045957806335c62bc21461046c57600080fd5b8062aeef8a146102da57806301ffc9a7146102ef578063031bda86146103175780630baf9081146103385780631526fe271461034b578063248a9ca3146103ca575b600080fd5b6102ed6102e8366004613570565b6107e2565b005b6103026102fd3660046133fa565b610b5f565b60405190151581526020015b60405180910390f35b61032a610325366004613570565b610b8a565b60405190815260200161030e565b61032a61034636600461339f565b610d93565b610396610359366004613356565b6005602081905260009182526040909120805460038201546004830154938301546007909301546001600160a01b03909216939092909160ff1685565b604080516001600160a01b03909616865260208601949094529284019190915260608301521515608082015260a00161030e565b61032a6103d8366004613356565b60009081526020819052604090206001015490565b6104006103fb36600461339f565b610dab565b60408051948552602085019390935291830152606082015260800161030e565b61032a61042e366004613304565b610e57565b6102ed610441366004613531565b610e8c565b6102ed61045436600461336f565b610e9e565b6102ed61046736600461336f565b610f1c565b61032a60045481565b6102ed6104833660046134b9565b610f43565b6102ed61049636600461336f565b610fb5565b61032a6104a9366004613356565b600c6020526000908152604090205481565b6102ed610fd7565b6102ed6104d1366004613356565b61100d565b61032a60008051602061386f83398151915281565b61032a7f8619cecd8b9e095ab43867f5b69d492180450fe862e6b50bfbfb24b75dd84c8a81565b60025460ff16610302565b61032a60065481565b6102ed611187565b61032a61053c3660046132d8565b6111ad565b6102ed61054f3660046134f0565b6111d9565b61032a610562366004613356565b600b6020526000908152604090205481565b61059d610582366004613356565b600d602052600090815260409020546001600160a01b031681565b6040516001600160a01b03909116815260200161030e565b6102ed6112f0565b61032a6105cb36600461339f565b611323565b6102ed6105de3660046133c1565b611393565b61059d6105f136600461339f565b61140b565b61030261060436600461336f565b611423565b6102ed610617366004613424565b61144c565b61062f61062a3660046132d8565b61176b565b60405161030e919061367a565b61032a61064a366004613570565b61179a565b61032a600081565b61062f610665366004613356565b611812565b6102ed610678366004613570565b61182c565b61069061068b366004613356565b611d92565b60405161030e919061362d565b6103966106ab36600461339f565b60076020818152600093845260408085209091529183529120805460018201546002830154600384015493909401546001600160a01b03909216939092909160ff1685565b6102ed6106fe3660046132bb565b611f37565b61062f610711366004613356565b612016565b61032a610724366004613356565b6120d0565b6102ed6107373660046132bb565b6120e7565b61032a61074a366004613570565b61218e565b6102ed61075d36600461336f565b612206565b61032a610770366004613570565b612210565b6102ed61078336600461339f565b6122a0565b61032a7f65d7a28e3265b37a6474929f336521b332c1681b933f6cb9f3376673440d862a81565b61032a6107bd366004613356565b600a6020526000908152604090205481565b61032a6107dd366004613356565b612391565b60025460ff161561082d5760405162461bcd60e51b815260206004820152601060248201526f14185d5cd8589b194e881c185d5cd95960821b60448201526064015b60405180910390fd5b6000811161088f5760405162461bcd60e51b815260206004820152602960248201527f4143593a206c6f636b206475726174696f6e206d75737420626520677265617460448201526806572207468616e20360bc1b6064820152608401610824565b630784ce008111156108f75760405162461bcd60e51b815260206004820152602b60248201527f4143593a206c6f636b206475726174696f6e206d757374206e6f74206265206f60448201526a766572203420796561727360a81b6064820152608401610824565b6109008361100d565b600083815260056020908152604091829020600781015483518085019094526018845260008051602061382f83398151915292840192909252919060ff1661095b5760405162461bcd60e51b815260040161082491906136b2565b50600680546000918261096d83613798565b909155506000868152600760208181526040808420858552825280842080546001600160a01b03191633908117825560018083018c9055426002840155600383018b9055948201805460ff1916909517909455928452600882528084208a8552909152909120919250906109e190836123cb565b5060008681526009602052604090206109fa90836123cb565b506000610a306201518083600301546904ee2d6d415b85acef8160201b610a21919061371f565b610a2b91906136fd565b6123d7565b8260010154610a3f919061371f565b905060005b6001850154811015610ad1576000856001018281548110610a6757610a676137df565b906000526020600020015490506904ee2d6d415b85acef8160201b8660060160008381526020019081526020016000205484610aa3919061371f565b610aad91906136fd565b60009182526006850160205260409091205580610ac981613798565b915050610a44565b508354610ae9906001600160a01b0316333089612430565b85846003016000828254610afd91906136e5565b9250508190555080846004016000828254610b1891906136e5565b90915550506040518681528390889033907f36af321ec8d3c75236829c5317affd40ddb308863a1236d2d277a4025cccee1e9060200160405180910390a450505050505050565b60006001600160e01b03198216635a05180f60e01b1480610b845750610b848261249b565b92915050565b6000838152600560209081526040808320600781015482518084019093526018835260008051602061382f833981519152938301939093529160ff16610be35760405162461bcd60e51b815260040161082491906136b2565b506000858152600760208181526040808420888552825292839020918201548351808501909452601c845260008051602061384f8339815191529184019190915290919060ff16610c475760405162461bcd60e51b815260040161082491906136b2565b506000848152600683016020526040902054600483015415610cf5576000836005015443610c75919061373e565b6000878152600c602090815260408083205460028901835281842054600b909352908320549394509192610ca9908561371f565b610cb3919061371f565b610cbd91906136fd565b6004860154909150610cdc826904ee2d6d415b85acef8160201b61371f565b610ce691906136fd565b610cf090846136e5565b925050505b6000610d1b6201518084600301546904ee2d6d415b85acef8160201b610a21919061371f565b8360010154610d2a919061371f565b60008781526006850160205260409020549091506904ee2d6d415b85acef8160201b610d56848461371f565b610d6091906136fd565b6000888152600486016020526040902054610d7b91906136e5565b610d85919061373e565b9450505050505b9392505050565b6000828152600960205260408120610d8c90836124d0565b6000828152600560209081526040808320600781015482518084019093526018835260008051602061382f833981519152938301939093528392839283929160ff16610e0a5760405162461bcd60e51b815260040161082491906136b2565b506000868152600282016020908152604080832054600c835281842054600b9093529220549196509450925083610e41868561371f565b610e4b91906136fd565b91505092959194509250565b6001600160a01b03831660009081526008602090815260408083208584529091528120610e8490836124d0565b949350505050565b610e98848484846124dc565b50505050565b60008051602061386f833981519152610eb7813361296b565b6000838152600d602090815260409182902080546001600160a01b0319166001600160a01b038616908117909155915191825284917ff80339a3e391e45ece64c63579ae16b439563d8317481bb8200fcb0671f93590910160405180910390a2505050565b610f2682826129a9565b6000828152600160205260409020610f3e90826123b6565b505050565b60005b3360009081526008602090815260408083208784529091529020610f69906129cf565b811015610e98573360009081526008602090815260408083208784529091528120610f9490836124d0565b9050610fa2858286866124dc565b5080610fad81613798565b915050610f46565b610fbf82826129d9565b6000828152600160205260409020610f3e9082612a53565b7f65d7a28e3265b37a6474929f336521b332c1681b933f6cb9f3376673440d862a611002813361296b565b61100a612a68565b50565b600081815260056020908152604091829020600781015483518085019094526018845260008051602061382f83398151915292840192909252919060ff166110685760405162461bcd60e51b815260040161082491906136b2565b5080600501544311611078575050565b600481015461108b574360059091015550565b600081600501544361109d919061373e565b905060005b600183015481101561117b5760008360010182815481106110c5576110c56137df565b6000918252602080832090910154808352600c825260408084205460028901845281852054600b909452908420549194509190611102908761371f565b61110c919061371f565b61111691906136fd565b6004860154909150611135826904ee2d6d415b85acef8160201b61371f565b61113f91906136fd565b60008381526006870160205260408120805490919061115f9084906136e5565b925050819055505050808061117390613798565b9150506110a2565b50504360059091015550565b60005b60045481101561100a5761119d8161100d565b6111a681613798565b905061118a565b6001600160a01b03821660009081526008602090815260408083208484529091528120610d8c906129cf565b60008051602061386f8339815191526111f2813361296b565b600085815260056020908152604091829020600781015483518085019094526018845260008051602061382f83398151915292840192909252919060ff1661124d5760405162461bcd60e51b815260040161082491906136b2565b50821561125c5761125c611187565b6000858152600282016020908152604080832054600c9092529091205485916112849161373e565b61128e91906136e5565b6000868152600c602090815260408083209390935560028401815290829020869055815187815290810186905287917f6096a506a56b62e1e89ba38de21bee0baa72624ed4a165d1e3b4ba0b34899a52910160405180910390a2505050505050565b7f65d7a28e3265b37a6474929f336521b332c1681b933f6cb9f3376673440d862a61131b813361296b565b61100a612afb565b6000828152600560209081526040808320600781015482518084019093526018835260008051602061382f833981519152938301939093529160ff1661137c5760405162461bcd60e51b815260040161082491906136b2565b506000928352600601602052506040902054919050565b60008051602061386f8339815191526113ac813361296b565b81156113ba576113ba611187565b6000848152600b602090815260409182902085905581518681529081018590527f756cb3b03a8aade0ed86a377d5b21dbb522872b6500426a0d908a88b7e61618a910160405180910390a150505050565b6000828152600160205260408120610d8c90836124d0565b6000918252602082815260408084206001600160a01b0393909316845291905290205460ff1690565b60008051602061386f833981519152611465813361296b565b6001600160a01b0387166114bb5760405162461bcd60e51b815260206004820152601760248201527f4143593a20496e76616c6964204c5020616464726573730000000000000000006044820152606401610824565b8483146115015760405162461bcd60e51b815260206004820152601460248201527308286b2744098cadccee8d040dad2e6dac2e8c6d60631b6044820152606401610824565b60005b858110156115a6576000878783818110611520576115206137df565b602090810292909201356000818152600d8452604090819020548151808301909252601282527120a1ac9d102ab735b737bbb7103a37b5b2b760711b94820194909452909350916001600160a01b0316151590506115915760405162461bcd60e51b815260040161082491906136b2565b5050808061159e90613798565b915050611504565b5081156115b5576115b5611187565b60048054600091826115c683613798565b90915550600081815260056020526040902080546001600160a01b0319166001600160a01b038b1617815590915061160260018201898961320f565b5043600582015560078101805460ff1916600117905560005b87811015611721576000898983818110611637576116376137df565b905060200201359050878783818110611652576116526137df565b9050602002013583600201600083815260200190815260200160002081905550878783818110611684576116846137df565b90506020020135600c600083815260200190815260200160002060008282546116ad91906136e5565b909155508490507f6096a506a56b62e1e89ba38de21bee0baa72624ed4a165d1e3b4ba0b34899a52828a8a868181106116e8576116e86137df565b90506020020135604051611706929190918252602082015260400190565b60405180910390a2508061171981613798565b91505061161b565b506040516001600160a01b038a16815282907fcfdb757a17c7073437a01260a6760f5026efd70c96fb9a3f54d03c6ed2c372c39060200160405180910390a2505050505050505050565b6001600160a01b03821660009081526008602090815260408083208484529091529020606090610d8c90612b76565b60008381526007602081815260408084208685528252808420928301548151808301909252601c825260008051602061384f833981519152928201929092529060ff166117fa5760405162461bcd60e51b815260040161082491906136b2565b50600092835260040160205250604090205492915050565b6000818152600960205260409020606090610b8490612b76565b6002600354141561187f5760405162461bcd60e51b815260206004820152601f60248201527f5265656e7472616e637947756172643a207265656e7472616e742063616c6c006044820152606401610824565b600260035561188d8361100d565b600081116118d65760405162461bcd60e51b815260206004820152601660248201527504143593a2043616e6e6f7420776974686472617720360541b6044820152606401610824565b600083815260056020908152604091829020600781015483518085019094526018845260008051602061382f83398151915292840192909252919060ff166119315760405162461bcd60e51b815260040161082491906136b2565b5080600301548211156119865760405162461bcd60e51b815260206004820152601c60248201527f4143593a20496e73756666696369656e74204c502062616c616e6365000000006044820152606401610824565b6000848152600760208181526040808420878552825292839020918201548351808501909452601c845260008051602061384f8339815191529184019190915290919060ff166119e95760405162461bcd60e51b815260040161082491906136b2565b5080546040805180820190915260118152701050d64e88155b985d5d1a1bdc9a5e9959607a1b6020820152906001600160a01b03163314611a3d5760405162461bcd60e51b815260040161082491906136b2565b5060038101546002820154611a52904261373e565b1015611a975760405162461bcd60e51b81526020600482015260146024820152734143593a204e6f206561726c7920756e6c6f636b60601b6044820152606401610824565b8060010154831115611aeb5760405162461bcd60e51b815260206004820152601c60248201527f4143593a20496e73756666696369656e74204c502062616c616e6365000000006044820152606401610824565b6000611b116201518083600301546904ee2d6d415b85acef8160201b610a21919061371f565b8260010154611b20919061371f565b905060005b6001840154811015611be3576000846001018281548110611b4857611b486137df565b600091825260208083209091015480835260068088018352604080852054918a01909352918320549093506904ee2d6d415b85acef8160201b90611b8c908761371f565b611b9691906136fd565b611ba0919061373e565b9050808560040160008481526020019081526020016000206000828254611bc791906136e5565b9250508190555050508080611bdb90613798565b915050611b25565b5083826001016000828254611bf8919061373e565b9250508190555083836003016000828254611c13919061373e565b90915550506003820154611c3d906201518090610a21906904ee2d6d415b85acef8160201b61371f565b611c47908561371f565b836004016000828254611c5a919061373e565b925050819055506000611c876201518084600301546904ee2d6d415b85acef8160201b610a21919061371f565b8360010154611c96919061371f565b905060005b6001850154811015611d28576000856001018281548110611cbe57611cbe6137df565b906000526020600020015490506904ee2d6d415b85acef8160201b8660060160008381526020019081526020016000205484611cfa919061371f565b611d0491906136fd565b60009182526006860160205260409091205580611d2081613798565b915050611c9b565b508354611d3f906001600160a01b03163387612b83565b8587336001600160a01b03167f02f25270a4d87bea75db541cdfe559334a275b4a233520ed6c0a2429667cca9488604051611d7c91815260200190565b60405180910390a4505060016003555050505050565b600081815260056020908152604091829020600781015483518085019094526018845260008051602061382f83398151915292840192909252606092909160ff16611df05760405162461bcd60e51b815260040161082491906136b2565b5060008381526005602052604090206001015467ffffffffffffffff811115611e1b57611e1b6137f5565b604051908082528060200260200182016040528015611e44578160200160208202803683370190505b50915060005b600084815260056020526040902060010154811015611f30576000826001018281548110611e7a57611e7a6137df565b6000918252602080832090910154808352600d8252604092839020548351808501909452601284527120a1ac9d102ab735b737bbb7103a37b5b2b760711b9284019290925292506001600160a01b03169081611ee95760405162461bcd60e51b815260040161082491906136b2565b5080858481518110611efd57611efd6137df565b60200260200101906001600160a01b031690816001600160a01b031681525050505080611f2990613798565b9050611e4a565b5050919050565b7f8619cecd8b9e095ab43867f5b69d492180450fe862e6b50bfbfb24b75dd84c8a611f62813361296b565b604080516001808252818301909252600161011160931b019160009190602080830190803683370190505090508381600081518110611fa357611fa36137df565b6001600160a01b039283166020918202929092010152604051630809469f60e11b8152908316906310128d3e90611fde90849060040161362d565b600060405180830381600087803b158015611ff857600080fd5b505af115801561200c573d6000803e3d6000fd5b5050505050505050565b600081815260056020908152604091829020600781015483518085019094526018845260008051602061382f83398151915292840192909252606092909160ff166120745760405162461bcd60e51b815260040161082491906136b2565b50806001018054806020026020016040519081016040528092919081815260200182805480156120c357602002820191906000526020600020905b8154815260200190600101908083116120af575b5050505050915050919050565b6000818152600160205260408120610b84906129cf565b7f8619cecd8b9e095ab43867f5b69d492180450fe862e6b50bfbfb24b75dd84c8a612112813361296b565b604080516001808252818301909252600161011160931b019160009190602080830190803683370190505090508381600081518110612153576121536137df565b6001600160a01b03928316602091820292909201015260405163694996db60e11b81529083169063d2932db690611fde90849060040161362d565b60008381526007602081815260408084208685528252808420928301548151808301909252601c825260008051602061384f833981519152928201929092529060ff166121ee5760405162461bcd60e51b815260040161082491906136b2565b50600092835260060160205250604090205492915050565b610fbf8282612bb3565b60008381526007602081815260408084208685528252808420928301548151808301909252601c825260008051602061384f833981519152928201929092529060ff166122705760405162461bcd60e51b815260040161082491906136b2565b5061227c858585610b8a565b600084815260058301602052604090205461229791906136e5565b95945050505050565b60008051602061386f8339815191526122b9813361296b565b6000838152600d6020908152604091829020548251808401909352601283527120a1ac9d102ab735b737bbb7103a37b5b2b760711b918301919091526001600160a01b0316908161231d5760405162461bcd60e51b815260040161082491906136b2565b506123336001600160a01b038216333086612430565b6000848152600a6020526040812080548592906123519084906136e5565b909155505060405183815284907f68f079265ae908d13eb803490bb7e3056a61413040af8e0f0e2eebb98648c79d9060200160405180910390a250505050565b6000818152600960205260408120610b84906129cf565b6123b28282612bd9565b5050565b6000610d8c836001600160a01b038416612c5d565b6000610d8c8383612c5d565b60008060026123e78460016136e5565b6123f191906136fd565b90508291505b8181101561242a5790508060028161240f81866136fd565b61241991906136e5565b61242391906136fd565b90506123f7565b50919050565b6040516001600160a01b0380851660248301528316604482015260648101829052610e989085906323b872dd60e01b906084015b60408051601f198184030181529190526020810180516001600160e01b03166001600160e01b031990931692909217909152612cac565b60006001600160e01b03198216637965db0b60e01b1480610b8457506301ffc9a760e01b6001600160e01b0319831614610b84565b6000610d8c8383612d7e565b6002600354141561252f5760405162461bcd60e51b815260206004820152601f60248201527f5265656e7472616e637947756172643a207265656e7472616e742063616c6c006044820152606401610824565b600260035561253d8461100d565b600084815260056020908152604091829020600781015483518085019094526018845260008051602061382f83398151915292840192909252919060ff166125985760405162461bcd60e51b815260040161082491906136b2565b506000858152600760208181526040808420888552825292839020918201548351808501909452601c845260008051602061384f8339815191529184019190915290919060ff166125fc5760405162461bcd60e51b815260040161082491906136b2565b5080546040805180820190915260118152701050d64e88155b985d5d1a1bdc9a5e9959607a1b6020820152906001600160a01b031633146126505760405162461bcd60e51b815260040161082491906136b2565b506000806126786201518084600301546904ee2d6d415b85acef8160201b610a21919061371f565b8360010154612687919061371f565b905060005b60018501548110156128c05760008560010182815481106126af576126af6137df565b600091825260208083209091015480835260068089018352604080852054918b01909352918320549093506904ee2d6d415b85acef8160201b906126f3908761371f565b6126fd91906136fd565b600084815260048901602052604090205461271891906136e5565b612722919061373e565b9050806127305750506128ae565b6000828152600a60205260409020548111612847576000828152600487016020908152604080832083905560068a019091529020546904ee2d6d415b85acef8160201b9061277e908661371f565b61278891906136fd565b6000838152600688016020908152604080832093909355600d905220546127b9906001600160a01b03163383612b83565b6000828152600a6020526040812080548392906127d790849061373e565b90915550506000828152600587016020526040812080548392906127fc9084906136e5565b909155505060408051838152602081018390528b918d9133917f779f6d843e7d40a6f05a1e46d3741bc2fd3949f52997fc3b95221af725f1b12f910160405180910390a450506128ae565b6001945087156128ab576040517f4143593a20496e73756666696369656e742066756e64696e6720666f722000006020820152603e8101839052605e015b60408051601f198184030181529082905262461bcd60e51b8252610824916004016136b2565b50505b806128b881613798565b91505061268c565b508580156128cc575081155b80156128da57506001830154155b1561295c5760008881526007602081815260408084208b8552825280842080546001600160a01b0319168155600181018590556002810185905560038101859055909201805460ff19169055338352600881528183208b8452905290206129419088612da8565b50600088815260096020526040902061295a9088612da8565b505b50506001600355505050505050565b6129758282611423565b6123b25761298d816001600160a01b03166014612db4565b612998836020612db4565b6040516020016128859291906135b8565b6000828152602081905260409020600101546129c5813361296b565b610f3e8383612bd9565b6000610b84825490565b6001600160a01b0381163314612a495760405162461bcd60e51b815260206004820152602f60248201527f416363657373436f6e74726f6c3a2063616e206f6e6c792072656e6f756e636560448201526e103937b632b9903337b91039b2b63360891b6064820152608401610824565b6123b28282612f50565b6000610d8c836001600160a01b038416612fb5565b60025460ff16612ab15760405162461bcd60e51b815260206004820152601460248201527314185d5cd8589b194e881b9bdd081c185d5cd95960621b6044820152606401610824565b6002805460ff191690557f5db9ee0a495bf2e6ff9c91a7834c1ba4fdd244a5e8aa4e537bd38aeae4b073aa335b6040516001600160a01b03909116815260200160405180910390a1565b60025460ff1615612b415760405162461bcd60e51b815260206004820152601060248201526f14185d5cd8589b194e881c185d5cd95960821b6044820152606401610824565b6002805460ff191660011790557f62e78cea01bee320cd4e420270b5ea74000d11b0c9f74754ebdbfc544b05a258612ade3390565b60606000610d8c836130a8565b6040516001600160a01b038316602482015260448101829052610f3e90849063a9059cbb60e01b90606401612464565b600082815260208190526040902060010154612bcf813361296b565b610f3e8383612f50565b612be38282611423565b6123b2576000828152602081815260408083206001600160a01b03851684529091529020805460ff19166001179055612c193390565b6001600160a01b0316816001600160a01b0316837f2f8788117e7eff1d82e926ec794901d17c78024a50270940304540a733656f0d60405160405180910390a45050565b6000818152600183016020526040812054612ca457508154600181810184556000848152602080822090930184905584548482528286019093526040902091909155610b84565b506000610b84565b6000612d01826040518060400160405280602081526020017f5361666545524332303a206c6f772d6c6576656c2063616c6c206661696c6564815250856001600160a01b03166131049092919063ffffffff16565b805190915015610f3e5780806020019051810190612d1f9190613339565b610f3e5760405162461bcd60e51b815260206004820152602a60248201527f5361666545524332303a204552433230206f7065726174696f6e20646964206e6044820152691bdd081cdd58d8d9595960b21b6064820152608401610824565b6000826000018281548110612d9557612d956137df565b9060005260206000200154905092915050565b6000610d8c8383612fb5565b60606000612dc383600261371f565b612dce9060026136e5565b67ffffffffffffffff811115612de657612de66137f5565b6040519080825280601f01601f191660200182016040528015612e10576020820181803683370190505b509050600360fc1b81600081518110612e2b57612e2b6137df565b60200101906001600160f81b031916908160001a905350600f60fb1b81600181518110612e5a57612e5a6137df565b60200101906001600160f81b031916908160001a9053506000612e7e84600261371f565b612e899060016136e5565b90505b6001811115612f01576f181899199a1a9b1b9c1cb0b131b232b360811b85600f1660108110612ebd57612ebd6137df565b1a60f81b828281518110612ed357612ed36137df565b60200101906001600160f81b031916908160001a90535060049490941c93612efa81613781565b9050612e8c565b508315610d8c5760405162461bcd60e51b815260206004820181905260248201527f537472696e67733a20686578206c656e67746820696e73756666696369656e746044820152606401610824565b612f5a8282611423565b156123b2576000828152602081815260408083206001600160a01b0385168085529252808320805460ff1916905551339285917ff6391f5c32d9c69d2a47ea670b442974b53935d1edc7fd64eb21e047a839171b9190a45050565b6000818152600183016020526040812054801561309e576000612fd960018361373e565b8554909150600090612fed9060019061373e565b905081811461305257600086600001828154811061300d5761300d6137df565b9060005260206000200154905080876000018481548110613030576130306137df565b6000918252602080832090910192909255918252600188019052604090208390555b8554869080613063576130636137c9565b600190038181906000526020600020016000905590558560010160008681526020019081526020016000206000905560019350505050610b84565b6000915050610b84565b6060816000018054806020026020016040519081016040528092919081815260200182805480156130f857602002820191906000526020600020905b8154815260200190600101908083116130e4575b50505050509050919050565b6060610e84848460008585843b61315d5760405162461bcd60e51b815260206004820152601d60248201527f416464726573733a2063616c6c20746f206e6f6e2d636f6e74726163740000006044820152606401610824565b600080866001600160a01b03168587604051613179919061359c565b60006040518083038185875af1925050503d80600081146131b6576040519150601f19603f3d011682016040523d82523d6000602084013e6131bb565b606091505b50915091506131cb8282866131d6565b979650505050505050565b606083156131e5575081610d8c565b8251156131f55782518084602001fd5b8160405162461bcd60e51b815260040161082491906136b2565b82805482825590600052602060002090810192821561324a579160200282015b8281111561324a57823582559160200191906001019061322f565b5061325692915061325a565b5090565b5b80821115613256576000815560010161325b565b60008083601f84011261328157600080fd5b50813567ffffffffffffffff81111561329957600080fd5b6020830191508360208260051b85010111156132b457600080fd5b9250929050565b6000602082840312156132cd57600080fd5b8135610d8c8161380b565b600080604083850312156132eb57600080fd5b82356132f68161380b565b946020939093013593505050565b60008060006060848603121561331957600080fd5b83356133248161380b565b95602085013595506040909401359392505050565b60006020828403121561334b57600080fd5b8151610d8c81613820565b60006020828403121561336857600080fd5b5035919050565b6000806040838503121561338257600080fd5b8235915060208301356133948161380b565b809150509250929050565b600080604083850312156133b257600080fd5b50508035926020909101359150565b6000806000606084860312156133d657600080fd5b833592506020840135915060408401356133ef81613820565b809150509250925092565b60006020828403121561340c57600080fd5b81356001600160e01b031981168114610d8c57600080fd5b6000806000806000806080878903121561343d57600080fd5b86356134488161380b565b9550602087013567ffffffffffffffff8082111561346557600080fd5b6134718a838b0161326f565b9097509550604089013591508082111561348a57600080fd5b5061349789828a0161326f565b90945092505060608701356134ab81613820565b809150509295509295509295565b6000806000606084860312156134ce57600080fd5b8335925060208401356134e081613820565b915060408401356133ef81613820565b6000806000806080858703121561350657600080fd5b843593506020850135925060408501359150606085013561352681613820565b939692955090935050565b6000806000806080858703121561354757600080fd5b8435935060208501359250604085013561356081613820565b9150606085013561352681613820565b60008060006060848603121561358557600080fd5b505081359360208301359350604090920135919050565b600082516135ae818460208701613755565b9190910192915050565b7f416363657373436f6e74726f6c3a206163636f756e74200000000000000000008152600083516135f0816017850160208801613755565b7001034b99036b4b9b9b4b733903937b6329607d1b6017918401918201528351613621816028840160208801613755565b01602801949350505050565b6020808252825182820181905260009190848201906040850190845b8181101561366e5783516001600160a01b031683529284019291840191600101613649565b50909695505050505050565b6020808252825182820181905260009190848201906040850190845b8181101561366e57835183529284019291840191600101613696565b60208152600082518060208401526136d1816040850160208701613755565b601f01601f19169190910160400192915050565b600082198211156136f8576136f86137b3565b500190565b60008261371a57634e487b7160e01b600052601260045260246000fd5b500490565b6000816000190483118215151615613739576137396137b3565b500290565b600082821015613750576137506137b3565b500390565b60005b83811015613770578181015183820152602001613758565b83811115610e985750506000910152565b600081613790576137906137b3565b506000190190565b60006000198214156137ac576137ac6137b3565b5060010190565b634e487b7160e01b600052601160045260246000fd5b634e487b7160e01b600052603160045260246000fd5b634e487b7160e01b600052603260045260246000fd5b634e487b7160e01b600052604160045260246000fd5b6001600160a01b038116811461100a57600080fd5b801515811461100a57600080fdfe4143593a20506f6f6c20646f6573206e6f7420657869737400000000000000004143593a20506f736974696f6e20646f6573206e6f74206578697374000000006077685936c8169d09204a1d97db12e41713588c38e1d29a61867d3dcee98affa26469706673582212201f9834d7b79ede89243cfa552759b591c383c0887a69108193a72559ca2f3dce64736f6c63430008060033",
			"opcodes": "PUSH1 0x80 PUSH1 0x40 MSTORE PUSH1 0x0 PUSH1 0x4 SSTORE PUSH1 0x0 PUSH1 0x6 SSTORE CALLVALUE DUP1 ISZERO PUSH3 0x1B JUMPI PUSH1 0x0 DUP1 REVERT JUMPDEST POP PUSH1 0x2 DUP1 SLOAD PUSH1 0xFF NOT AND SWAP1 SSTORE PUSH1 0x1 PUSH1 0x3 SSTORE PUSH3 0x57 PUSH32 0x6077685936C8169D09204A1D97DB12E41713588C38E1D29A61867D3DCEE98AFF CALLER PUSH3 0xB5 JUMP JUMPDEST PUSH3 0x83 PUSH32 0x65D7A28E3265B37A6474929F336521B332C1681B933F6CB9F3376673440D862A CALLER PUSH3 0xB5 JUMP JUMPDEST PUSH3 0xAF PUSH32 0x8619CECD8B9E095AB43867F5B69D492180450FE862E6B50BFBFB24B75DD84C8A CALLER PUSH3 0xB5 JUMP JUMPDEST PUSH3 0x21A JUMP JUMPDEST PUSH3 0xCC DUP3 DUP3 PUSH3 0xF8 PUSH1 0x20 SHL PUSH3 0x23A8 OR PUSH1 0x20 SHR JUMP JUMPDEST PUSH1 0x0 DUP3 DUP2 MSTORE PUSH1 0x1 PUSH1 0x20 SWAP1 DUP2 MSTORE PUSH1 0x40 SWAP1 SWAP2 KECCAK256 PUSH3 0xF3 SWAP2 DUP4 SWAP1 PUSH3 0x23B6 PUSH3 0x108 DUP3 SHL OR SWAP1 SHR JUMP JUMPDEST POP POP POP JUMP JUMPDEST PUSH3 0x104 DUP3 DUP3 PUSH3 0x128 JUMP JUMPDEST POP POP JUMP JUMPDEST PUSH1 0x0 PUSH3 0x11F DUP4 PUSH1 0x1 PUSH1 0x1 PUSH1 0xA0 SHL SUB DUP5 AND PUSH3 0x1C8 JUMP JUMPDEST SWAP1 POP JUMPDEST SWAP3 SWAP2 POP POP JUMP JUMPDEST PUSH1 0x0 DUP3 DUP2 MSTORE PUSH1 0x20 DUP2 DUP2 MSTORE PUSH1 0x40 DUP1 DUP4 KECCAK256 PUSH1 0x1 PUSH1 0x1 PUSH1 0xA0 SHL SUB DUP6 AND DUP5 MSTORE SWAP1 SWAP2 MSTORE SWAP1 KECCAK256 SLOAD PUSH1 0xFF AND PUSH3 0x104 JUMPI PUSH1 0x0 DUP3 DUP2 MSTORE PUSH1 0x20 DUP2 DUP2 MSTORE PUSH1 0x40 DUP1 DUP4 KECCAK256 PUSH1 0x1 PUSH1 0x1 PUSH1 0xA0 SHL SUB DUP6 AND DUP5 MSTORE SWAP1 SWAP2 MSTORE SWAP1 KECCAK256 DUP1 SLOAD PUSH1 0xFF NOT AND PUSH1 0x1 OR SWAP1 SSTORE PUSH3 0x184 CALLER SWAP1 JUMP JUMPDEST PUSH1 0x1 PUSH1 0x1 PUSH1 0xA0 SHL SUB AND DUP2 PUSH1 0x1 PUSH1 0x1 PUSH1 0xA0 SHL SUB AND DUP4 PUSH32 0x2F8788117E7EFF1D82E926EC794901D17C78024A50270940304540A733656F0D PUSH1 0x40 MLOAD PUSH1 0x40 MLOAD DUP1 SWAP2 SUB SWAP1 LOG4 POP POP JUMP JUMPDEST PUSH1 0x0 DUP2 DUP2 MSTORE PUSH1 0x1 DUP4 ADD PUSH1 0x20 MSTORE PUSH1 0x40 DUP2 KECCAK256 SLOAD PUSH3 0x211 JUMPI POP DUP2 SLOAD PUSH1 0x1 DUP2 DUP2 ADD DUP5 SSTORE PUSH1 0x0 DUP5 DUP2 MSTORE PUSH1 0x20 DUP1 DUP3 KECCAK256 SWAP1 SWAP4 ADD DUP5 SWAP1 SSTORE DUP5 SLOAD DUP5 DUP3 MSTORE DUP3 DUP7 ADD SWAP1 SWAP4 MSTORE PUSH1 0x40 SWAP1 KECCAK256 SWAP2 SWAP1 SWAP2 SSTORE PUSH3 0x122 JUMP JUMPDEST POP PUSH1 0x0 PUSH3 0x122 JUMP JUMPDEST PUSH2 0x38C4 DUP1 PUSH3 0x22A PUSH1 0x0 CODECOPY PUSH1 0x0 RETURN INVALID PUSH1 0x80 PUSH1 0x40 MSTORE CALLVALUE DUP1 ISZERO PUSH2 0x10 JUMPI PUSH1 0x0 DUP1 REVERT JUMPDEST POP PUSH1 0x4 CALLDATASIZE LT PUSH2 0x2D5 JUMPI PUSH1 0x0 CALLDATALOAD PUSH1 0xE0 SHR DUP1 PUSH4 0x79DD13CA GT PUSH2 0x182 JUMPI DUP1 PUSH4 0xABFD0954 GT PUSH2 0xE9 JUMPI DUP1 PUSH4 0xD3FAADE9 GT PUSH2 0xA2 JUMPI DUP1 PUSH4 0xE46BBC9E GT PUSH2 0x7C JUMPI DUP1 PUSH4 0xE46BBC9E EQ PUSH2 0x775 JUMPI DUP1 PUSH4 0xE63AB1E9 EQ PUSH2 0x788 JUMPI DUP1 PUSH4 0xEA8960A4 EQ PUSH2 0x7AF JUMPI DUP1 PUSH4 0xF9226D31 EQ PUSH2 0x7CF JUMPI PUSH1 0x0 DUP1 REVERT JUMPDEST DUP1 PUSH4 0xD3FAADE9 EQ PUSH2 0x73C JUMPI DUP1 PUSH4 0xD547741F EQ PUSH2 0x74F JUMPI DUP1 PUSH4 0xDD3256D0 EQ PUSH2 0x762 JUMPI PUSH1 0x0 DUP1 REVERT JUMPDEST DUP1 PUSH4 0xABFD0954 EQ PUSH2 0x67D JUMPI DUP1 PUSH4 0xAD4683A4 EQ PUSH2 0x69D JUMPI DUP1 PUSH4 0xB7A5ADCA EQ PUSH2 0x6F0 JUMPI DUP1 PUSH4 0xC4EE5C44 EQ PUSH2 0x703 JUMPI DUP1 PUSH4 0xCA15C873 EQ PUSH2 0x716 JUMPI DUP1 PUSH4 0xD32FFF2B EQ PUSH2 0x729 JUMPI PUSH1 0x0 DUP1 REVERT JUMPDEST DUP1 PUSH4 0x9214BD4D GT PUSH2 0x13B JUMPI DUP1 PUSH4 0x9214BD4D EQ PUSH2 0x609 JUMPI DUP1 PUSH4 0x942B29E3 EQ PUSH2 0x61C JUMPI DUP1 PUSH4 0x959B87DE EQ PUSH2 0x63C JUMPI DUP1 PUSH4 0xA217FDDF EQ PUSH2 0x64F JUMPI DUP1 PUSH4 0xA3461B5A EQ PUSH2 0x657 JUMPI DUP1 PUSH4 0xA41FE49F EQ PUSH2 0x66A JUMPI PUSH1 0x0 DUP1 REVERT JUMPDEST DUP1 PUSH4 0x79DD13CA EQ PUSH2 0x574 JUMPI DUP1 PUSH4 0x8456CB59 EQ PUSH2 0x5B5 JUMPI DUP1 PUSH4 0x849687C7 EQ PUSH2 0x5BD JUMPI DUP1 PUSH4 0x85096902 EQ PUSH2 0x5D0 JUMPI DUP1 PUSH4 0x9010D07C EQ PUSH2 0x5E3 JUMPI DUP1 PUSH4 0x91D14854 EQ PUSH2 0x5F6 JUMPI PUSH1 0x0 DUP1 REVERT JUMPDEST DUP1 PUSH4 0x3634BBA6 GT PUSH2 0x241 JUMPI DUP1 PUSH4 0x570618E1 GT PUSH2 0x1FA JUMPI DUP1 PUSH4 0x630B5BA1 GT PUSH2 0x1D4 JUMPI DUP1 PUSH4 0x630B5BA1 EQ PUSH2 0x526 JUMPI DUP1 PUSH4 0x6DCE9FBD EQ PUSH2 0x52E JUMPI DUP1 PUSH4 0x73BF8761 EQ PUSH2 0x541 JUMPI DUP1 PUSH4 0x793F0851 EQ PUSH2 0x554 JUMPI PUSH1 0x0 DUP1 REVERT JUMPDEST DUP1 PUSH4 0x570618E1 EQ PUSH2 0x4EB JUMPI DUP1 PUSH4 0x5C975ABB EQ PUSH2 0x512 JUMPI DUP1 PUSH4 0x5E71823B EQ PUSH2 0x51D JUMPI PUSH1 0x0 DUP1 REVERT JUMPDEST DUP1 PUSH4 0x3634BBA6 EQ PUSH2 0x475 JUMPI DUP1 PUSH4 0x36568ABE EQ PUSH2 0x488 JUMPI DUP1 PUSH4 0x38D6CA99 EQ PUSH2 0x49B JUMPI DUP1 PUSH4 0x3F4BA83A EQ PUSH2 0x4BB JUMPI DUP1 PUSH4 0x51EB05A6 EQ PUSH2 0x4C3 JUMPI DUP1 PUSH4 0x56D73568 EQ PUSH2 0x4D6 JUMPI PUSH1 0x0 DUP1 REVERT JUMPDEST DUP1 PUSH4 0x265FB54A GT PUSH2 0x293 JUMPI DUP1 PUSH4 0x265FB54A EQ PUSH2 0x3ED JUMPI DUP1 PUSH4 0x2803A1AF EQ PUSH2 0x420 JUMPI DUP1 PUSH4 0x2DDC65AF EQ PUSH2 0x433 JUMPI DUP1 PUSH4 0x2DED0FB5 EQ PUSH2 0x446 JUMPI DUP1 PUSH4 0x2F2FF15D EQ PUSH2 0x459 JUMPI DUP1 PUSH4 0x35C62BC2 EQ PUSH2 0x46C JUMPI PUSH1 0x0 DUP1 REVERT JUMPDEST DUP1 PUSH3 0xAEEF8A EQ PUSH2 0x2DA JUMPI DUP1 PUSH4 0x1FFC9A7 EQ PUSH2 0x2EF JUMPI DUP1 PUSH4 0x31BDA86 EQ PUSH2 0x317 JUMPI DUP1 PUSH4 0xBAF9081 EQ PUSH2 0x338 JUMPI DUP1 PUSH4 0x1526FE27 EQ PUSH2 0x34B JUMPI DUP1 PUSH4 0x248A9CA3 EQ PUSH2 0x3CA JUMPI JUMPDEST PUSH1 0x0 DUP1 REVERT JUMPDEST PUSH2 0x2ED PUSH2 0x2E8 CALLDATASIZE PUSH1 0x4 PUSH2 0x3570 JUMP JUMPDEST PUSH2 0x7E2 JUMP JUMPDEST STOP JUMPDEST PUSH2 0x302 PUSH2 0x2FD CALLDATASIZE PUSH1 0x4 PUSH2 0x33FA JUMP JUMPDEST PUSH2 0xB5F JUMP JUMPDEST PUSH1 0x40 MLOAD SWAP1 ISZERO ISZERO DUP2 MSTORE PUSH1 0x20 ADD JUMPDEST PUSH1 0x40 MLOAD DUP1 SWAP2 SUB SWAP1 RETURN JUMPDEST PUSH2 0x32A PUSH2 0x325 CALLDATASIZE PUSH1 0x4 PUSH2 0x3570 JUMP JUMPDEST PUSH2 0xB8A JUMP JUMPDEST PUSH1 0x40 MLOAD SWAP1 DUP2 MSTORE PUSH1 0x20 ADD PUSH2 0x30E JUMP JUMPDEST PUSH2 0x32A PUSH2 0x346 CALLDATASIZE PUSH1 0x4 PUSH2 0x339F JUMP JUMPDEST PUSH2 0xD93 JUMP JUMPDEST PUSH2 0x396 PUSH2 0x359 CALLDATASIZE PUSH1 0x4 PUSH2 0x3356 JUMP JUMPDEST PUSH1 0x5 PUSH1 0x20 DUP2 SWAP1 MSTORE PUSH1 0x0 SWAP2 DUP3 MSTORE PUSH1 0x40 SWAP1 SWAP2 KECCAK256 DUP1 SLOAD PUSH1 0x3 DUP3 ADD SLOAD PUSH1 0x4 DUP4 ADD SLOAD SWAP4 DUP4 ADD SLOAD PUSH1 0x7 SWAP1 SWAP4 ADD SLOAD PUSH1 0x1 PUSH1 0x1 PUSH1 0xA0 SHL SUB SWAP1 SWAP3 AND SWAP4 SWAP1 SWAP3 SWAP1 SWAP2 PUSH1 0xFF AND DUP6 JUMP JUMPDEST PUSH1 0x40 DUP1 MLOAD PUSH1 0x1 PUSH1 0x1 PUSH1 0xA0 SHL SUB SWAP1 SWAP7 AND DUP7 MSTORE PUSH1 0x20 DUP7 ADD SWAP5 SWAP1 SWAP5 MSTORE SWAP3 DUP5 ADD SWAP2 SWAP1 SWAP2 MSTORE PUSH1 0x60 DUP4 ADD MSTORE ISZERO ISZERO PUSH1 0x80 DUP3 ADD MSTORE PUSH1 0xA0 ADD PUSH2 0x30E JUMP JUMPDEST PUSH2 0x32A PUSH2 0x3D8 CALLDATASIZE PUSH1 0x4 PUSH2 0x3356 JUMP JUMPDEST PUSH1 0x0 SWAP1 DUP2 MSTORE PUSH1 0x20 DUP2 SWAP1 MSTORE PUSH1 0x40 SWAP1 KECCAK256 PUSH1 0x1 ADD SLOAD SWAP1 JUMP JUMPDEST PUSH2 0x400 PUSH2 0x3FB CALLDATASIZE PUSH1 0x4 PUSH2 0x339F JUMP JUMPDEST PUSH2 0xDAB JUMP JUMPDEST PUSH1 0x40 DUP1 MLOAD SWAP5 DUP6 MSTORE PUSH1 0x20 DUP6 ADD SWAP4 SWAP1 SWAP4 MSTORE SWAP2 DUP4 ADD MSTORE PUSH1 0x60 DUP3 ADD MSTORE PUSH1 0x80 ADD PUSH2 0x30E JUMP JUMPDEST PUSH2 0x32A PUSH2 0x42E CALLDATASIZE PUSH1 0x4 PUSH2 0x3304 JUMP JUMPDEST PUSH2 0xE57 JUMP JUMPDEST PUSH2 0x2ED PUSH2 0x441 CALLDATASIZE PUSH1 0x4 PUSH2 0x3531 JUMP JUMPDEST PUSH2 0xE8C JUMP JUMPDEST PUSH2 0x2ED PUSH2 0x454 CALLDATASIZE PUSH1 0x4 PUSH2 0x336F JUMP JUMPDEST PUSH2 0xE9E JUMP JUMPDEST PUSH2 0x2ED PUSH2 0x467 CALLDATASIZE PUSH1 0x4 PUSH2 0x336F JUMP JUMPDEST PUSH2 0xF1C JUMP JUMPDEST PUSH2 0x32A PUSH1 0x4 SLOAD DUP2 JUMP JUMPDEST PUSH2 0x2ED PUSH2 0x483 CALLDATASIZE PUSH1 0x4 PUSH2 0x34B9 JUMP JUMPDEST PUSH2 0xF43 JUMP JUMPDEST PUSH2 0x2ED PUSH2 0x496 CALLDATASIZE PUSH1 0x4 PUSH2 0x336F JUMP JUMPDEST PUSH2 0xFB5 JUMP JUMPDEST PUSH2 0x32A PUSH2 0x4A9 CALLDATASIZE PUSH1 0x4 PUSH2 0x3356 JUMP JUMPDEST PUSH1 0xC PUSH1 0x20 MSTORE PUSH1 0x0 SWAP1 DUP2 MSTORE PUSH1 0x40 SWAP1 KECCAK256 SLOAD DUP2 JUMP JUMPDEST PUSH2 0x2ED PUSH2 0xFD7 JUMP JUMPDEST PUSH2 0x2ED PUSH2 0x4D1 CALLDATASIZE PUSH1 0x4 PUSH2 0x3356 JUMP JUMPDEST PUSH2 0x100D JUMP JUMPDEST PUSH2 0x32A PUSH1 0x0 DUP1 MLOAD PUSH1 0x20 PUSH2 0x386F DUP4 CODECOPY DUP2 MLOAD SWAP2 MSTORE DUP2 JUMP JUMPDEST PUSH2 0x32A PUSH32 0x8619CECD8B9E095AB43867F5B69D492180450FE862E6B50BFBFB24B75DD84C8A DUP2 JUMP JUMPDEST PUSH1 0x2 SLOAD PUSH1 0xFF AND PUSH2 0x302 JUMP JUMPDEST PUSH2 0x32A PUSH1 0x6 SLOAD DUP2 JUMP JUMPDEST PUSH2 0x2ED PUSH2 0x1187 JUMP JUMPDEST PUSH2 0x32A PUSH2 0x53C CALLDATASIZE PUSH1 0x4 PUSH2 0x32D8 JUMP JUMPDEST PUSH2 0x11AD JUMP JUMPDEST PUSH2 0x2ED PUSH2 0x54F CALLDATASIZE PUSH1 0x4 PUSH2 0x34F0 JUMP JUMPDEST PUSH2 0x11D9 JUMP JUMPDEST PUSH2 0x32A PUSH2 0x562 CALLDATASIZE PUSH1 0x4 PUSH2 0x3356 JUMP JUMPDEST PUSH1 0xB PUSH1 0x20 MSTORE PUSH1 0x0 SWAP1 DUP2 MSTORE PUSH1 0x40 SWAP1 KECCAK256 SLOAD DUP2 JUMP JUMPDEST PUSH2 0x59D PUSH2 0x582 CALLDATASIZE PUSH1 0x4 PUSH2 0x3356 JUMP JUMPDEST PUSH1 0xD PUSH1 0x20 MSTORE PUSH1 0x0 SWAP1 DUP2 MSTORE PUSH1 0x40 SWAP1 KECCAK256 SLOAD PUSH1 0x1 PUSH1 0x1 PUSH1 0xA0 SHL SUB AND DUP2 JUMP JUMPDEST PUSH1 0x40 MLOAD PUSH1 0x1 PUSH1 0x1 PUSH1 0xA0 SHL SUB SWAP1 SWAP2 AND DUP2 MSTORE PUSH1 0x20 ADD PUSH2 0x30E JUMP JUMPDEST PUSH2 0x2ED PUSH2 0x12F0 JUMP JUMPDEST PUSH2 0x32A PUSH2 0x5CB CALLDATASIZE PUSH1 0x4 PUSH2 0x339F JUMP JUMPDEST PUSH2 0x1323 JUMP JUMPDEST PUSH2 0x2ED PUSH2 0x5DE CALLDATASIZE PUSH1 0x4 PUSH2 0x33C1 JUMP JUMPDEST PUSH2 0x1393 JUMP JUMPDEST PUSH2 0x59D PUSH2 0x5F1 CALLDATASIZE PUSH1 0x4 PUSH2 0x339F JUMP JUMPDEST PUSH2 0x140B JUMP JUMPDEST PUSH2 0x302 PUSH2 0x604 CALLDATASIZE PUSH1 0x4 PUSH2 0x336F JUMP JUMPDEST PUSH2 0x1423 JUMP JUMPDEST PUSH2 0x2ED PUSH2 0x617 CALLDATASIZE PUSH1 0x4 PUSH2 0x3424 JUMP JUMPDEST PUSH2 0x144C JUMP JUMPDEST PUSH2 0x62F PUSH2 0x62A CALLDATASIZE PUSH1 0x4 PUSH2 0x32D8 JUMP JUMPDEST PUSH2 0x176B JUMP JUMPDEST PUSH1 0x40 MLOAD PUSH2 0x30E SWAP2 SWAP1 PUSH2 0x367A JUMP JUMPDEST PUSH2 0x32A PUSH2 0x64A CALLDATASIZE PUSH1 0x4 PUSH2 0x3570 JUMP JUMPDEST PUSH2 0x179A JUMP JUMPDEST PUSH2 0x32A PUSH1 0x0 DUP2 JUMP JUMPDEST PUSH2 0x62F PUSH2 0x665 CALLDATASIZE PUSH1 0x4 PUSH2 0x3356 JUMP JUMPDEST PUSH2 0x1812 JUMP JUMPDEST PUSH2 0x2ED PUSH2 0x678 CALLDATASIZE PUSH1 0x4 PUSH2 0x3570 JUMP JUMPDEST PUSH2 0x182C JUMP JUMPDEST PUSH2 0x690 PUSH2 0x68B CALLDATASIZE PUSH1 0x4 PUSH2 0x3356 JUMP JUMPDEST PUSH2 0x1D92 JUMP JUMPDEST PUSH1 0x40 MLOAD PUSH2 0x30E SWAP2 SWAP1 PUSH2 0x362D JUMP JUMPDEST PUSH2 0x396 PUSH2 0x6AB CALLDATASIZE PUSH1 0x4 PUSH2 0x339F JUMP JUMPDEST PUSH1 0x7 PUSH1 0x20 DUP2 DUP2 MSTORE PUSH1 0x0 SWAP4 DUP5 MSTORE PUSH1 0x40 DUP1 DUP6 KECCAK256 SWAP1 SWAP2 MSTORE SWAP2 DUP4 MSTORE SWAP2 KECCAK256 DUP1 SLOAD PUSH1 0x1 DUP3 ADD SLOAD PUSH1 0x2 DUP4 ADD SLOAD PUSH1 0x3 DUP5 ADD SLOAD SWAP4 SWAP1 SWAP5 ADD SLOAD PUSH1 0x1 PUSH1 0x1 PUSH1 0xA0 SHL SUB SWAP1 SWAP3 AND SWAP4 SWAP1 SWAP3 SWAP1 SWAP2 PUSH1 0xFF AND DUP6 JUMP JUMPDEST PUSH2 0x2ED PUSH2 0x6FE CALLDATASIZE PUSH1 0x4 PUSH2 0x32BB JUMP JUMPDEST PUSH2 0x1F37 JUMP JUMPDEST PUSH2 0x62F PUSH2 0x711 CALLDATASIZE PUSH1 0x4 PUSH2 0x3356 JUMP JUMPDEST PUSH2 0x2016 JUMP JUMPDEST PUSH2 0x32A PUSH2 0x724 CALLDATASIZE PUSH1 0x4 PUSH2 0x3356 JUMP JUMPDEST PUSH2 0x20D0 JUMP JUMPDEST PUSH2 0x2ED PUSH2 0x737 CALLDATASIZE PUSH1 0x4 PUSH2 0x32BB JUMP JUMPDEST PUSH2 0x20E7 JUMP JUMPDEST PUSH2 0x32A PUSH2 0x74A CALLDATASIZE PUSH1 0x4 PUSH2 0x3570 JUMP JUMPDEST PUSH2 0x218E JUMP JUMPDEST PUSH2 0x2ED PUSH2 0x75D CALLDATASIZE PUSH1 0x4 PUSH2 0x336F JUMP JUMPDEST PUSH2 0x2206 JUMP JUMPDEST PUSH2 0x32A PUSH2 0x770 CALLDATASIZE PUSH1 0x4 PUSH2 0x3570 JUMP JUMPDEST PUSH2 0x2210 JUMP JUMPDEST PUSH2 0x2ED PUSH2 0x783 CALLDATASIZE PUSH1 0x4 PUSH2 0x339F JUMP JUMPDEST PUSH2 0x22A0 JUMP JUMPDEST PUSH2 0x32A PUSH32 0x65D7A28E3265B37A6474929F336521B332C1681B933F6CB9F3376673440D862A DUP2 JUMP JUMPDEST PUSH2 0x32A PUSH2 0x7BD CALLDATASIZE PUSH1 0x4 PUSH2 0x3356 JUMP JUMPDEST PUSH1 0xA PUSH1 0x20 MSTORE PUSH1 0x0 SWAP1 DUP2 MSTORE PUSH1 0x40 SWAP1 KECCAK256 SLOAD DUP2 JUMP JUMPDEST PUSH2 0x32A PUSH2 0x7DD CALLDATASIZE PUSH1 0x4 PUSH2 0x3356 JUMP JUMPDEST PUSH2 0x2391 JUMP JUMPDEST PUSH1 0x2 SLOAD PUSH1 0xFF AND ISZERO PUSH2 0x82D JUMPI PUSH1 0x40 MLOAD PUSH3 0x461BCD PUSH1 0xE5 SHL DUP2 MSTORE PUSH1 0x20 PUSH1 0x4 DUP3 ADD MSTORE PUSH1 0x10 PUSH1 0x24 DUP3 ADD MSTORE PUSH16 0x14185D5CD8589B194E881C185D5CD959 PUSH1 0x82 SHL PUSH1 0x44 DUP3 ADD MSTORE PUSH1 0x64 ADD JUMPDEST PUSH1 0x40 MLOAD DUP1 SWAP2 SUB SWAP1 REVERT JUMPDEST PUSH1 0x0 DUP2 GT PUSH2 0x88F JUMPI PUSH1 0x40 MLOAD PUSH3 0x461BCD PUSH1 0xE5 SHL DUP2 MSTORE PUSH1 0x20 PUSH1 0x4 DUP3 ADD MSTORE PUSH1 0x29 PUSH1 0x24 DUP3 ADD MSTORE PUSH32 0x4143593A206C6F636B206475726174696F6E206D757374206265206772656174 PUSH1 0x44 DUP3 ADD MSTORE PUSH9 0x6572207468616E203 PUSH1 0xBC SHL PUSH1 0x64 DUP3 ADD MSTORE PUSH1 0x84 ADD PUSH2 0x824 JUMP JUMPDEST PUSH4 0x784CE00 DUP2 GT ISZERO PUSH2 0x8F7 JUMPI PUSH1 0x40 MLOAD PUSH3 0x461BCD PUSH1 0xE5 SHL DUP2 MSTORE PUSH1 0x20 PUSH1 0x4 DUP3 ADD MSTORE PUSH1 0x2B PUSH1 0x24 DUP3 ADD MSTORE PUSH32 0x4143593A206C6F636B206475726174696F6E206D757374206E6F74206265206F PUSH1 0x44 DUP3 ADD MSTORE PUSH11 0x7665722034207965617273 PUSH1 0xA8 SHL PUSH1 0x64 DUP3 ADD MSTORE PUSH1 0x84 ADD PUSH2 0x824 JUMP JUMPDEST PUSH2 0x900 DUP4 PUSH2 0x100D JUMP JUMPDEST PUSH1 0x0 DUP4 DUP2 MSTORE PUSH1 0x5 PUSH1 0x20 SWAP1 DUP2 MSTORE PUSH1 0x40 SWAP2 DUP3 SWAP1 KECCAK256 PUSH1 0x7 DUP2 ADD SLOAD DUP4 MLOAD DUP1 DUP6 ADD SWAP1 SWAP5 MSTORE PUSH1 0x18 DUP5 MSTORE PUSH1 0x0 DUP1 MLOAD PUSH1 0x20 PUSH2 0x382F DUP4 CODECOPY DUP2 MLOAD SWAP2 MSTORE SWAP3 DUP5 ADD SWAP3 SWAP1 SWAP3 MSTORE SWAP2 SWAP1 PUSH1 0xFF AND PUSH2 0x95B JUMPI PUSH1 0x40 MLOAD PUSH3 0x461BCD PUSH1 0xE5 SHL DUP2 MSTORE PUSH1 0x4 ADD PUSH2 0x824 SWAP2 SWAP1 PUSH2 0x36B2 JUMP JUMPDEST POP PUSH1 0x6 DUP1 SLOAD PUSH1 0x0 SWAP2 DUP3 PUSH2 0x96D DUP4 PUSH2 0x3798 JUMP JUMPDEST SWAP1 SWAP2 SSTORE POP PUSH1 0x0 DUP7 DUP2 MSTORE PUSH1 0x7 PUSH1 0x20 DUP2 DUP2 MSTORE PUSH1 0x40 DUP1 DUP5 KECCAK256 DUP6 DUP6 MSTORE DUP3 MSTORE DUP1 DUP5 KECCAK256 DUP1 SLOAD PUSH1 0x1 PUSH1 0x1 PUSH1 0xA0 SHL SUB NOT AND CALLER SWAP1 DUP2 OR DUP3 SSTORE PUSH1 0x1 DUP1 DUP4 ADD DUP13 SWAP1 SSTORE TIMESTAMP PUSH1 0x2 DUP5 ADD SSTORE PUSH1 0x3 DUP4 ADD DUP12 SWAP1 SSTORE SWAP5 DUP3 ADD DUP1 SLOAD PUSH1 0xFF NOT AND SWAP1 SWAP6 OR SWAP1 SWAP5 SSTORE SWAP3 DUP5 MSTORE PUSH1 0x8 DUP3 MSTORE DUP1 DUP5 KECCAK256 DUP11 DUP6 MSTORE SWAP1 SWAP2 MSTORE SWAP1 SWAP2 KECCAK256 SWAP2 SWAP3 POP SWAP1 PUSH2 0x9E1 SWAP1 DUP4 PUSH2 0x23CB JUMP JUMPDEST POP PUSH1 0x0 DUP7 DUP2 MSTORE PUSH1 0x9 PUSH1 0x20 MSTORE PUSH1 0x40 SWAP1 KECCAK256 PUSH2 0x9FA SWAP1 DUP4 PUSH2 0x23CB JUMP JUMPDEST POP PUSH1 0x0 PUSH2 0xA30 PUSH3 0x15180 DUP4 PUSH1 0x3 ADD SLOAD PUSH10 0x4EE2D6D415B85ACEF81 PUSH1 0x20 SHL PUSH2 0xA21 SWAP2 SWAP1 PUSH2 0x371F JUMP JUMPDEST PUSH2 0xA2B SWAP2 SWAP1 PUSH2 0x36FD JUMP JUMPDEST PUSH2 0x23D7 JUMP JUMPDEST DUP3 PUSH1 0x1 ADD SLOAD PUSH2 0xA3F SWAP2 SWAP1 PUSH2 0x371F JUMP JUMPDEST SWAP1 POP PUSH1 0x0 JUMPDEST PUSH1 0x1 DUP6 ADD SLOAD DUP2 LT ISZERO PUSH2 0xAD1 JUMPI PUSH1 0x0 DUP6 PUSH1 0x1 ADD DUP3 DUP2 SLOAD DUP2 LT PUSH2 0xA67 JUMPI PUSH2 0xA67 PUSH2 0x37DF JUMP JUMPDEST SWAP1 PUSH1 0x0 MSTORE PUSH1 0x20 PUSH1 0x0 KECCAK256 ADD SLOAD SWAP1 POP PUSH10 0x4EE2D6D415B85ACEF81 PUSH1 0x20 SHL DUP7 PUSH1 0x6 ADD PUSH1 0x0 DUP4 DUP2 MSTORE PUSH1 0x20 ADD SWAP1 DUP2 MSTORE PUSH1 0x20 ADD PUSH1 0x0 KECCAK256 SLOAD DUP5 PUSH2 0xAA3 SWAP2 SWAP1 PUSH2 0x371F JUMP JUMPDEST PUSH2 0xAAD SWAP2 SWAP1 PUSH2 0x36FD JUMP JUMPDEST PUSH1 0x0 SWAP2 DUP3 MSTORE PUSH1 0x6 DUP6 ADD PUSH1 0x20 MSTORE PUSH1 0x40 SWAP1 SWAP2 KECCAK256 SSTORE DUP1 PUSH2 0xAC9 DUP2 PUSH2 0x3798 JUMP JUMPDEST SWAP2 POP POP PUSH2 0xA44 JUMP JUMPDEST POP DUP4 SLOAD PUSH2 0xAE9 SWAP1 PUSH1 0x1 PUSH1 0x1 PUSH1 0xA0 SHL SUB AND CALLER ADDRESS DUP10 PUSH2 0x2430 JUMP JUMPDEST DUP6 DUP5 PUSH1 0x3 ADD PUSH1 0x0 DUP3 DUP3 SLOAD PUSH2 0xAFD SWAP2 SWAP1 PUSH2 0x36E5 JUMP JUMPDEST SWAP3 POP POP DUP2 SWAP1 SSTORE POP DUP1 DUP5 PUSH1 0x4 ADD PUSH1 0x0 DUP3 DUP3 SLOAD PUSH2 0xB18 SWAP2 SWAP1 PUSH2 0x36E5 JUMP JUMPDEST SWAP1 SWAP2 SSTORE POP POP PUSH1 0x40 MLOAD DUP7 DUP2 MSTORE DUP4 SWAP1 DUP9 SWAP1 CALLER SWAP1 PUSH32 0x36AF321EC8D3C75236829C5317AFFD40DDB308863A1236D2D277A4025CCCEE1E SWAP1 PUSH1 0x20 ADD PUSH1 0x40 MLOAD DUP1 SWAP2 SUB SWAP1 LOG4 POP POP POP POP POP POP POP JUMP JUMPDEST PUSH1 0x0 PUSH1 0x1 PUSH1 0x1 PUSH1 0xE0 SHL SUB NOT DUP3 AND PUSH4 0x5A05180F PUSH1 0xE0 SHL EQ DUP1 PUSH2 0xB84 JUMPI POP PUSH2 0xB84 DUP3 PUSH2 0x249B JUMP JUMPDEST SWAP3 SWAP2 POP POP JUMP JUMPDEST PUSH1 0x0 DUP4 DUP2 MSTORE PUSH1 0x5 PUSH1 0x20 SWAP1 DUP2 MSTORE PUSH1 0x40 DUP1 DUP4 KECCAK256 PUSH1 0x7 DUP2 ADD SLOAD DUP3 MLOAD DUP1 DUP5 ADD SWAP1 SWAP4 MSTORE PUSH1 0x18 DUP4 MSTORE PUSH1 0x0 DUP1 MLOAD PUSH1 0x20 PUSH2 0x382F DUP4 CODECOPY DUP2 MLOAD SWAP2 MSTORE SWAP4 DUP4 ADD SWAP4 SWAP1 SWAP4 MSTORE SWAP2 PUSH1 0xFF AND PUSH2 0xBE3 JUMPI PUSH1 0x40 MLOAD PUSH3 0x461BCD PUSH1 0xE5 SHL DUP2 MSTORE PUSH1 0x4 ADD PUSH2 0x824 SWAP2 SWAP1 PUSH2 0x36B2 JUMP JUMPDEST POP PUSH1 0x0 DUP6 DUP2 MSTORE PUSH1 0x7 PUSH1 0x20 DUP2 DUP2 MSTORE PUSH1 0x40 DUP1 DUP5 KECCAK256 DUP9 DUP6 MSTORE DUP3 MSTORE SWAP3 DUP4 SWAP1 KECCAK256 SWAP2 DUP3 ADD SLOAD DUP4 MLOAD DUP1 DUP6 ADD SWAP1 SWAP5 MSTORE PUSH1 0x1C DUP5 MSTORE PUSH1 0x0 DUP1 MLOAD PUSH1 0x20 PUSH2 0x384F DUP4 CODECOPY DUP2 MLOAD SWAP2 MSTORE SWAP2 DUP5 ADD SWAP2 SWAP1 SWAP2 MSTORE SWAP1 SWAP2 SWAP1 PUSH1 0xFF AND PUSH2 0xC47 JUMPI PUSH1 0x40 MLOAD PUSH3 0x461BCD PUSH1 0xE5 SHL DUP2 MSTORE PUSH1 0x4 ADD PUSH2 0x824 SWAP2 SWAP1 PUSH2 0x36B2 JUMP JUMPDEST POP PUSH1 0x0 DUP5 DUP2 MSTORE PUSH1 0x6 DUP4 ADD PUSH1 0x20 MSTORE PUSH1 0x40 SWAP1 KECCAK256 SLOAD PUSH1 0x4 DUP4 ADD SLOAD ISZERO PUSH2 0xCF5 JUMPI PUSH1 0x0 DUP4 PUSH1 0x5 ADD SLOAD NUMBER PUSH2 0xC75 SWAP2 SWAP1 PUSH2 0x373E JUMP JUMPDEST PUSH1 0x0 DUP8 DUP2 MSTORE PUSH1 0xC PUSH1 0x20 SWAP1 DUP2 MSTORE PUSH1 0x40 DUP1 DUP4 KECCAK256 SLOAD PUSH1 0x2 DUP10 ADD DUP4 MSTORE DUP2 DUP5 KECCAK256 SLOAD PUSH1 0xB SWAP1 SWAP4 MSTORE SWAP1 DUP4 KECCAK256 SLOAD SWAP4 SWAP5 POP SWAP2 SWAP3 PUSH2 0xCA9 SWAP1 DUP6 PUSH2 0x371F JUMP JUMPDEST PUSH2 0xCB3 SWAP2 SWAP1 PUSH2 0x371F JUMP JUMPDEST PUSH2 0xCBD SWAP2 SWAP1 PUSH2 0x36FD JUMP JUMPDEST PUSH1 0x4 DUP7 ADD SLOAD SWAP1 SWAP2 POP PUSH2 0xCDC DUP3 PUSH10 0x4EE2D6D415B85ACEF81 PUSH1 0x20 SHL PUSH2 0x371F JUMP JUMPDEST PUSH2 0xCE6 SWAP2 SWAP1 PUSH2 0x36FD JUMP JUMPDEST PUSH2 0xCF0 SWAP1 DUP5 PUSH2 0x36E5 JUMP JUMPDEST SWAP3 POP POP POP JUMPDEST PUSH1 0x0 PUSH2 0xD1B PUSH3 0x15180 DUP5 PUSH1 0x3 ADD SLOAD PUSH10 0x4EE2D6D415B85ACEF81 PUSH1 0x20 SHL PUSH2 0xA21 SWAP2 SWAP1 PUSH2 0x371F JUMP JUMPDEST DUP4 PUSH1 0x1 ADD SLOAD PUSH2 0xD2A SWAP2 SWAP1 PUSH2 0x371F JUMP JUMPDEST PUSH1 0x0 DUP8 DUP2 MSTORE PUSH1 0x6 DUP6 ADD PUSH1 0x20 MSTORE PUSH1 0x40 SWAP1 KECCAK256 SLOAD SWAP1 SWAP2 POP PUSH10 0x4EE2D6D415B85ACEF81 PUSH1 0x20 SHL PUSH2 0xD56 DUP5 DUP5 PUSH2 0x371F JUMP JUMPDEST PUSH2 0xD60 SWAP2 SWAP1 PUSH2 0x36FD JUMP JUMPDEST PUSH1 0x0 DUP9 DUP2 MSTORE PUSH1 0x4 DUP7 ADD PUSH1 0x20 MSTORE PUSH1 0x40 SWAP1 KECCAK256 SLOAD PUSH2 0xD7B SWAP2 SWAP1 PUSH2 0x36E5 JUMP JUMPDEST PUSH2 0xD85 SWAP2 SWAP1 PUSH2 0x373E JUMP JUMPDEST SWAP5 POP POP POP POP POP JUMPDEST SWAP4 SWAP3 POP POP POP JUMP JUMPDEST PUSH1 0x0 DUP3 DUP2 MSTORE PUSH1 0x9 PUSH1 0x20 MSTORE PUSH1 0x40 DUP2 KECCAK256 PUSH2 0xD8C SWAP1 DUP4 PUSH2 0x24D0 JUMP JUMPDEST PUSH1 0x0 DUP3 DUP2 MSTORE PUSH1 0x5 PUSH1 0x20 SWAP1 DUP2 MSTORE PUSH1 0x40 DUP1 DUP4 KECCAK256 PUSH1 0x7 DUP2 ADD SLOAD DUP3 MLOAD DUP1 DUP5 ADD SWAP1 SWAP4 MSTORE PUSH1 0x18 DUP4 MSTORE PUSH1 0x0 DUP1 MLOAD PUSH1 0x20 PUSH2 0x382F DUP4 CODECOPY DUP2 MLOAD SWAP2 MSTORE SWAP4 DUP4 ADD SWAP4 SWAP1 SWAP4 MSTORE DUP4 SWAP3 DUP4 SWAP3 DUP4 SWAP3 SWAP2 PUSH1 0xFF AND PUSH2 0xE0A JUMPI PUSH1 0x40 MLOAD PUSH3 0x461BCD PUSH1 0xE5 SHL DUP2 MSTORE PUSH1 0x4 ADD PUSH2 0x824 SWAP2 SWAP1 PUSH2 0x36B2 JUMP JUMPDEST POP PUSH1 0x0 DUP7 DUP2 MSTORE PUSH1 0x2 DUP3 ADD PUSH1 0x20 SWAP1 DUP2 MSTORE PUSH1 0x40 DUP1 DUP4 KECCAK256 SLOAD PUSH1 0xC DUP4 MSTORE DUP2 DUP5 KECCAK256 SLOAD PUSH1 0xB SWAP1 SWAP4 MSTORE SWAP3 KECCAK256 SLOAD SWAP2 SWAP7 POP SWAP5 POP SWAP3 POP DUP4 PUSH2 0xE41 DUP7 DUP6 PUSH2 0x371F JUMP JUMPDEST PUSH2 0xE4B SWAP2 SWAP1 PUSH2 0x36FD JUMP JUMPDEST SWAP2 POP POP SWAP3 SWAP6 SWAP2 SWAP5 POP SWAP3 POP JUMP JUMPDEST PUSH1 0x1 PUSH1 0x1 PUSH1 0xA0 SHL SUB DUP4 AND PUSH1 0x0 SWAP1 DUP2 MSTORE PUSH1 0x8 PUSH1 0x20 SWAP1 DUP2 MSTORE PUSH1 0x40 DUP1 DUP4 KECCAK256 DUP6 DUP5 MSTORE SWAP1 SWAP2 MSTORE DUP2 KECCAK256 PUSH2 0xE84 SWAP1 DUP4 PUSH2 0x24D0 JUMP JUMPDEST SWAP5 SWAP4 POP POP POP POP JUMP JUMPDEST PUSH2 0xE98 DUP5 DUP5 DUP5 DUP5 PUSH2 0x24DC JUMP JUMPDEST POP POP POP POP JUMP JUMPDEST PUSH1 0x0 DUP1 MLOAD PUSH1 0x20 PUSH2 0x386F DUP4 CODECOPY DUP2 MLOAD SWAP2 MSTORE PUSH2 0xEB7 DUP2 CALLER PUSH2 0x296B JUMP JUMPDEST PUSH1 0x0 DUP4 DUP2 MSTORE PUSH1 0xD PUSH1 0x20 SWAP1 DUP2 MSTORE PUSH1 0x40 SWAP2 DUP3 SWAP1 KECCAK256 DUP1 SLOAD PUSH1 0x1 PUSH1 0x1 PUSH1 0xA0 SHL SUB NOT AND PUSH1 0x1 PUSH1 0x1 PUSH1 0xA0 SHL SUB DUP7 AND SWAP1 DUP2 OR SWAP1 SWAP2 SSTORE SWAP2 MLOAD SWAP2 DUP3 MSTORE DUP5 SWAP2 PUSH32 0xF80339A3E391E45ECE64C63579AE16B439563D8317481BB8200FCB0671F93590 SWAP2 ADD PUSH1 0x40 MLOAD DUP1 SWAP2 SUB SWAP1 LOG2 POP POP POP JUMP JUMPDEST PUSH2 0xF26 DUP3 DUP3 PUSH2 0x29A9 JUMP JUMPDEST PUSH1 0x0 DUP3 DUP2 MSTORE PUSH1 0x1 PUSH1 0x20 MSTORE PUSH1 0x40 SWAP1 KECCAK256 PUSH2 0xF3E SWAP1 DUP3 PUSH2 0x23B6 JUMP JUMPDEST POP POP POP JUMP JUMPDEST PUSH1 0x0 JUMPDEST CALLER PUSH1 0x0 SWAP1 DUP2 MSTORE PUSH1 0x8 PUSH1 0x20 SWAP1 DUP2 MSTORE PUSH1 0x40 DUP1 DUP4 KECCAK256 DUP8 DUP5 MSTORE SWAP1 SWAP2 MSTORE SWAP1 KECCAK256 PUSH2 0xF69 SWAP1 PUSH2 0x29CF JUMP JUMPDEST DUP2 LT ISZERO PUSH2 0xE98 JUMPI CALLER PUSH1 0x0 SWAP1 DUP2 MSTORE PUSH1 0x8 PUSH1 0x20 SWAP1 DUP2 MSTORE PUSH1 0x40 DUP1 DUP4 KECCAK256 DUP8 DUP5 MSTORE SWAP1 SWAP2 MSTORE DUP2 KECCAK256 PUSH2 0xF94 SWAP1 DUP4 PUSH2 0x24D0 JUMP JUMPDEST SWAP1 POP PUSH2 0xFA2 DUP6 DUP3 DUP7 DUP7 PUSH2 0x24DC JUMP JUMPDEST POP DUP1 PUSH2 0xFAD DUP2 PUSH2 0x3798 JUMP JUMPDEST SWAP2 POP POP PUSH2 0xF46 JUMP JUMPDEST PUSH2 0xFBF DUP3 DUP3 PUSH2 0x29D9 JUMP JUMPDEST PUSH1 0x0 DUP3 DUP2 MSTORE PUSH1 0x1 PUSH1 0x20 MSTORE PUSH1 0x40 SWAP1 KECCAK256 PUSH2 0xF3E SWAP1 DUP3 PUSH2 0x2A53 JUMP JUMPDEST PUSH32 0x65D7A28E3265B37A6474929F336521B332C1681B933F6CB9F3376673440D862A PUSH2 0x1002 DUP2 CALLER PUSH2 0x296B JUMP JUMPDEST PUSH2 0x100A PUSH2 0x2A68 JUMP JUMPDEST POP JUMP JUMPDEST PUSH1 0x0 DUP2 DUP2 MSTORE PUSH1 0x5 PUSH1 0x20 SWAP1 DUP2 MSTORE PUSH1 0x40 SWAP2 DUP3 SWAP1 KECCAK256 PUSH1 0x7 DUP2 ADD SLOAD DUP4 MLOAD DUP1 DUP6 ADD SWAP1 SWAP5 MSTORE PUSH1 0x18 DUP5 MSTORE PUSH1 0x0 DUP1 MLOAD PUSH1 0x20 PUSH2 0x382F DUP4 CODECOPY DUP2 MLOAD SWAP2 MSTORE SWAP3 DUP5 ADD SWAP3 SWAP1 SWAP3 MSTORE SWAP2 SWAP1 PUSH1 0xFF AND PUSH2 0x1068 JUMPI PUSH1 0x40 MLOAD PUSH3 0x461BCD PUSH1 0xE5 SHL DUP2 MSTORE PUSH1 0x4 ADD PUSH2 0x824 SWAP2 SWAP1 PUSH2 0x36B2 JUMP JUMPDEST POP DUP1 PUSH1 0x5 ADD SLOAD NUMBER GT PUSH2 0x1078 JUMPI POP POP JUMP JUMPDEST PUSH1 0x4 DUP2 ADD SLOAD PUSH2 0x108B JUMPI NUMBER PUSH1 0x5 SWAP1 SWAP2 ADD SSTORE POP JUMP JUMPDEST PUSH1 0x0 DUP2 PUSH1 0x5 ADD SLOAD NUMBER PUSH2 0x109D SWAP2 SWAP1 PUSH2 0x373E JUMP JUMPDEST SWAP1 POP PUSH1 0x0 JUMPDEST PUSH1 0x1 DUP4 ADD SLOAD DUP2 LT ISZERO PUSH2 0x117B JUMPI PUSH1 0x0 DUP4 PUSH1 0x1 ADD DUP3 DUP2 SLOAD DUP2 LT PUSH2 0x10C5 JUMPI PUSH2 0x10C5 PUSH2 0x37DF JUMP JUMPDEST PUSH1 0x0 SWAP2 DUP3 MSTORE PUSH1 0x20 DUP1 DUP4 KECCAK256 SWAP1 SWAP2 ADD SLOAD DUP1 DUP4 MSTORE PUSH1 0xC DUP3 MSTORE PUSH1 0x40 DUP1 DUP5 KECCAK256 SLOAD PUSH1 0x2 DUP10 ADD DUP5 MSTORE DUP2 DUP6 KECCAK256 SLOAD PUSH1 0xB SWAP1 SWAP5 MSTORE SWAP1 DUP5 KECCAK256 SLOAD SWAP2 SWAP5 POP SWAP2 SWAP1 PUSH2 0x1102 SWAP1 DUP8 PUSH2 0x371F JUMP JUMPDEST PUSH2 0x110C SWAP2 SWAP1 PUSH2 0x371F JUMP JUMPDEST PUSH2 0x1116 SWAP2 SWAP1 PUSH2 0x36FD JUMP JUMPDEST PUSH1 0x4 DUP7 ADD SLOAD SWAP1 SWAP2 POP PUSH2 0x1135 DUP3 PUSH10 0x4EE2D6D415B85ACEF81 PUSH1 0x20 SHL PUSH2 0x371F JUMP JUMPDEST PUSH2 0x113F SWAP2 SWAP1 PUSH2 0x36FD JUMP JUMPDEST PUSH1 0x0 DUP4 DUP2 MSTORE PUSH1 0x6 DUP8 ADD PUSH1 0x20 MSTORE PUSH1 0x40 DUP2 KECCAK256 DUP1 SLOAD SWAP1 SWAP2 SWAP1 PUSH2 0x115F SWAP1 DUP5 SWAP1 PUSH2 0x36E5 JUMP JUMPDEST SWAP3 POP POP DUP2 SWAP1 SSTORE POP POP POP DUP1 DUP1 PUSH2 0x1173 SWAP1 PUSH2 0x3798 JUMP JUMPDEST SWAP2 POP POP PUSH2 0x10A2 JUMP JUMPDEST POP POP NUMBER PUSH1 0x5 SWAP1 SWAP2 ADD SSTORE POP JUMP JUMPDEST PUSH1 0x0 JUMPDEST PUSH1 0x4 SLOAD DUP2 LT ISZERO PUSH2 0x100A JUMPI PUSH2 0x119D DUP2 PUSH2 0x100D JUMP JUMPDEST PUSH2 0x11A6 DUP2 PUSH2 0x3798 JUMP JUMPDEST SWAP1 POP PUSH2 0x118A JUMP JUMPDEST PUSH1 0x1 PUSH1 0x1 PUSH1 0xA0 SHL SUB DUP3 AND PUSH1 0x0 SWAP1 DUP2 MSTORE PUSH1 0x8 PUSH1 0x20 SWAP1 DUP2 MSTORE PUSH1 0x40 DUP1 DUP4 KECCAK256 DUP5 DUP5 MSTORE SWAP1 SWAP2 MSTORE DUP2 KECCAK256 PUSH2 0xD8C SWAP1 PUSH2 0x29CF JUMP JUMPDEST PUSH1 0x0 DUP1 MLOAD PUSH1 0x20 PUSH2 0x386F DUP4 CODECOPY DUP2 MLOAD SWAP2 MSTORE PUSH2 0x11F2 DUP2 CALLER PUSH2 0x296B JUMP JUMPDEST PUSH1 0x0 DUP6 DUP2 MSTORE PUSH1 0x5 PUSH1 0x20 SWAP1 DUP2 MSTORE PUSH1 0x40 SWAP2 DUP3 SWAP1 KECCAK256 PUSH1 0x7 DUP2 ADD SLOAD DUP4 MLOAD DUP1 DUP6 ADD SWAP1 SWAP5 MSTORE PUSH1 0x18 DUP5 MSTORE PUSH1 0x0 DUP1 MLOAD PUSH1 0x20 PUSH2 0x382F DUP4 CODECOPY DUP2 MLOAD SWAP2 MSTORE SWAP3 DUP5 ADD SWAP3 SWAP1 SWAP3 MSTORE SWAP2 SWAP1 PUSH1 0xFF AND PUSH2 0x124D JUMPI PUSH1 0x40 MLOAD PUSH3 0x461BCD PUSH1 0xE5 SHL DUP2 MSTORE PUSH1 0x4 ADD PUSH2 0x824 SWAP2 SWAP1 PUSH2 0x36B2 JUMP JUMPDEST POP DUP3 ISZERO PUSH2 0x125C JUMPI PUSH2 0x125C PUSH2 0x1187 JUMP JUMPDEST PUSH1 0x0 DUP6 DUP2 MSTORE PUSH1 0x2 DUP3 ADD PUSH1 0x20 SWAP1 DUP2 MSTORE PUSH1 0x40 DUP1 DUP4 KECCAK256 SLOAD PUSH1 0xC SWAP1 SWAP3 MSTORE SWAP1 SWAP2 KECCAK256 SLOAD DUP6 SWAP2 PUSH2 0x1284 SWAP2 PUSH2 0x373E JUMP JUMPDEST PUSH2 0x128E SWAP2 SWAP1 PUSH2 0x36E5 JUMP JUMPDEST PUSH1 0x0 DUP7 DUP2 MSTORE PUSH1 0xC PUSH1 0x20 SWAP1 DUP2 MSTORE PUSH1 0x40 DUP1 DUP4 KECCAK256 SWAP4 SWAP1 SWAP4 SSTORE PUSH1 0x2 DUP5 ADD DUP2 MSTORE SWAP1 DUP3 SWAP1 KECCAK256 DUP7 SWAP1 SSTORE DUP2 MLOAD DUP8 DUP2 MSTORE SWAP1 DUP2 ADD DUP7 SWAP1 MSTORE DUP8 SWAP2 PUSH32 0x6096A506A56B62E1E89BA38DE21BEE0BAA72624ED4A165D1E3B4BA0B34899A52 SWAP2 ADD PUSH1 0x40 MLOAD DUP1 SWAP2 SUB SWAP1 LOG2 POP POP POP POP POP POP JUMP JUMPDEST PUSH32 0x65D7A28E3265B37A6474929F336521B332C1681B933F6CB9F3376673440D862A PUSH2 0x131B DUP2 CALLER PUSH2 0x296B JUMP JUMPDEST PUSH2 0x100A PUSH2 0x2AFB JUMP JUMPDEST PUSH1 0x0 DUP3 DUP2 MSTORE PUSH1 0x5 PUSH1 0x20 SWAP1 DUP2 MSTORE PUSH1 0x40 DUP1 DUP4 KECCAK256 PUSH1 0x7 DUP2 ADD SLOAD DUP3 MLOAD DUP1 DUP5 ADD SWAP1 SWAP4 MSTORE PUSH1 0x18 DUP4 MSTORE PUSH1 0x0 DUP1 MLOAD PUSH1 0x20 PUSH2 0x382F DUP4 CODECOPY DUP2 MLOAD SWAP2 MSTORE SWAP4 DUP4 ADD SWAP4 SWAP1 SWAP4 MSTORE SWAP2 PUSH1 0xFF AND PUSH2 0x137C JUMPI PUSH1 0x40 MLOAD PUSH3 0x461BCD PUSH1 0xE5 SHL DUP2 MSTORE PUSH1 0x4 ADD PUSH2 0x824 SWAP2 SWAP1 PUSH2 0x36B2 JUMP JUMPDEST POP PUSH1 0x0 SWAP3 DUP4 MSTORE PUSH1 0x6 ADD PUSH1 0x20 MSTORE POP PUSH1 0x40 SWAP1 KECCAK256 SLOAD SWAP2 SWAP1 POP JUMP JUMPDEST PUSH1 0x0 DUP1 MLOAD PUSH1 0x20 PUSH2 0x386F DUP4 CODECOPY DUP2 MLOAD SWAP2 MSTORE PUSH2 0x13AC DUP2 CALLER PUSH2 0x296B JUMP JUMPDEST DUP2 ISZERO PUSH2 0x13BA JUMPI PUSH2 0x13BA PUSH2 0x1187 JUMP JUMPDEST PUSH1 0x0 DUP5 DUP2 MSTORE PUSH1 0xB PUSH1 0x20 SWAP1 DUP2 MSTORE PUSH1 0x40 SWAP2 DUP3 SWAP1 KECCAK256 DUP6 SWAP1 SSTORE DUP2 MLOAD DUP7 DUP2 MSTORE SWAP1 DUP2 ADD DUP6 SWAP1 MSTORE PUSH32 0x756CB3B03A8AADE0ED86A377D5B21DBB522872B6500426A0D908A88B7E61618A SWAP2 ADD PUSH1 0x40 MLOAD DUP1 SWAP2 SUB SWAP1 LOG1 POP POP POP POP JUMP JUMPDEST PUSH1 0x0 DUP3 DUP2 MSTORE PUSH1 0x1 PUSH1 0x20 MSTORE PUSH1 0x40 DUP2 KECCAK256 PUSH2 0xD8C SWAP1 DUP4 PUSH2 0x24D0 JUMP JUMPDEST PUSH1 0x0 SWAP2 DUP3 MSTORE PUSH1 0x20 DUP3 DUP2 MSTORE PUSH1 0x40 DUP1 DUP5 KECCAK256 PUSH1 0x1 PUSH1 0x1 PUSH1 0xA0 SHL SUB SWAP4 SWAP1 SWAP4 AND DUP5 MSTORE SWAP2 SWAP1 MSTORE SWAP1 KECCAK256 SLOAD PUSH1 0xFF AND SWAP1 JUMP JUMPDEST PUSH1 0x0 DUP1 MLOAD PUSH1 0x20 PUSH2 0x386F DUP4 CODECOPY DUP2 MLOAD SWAP2 MSTORE PUSH2 0x1465 DUP2 CALLER PUSH2 0x296B JUMP JUMPDEST PUSH1 0x1 PUSH1 0x1 PUSH1 0xA0 SHL SUB DUP8 AND PUSH2 0x14BB JUMPI PUSH1 0x40 MLOAD PUSH3 0x461BCD PUSH1 0xE5 SHL DUP2 MSTORE PUSH1 0x20 PUSH1 0x4 DUP3 ADD MSTORE PUSH1 0x17 PUSH1 0x24 DUP3 ADD MSTORE PUSH32 0x4143593A20496E76616C6964204C502061646472657373000000000000000000 PUSH1 0x44 DUP3 ADD MSTORE PUSH1 0x64 ADD PUSH2 0x824 JUMP JUMPDEST DUP5 DUP4 EQ PUSH2 0x1501 JUMPI PUSH1 0x40 MLOAD PUSH3 0x461BCD PUSH1 0xE5 SHL DUP2 MSTORE PUSH1 0x20 PUSH1 0x4 DUP3 ADD MSTORE PUSH1 0x14 PUSH1 0x24 DUP3 ADD MSTORE PUSH20 0x8286B2744098CADCCEE8D040DAD2E6DAC2E8C6D PUSH1 0x63 SHL PUSH1 0x44 DUP3 ADD MSTORE PUSH1 0x64 ADD PUSH2 0x824 JUMP JUMPDEST PUSH1 0x0 JUMPDEST DUP6 DUP2 LT ISZERO PUSH2 0x15A6 JUMPI PUSH1 0x0 DUP8 DUP8 DUP4 DUP2 DUP2 LT PUSH2 0x1520 JUMPI PUSH2 0x1520 PUSH2 0x37DF JUMP JUMPDEST PUSH1 0x20 SWAP1 DUP2 MUL SWAP3 SWAP1 SWAP3 ADD CALLDATALOAD PUSH1 0x0 DUP2 DUP2 MSTORE PUSH1 0xD DUP5 MSTORE PUSH1 0x40 SWAP1 DUP2 SWAP1 KECCAK256 SLOAD DUP2 MLOAD DUP1 DUP4 ADD SWAP1 SWAP3 MSTORE PUSH1 0x12 DUP3 MSTORE PUSH18 0x20A1AC9D102AB735B737BBB7103A37B5B2B7 PUSH1 0x71 SHL SWAP5 DUP3 ADD SWAP5 SWAP1 SWAP5 MSTORE SWAP1 SWAP4 POP SWAP2 PUSH1 0x1 PUSH1 0x1 PUSH1 0xA0 SHL SUB AND ISZERO ISZERO SWAP1 POP PUSH2 0x1591 JUMPI PUSH1 0x40 MLOAD PUSH3 0x461BCD PUSH1 0xE5 SHL DUP2 MSTORE PUSH1 0x4 ADD PUSH2 0x824 SWAP2 SWAP1 PUSH2 0x36B2 JUMP JUMPDEST POP POP DUP1 DUP1 PUSH2 0x159E SWAP1 PUSH2 0x3798 JUMP JUMPDEST SWAP2 POP POP PUSH2 0x1504 JUMP JUMPDEST POP DUP2 ISZERO PUSH2 0x15B5 JUMPI PUSH2 0x15B5 PUSH2 0x1187 JUMP JUMPDEST PUSH1 0x4 DUP1 SLOAD PUSH1 0x0 SWAP2 DUP3 PUSH2 0x15C6 DUP4 PUSH2 0x3798 JUMP JUMPDEST SWAP1 SWAP2 SSTORE POP PUSH1 0x0 DUP2 DUP2 MSTORE PUSH1 0x5 PUSH1 0x20 MSTORE PUSH1 0x40 SWAP1 KECCAK256 DUP1 SLOAD PUSH1 0x1 PUSH1 0x1 PUSH1 0xA0 SHL SUB NOT AND PUSH1 0x1 PUSH1 0x1 PUSH1 0xA0 SHL SUB DUP12 AND OR DUP2 SSTORE SWAP1 SWAP2 POP PUSH2 0x1602 PUSH1 0x1 DUP3 ADD DUP10 DUP10 PUSH2 0x320F JUMP JUMPDEST POP NUMBER PUSH1 0x5 DUP3 ADD SSTORE PUSH1 0x7 DUP2 ADD DUP1 SLOAD PUSH1 0xFF NOT AND PUSH1 0x1 OR SWAP1 SSTORE PUSH1 0x0 JUMPDEST DUP8 DUP2 LT ISZERO PUSH2 0x1721 JUMPI PUSH1 0x0 DUP10 DUP10 DUP4 DUP2 DUP2 LT PUSH2 0x1637 JUMPI PUSH2 0x1637 PUSH2 0x37DF JUMP JUMPDEST SWAP1 POP PUSH1 0x20 MUL ADD CALLDATALOAD SWAP1 POP DUP8 DUP8 DUP4 DUP2 DUP2 LT PUSH2 0x1652 JUMPI PUSH2 0x1652 PUSH2 0x37DF JUMP JUMPDEST SWAP1 POP PUSH1 0x20 MUL ADD CALLDATALOAD DUP4 PUSH1 0x2 ADD PUSH1 0x0 DUP4 DUP2 MSTORE PUSH1 0x20 ADD SWAP1 DUP2 MSTORE PUSH1 0x20 ADD PUSH1 0x0 KECCAK256 DUP2 SWAP1 SSTORE POP DUP8 DUP8 DUP4 DUP2 DUP2 LT PUSH2 0x1684 JUMPI PUSH2 0x1684 PUSH2 0x37DF JUMP JUMPDEST SWAP1 POP PUSH1 0x20 MUL ADD CALLDATALOAD PUSH1 0xC PUSH1 0x0 DUP4 DUP2 MSTORE PUSH1 0x20 ADD SWAP1 DUP2 MSTORE PUSH1 0x20 ADD PUSH1 0x0 KECCAK256 PUSH1 0x0 DUP3 DUP3 SLOAD PUSH2 0x16AD SWAP2 SWAP1 PUSH2 0x36E5 JUMP JUMPDEST SWAP1 SWAP2 SSTORE POP DUP5 SWAP1 POP PUSH32 0x6096A506A56B62E1E89BA38DE21BEE0BAA72624ED4A165D1E3B4BA0B34899A52 DUP3 DUP11 DUP11 DUP7 DUP2 DUP2 LT PUSH2 0x16E8 JUMPI PUSH2 0x16E8 PUSH2 0x37DF JUMP JUMPDEST SWAP1 POP PUSH1 0x20 MUL ADD CALLDATALOAD PUSH1 0x40 MLOAD PUSH2 0x1706 SWAP3 SWAP2 SWAP1 SWAP2 DUP3 MSTORE PUSH1 0x20 DUP3 ADD MSTORE PUSH1 0x40 ADD SWAP1 JUMP JUMPDEST PUSH1 0x40 MLOAD DUP1 SWAP2 SUB SWAP1 LOG2 POP DUP1 PUSH2 0x1719 DUP2 PUSH2 0x3798 JUMP JUMPDEST SWAP2 POP POP PUSH2 0x161B JUMP JUMPDEST POP PUSH1 0x40 MLOAD PUSH1 0x1 PUSH1 0x1 PUSH1 0xA0 SHL SUB DUP11 AND DUP2 MSTORE DUP3 SWAP1 PUSH32 0xCFDB757A17C7073437A01260A6760F5026EFD70C96FB9A3F54D03C6ED2C372C3 SWAP1 PUSH1 0x20 ADD PUSH1 0x40 MLOAD DUP1 SWAP2 SUB SWAP1 LOG2 POP POP POP POP POP POP POP POP POP JUMP JUMPDEST PUSH1 0x1 PUSH1 0x1 PUSH1 0xA0 SHL SUB DUP3 AND PUSH1 0x0 SWAP1 DUP2 MSTORE PUSH1 0x8 PUSH1 0x20 SWAP1 DUP2 MSTORE PUSH1 0x40 DUP1 DUP4 KECCAK256 DUP5 DUP5 MSTORE SWAP1 SWAP2 MSTORE SWAP1 KECCAK256 PUSH1 0x60 SWAP1 PUSH2 0xD8C SWAP1 PUSH2 0x2B76 JUMP JUMPDEST PUSH1 0x0 DUP4 DUP2 MSTORE PUSH1 0x7 PUSH1 0x20 DUP2 DUP2 MSTORE PUSH1 0x40 DUP1 DUP5 KECCAK256 DUP7 DUP6 MSTORE DUP3 MSTORE DUP1 DUP5 KECCAK256 SWAP3 DUP4 ADD SLOAD DUP2 MLOAD DUP1 DUP4 ADD SWAP1 SWAP3 MSTORE PUSH1 0x1C DUP3 MSTORE PUSH1 0x0 DUP1 MLOAD PUSH1 0x20 PUSH2 0x384F DUP4 CODECOPY DUP2 MLOAD SWAP2 MSTORE SWAP3 DUP3 ADD SWAP3 SWAP1 SWAP3 MSTORE SWAP1 PUSH1 0xFF AND PUSH2 0x17FA JUMPI PUSH1 0x40 MLOAD PUSH3 0x461BCD PUSH1 0xE5 SHL DUP2 MSTORE PUSH1 0x4 ADD PUSH2 0x824 SWAP2 SWAP1 PUSH2 0x36B2 JUMP JUMPDEST POP PUSH1 0x0 SWAP3 DUP4 MSTORE PUSH1 0x4 ADD PUSH1 0x20 MSTORE POP PUSH1 0x40 SWAP1 KECCAK256 SLOAD SWAP3 SWAP2 POP POP JUMP JUMPDEST PUSH1 0x0 DUP2 DUP2 MSTORE PUSH1 0x9 PUSH1 0x20 MSTORE PUSH1 0x40 SWAP1 KECCAK256 PUSH1 0x60 SWAP1 PUSH2 0xB84 SWAP1 PUSH2 0x2B76 JUMP JUMPDEST PUSH1 0x2 PUSH1 0x3 SLOAD EQ ISZERO PUSH2 0x187F JUMPI PUSH1 0x40 MLOAD PUSH3 0x461BCD PUSH1 0xE5 SHL DUP2 MSTORE PUSH1 0x20 PUSH1 0x4 DUP3 ADD MSTORE PUSH1 0x1F PUSH1 0x24 DUP3 ADD MSTORE PUSH32 0x5265656E7472616E637947756172643A207265656E7472616E742063616C6C00 PUSH1 0x44 DUP3 ADD MSTORE PUSH1 0x64 ADD PUSH2 0x824 JUMP JUMPDEST PUSH1 0x2 PUSH1 0x3 SSTORE PUSH2 0x188D DUP4 PUSH2 0x100D JUMP JUMPDEST PUSH1 0x0 DUP2 GT PUSH2 0x18D6 JUMPI PUSH1 0x40 MLOAD PUSH3 0x461BCD PUSH1 0xE5 SHL DUP2 MSTORE PUSH1 0x20 PUSH1 0x4 DUP3 ADD MSTORE PUSH1 0x16 PUSH1 0x24 DUP3 ADD MSTORE PUSH22 0x4143593A2043616E6E6F74207769746864726177203 PUSH1 0x54 SHL PUSH1 0x44 DUP3 ADD MSTORE PUSH1 0x64 ADD PUSH2 0x824 JUMP JUMPDEST PUSH1 0x0 DUP4 DUP2 MSTORE PUSH1 0x5 PUSH1 0x20 SWAP1 DUP2 MSTORE PUSH1 0x40 SWAP2 DUP3 SWAP1 KECCAK256 PUSH1 0x7 DUP2 ADD SLOAD DUP4 MLOAD DUP1 DUP6 ADD SWAP1 SWAP5 MSTORE PUSH1 0x18 DUP5 MSTORE PUSH1 0x0 DUP1 MLOAD PUSH1 0x20 PUSH2 0x382F DUP4 CODECOPY DUP2 MLOAD SWAP2 MSTORE SWAP3 DUP5 ADD SWAP3 SWAP1 SWAP3 MSTORE SWAP2 SWAP1 PUSH1 0xFF AND PUSH2 0x1931 JUMPI PUSH1 0x40 MLOAD PUSH3 0x461BCD PUSH1 0xE5 SHL DUP2 MSTORE PUSH1 0x4 ADD PUSH2 0x824 SWAP2 SWAP1 PUSH2 0x36B2 JUMP JUMPDEST POP DUP1 PUSH1 0x3 ADD SLOAD DUP3 GT ISZERO PUSH2 0x1986 JUMPI PUSH1 0x40 MLOAD PUSH3 0x461BCD PUSH1 0xE5 SHL DUP2 MSTORE PUSH1 0x20 PUSH1 0x4 DUP3 ADD MSTORE PUSH1 0x1C PUSH1 0x24 DUP3 ADD MSTORE PUSH32 0x4143593A20496E73756666696369656E74204C502062616C616E636500000000 PUSH1 0x44 DUP3 ADD MSTORE PUSH1 0x64 ADD PUSH2 0x824 JUMP JUMPDEST PUSH1 0x0 DUP5 DUP2 MSTORE PUSH1 0x7 PUSH1 0x20 DUP2 DUP2 MSTORE PUSH1 0x40 DUP1 DUP5 KECCAK256 DUP8 DUP6 MSTORE DUP3 MSTORE SWAP3 DUP4 SWAP1 KECCAK256 SWAP2 DUP3 ADD SLOAD DUP4 MLOAD DUP1 DUP6 ADD SWAP1 SWAP5 MSTORE PUSH1 0x1C DUP5 MSTORE PUSH1 0x0 DUP1 MLOAD PUSH1 0x20 PUSH2 0x384F DUP4 CODECOPY DUP2 MLOAD SWAP2 MSTORE SWAP2 DUP5 ADD SWAP2 SWAP1 SWAP2 MSTORE SWAP1 SWAP2 SWAP1 PUSH1 0xFF AND PUSH2 0x19E9 JUMPI PUSH1 0x40 MLOAD PUSH3 0x461BCD PUSH1 0xE5 SHL DUP2 MSTORE PUSH1 0x4 ADD PUSH2 0x824 SWAP2 SWAP1 PUSH2 0x36B2 JUMP JUMPDEST POP DUP1 SLOAD PUSH1 0x40 DUP1 MLOAD DUP1 DUP3 ADD SWAP1 SWAP2 MSTORE PUSH1 0x11 DUP2 MSTORE PUSH17 0x1050D64E88155B985D5D1A1BDC9A5E9959 PUSH1 0x7A SHL PUSH1 0x20 DUP3 ADD MSTORE SWAP1 PUSH1 0x1 PUSH1 0x1 PUSH1 0xA0 SHL SUB AND CALLER EQ PUSH2 0x1A3D JUMPI PUSH1 0x40 MLOAD PUSH3 0x461BCD PUSH1 0xE5 SHL DUP2 MSTORE PUSH1 0x4 ADD PUSH2 0x824 SWAP2 SWAP1 PUSH2 0x36B2 JUMP JUMPDEST POP PUSH1 0x3 DUP2 ADD SLOAD PUSH1 0x2 DUP3 ADD SLOAD PUSH2 0x1A52 SWAP1 TIMESTAMP PUSH2 0x373E JUMP JUMPDEST LT ISZERO PUSH2 0x1A97 JUMPI PUSH1 0x40 MLOAD PUSH3 0x461BCD PUSH1 0xE5 SHL DUP2 MSTORE PUSH1 0x20 PUSH1 0x4 DUP3 ADD MSTORE PUSH1 0x14 PUSH1 0x24 DUP3 ADD MSTORE PUSH20 0x4143593A204E6F206561726C7920756E6C6F636B PUSH1 0x60 SHL PUSH1 0x44 DUP3 ADD MSTORE PUSH1 0x64 ADD PUSH2 0x824 JUMP JUMPDEST DUP1 PUSH1 0x1 ADD SLOAD DUP4 GT ISZERO PUSH2 0x1AEB JUMPI PUSH1 0x40 MLOAD PUSH3 0x461BCD PUSH1 0xE5 SHL DUP2 MSTORE PUSH1 0x20 PUSH1 0x4 DUP3 ADD MSTORE PUSH1 0x1C PUSH1 0x24 DUP3 ADD MSTORE PUSH32 0x4143593A20496E73756666696369656E74204C502062616C616E636500000000 PUSH1 0x44 DUP3 ADD MSTORE PUSH1 0x64 ADD PUSH2 0x824 JUMP JUMPDEST PUSH1 0x0 PUSH2 0x1B11 PUSH3 0x15180 DUP4 PUSH1 0x3 ADD SLOAD PUSH10 0x4EE2D6D415B85ACEF81 PUSH1 0x20 SHL PUSH2 0xA21 SWAP2 SWAP1 PUSH2 0x371F JUMP JUMPDEST DUP3 PUSH1 0x1 ADD SLOAD PUSH2 0x1B20 SWAP2 SWAP1 PUSH2 0x371F JUMP JUMPDEST SWAP1 POP PUSH1 0x0 JUMPDEST PUSH1 0x1 DUP5 ADD SLOAD DUP2 LT ISZERO PUSH2 0x1BE3 JUMPI PUSH1 0x0 DUP5 PUSH1 0x1 ADD DUP3 DUP2 SLOAD DUP2 LT PUSH2 0x1B48 JUMPI PUSH2 0x1B48 PUSH2 0x37DF JUMP JUMPDEST PUSH1 0x0 SWAP2 DUP3 MSTORE PUSH1 0x20 DUP1 DUP4 KECCAK256 SWAP1 SWAP2 ADD SLOAD DUP1 DUP4 MSTORE PUSH1 0x6 DUP1 DUP9 ADD DUP4 MSTORE PUSH1 0x40 DUP1 DUP6 KECCAK256 SLOAD SWAP2 DUP11 ADD SWAP1 SWAP4 MSTORE SWAP2 DUP4 KECCAK256 SLOAD SWAP1 SWAP4 POP PUSH10 0x4EE2D6D415B85ACEF81 PUSH1 0x20 SHL SWAP1 PUSH2 0x1B8C SWAP1 DUP8 PUSH2 0x371F JUMP JUMPDEST PUSH2 0x1B96 SWAP2 SWAP1 PUSH2 0x36FD JUMP JUMPDEST PUSH2 0x1BA0 SWAP2 SWAP1 PUSH2 0x373E JUMP JUMPDEST SWAP1 POP DUP1 DUP6 PUSH1 0x4 ADD PUSH1 0x0 DUP5 DUP2 MSTORE PUSH1 0x20 ADD SWAP1 DUP2 MSTORE PUSH1 0x20 ADD PUSH1 0x0 KECCAK256 PUSH1 0x0 DUP3 DUP3 SLOAD PUSH2 0x1BC7 SWAP2 SWAP1 PUSH2 0x36E5 JUMP JUMPDEST SWAP3 POP POP DUP2 SWAP1 SSTORE POP POP POP DUP1 DUP1 PUSH2 0x1BDB SWAP1 PUSH2 0x3798 JUMP JUMPDEST SWAP2 POP POP PUSH2 0x1B25 JUMP JUMPDEST POP DUP4 DUP3 PUSH1 0x1 ADD PUSH1 0x0 DUP3 DUP3 SLOAD PUSH2 0x1BF8 SWAP2 SWAP1 PUSH2 0x373E JUMP JUMPDEST SWAP3 POP POP DUP2 SWAP1 SSTORE POP DUP4 DUP4 PUSH1 0x3 ADD PUSH1 0x0 DUP3 DUP3 SLOAD PUSH2 0x1C13 SWAP2 SWAP1 PUSH2 0x373E JUMP JUMPDEST SWAP1 SWAP2 SSTORE POP POP PUSH1 0x3 DUP3 ADD SLOAD PUSH2 0x1C3D SWAP1 PUSH3 0x15180 SWAP1 PUSH2 0xA21 SWAP1 PUSH10 0x4EE2D6D415B85ACEF81 PUSH1 0x20 SHL PUSH2 0x371F JUMP JUMPDEST PUSH2 0x1C47 SWAP1 DUP6 PUSH2 0x371F JUMP JUMPDEST DUP4 PUSH1 0x4 ADD PUSH1 0x0 DUP3 DUP3 SLOAD PUSH2 0x1C5A SWAP2 SWAP1 PUSH2 0x373E JUMP JUMPDEST SWAP3 POP POP DUP2 SWAP1 SSTORE POP PUSH1 0x0 PUSH2 0x1C87 PUSH3 0x15180 DUP5 PUSH1 0x3 ADD SLOAD PUSH10 0x4EE2D6D415B85ACEF81 PUSH1 0x20 SHL PUSH2 0xA21 SWAP2 SWAP1 PUSH2 0x371F JUMP JUMPDEST DUP4 PUSH1 0x1 ADD SLOAD PUSH2 0x1C96 SWAP2 SWAP1 PUSH2 0x371F JUMP JUMPDEST SWAP1 POP PUSH1 0x0 JUMPDEST PUSH1 0x1 DUP6 ADD SLOAD DUP2 LT ISZERO PUSH2 0x1D28 JUMPI PUSH1 0x0 DUP6 PUSH1 0x1 ADD DUP3 DUP2 SLOAD DUP2 LT PUSH2 0x1CBE JUMPI PUSH2 0x1CBE PUSH2 0x37DF JUMP JUMPDEST SWAP1 PUSH1 0x0 MSTORE PUSH1 0x20 PUSH1 0x0 KECCAK256 ADD SLOAD SWAP1 POP PUSH10 0x4EE2D6D415B85ACEF81 PUSH1 0x20 SHL DUP7 PUSH1 0x6 ADD PUSH1 0x0 DUP4 DUP2 MSTORE PUSH1 0x20 ADD SWAP1 DUP2 MSTORE PUSH1 0x20 ADD PUSH1 0x0 KECCAK256 SLOAD DUP5 PUSH2 0x1CFA SWAP2 SWAP1 PUSH2 0x371F JUMP JUMPDEST PUSH2 0x1D04 SWAP2 SWAP1 PUSH2 0x36FD JUMP JUMPDEST PUSH1 0x0 SWAP2 DUP3 MSTORE PUSH1 0x6 DUP7 ADD PUSH1 0x20 MSTORE PUSH1 0x40 SWAP1 SWAP2 KECCAK256 SSTORE DUP1 PUSH2 0x1D20 DUP2 PUSH2 0x3798 JUMP JUMPDEST SWAP2 POP POP PUSH2 0x1C9B JUMP JUMPDEST POP DUP4 SLOAD PUSH2 0x1D3F SWAP1 PUSH1 0x1 PUSH1 0x1 PUSH1 0xA0 SHL SUB AND CALLER DUP8 PUSH2 0x2B83 JUMP JUMPDEST DUP6 DUP8 CALLER PUSH1 0x1 PUSH1 0x1 PUSH1 0xA0 SHL SUB AND PUSH32 0x2F25270A4D87BEA75DB541CDFE559334A275B4A233520ED6C0A2429667CCA94 DUP9 PUSH1 0x40 MLOAD PUSH2 0x1D7C SWAP2 DUP2 MSTORE PUSH1 0x20 ADD SWAP1 JUMP JUMPDEST PUSH1 0x40 MLOAD DUP1 SWAP2 SUB SWAP1 LOG4 POP POP PUSH1 0x1 PUSH1 0x3 SSTORE POP POP POP POP POP JUMP JUMPDEST PUSH1 0x0 DUP2 DUP2 MSTORE PUSH1 0x5 PUSH1 0x20 SWAP1 DUP2 MSTORE PUSH1 0x40 SWAP2 DUP3 SWAP1 KECCAK256 PUSH1 0x7 DUP2 ADD SLOAD DUP4 MLOAD DUP1 DUP6 ADD SWAP1 SWAP5 MSTORE PUSH1 0x18 DUP5 MSTORE PUSH1 0x0 DUP1 MLOAD PUSH1 0x20 PUSH2 0x382F DUP4 CODECOPY DUP2 MLOAD SWAP2 MSTORE SWAP3 DUP5 ADD SWAP3 SWAP1 SWAP3 MSTORE PUSH1 0x60 SWAP3 SWAP1 SWAP2 PUSH1 0xFF AND PUSH2 0x1DF0 JUMPI PUSH1 0x40 MLOAD PUSH3 0x461BCD PUSH1 0xE5 SHL DUP2 MSTORE PUSH1 0x4 ADD PUSH2 0x824 SWAP2 SWAP1 PUSH2 0x36B2 JUMP JUMPDEST POP PUSH1 0x0 DUP4 DUP2 MSTORE PUSH1 0x5 PUSH1 0x20 MSTORE PUSH1 0x40 SWAP1 KECCAK256 PUSH1 0x1 ADD SLOAD PUSH8 0xFFFFFFFFFFFFFFFF DUP2 GT ISZERO PUSH2 0x1E1B JUMPI PUSH2 0x1E1B PUSH2 0x37F5 JUMP JUMPDEST PUSH1 0x40 MLOAD SWAP1 DUP1 DUP3 MSTORE DUP1 PUSH1 0x20 MUL PUSH1 0x20 ADD DUP3 ADD PUSH1 0x40 MSTORE DUP1 ISZERO PUSH2 0x1E44 JUMPI DUP2 PUSH1 0x20 ADD PUSH1 0x20 DUP3 MUL DUP1 CALLDATASIZE DUP4 CALLDATACOPY ADD SWAP1 POP JUMPDEST POP SWAP2 POP PUSH1 0x0 JUMPDEST PUSH1 0x0 DUP5 DUP2 MSTORE PUSH1 0x5 PUSH1 0x20 MSTORE PUSH1 0x40 SWAP1 KECCAK256 PUSH1 0x1 ADD SLOAD DUP2 LT ISZERO PUSH2 0x1F30 JUMPI PUSH1 0x0 DUP3 PUSH1 0x1 ADD DUP3 DUP2 SLOAD DUP2 LT PUSH2 0x1E7A JUMPI PUSH2 0x1E7A PUSH2 0x37DF JUMP JUMPDEST PUSH1 0x0 SWAP2 DUP3 MSTORE PUSH1 0x20 DUP1 DUP4 KECCAK256 SWAP1 SWAP2 ADD SLOAD DUP1 DUP4 MSTORE PUSH1 0xD DUP3 MSTORE PUSH1 0x40 SWAP3 DUP4 SWAP1 KECCAK256 SLOAD DUP4 MLOAD DUP1 DUP6 ADD SWAP1 SWAP5 MSTORE PUSH1 0x12 DUP5 MSTORE PUSH18 0x20A1AC9D102AB735B737BBB7103A37B5B2B7 PUSH1 0x71 SHL SWAP3 DUP5 ADD SWAP3 SWAP1 SWAP3 MSTORE SWAP3 POP PUSH1 0x1 PUSH1 0x1 PUSH1 0xA0 SHL SUB AND SWAP1 DUP2 PUSH2 0x1EE9 JUMPI PUSH1 0x40 MLOAD PUSH3 0x461BCD PUSH1 0xE5 SHL DUP2 MSTORE PUSH1 0x4 ADD PUSH2 0x824 SWAP2 SWAP1 PUSH2 0x36B2 JUMP JUMPDEST POP DUP1 DUP6 DUP5 DUP2 MLOAD DUP2 LT PUSH2 0x1EFD JUMPI PUSH2 0x1EFD PUSH2 0x37DF JUMP JUMPDEST PUSH1 0x20 MUL PUSH1 0x20 ADD ADD SWAP1 PUSH1 0x1 PUSH1 0x1 PUSH1 0xA0 SHL SUB AND SWAP1 DUP2 PUSH1 0x1 PUSH1 0x1 PUSH1 0xA0 SHL SUB AND DUP2 MSTORE POP POP POP POP DUP1 PUSH2 0x1F29 SWAP1 PUSH2 0x3798 JUMP JUMPDEST SWAP1 POP PUSH2 0x1E4A JUMP JUMPDEST POP POP SWAP2 SWAP1 POP JUMP JUMPDEST PUSH32 0x8619CECD8B9E095AB43867F5B69D492180450FE862E6B50BFBFB24B75DD84C8A PUSH2 0x1F62 DUP2 CALLER PUSH2 0x296B JUMP JUMPDEST PUSH1 0x40 DUP1 MLOAD PUSH1 0x1 DUP1 DUP3 MSTORE DUP2 DUP4 ADD SWAP1 SWAP3 MSTORE PUSH1 0x1 PUSH2 0x111 PUSH1 0x93 SHL ADD SWAP2 PUSH1 0x0 SWAP2 SWAP1 PUSH1 0x20 DUP1 DUP4 ADD SWAP1 DUP1 CALLDATASIZE DUP4 CALLDATACOPY ADD SWAP1 POP POP SWAP1 POP DUP4 DUP2 PUSH1 0x0 DUP2 MLOAD DUP2 LT PUSH2 0x1FA3 JUMPI PUSH2 0x1FA3 PUSH2 0x37DF JUMP JUMPDEST PUSH1 0x1 PUSH1 0x1 PUSH1 0xA0 SHL SUB SWAP3 DUP4 AND PUSH1 0x20 SWAP2 DUP3 MUL SWAP3 SWAP1 SWAP3 ADD ADD MSTORE PUSH1 0x40 MLOAD PUSH4 0x809469F PUSH1 0xE1 SHL DUP2 MSTORE SWAP1 DUP4 AND SWAP1 PUSH4 0x10128D3E SWAP1 PUSH2 0x1FDE SWAP1 DUP5 SWAP1 PUSH1 0x4 ADD PUSH2 0x362D JUMP JUMPDEST PUSH1 0x0 PUSH1 0x40 MLOAD DUP1 DUP4 SUB DUP2 PUSH1 0x0 DUP8 DUP1 EXTCODESIZE ISZERO DUP1 ISZERO PUSH2 0x1FF8 JUMPI PUSH1 0x0 DUP1 REVERT JUMPDEST POP GAS CALL ISZERO DUP1 ISZERO PUSH2 0x200C JUMPI RETURNDATASIZE PUSH1 0x0 DUP1 RETURNDATACOPY RETURNDATASIZE PUSH1 0x0 REVERT JUMPDEST POP POP POP POP POP POP POP POP JUMP JUMPDEST PUSH1 0x0 DUP2 DUP2 MSTORE PUSH1 0x5 PUSH1 0x20 SWAP1 DUP2 MSTORE PUSH1 0x40 SWAP2 DUP3 SWAP1 KECCAK256 PUSH1 0x7 DUP2 ADD SLOAD DUP4 MLOAD DUP1 DUP6 ADD SWAP1 SWAP5 MSTORE PUSH1 0x18 DUP5 MSTORE PUSH1 0x0 DUP1 MLOAD PUSH1 0x20 PUSH2 0x382F DUP4 CODECOPY DUP2 MLOAD SWAP2 MSTORE SWAP3 DUP5 ADD SWAP3 SWAP1 SWAP3 MSTORE PUSH1 0x60 SWAP3 SWAP1 SWAP2 PUSH1 0xFF AND PUSH2 0x2074 JUMPI PUSH1 0x40 MLOAD PUSH3 0x461BCD PUSH1 0xE5 SHL DUP2 MSTORE PUSH1 0x4 ADD PUSH2 0x824 SWAP2 SWAP1 PUSH2 0x36B2 JUMP JUMPDEST POP DUP1 PUSH1 0x1 ADD DUP1 SLOAD DUP1 PUSH1 0x20 MUL PUSH1 0x20 ADD PUSH1 0x40 MLOAD SWAP1 DUP2 ADD PUSH1 0x40 MSTORE DUP1 SWAP3 SWAP2 SWAP1 DUP2 DUP2 MSTORE PUSH1 0x20 ADD DUP3 DUP1 SLOAD DUP1 ISZERO PUSH2 0x20C3 JUMPI PUSH1 0x20 MUL DUP3 ADD SWAP2 SWAP1 PUSH1 0x0 MSTORE PUSH1 0x20 PUSH1 0x0 KECCAK256 SWAP1 JUMPDEST DUP2 SLOAD DUP2 MSTORE PUSH1 0x20 ADD SWAP1 PUSH1 0x1 ADD SWAP1 DUP1 DUP4 GT PUSH2 0x20AF JUMPI JUMPDEST POP POP POP POP POP SWAP2 POP POP SWAP2 SWAP1 POP JUMP JUMPDEST PUSH1 0x0 DUP2 DUP2 MSTORE PUSH1 0x1 PUSH1 0x20 MSTORE PUSH1 0x40 DUP2 KECCAK256 PUSH2 0xB84 SWAP1 PUSH2 0x29CF JUMP JUMPDEST PUSH32 0x8619CECD8B9E095AB43867F5B69D492180450FE862E6B50BFBFB24B75DD84C8A PUSH2 0x2112 DUP2 CALLER PUSH2 0x296B JUMP JUMPDEST PUSH1 0x40 DUP1 MLOAD PUSH1 0x1 DUP1 DUP3 MSTORE DUP2 DUP4 ADD SWAP1 SWAP3 MSTORE PUSH1 0x1 PUSH2 0x111 PUSH1 0x93 SHL ADD SWAP2 PUSH1 0x0 SWAP2 SWAP1 PUSH1 0x20 DUP1 DUP4 ADD SWAP1 DUP1 CALLDATASIZE DUP4 CALLDATACOPY ADD SWAP1 POP POP SWAP1 POP DUP4 DUP2 PUSH1 0x0 DUP2 MLOAD DUP2 LT PUSH2 0x2153 JUMPI PUSH2 0x2153 PUSH2 0x37DF JUMP JUMPDEST PUSH1 0x1 PUSH1 0x1 PUSH1 0xA0 SHL SUB SWAP3 DUP4 AND PUSH1 0x20 SWAP2 DUP3 MUL SWAP3 SWAP1 SWAP3 ADD ADD MSTORE PUSH1 0x40 MLOAD PUSH4 0x694996DB PUSH1 0xE1 SHL DUP2 MSTORE SWAP1 DUP4 AND SWAP1 PUSH4 0xD2932DB6 SWAP1 PUSH2 0x1FDE SWAP1 DUP5 SWAP1 PUSH1 0x4 ADD PUSH2 0x362D JUMP JUMPDEST PUSH1 0x0 DUP4 DUP2 MSTORE PUSH1 0x7 PUSH1 0x20 DUP2 DUP2 MSTORE PUSH1 0x40 DUP1 DUP5 KECCAK256 DUP7 DUP6 MSTORE DUP3 MSTORE DUP1 DUP5 KECCAK256 SWAP3 DUP4 ADD SLOAD DUP2 MLOAD DUP1 DUP4 ADD SWAP1 SWAP3 MSTORE PUSH1 0x1C DUP3 MSTORE PUSH1 0x0 DUP1 MLOAD PUSH1 0x20 PUSH2 0x384F DUP4 CODECOPY DUP2 MLOAD SWAP2 MSTORE SWAP3 DUP3 ADD SWAP3 SWAP1 SWAP3 MSTORE SWAP1 PUSH1 0xFF AND PUSH2 0x21EE JUMPI PUSH1 0x40 MLOAD PUSH3 0x461BCD PUSH1 0xE5 SHL DUP2 MSTORE PUSH1 0x4 ADD PUSH2 0x824 SWAP2 SWAP1 PUSH2 0x36B2 JUMP JUMPDEST POP PUSH1 0x0 SWAP3 DUP4 MSTORE PUSH1 0x6 ADD PUSH1 0x20 MSTORE POP PUSH1 0x40 SWAP1 KECCAK256 SLOAD SWAP3 SWAP2 POP POP JUMP JUMPDEST PUSH2 0xFBF DUP3 DUP3 PUSH2 0x2BB3 JUMP JUMPDEST PUSH1 0x0 DUP4 DUP2 MSTORE PUSH1 0x7 PUSH1 0x20 DUP2 DUP2 MSTORE PUSH1 0x40 DUP1 DUP5 KECCAK256 DUP7 DUP6 MSTORE DUP3 MSTORE DUP1 DUP5 KECCAK256 SWAP3 DUP4 ADD SLOAD DUP2 MLOAD DUP1 DUP4 ADD SWAP1 SWAP3 MSTORE PUSH1 0x1C DUP3 MSTORE PUSH1 0x0 DUP1 MLOAD PUSH1 0x20 PUSH2 0x384F DUP4 CODECOPY DUP2 MLOAD SWAP2 MSTORE SWAP3 DUP3 ADD SWAP3 SWAP1 SWAP3 MSTORE SWAP1 PUSH1 0xFF AND PUSH2 0x2270 JUMPI PUSH1 0x40 MLOAD PUSH3 0x461BCD PUSH1 0xE5 SHL DUP2 MSTORE PUSH1 0x4 ADD PUSH2 0x824 SWAP2 SWAP1 PUSH2 0x36B2 JUMP JUMPDEST POP PUSH2 0x227C DUP6 DUP6 DUP6 PUSH2 0xB8A JUMP JUMPDEST PUSH1 0x0 DUP5 DUP2 MSTORE PUSH1 0x5 DUP4 ADD PUSH1 0x20 MSTORE PUSH1 0x40 SWAP1 KECCAK256 SLOAD PUSH2 0x2297 SWAP2 SWAP1 PUSH2 0x36E5 JUMP JUMPDEST SWAP6 SWAP5 POP POP POP POP POP JUMP JUMPDEST PUSH1 0x0 DUP1 MLOAD PUSH1 0x20 PUSH2 0x386F DUP4 CODECOPY DUP2 MLOAD SWAP2 MSTORE PUSH2 0x22B9 DUP2 CALLER PUSH2 0x296B JUMP JUMPDEST PUSH1 0x0 DUP4 DUP2 MSTORE PUSH1 0xD PUSH1 0x20 SWAP1 DUP2 MSTORE PUSH1 0x40 SWAP2 DUP3 SWAP1 KECCAK256 SLOAD DUP3 MLOAD DUP1 DUP5 ADD SWAP1 SWAP4 MSTORE PUSH1 0x12 DUP4 MSTORE PUSH18 0x20A1AC9D102AB735B737BBB7103A37B5B2B7 PUSH1 0x71 SHL SWAP2 DUP4 ADD SWAP2 SWAP1 SWAP2 MSTORE PUSH1 0x1 PUSH1 0x1 PUSH1 0xA0 SHL SUB AND SWAP1 DUP2 PUSH2 0x231D JUMPI PUSH1 0x40 MLOAD PUSH3 0x461BCD PUSH1 0xE5 SHL DUP2 MSTORE PUSH1 0x4 ADD PUSH2 0x824 SWAP2 SWAP1 PUSH2 0x36B2 JUMP JUMPDEST POP PUSH2 0x2333 PUSH1 0x1 PUSH1 0x1 PUSH1 0xA0 SHL SUB DUP3 AND CALLER ADDRESS DUP7 PUSH2 0x2430 JUMP JUMPDEST PUSH1 0x0 DUP5 DUP2 MSTORE PUSH1 0xA PUSH1 0x20 MSTORE PUSH1 0x40 DUP2 KECCAK256 DUP1 SLOAD DUP6 SWAP3 SWAP1 PUSH2 0x2351 SWAP1 DUP5 SWAP1 PUSH2 0x36E5 JUMP JUMPDEST SWAP1 SWAP2 SSTORE POP POP PUSH1 0x40 MLOAD DUP4 DUP2 MSTORE DUP5 SWAP1 PUSH32 0x68F079265AE908D13EB803490BB7E3056A61413040AF8E0F0E2EEBB98648C79D SWAP1 PUSH1 0x20 ADD PUSH1 0x40 MLOAD DUP1 SWAP2 SUB SWAP1 LOG2 POP POP POP POP JUMP JUMPDEST PUSH1 0x0 DUP2 DUP2 MSTORE PUSH1 0x9 PUSH1 0x20 MSTORE PUSH1 0x40 DUP2 KECCAK256 PUSH2 0xB84 SWAP1 PUSH2 0x29CF JUMP JUMPDEST PUSH2 0x23B2 DUP3 DUP3 PUSH2 0x2BD9 JUMP JUMPDEST POP POP JUMP JUMPDEST PUSH1 0x0 PUSH2 0xD8C DUP4 PUSH1 0x1 PUSH1 0x1 PUSH1 0xA0 SHL SUB DUP5 AND PUSH2 0x2C5D JUMP JUMPDEST PUSH1 0x0 PUSH2 0xD8C DUP4 DUP4 PUSH2 0x2C5D JUMP JUMPDEST PUSH1 0x0 DUP1 PUSH1 0x2 PUSH2 0x23E7 DUP5 PUSH1 0x1 PUSH2 0x36E5 JUMP JUMPDEST PUSH2 0x23F1 SWAP2 SWAP1 PUSH2 0x36FD JUMP JUMPDEST SWAP1 POP DUP3 SWAP2 POP JUMPDEST DUP2 DUP2 LT ISZERO PUSH2 0x242A JUMPI SWAP1 POP DUP1 PUSH1 0x2 DUP2 PUSH2 0x240F DUP2 DUP7 PUSH2 0x36FD JUMP JUMPDEST PUSH2 0x2419 SWAP2 SWAP1 PUSH2 0x36E5 JUMP JUMPDEST PUSH2 0x2423 SWAP2 SWAP1 PUSH2 0x36FD JUMP JUMPDEST SWAP1 POP PUSH2 0x23F7 JUMP JUMPDEST POP SWAP2 SWAP1 POP JUMP JUMPDEST PUSH1 0x40 MLOAD PUSH1 0x1 PUSH1 0x1 PUSH1 0xA0 SHL SUB DUP1 DUP6 AND PUSH1 0x24 DUP4 ADD MSTORE DUP4 AND PUSH1 0x44 DUP3 ADD MSTORE PUSH1 0x64 DUP2 ADD DUP3 SWAP1 MSTORE PUSH2 0xE98 SWAP1 DUP6 SWAP1 PUSH4 0x23B872DD PUSH1 0xE0 SHL SWAP1 PUSH1 0x84 ADD JUMPDEST PUSH1 0x40 DUP1 MLOAD PUSH1 0x1F NOT DUP2 DUP5 SUB ADD DUP2 MSTORE SWAP2 SWAP1 MSTORE PUSH1 0x20 DUP2 ADD DUP1 MLOAD PUSH1 0x1 PUSH1 0x1 PUSH1 0xE0 SHL SUB AND PUSH1 0x1 PUSH1 0x1 PUSH1 0xE0 SHL SUB NOT SWAP1 SWAP4 AND SWAP3 SWAP1 SWAP3 OR SWAP1 SWAP2 MSTORE PUSH2 0x2CAC JUMP JUMPDEST PUSH1 0x0 PUSH1 0x1 PUSH1 0x1 PUSH1 0xE0 SHL SUB NOT DUP3 AND PUSH4 0x7965DB0B PUSH1 0xE0 SHL EQ DUP1 PUSH2 0xB84 JUMPI POP PUSH4 0x1FFC9A7 PUSH1 0xE0 SHL PUSH1 0x1 PUSH1 0x1 PUSH1 0xE0 SHL SUB NOT DUP4 AND EQ PUSH2 0xB84 JUMP JUMPDEST PUSH1 0x0 PUSH2 0xD8C DUP4 DUP4 PUSH2 0x2D7E JUMP JUMPDEST PUSH1 0x2 PUSH1 0x3 SLOAD EQ ISZERO PUSH2 0x252F JUMPI PUSH1 0x40 MLOAD PUSH3 0x461BCD PUSH1 0xE5 SHL DUP2 MSTORE PUSH1 0x20 PUSH1 0x4 DUP3 ADD MSTORE PUSH1 0x1F PUSH1 0x24 DUP3 ADD MSTORE PUSH32 0x5265656E7472616E637947756172643A207265656E7472616E742063616C6C00 PUSH1 0x44 DUP3 ADD MSTORE PUSH1 0x64 ADD PUSH2 0x824 JUMP JUMPDEST PUSH1 0x2 PUSH1 0x3 SSTORE PUSH2 0x253D DUP5 PUSH2 0x100D JUMP JUMPDEST PUSH1 0x0 DUP5 DUP2 MSTORE PUSH1 0x5 PUSH1 0x20 SWAP1 DUP2 MSTORE PUSH1 0x40 SWAP2 DUP3 SWAP1 KECCAK256 PUSH1 0x7 DUP2 ADD SLOAD DUP4 MLOAD DUP1 DUP6 ADD SWAP1 SWAP5 MSTORE PUSH1 0x18 DUP5 MSTORE PUSH1 0x0 DUP1 MLOAD PUSH1 0x20 PUSH2 0x382F DUP4 CODECOPY DUP2 MLOAD SWAP2 MSTORE SWAP3 DUP5 ADD SWAP3 SWAP1 SWAP3 MSTORE SWAP2 SWAP1 PUSH1 0xFF AND PUSH2 0x2598 JUMPI PUSH1 0x40 MLOAD PUSH3 0x461BCD PUSH1 0xE5 SHL DUP2 MSTORE PUSH1 0x4 ADD PUSH2 0x824 SWAP2 SWAP1 PUSH2 0x36B2 JUMP JUMPDEST POP PUSH1 0x0 DUP6 DUP2 MSTORE PUSH1 0x7 PUSH1 0x20 DUP2 DUP2 MSTORE PUSH1 0x40 DUP1 DUP5 KECCAK256 DUP9 DUP6 MSTORE DUP3 MSTORE SWAP3 DUP4 SWAP1 KECCAK256 SWAP2 DUP3 ADD SLOAD DUP4 MLOAD DUP1 DUP6 ADD SWAP1 SWAP5 MSTORE PUSH1 0x1C DUP5 MSTORE PUSH1 0x0 DUP1 MLOAD PUSH1 0x20 PUSH2 0x384F DUP4 CODECOPY DUP2 MLOAD SWAP2 MSTORE SWAP2 DUP5 ADD SWAP2 SWAP1 SWAP2 MSTORE SWAP1 SWAP2 SWAP1 PUSH1 0xFF AND PUSH2 0x25FC JUMPI PUSH1 0x40 MLOAD PUSH3 0x461BCD PUSH1 0xE5 SHL DUP2 MSTORE PUSH1 0x4 ADD PUSH2 0x824 SWAP2 SWAP1 PUSH2 0x36B2 JUMP JUMPDEST POP DUP1 SLOAD PUSH1 0x40 DUP1 MLOAD DUP1 DUP3 ADD SWAP1 SWAP2 MSTORE PUSH1 0x11 DUP2 MSTORE PUSH17 0x1050D64E88155B985D5D1A1BDC9A5E9959 PUSH1 0x7A SHL PUSH1 0x20 DUP3 ADD MSTORE SWAP1 PUSH1 0x1 PUSH1 0x1 PUSH1 0xA0 SHL SUB AND CALLER EQ PUSH2 0x2650 JUMPI PUSH1 0x40 MLOAD PUSH3 0x461BCD PUSH1 0xE5 SHL DUP2 MSTORE PUSH1 0x4 ADD PUSH2 0x824 SWAP2 SWAP1 PUSH2 0x36B2 JUMP JUMPDEST POP PUSH1 0x0 DUP1 PUSH2 0x2678 PUSH3 0x15180 DUP5 PUSH1 0x3 ADD SLOAD PUSH10 0x4EE2D6D415B85ACEF81 PUSH1 0x20 SHL PUSH2 0xA21 SWAP2 SWAP1 PUSH2 0x371F JUMP JUMPDEST DUP4 PUSH1 0x1 ADD SLOAD PUSH2 0x2687 SWAP2 SWAP1 PUSH2 0x371F JUMP JUMPDEST SWAP1 POP PUSH1 0x0 JUMPDEST PUSH1 0x1 DUP6 ADD SLOAD DUP2 LT ISZERO PUSH2 0x28C0 JUMPI PUSH1 0x0 DUP6 PUSH1 0x1 ADD DUP3 DUP2 SLOAD DUP2 LT PUSH2 0x26AF JUMPI PUSH2 0x26AF PUSH2 0x37DF JUMP JUMPDEST PUSH1 0x0 SWAP2 DUP3 MSTORE PUSH1 0x20 DUP1 DUP4 KECCAK256 SWAP1 SWAP2 ADD SLOAD DUP1 DUP4 MSTORE PUSH1 0x6 DUP1 DUP10 ADD DUP4 MSTORE PUSH1 0x40 DUP1 DUP6 KECCAK256 SLOAD SWAP2 DUP12 ADD SWAP1 SWAP4 MSTORE SWAP2 DUP4 KECCAK256 SLOAD SWAP1 SWAP4 POP PUSH10 0x4EE2D6D415B85ACEF81 PUSH1 0x20 SHL SWAP1 PUSH2 0x26F3 SWAP1 DUP8 PUSH2 0x371F JUMP JUMPDEST PUSH2 0x26FD SWAP2 SWAP1 PUSH2 0x36FD JUMP JUMPDEST PUSH1 0x0 DUP5 DUP2 MSTORE PUSH1 0x4 DUP10 ADD PUSH1 0x20 MSTORE PUSH1 0x40 SWAP1 KECCAK256 SLOAD PUSH2 0x2718 SWAP2 SWAP1 PUSH2 0x36E5 JUMP JUMPDEST PUSH2 0x2722 SWAP2 SWAP1 PUSH2 0x373E JUMP JUMPDEST SWAP1 POP DUP1 PUSH2 0x2730 JUMPI POP POP PUSH2 0x28AE JUMP JUMPDEST PUSH1 0x0 DUP3 DUP2 MSTORE PUSH1 0xA PUSH1 0x20 MSTORE PUSH1 0x40 SWAP1 KECCAK256 SLOAD DUP2 GT PUSH2 0x2847 JUMPI PUSH1 0x0 DUP3 DUP2 MSTORE PUSH1 0x4 DUP8 ADD PUSH1 0x20 SWAP1 DUP2 MSTORE PUSH1 0x40 DUP1 DUP4 KECCAK256 DUP4 SWAP1 SSTORE PUSH1 0x6 DUP11 ADD SWAP1 SWAP2 MSTORE SWAP1 KECCAK256 SLOAD PUSH10 0x4EE2D6D415B85ACEF81 PUSH1 0x20 SHL SWAP1 PUSH2 0x277E SWAP1 DUP7 PUSH2 0x371F JUMP JUMPDEST PUSH2 0x2788 SWAP2 SWAP1 PUSH2 0x36FD JUMP JUMPDEST PUSH1 0x0 DUP4 DUP2 MSTORE PUSH1 0x6 DUP9 ADD PUSH1 0x20 SWAP1 DUP2 MSTORE PUSH1 0x40 DUP1 DUP4 KECCAK256 SWAP4 SWAP1 SWAP4 SSTORE PUSH1 0xD SWAP1 MSTORE KECCAK256 SLOAD PUSH2 0x27B9 SWAP1 PUSH1 0x1 PUSH1 0x1 PUSH1 0xA0 SHL SUB AND CALLER DUP4 PUSH2 0x2B83 JUMP JUMPDEST PUSH1 0x0 DUP3 DUP2 MSTORE PUSH1 0xA PUSH1 0x20 MSTORE PUSH1 0x40 DUP2 KECCAK256 DUP1 SLOAD DUP4 SWAP3 SWAP1 PUSH2 0x27D7 SWAP1 DUP5 SWAP1 PUSH2 0x373E JUMP JUMPDEST SWAP1 SWAP2 SSTORE POP POP PUSH1 0x0 DUP3 DUP2 MSTORE PUSH1 0x5 DUP8 ADD PUSH1 0x20 MSTORE PUSH1 0x40 DUP2 KECCAK256 DUP1 SLOAD DUP4 SWAP3 SWAP1 PUSH2 0x27FC SWAP1 DUP5 SWAP1 PUSH2 0x36E5 JUMP JUMPDEST SWAP1 SWAP2 SSTORE POP POP PUSH1 0x40 DUP1 MLOAD DUP4 DUP2 MSTORE PUSH1 0x20 DUP2 ADD DUP4 SWAP1 MSTORE DUP12 SWAP2 DUP14 SWAP2 CALLER SWAP2 PUSH32 0x779F6D843E7D40A6F05A1E46D3741BC2FD3949F52997FC3B95221AF725F1B12F SWAP2 ADD PUSH1 0x40 MLOAD DUP1 SWAP2 SUB SWAP1 LOG4 POP POP PUSH2 0x28AE JUMP JUMPDEST PUSH1 0x1 SWAP5 POP DUP8 ISZERO PUSH2 0x28AB JUMPI PUSH1 0x40 MLOAD PUSH32 0x4143593A20496E73756666696369656E742066756E64696E6720666F72200000 PUSH1 0x20 DUP3 ADD MSTORE PUSH1 0x3E DUP2 ADD DUP4 SWAP1 MSTORE PUSH1 0x5E ADD JUMPDEST PUSH1 0x40 DUP1 MLOAD PUSH1 0x1F NOT DUP2 DUP5 SUB ADD DUP2 MSTORE SWAP1 DUP3 SWAP1 MSTORE PUSH3 0x461BCD PUSH1 0xE5 SHL DUP3 MSTORE PUSH2 0x824 SWAP2 PUSH1 0x4 ADD PUSH2 0x36B2 JUMP JUMPDEST POP POP JUMPDEST DUP1 PUSH2 0x28B8 DUP2 PUSH2 0x3798 JUMP JUMPDEST SWAP2 POP POP PUSH2 0x268C JUMP JUMPDEST POP DUP6 DUP1 ISZERO PUSH2 0x28CC JUMPI POP DUP2 ISZERO JUMPDEST DUP1 ISZERO PUSH2 0x28DA JUMPI POP PUSH1 0x1 DUP4 ADD SLOAD ISZERO JUMPDEST ISZERO PUSH2 0x295C JUMPI PUSH1 0x0 DUP9 DUP2 MSTORE PUSH1 0x7 PUSH1 0x20 DUP2 DUP2 MSTORE PUSH1 0x40 DUP1 DUP5 KECCAK256 DUP12 DUP6 MSTORE DUP3 MSTORE DUP1 DUP5 KECCAK256 DUP1 SLOAD PUSH1 0x1 PUSH1 0x1 PUSH1 0xA0 SHL SUB NOT AND DUP2 SSTORE PUSH1 0x1 DUP2 ADD DUP6 SWAP1 SSTORE PUSH1 0x2 DUP2 ADD DUP6 SWAP1 SSTORE PUSH1 0x3 DUP2 ADD DUP6 SWAP1 SSTORE SWAP1 SWAP3 ADD DUP1 SLOAD PUSH1 0xFF NOT AND SWAP1 SSTORE CALLER DUP4 MSTORE PUSH1 0x8 DUP2 MSTORE DUP2 DUP4 KECCAK256 DUP12 DUP5 MSTORE SWAP1 MSTORE SWAP1 KECCAK256 PUSH2 0x2941 SWAP1 DUP9 PUSH2 0x2DA8 JUMP JUMPDEST POP PUSH1 0x0 DUP9 DUP2 MSTORE PUSH1 0x9 PUSH1 0x20 MSTORE PUSH1 0x40 SWAP1 KECCAK256 PUSH2 0x295A SWAP1 DUP9 PUSH2 0x2DA8 JUMP JUMPDEST POP JUMPDEST POP POP PUSH1 0x1 PUSH1 0x3 SSTORE POP POP POP POP POP POP JUMP JUMPDEST PUSH2 0x2975 DUP3 DUP3 PUSH2 0x1423 JUMP JUMPDEST PUSH2 0x23B2 JUMPI PUSH2 0x298D DUP2 PUSH1 0x1 PUSH1 0x1 PUSH1 0xA0 SHL SUB AND PUSH1 0x14 PUSH2 0x2DB4 JUMP JUMPDEST PUSH2 0x2998 DUP4 PUSH1 0x20 PUSH2 0x2DB4 JUMP JUMPDEST PUSH1 0x40 MLOAD PUSH1 0x20 ADD PUSH2 0x2885 SWAP3 SWAP2 SWAP1 PUSH2 0x35B8 JUMP JUMPDEST PUSH1 0x0 DUP3 DUP2 MSTORE PUSH1 0x20 DUP2 SWAP1 MSTORE PUSH1 0x40 SWAP1 KECCAK256 PUSH1 0x1 ADD SLOAD PUSH2 0x29C5 DUP2 CALLER PUSH2 0x296B JUMP JUMPDEST PUSH2 0xF3E DUP4 DUP4 PUSH2 0x2BD9 JUMP JUMPDEST PUSH1 0x0 PUSH2 0xB84 DUP3 SLOAD SWAP1 JUMP JUMPDEST PUSH1 0x1 PUSH1 0x1 PUSH1 0xA0 SHL SUB DUP2 AND CALLER EQ PUSH2 0x2A49 JUMPI PUSH1 0x40 MLOAD PUSH3 0x461BCD PUSH1 0xE5 SHL DUP2 MSTORE PUSH1 0x20 PUSH1 0x4 DUP3 ADD MSTORE PUSH1 0x2F PUSH1 0x24 DUP3 ADD MSTORE PUSH32 0x416363657373436F6E74726F6C3A2063616E206F6E6C792072656E6F756E6365 PUSH1 0x44 DUP3 ADD MSTORE PUSH15 0x103937B632B9903337B91039B2B633 PUSH1 0x89 SHL PUSH1 0x64 DUP3 ADD MSTORE PUSH1 0x84 ADD PUSH2 0x824 JUMP JUMPDEST PUSH2 0x23B2 DUP3 DUP3 PUSH2 0x2F50 JUMP JUMPDEST PUSH1 0x0 PUSH2 0xD8C DUP4 PUSH1 0x1 PUSH1 0x1 PUSH1 0xA0 SHL SUB DUP5 AND PUSH2 0x2FB5 JUMP JUMPDEST PUSH1 0x2 SLOAD PUSH1 0xFF AND PUSH2 0x2AB1 JUMPI PUSH1 0x40 MLOAD PUSH3 0x461BCD PUSH1 0xE5 SHL DUP2 MSTORE PUSH1 0x20 PUSH1 0x4 DUP3 ADD MSTORE PUSH1 0x14 PUSH1 0x24 DUP3 ADD MSTORE PUSH20 0x14185D5CD8589B194E881B9BDD081C185D5CD959 PUSH1 0x62 SHL PUSH1 0x44 DUP3 ADD MSTORE PUSH1 0x64 ADD PUSH2 0x824 JUMP JUMPDEST PUSH1 0x2 DUP1 SLOAD PUSH1 0xFF NOT AND SWAP1 SSTORE PUSH32 0x5DB9EE0A495BF2E6FF9C91A7834C1BA4FDD244A5E8AA4E537BD38AEAE4B073AA CALLER JUMPDEST PUSH1 0x40 MLOAD PUSH1 0x1 PUSH1 0x1 PUSH1 0xA0 SHL SUB SWAP1 SWAP2 AND DUP2 MSTORE PUSH1 0x20 ADD PUSH1 0x40 MLOAD DUP1 SWAP2 SUB SWAP1 LOG1 JUMP JUMPDEST PUSH1 0x2 SLOAD PUSH1 0xFF AND ISZERO PUSH2 0x2B41 JUMPI PUSH1 0x40 MLOAD PUSH3 0x461BCD PUSH1 0xE5 SHL DUP2 MSTORE PUSH1 0x20 PUSH1 0x4 DUP3 ADD MSTORE PUSH1 0x10 PUSH1 0x24 DUP3 ADD MSTORE PUSH16 0x14185D5CD8589B194E881C185D5CD959 PUSH1 0x82 SHL PUSH1 0x44 DUP3 ADD MSTORE PUSH1 0x64 ADD PUSH2 0x824 JUMP JUMPDEST PUSH1 0x2 DUP1 SLOAD PUSH1 0xFF NOT AND PUSH1 0x1 OR SWAP1 SSTORE PUSH32 0x62E78CEA01BEE320CD4E420270B5EA74000D11B0C9F74754EBDBFC544B05A258 PUSH2 0x2ADE CALLER SWAP1 JUMP JUMPDEST PUSH1 0x60 PUSH1 0x0 PUSH2 0xD8C DUP4 PUSH2 0x30A8 JUMP JUMPDEST PUSH1 0x40 MLOAD PUSH1 0x1 PUSH1 0x1 PUSH1 0xA0 SHL SUB DUP4 AND PUSH1 0x24 DUP3 ADD MSTORE PUSH1 0x44 DUP2 ADD DUP3 SWAP1 MSTORE PUSH2 0xF3E SWAP1 DUP5 SWAP1 PUSH4 0xA9059CBB PUSH1 0xE0 SHL SWAP1 PUSH1 0x64 ADD PUSH2 0x2464 JUMP JUMPDEST PUSH1 0x0 DUP3 DUP2 MSTORE PUSH1 0x20 DUP2 SWAP1 MSTORE PUSH1 0x40 SWAP1 KECCAK256 PUSH1 0x1 ADD SLOAD PUSH2 0x2BCF DUP2 CALLER PUSH2 0x296B JUMP JUMPDEST PUSH2 0xF3E DUP4 DUP4 PUSH2 0x2F50 JUMP JUMPDEST PUSH2 0x2BE3 DUP3 DUP3 PUSH2 0x1423 JUMP JUMPDEST PUSH2 0x23B2 JUMPI PUSH1 0x0 DUP3 DUP2 MSTORE PUSH1 0x20 DUP2 DUP2 MSTORE PUSH1 0x40 DUP1 DUP4 KECCAK256 PUSH1 0x1 PUSH1 0x1 PUSH1 0xA0 SHL SUB DUP6 AND DUP5 MSTORE SWAP1 SWAP2 MSTORE SWAP1 KECCAK256 DUP1 SLOAD PUSH1 0xFF NOT AND PUSH1 0x1 OR SWAP1 SSTORE PUSH2 0x2C19 CALLER SWAP1 JUMP JUMPDEST PUSH1 0x1 PUSH1 0x1 PUSH1 0xA0 SHL SUB AND DUP2 PUSH1 0x1 PUSH1 0x1 PUSH1 0xA0 SHL SUB AND DUP4 PUSH32 0x2F8788117E7EFF1D82E926EC794901D17C78024A50270940304540A733656F0D PUSH1 0x40 MLOAD PUSH1 0x40 MLOAD DUP1 SWAP2 SUB SWAP1 LOG4 POP POP JUMP JUMPDEST PUSH1 0x0 DUP2 DUP2 MSTORE PUSH1 0x1 DUP4 ADD PUSH1 0x20 MSTORE PUSH1 0x40 DUP2 KECCAK256 SLOAD PUSH2 0x2CA4 JUMPI POP DUP2 SLOAD PUSH1 0x1 DUP2 DUP2 ADD DUP5 SSTORE PUSH1 0x0 DUP5 DUP2 MSTORE PUSH1 0x20 DUP1 DUP3 KECCAK256 SWAP1 SWAP4 ADD DUP5 SWAP1 SSTORE DUP5 SLOAD DUP5 DUP3 MSTORE DUP3 DUP7 ADD SWAP1 SWAP4 MSTORE PUSH1 0x40 SWAP1 KECCAK256 SWAP2 SWAP1 SWAP2 SSTORE PUSH2 0xB84 JUMP JUMPDEST POP PUSH1 0x0 PUSH2 0xB84 JUMP JUMPDEST PUSH1 0x0 PUSH2 0x2D01 DUP3 PUSH1 0x40 MLOAD DUP1 PUSH1 0x40 ADD PUSH1 0x40 MSTORE DUP1 PUSH1 0x20 DUP2 MSTORE PUSH1 0x20 ADD PUSH32 0x5361666545524332303A206C6F772D6C6576656C2063616C6C206661696C6564 DUP2 MSTORE POP DUP6 PUSH1 0x1 PUSH1 0x1 PUSH1 0xA0 SHL SUB AND PUSH2 0x3104 SWAP1 SWAP3 SWAP2 SWAP1 PUSH4 0xFFFFFFFF AND JUMP JUMPDEST DUP1 MLOAD SWAP1 SWAP2 POP ISZERO PUSH2 0xF3E JUMPI DUP1 DUP1 PUSH1 0x20 ADD SWAP1 MLOAD DUP2 ADD SWAP1 PUSH2 0x2D1F SWAP2 SWAP1 PUSH2 0x3339 JUMP JUMPDEST PUSH2 0xF3E JUMPI PUSH1 0x40 MLOAD PUSH3 0x461BCD PUSH1 0xE5 SHL DUP2 MSTORE PUSH1 0x20 PUSH1 0x4 DUP3 ADD MSTORE PUSH1 0x2A PUSH1 0x24 DUP3 ADD MSTORE PUSH32 0x5361666545524332303A204552433230206F7065726174696F6E20646964206E PUSH1 0x44 DUP3 ADD MSTORE PUSH10 0x1BDD081CDD58D8D95959 PUSH1 0xB2 SHL PUSH1 0x64 DUP3 ADD MSTORE PUSH1 0x84 ADD PUSH2 0x824 JUMP JUMPDEST PUSH1 0x0 DUP3 PUSH1 0x0 ADD DUP3 DUP2 SLOAD DUP2 LT PUSH2 0x2D95 JUMPI PUSH2 0x2D95 PUSH2 0x37DF JUMP JUMPDEST SWAP1 PUSH1 0x0 MSTORE PUSH1 0x20 PUSH1 0x0 KECCAK256 ADD SLOAD SWAP1 POP SWAP3 SWAP2 POP POP JUMP JUMPDEST PUSH1 0x0 PUSH2 0xD8C DUP4 DUP4 PUSH2 0x2FB5 JUMP JUMPDEST PUSH1 0x60 PUSH1 0x0 PUSH2 0x2DC3 DUP4 PUSH1 0x2 PUSH2 0x371F JUMP JUMPDEST PUSH2 0x2DCE SWAP1 PUSH1 0x2 PUSH2 0x36E5 JUMP JUMPDEST PUSH8 0xFFFFFFFFFFFFFFFF DUP2 GT ISZERO PUSH2 0x2DE6 JUMPI PUSH2 0x2DE6 PUSH2 0x37F5 JUMP JUMPDEST PUSH1 0x40 MLOAD SWAP1 DUP1 DUP3 MSTORE DUP1 PUSH1 0x1F ADD PUSH1 0x1F NOT AND PUSH1 0x20 ADD DUP3 ADD PUSH1 0x40 MSTORE DUP1 ISZERO PUSH2 0x2E10 JUMPI PUSH1 0x20 DUP3 ADD DUP2 DUP1 CALLDATASIZE DUP4 CALLDATACOPY ADD SWAP1 POP JUMPDEST POP SWAP1 POP PUSH1 0x3 PUSH1 0xFC SHL DUP2 PUSH1 0x0 DUP2 MLOAD DUP2 LT PUSH2 0x2E2B JUMPI PUSH2 0x2E2B PUSH2 0x37DF JUMP JUMPDEST PUSH1 0x20 ADD ADD SWAP1 PUSH1 0x1 PUSH1 0x1 PUSH1 0xF8 SHL SUB NOT AND SWAP1 DUP2 PUSH1 0x0 BYTE SWAP1 MSTORE8 POP PUSH1 0xF PUSH1 0xFB SHL DUP2 PUSH1 0x1 DUP2 MLOAD DUP2 LT PUSH2 0x2E5A JUMPI PUSH2 0x2E5A PUSH2 0x37DF JUMP JUMPDEST PUSH1 0x20 ADD ADD SWAP1 PUSH1 0x1 PUSH1 0x1 PUSH1 0xF8 SHL SUB NOT AND SWAP1 DUP2 PUSH1 0x0 BYTE SWAP1 MSTORE8 POP PUSH1 0x0 PUSH2 0x2E7E DUP5 PUSH1 0x2 PUSH2 0x371F JUMP JUMPDEST PUSH2 0x2E89 SWAP1 PUSH1 0x1 PUSH2 0x36E5 JUMP JUMPDEST SWAP1 POP JUMPDEST PUSH1 0x1 DUP2 GT ISZERO PUSH2 0x2F01 JUMPI PUSH16 0x181899199A1A9B1B9C1CB0B131B232B3 PUSH1 0x81 SHL DUP6 PUSH1 0xF AND PUSH1 0x10 DUP2 LT PUSH2 0x2EBD JUMPI PUSH2 0x2EBD PUSH2 0x37DF JUMP JUMPDEST BYTE PUSH1 0xF8 SHL DUP3 DUP3 DUP2 MLOAD DUP2 LT PUSH2 0x2ED3 JUMPI PUSH2 0x2ED3 PUSH2 0x37DF JUMP JUMPDEST PUSH1 0x20 ADD ADD SWAP1 PUSH1 0x1 PUSH1 0x1 PUSH1 0xF8 SHL SUB NOT AND SWAP1 DUP2 PUSH1 0x0 BYTE SWAP1 MSTORE8 POP PUSH1 0x4 SWAP5 SWAP1 SWAP5 SHR SWAP4 PUSH2 0x2EFA DUP2 PUSH2 0x3781 JUMP JUMPDEST SWAP1 POP PUSH2 0x2E8C JUMP JUMPDEST POP DUP4 ISZERO PUSH2 0xD8C JUMPI PUSH1 0x40 MLOAD PUSH3 0x461BCD PUSH1 0xE5 SHL DUP2 MSTORE PUSH1 0x20 PUSH1 0x4 DUP3 ADD DUP2 SWAP1 MSTORE PUSH1 0x24 DUP3 ADD MSTORE PUSH32 0x537472696E67733A20686578206C656E67746820696E73756666696369656E74 PUSH1 0x44 DUP3 ADD MSTORE PUSH1 0x64 ADD PUSH2 0x824 JUMP JUMPDEST PUSH2 0x2F5A DUP3 DUP3 PUSH2 0x1423 JUMP JUMPDEST ISZERO PUSH2 0x23B2 JUMPI PUSH1 0x0 DUP3 DUP2 MSTORE PUSH1 0x20 DUP2 DUP2 MSTORE PUSH1 0x40 DUP1 DUP4 KECCAK256 PUSH1 0x1 PUSH1 0x1 PUSH1 0xA0 SHL SUB DUP6 AND DUP1 DUP6 MSTORE SWAP3 MSTORE DUP1 DUP4 KECCAK256 DUP1 SLOAD PUSH1 0xFF NOT AND SWAP1 SSTORE MLOAD CALLER SWAP3 DUP6 SWAP2 PUSH32 0xF6391F5C32D9C69D2A47EA670B442974B53935D1EDC7FD64EB21E047A839171B SWAP2 SWAP1 LOG4 POP POP JUMP JUMPDEST PUSH1 0x0 DUP2 DUP2 MSTORE PUSH1 0x1 DUP4 ADD PUSH1 0x20 MSTORE PUSH1 0x40 DUP2 KECCAK256 SLOAD DUP1 ISZERO PUSH2 0x309E JUMPI PUSH1 0x0 PUSH2 0x2FD9 PUSH1 0x1 DUP4 PUSH2 0x373E JUMP JUMPDEST DUP6 SLOAD SWAP1 SWAP2 POP PUSH1 0x0 SWAP1 PUSH2 0x2FED SWAP1 PUSH1 0x1 SWAP1 PUSH2 0x373E JUMP JUMPDEST SWAP1 POP DUP2 DUP2 EQ PUSH2 0x3052 JUMPI PUSH1 0x0 DUP7 PUSH1 0x0 ADD DUP3 DUP2 SLOAD DUP2 LT PUSH2 0x300D JUMPI PUSH2 0x300D PUSH2 0x37DF JUMP JUMPDEST SWAP1 PUSH1 0x0 MSTORE PUSH1 0x20 PUSH1 0x0 KECCAK256 ADD SLOAD SWAP1 POP DUP1 DUP8 PUSH1 0x0 ADD DUP5 DUP2 SLOAD DUP2 LT PUSH2 0x3030 JUMPI PUSH2 0x3030 PUSH2 0x37DF JUMP JUMPDEST PUSH1 0x0 SWAP2 DUP3 MSTORE PUSH1 0x20 DUP1 DUP4 KECCAK256 SWAP1 SWAP2 ADD SWAP3 SWAP1 SWAP3 SSTORE SWAP2 DUP3 MSTORE PUSH1 0x1 DUP9 ADD SWAP1 MSTORE PUSH1 0x40 SWAP1 KECCAK256 DUP4 SWAP1 SSTORE JUMPDEST DUP6 SLOAD DUP7 SWAP1 DUP1 PUSH2 0x3063 JUMPI PUSH2 0x3063 PUSH2 0x37C9 JUMP JUMPDEST PUSH1 0x1 SWAP1 SUB DUP2 DUP2 SWAP1 PUSH1 0x0 MSTORE PUSH1 0x20 PUSH1 0x0 KECCAK256 ADD PUSH1 0x0 SWAP1 SSTORE SWAP1 SSTORE DUP6 PUSH1 0x1 ADD PUSH1 0x0 DUP7 DUP2 MSTORE PUSH1 0x20 ADD SWAP1 DUP2 MSTORE PUSH1 0x20 ADD PUSH1 0x0 KECCAK256 PUSH1 0x0 SWAP1 SSTORE PUSH1 0x1 SWAP4 POP POP POP POP PUSH2 0xB84 JUMP JUMPDEST PUSH1 0x0 SWAP2 POP POP PUSH2 0xB84 JUMP JUMPDEST PUSH1 0x60 DUP2 PUSH1 0x0 ADD DUP1 SLOAD DUP1 PUSH1 0x20 MUL PUSH1 0x20 ADD PUSH1 0x40 MLOAD SWAP1 DUP2 ADD PUSH1 0x40 MSTORE DUP1 SWAP3 SWAP2 SWAP1 DUP2 DUP2 MSTORE PUSH1 0x20 ADD DUP3 DUP1 SLOAD DUP1 ISZERO PUSH2 0x30F8 JUMPI PUSH1 0x20 MUL DUP3 ADD SWAP2 SWAP1 PUSH1 0x0 MSTORE PUSH1 0x20 PUSH1 0x0 KECCAK256 SWAP1 JUMPDEST DUP2 SLOAD DUP2 MSTORE PUSH1 0x20 ADD SWAP1 PUSH1 0x1 ADD SWAP1 DUP1 DUP4 GT PUSH2 0x30E4 JUMPI JUMPDEST POP POP POP POP POP SWAP1 POP SWAP2 SWAP1 POP JUMP JUMPDEST PUSH1 0x60 PUSH2 0xE84 DUP5 DUP5 PUSH1 0x0 DUP6 DUP6 DUP5 EXTCODESIZE PUSH2 0x315D JUMPI PUSH1 0x40 MLOAD PUSH3 0x461BCD PUSH1 0xE5 SHL DUP2 MSTORE PUSH1 0x20 PUSH1 0x4 DUP3 ADD MSTORE PUSH1 0x1D PUSH1 0x24 DUP3 ADD MSTORE PUSH32 0x416464726573733A2063616C6C20746F206E6F6E2D636F6E7472616374000000 PUSH1 0x44 DUP3 ADD MSTORE PUSH1 0x64 ADD PUSH2 0x824 JUMP JUMPDEST PUSH1 0x0 DUP1 DUP7 PUSH1 0x1 PUSH1 0x1 PUSH1 0xA0 SHL SUB AND DUP6 DUP8 PUSH1 0x40 MLOAD PUSH2 0x3179 SWAP2 SWAP1 PUSH2 0x359C JUMP JUMPDEST PUSH1 0x0 PUSH1 0x40 MLOAD DUP1 DUP4 SUB DUP2 DUP6 DUP8 GAS CALL SWAP3 POP POP POP RETURNDATASIZE DUP1 PUSH1 0x0 DUP2 EQ PUSH2 0x31B6 JUMPI PUSH1 0x40 MLOAD SWAP2 POP PUSH1 0x1F NOT PUSH1 0x3F RETURNDATASIZE ADD AND DUP3 ADD PUSH1 0x40 MSTORE RETURNDATASIZE DUP3 MSTORE RETURNDATASIZE PUSH1 0x0 PUSH1 0x20 DUP5 ADD RETURNDATACOPY PUSH2 0x31BB JUMP JUMPDEST PUSH1 0x60 SWAP2 POP JUMPDEST POP SWAP2 POP SWAP2 POP PUSH2 0x31CB DUP3 DUP3 DUP7 PUSH2 0x31D6 JUMP JUMPDEST SWAP8 SWAP7 POP POP POP POP POP POP POP JUMP JUMPDEST PUSH1 0x60 DUP4 ISZERO PUSH2 0x31E5 JUMPI POP DUP2 PUSH2 0xD8C JUMP JUMPDEST DUP3 MLOAD ISZERO PUSH2 0x31F5 JUMPI DUP3 MLOAD DUP1 DUP5 PUSH1 0x20 ADD REVERT JUMPDEST DUP2 PUSH1 0x40 MLOAD PUSH3 0x461BCD PUSH1 0xE5 SHL DUP2 MSTORE PUSH1 0x4 ADD PUSH2 0x824 SWAP2 SWAP1 PUSH2 0x36B2 JUMP JUMPDEST DUP3 DUP1 SLOAD DUP3 DUP3 SSTORE SWAP1 PUSH1 0x0 MSTORE PUSH1 0x20 PUSH1 0x0 KECCAK256 SWAP1 DUP2 ADD SWAP3 DUP3 ISZERO PUSH2 0x324A JUMPI SWAP2 PUSH1 0x20 MUL DUP3 ADD JUMPDEST DUP3 DUP2 GT ISZERO PUSH2 0x324A JUMPI DUP3 CALLDATALOAD DUP3 SSTORE SWAP2 PUSH1 0x20 ADD SWAP2 SWAP1 PUSH1 0x1 ADD SWAP1 PUSH2 0x322F JUMP JUMPDEST POP PUSH2 0x3256 SWAP3 SWAP2 POP PUSH2 0x325A JUMP JUMPDEST POP SWAP1 JUMP JUMPDEST JUMPDEST DUP1 DUP3 GT ISZERO PUSH2 0x3256 JUMPI PUSH1 0x0 DUP2 SSTORE PUSH1 0x1 ADD PUSH2 0x325B JUMP JUMPDEST PUSH1 0x0 DUP1 DUP4 PUSH1 0x1F DUP5 ADD SLT PUSH2 0x3281 JUMPI PUSH1 0x0 DUP1 REVERT JUMPDEST POP DUP2 CALLDATALOAD PUSH8 0xFFFFFFFFFFFFFFFF DUP2 GT ISZERO PUSH2 0x3299 JUMPI PUSH1 0x0 DUP1 REVERT JUMPDEST PUSH1 0x20 DUP4 ADD SWAP2 POP DUP4 PUSH1 0x20 DUP3 PUSH1 0x5 SHL DUP6 ADD ADD GT ISZERO PUSH2 0x32B4 JUMPI PUSH1 0x0 DUP1 REVERT JUMPDEST SWAP3 POP SWAP3 SWAP1 POP JUMP JUMPDEST PUSH1 0x0 PUSH1 0x20 DUP3 DUP5 SUB SLT ISZERO PUSH2 0x32CD JUMPI PUSH1 0x0 DUP1 REVERT JUMPDEST DUP2 CALLDATALOAD PUSH2 0xD8C DUP2 PUSH2 0x380B JUMP JUMPDEST PUSH1 0x0 DUP1 PUSH1 0x40 DUP4 DUP6 SUB SLT ISZERO PUSH2 0x32EB JUMPI PUSH1 0x0 DUP1 REVERT JUMPDEST DUP3 CALLDATALOAD PUSH2 0x32F6 DUP2 PUSH2 0x380B JUMP JUMPDEST SWAP5 PUSH1 0x20 SWAP4 SWAP1 SWAP4 ADD CALLDATALOAD SWAP4 POP POP POP JUMP JUMPDEST PUSH1 0x0 DUP1 PUSH1 0x0 PUSH1 0x60 DUP5 DUP7 SUB SLT ISZERO PUSH2 0x3319 JUMPI PUSH1 0x0 DUP1 REVERT JUMPDEST DUP4 CALLDATALOAD PUSH2 0x3324 DUP2 PUSH2 0x380B JUMP JUMPDEST SWAP6 PUSH1 0x20 DUP6 ADD CALLDATALOAD SWAP6 POP PUSH1 0x40 SWAP1 SWAP5 ADD CALLDATALOAD SWAP4 SWAP3 POP POP POP JUMP JUMPDEST PUSH1 0x0 PUSH1 0x20 DUP3 DUP5 SUB SLT ISZERO PUSH2 0x334B JUMPI PUSH1 0x0 DUP1 REVERT JUMPDEST DUP2 MLOAD PUSH2 0xD8C DUP2 PUSH2 0x3820 JUMP JUMPDEST PUSH1 0x0 PUSH1 0x20 DUP3 DUP5 SUB SLT ISZERO PUSH2 0x3368 JUMPI PUSH1 0x0 DUP1 REVERT JUMPDEST POP CALLDATALOAD SWAP2 SWAP1 POP JUMP JUMPDEST PUSH1 0x0 DUP1 PUSH1 0x40 DUP4 DUP6 SUB SLT ISZERO PUSH2 0x3382 JUMPI PUSH1 0x0 DUP1 REVERT JUMPDEST DUP3 CALLDATALOAD SWAP2 POP PUSH1 0x20 DUP4 ADD CALLDATALOAD PUSH2 0x3394 DUP2 PUSH2 0x380B JUMP JUMPDEST DUP1 SWAP2 POP POP SWAP3 POP SWAP3 SWAP1 POP JUMP JUMPDEST PUSH1 0x0 DUP1 PUSH1 0x40 DUP4 DUP6 SUB SLT ISZERO PUSH2 0x33B2 JUMPI PUSH1 0x0 DUP1 REVERT JUMPDEST POP POP DUP1 CALLDATALOAD SWAP3 PUSH1 0x20 SWAP1 SWAP2 ADD CALLDATALOAD SWAP2 POP JUMP JUMPDEST PUSH1 0x0 DUP1 PUSH1 0x0 PUSH1 0x60 DUP5 DUP7 SUB SLT ISZERO PUSH2 0x33D6 JUMPI PUSH1 0x0 DUP1 REVERT JUMPDEST DUP4 CALLDATALOAD SWAP3 POP PUSH1 0x20 DUP5 ADD CALLDATALOAD SWAP2 POP PUSH1 0x40 DUP5 ADD CALLDATALOAD PUSH2 0x33EF DUP2 PUSH2 0x3820 JUMP JUMPDEST DUP1 SWAP2 POP POP SWAP3 POP SWAP3 POP SWAP3 JUMP JUMPDEST PUSH1 0x0 PUSH1 0x20 DUP3 DUP5 SUB SLT ISZERO PUSH2 0x340C JUMPI PUSH1 0x0 DUP1 REVERT JUMPDEST DUP2 CALLDATALOAD PUSH1 0x1 PUSH1 0x1 PUSH1 0xE0 SHL SUB NOT DUP2 AND DUP2 EQ PUSH2 0xD8C JUMPI PUSH1 0x0 DUP1 REVERT JUMPDEST PUSH1 0x0 DUP1 PUSH1 0x0 DUP1 PUSH1 0x0 DUP1 PUSH1 0x80 DUP8 DUP10 SUB SLT ISZERO PUSH2 0x343D JUMPI PUSH1 0x0 DUP1 REVERT JUMPDEST DUP7 CALLDATALOAD PUSH2 0x3448 DUP2 PUSH2 0x380B JUMP JUMPDEST SWAP6 POP PUSH1 0x20 DUP8 ADD CALLDATALOAD PUSH8 0xFFFFFFFFFFFFFFFF DUP1 DUP3 GT ISZERO PUSH2 0x3465 JUMPI PUSH1 0x0 DUP1 REVERT JUMPDEST PUSH2 0x3471 DUP11 DUP4 DUP12 ADD PUSH2 0x326F JUMP JUMPDEST SWAP1 SWAP8 POP SWAP6 POP PUSH1 0x40 DUP10 ADD CALLDATALOAD SWAP2 POP DUP1 DUP3 GT ISZERO PUSH2 0x348A JUMPI PUSH1 0x0 DUP1 REVERT JUMPDEST POP PUSH2 0x3497 DUP10 DUP3 DUP11 ADD PUSH2 0x326F JUMP JUMPDEST SWAP1 SWAP5 POP SWAP3 POP POP PUSH1 0x60 DUP8 ADD CALLDATALOAD PUSH2 0x34AB DUP2 PUSH2 0x3820 JUMP JUMPDEST DUP1 SWAP2 POP POP SWAP3 SWAP6 POP SWAP3 SWAP6 POP SWAP3 SWAP6 JUMP JUMPDEST PUSH1 0x0 DUP1 PUSH1 0x0 PUSH1 0x60 DUP5 DUP7 SUB SLT ISZERO PUSH2 0x34CE JUMPI PUSH1 0x0 DUP1 REVERT JUMPDEST DUP4 CALLDATALOAD SWAP3 POP PUSH1 0x20 DUP5 ADD CALLDATALOAD PUSH2 0x34E0 DUP2 PUSH2 0x3820 JUMP JUMPDEST SWAP2 POP PUSH1 0x40 DUP5 ADD CALLDATALOAD PUSH2 0x33EF DUP2 PUSH2 0x3820 JUMP JUMPDEST PUSH1 0x0 DUP1 PUSH1 0x0 DUP1 PUSH1 0x80 DUP6 DUP8 SUB SLT ISZERO PUSH2 0x3506 JUMPI PUSH1 0x0 DUP1 REVERT JUMPDEST DUP5 CALLDATALOAD SWAP4 POP PUSH1 0x20 DUP6 ADD CALLDATALOAD SWAP3 POP PUSH1 0x40 DUP6 ADD CALLDATALOAD SWAP2 POP PUSH1 0x60 DUP6 ADD CALLDATALOAD PUSH2 0x3526 DUP2 PUSH2 0x3820 JUMP JUMPDEST SWAP4 SWAP7 SWAP3 SWAP6 POP SWAP1 SWAP4 POP POP JUMP JUMPDEST PUSH1 0x0 DUP1 PUSH1 0x0 DUP1 PUSH1 0x80 DUP6 DUP8 SUB SLT ISZERO PUSH2 0x3547 JUMPI PUSH1 0x0 DUP1 REVERT JUMPDEST DUP5 CALLDATALOAD SWAP4 POP PUSH1 0x20 DUP6 ADD CALLDATALOAD SWAP3 POP PUSH1 0x40 DUP6 ADD CALLDATALOAD PUSH2 0x3560 DUP2 PUSH2 0x3820 JUMP JUMPDEST SWAP2 POP PUSH1 0x60 DUP6 ADD CALLDATALOAD PUSH2 0x3526 DUP2 PUSH2 0x3820 JUMP JUMPDEST PUSH1 0x0 DUP1 PUSH1 0x0 PUSH1 0x60 DUP5 DUP7 SUB SLT ISZERO PUSH2 0x3585 JUMPI PUSH1 0x0 DUP1 REVERT JUMPDEST POP POP DUP2 CALLDATALOAD SWAP4 PUSH1 0x20 DUP4 ADD CALLDATALOAD SWAP4 POP PUSH1 0x40 SWAP1 SWAP3 ADD CALLDATALOAD SWAP2 SWAP1 POP JUMP JUMPDEST PUSH1 0x0 DUP3 MLOAD PUSH2 0x35AE DUP2 DUP5 PUSH1 0x20 DUP8 ADD PUSH2 0x3755 JUMP JUMPDEST SWAP2 SWAP1 SWAP2 ADD SWAP3 SWAP2 POP POP JUMP JUMPDEST PUSH32 0x416363657373436F6E74726F6C3A206163636F756E7420000000000000000000 DUP2 MSTORE PUSH1 0x0 DUP4 MLOAD PUSH2 0x35F0 DUP2 PUSH1 0x17 DUP6 ADD PUSH1 0x20 DUP9 ADD PUSH2 0x3755 JUMP JUMPDEST PUSH17 0x1034B99036B4B9B9B4B733903937B6329 PUSH1 0x7D SHL PUSH1 0x17 SWAP2 DUP5 ADD SWAP2 DUP3 ADD MSTORE DUP4 MLOAD PUSH2 0x3621 DUP2 PUSH1 0x28 DUP5 ADD PUSH1 0x20 DUP9 ADD PUSH2 0x3755 JUMP JUMPDEST ADD PUSH1 0x28 ADD SWAP5 SWAP4 POP POP POP POP JUMP JUMPDEST PUSH1 0x20 DUP1 DUP3 MSTORE DUP3 MLOAD DUP3 DUP3 ADD DUP2 SWAP1 MSTORE PUSH1 0x0 SWAP2 SWAP1 DUP5 DUP3 ADD SWAP1 PUSH1 0x40 DUP6 ADD SWAP1 DUP5 JUMPDEST DUP2 DUP2 LT ISZERO PUSH2 0x366E JUMPI DUP4 MLOAD PUSH1 0x1 PUSH1 0x1 PUSH1 0xA0 SHL SUB AND DUP4 MSTORE SWAP3 DUP5 ADD SWAP3 SWAP2 DUP5 ADD SWAP2 PUSH1 0x1 ADD PUSH2 0x3649 JUMP JUMPDEST POP SWAP1 SWAP7 SWAP6 POP POP POP POP POP POP JUMP JUMPDEST PUSH1 0x20 DUP1 DUP3 MSTORE DUP3 MLOAD DUP3 DUP3 ADD DUP2 SWAP1 MSTORE PUSH1 0x0 SWAP2 SWAP1 DUP5 DUP3 ADD SWAP1 PUSH1 0x40 DUP6 ADD SWAP1 DUP5 JUMPDEST DUP2 DUP2 LT ISZERO PUSH2 0x366E JUMPI DUP4 MLOAD DUP4 MSTORE SWAP3 DUP5 ADD SWAP3 SWAP2 DUP5 ADD SWAP2 PUSH1 0x1 ADD PUSH2 0x3696 JUMP JUMPDEST PUSH1 0x20 DUP2 MSTORE PUSH1 0x0 DUP3 MLOAD DUP1 PUSH1 0x20 DUP5 ADD MSTORE PUSH2 0x36D1 DUP2 PUSH1 0x40 DUP6 ADD PUSH1 0x20 DUP8 ADD PUSH2 0x3755 JUMP JUMPDEST PUSH1 0x1F ADD PUSH1 0x1F NOT AND SWAP2 SWAP1 SWAP2 ADD PUSH1 0x40 ADD SWAP3 SWAP2 POP POP JUMP JUMPDEST PUSH1 0x0 DUP3 NOT DUP3 GT ISZERO PUSH2 0x36F8 JUMPI PUSH2 0x36F8 PUSH2 0x37B3 JUMP JUMPDEST POP ADD SWAP1 JUMP JUMPDEST PUSH1 0x0 DUP3 PUSH2 0x371A JUMPI PUSH4 0x4E487B71 PUSH1 0xE0 SHL PUSH1 0x0 MSTORE PUSH1 0x12 PUSH1 0x4 MSTORE PUSH1 0x24 PUSH1 0x0 REVERT JUMPDEST POP DIV SWAP1 JUMP JUMPDEST PUSH1 0x0 DUP2 PUSH1 0x0 NOT DIV DUP4 GT DUP3 ISZERO ISZERO AND ISZERO PUSH2 0x3739 JUMPI PUSH2 0x3739 PUSH2 0x37B3 JUMP JUMPDEST POP MUL SWAP1 JUMP JUMPDEST PUSH1 0x0 DUP3 DUP3 LT ISZERO PUSH2 0x3750 JUMPI PUSH2 0x3750 PUSH2 0x37B3 JUMP JUMPDEST POP SUB SWAP1 JUMP JUMPDEST PUSH1 0x0 JUMPDEST DUP4 DUP2 LT ISZERO PUSH2 0x3770 JUMPI DUP2 DUP2 ADD MLOAD DUP4 DUP3 ADD MSTORE PUSH1 0x20 ADD PUSH2 0x3758 JUMP JUMPDEST DUP4 DUP2 GT ISZERO PUSH2 0xE98 JUMPI POP POP PUSH1 0x0 SWAP2 ADD MSTORE JUMP JUMPDEST PUSH1 0x0 DUP2 PUSH2 0x3790 JUMPI PUSH2 0x3790 PUSH2 0x37B3 JUMP JUMPDEST POP PUSH1 0x0 NOT ADD SWAP1 JUMP JUMPDEST PUSH1 0x0 PUSH1 0x0 NOT DUP3 EQ ISZERO PUSH2 0x37AC JUMPI PUSH2 0x37AC PUSH2 0x37B3 JUMP JUMPDEST POP PUSH1 0x1 ADD SWAP1 JUMP JUMPDEST PUSH4 0x4E487B71 PUSH1 0xE0 SHL PUSH1 0x0 MSTORE PUSH1 0x11 PUSH1 0x4 MSTORE PUSH1 0x24 PUSH1 0x0 REVERT JUMPDEST PUSH4 0x4E487B71 PUSH1 0xE0 SHL PUSH1 0x0 MSTORE PUSH1 0x31 PUSH1 0x4 MSTORE PUSH1 0x24 PUSH1 0x0 REVERT JUMPDEST PUSH4 0x4E487B71 PUSH1 0xE0 SHL PUSH1 0x0 MSTORE PUSH1 0x32 PUSH1 0x4 MSTORE PUSH1 0x24 PUSH1 0x0 REVERT JUMPDEST PUSH4 0x4E487B71 PUSH1 0xE0 SHL PUSH1 0x0 MSTORE PUSH1 0x41 PUSH1 0x4 MSTORE PUSH1 0x24 PUSH1 0x0 REVERT JUMPDEST PUSH1 0x1 PUSH1 0x1 PUSH1 0xA0 SHL SUB DUP2 AND DUP2 EQ PUSH2 0x100A JUMPI PUSH1 0x0 DUP1 REVERT JUMPDEST DUP1 ISZERO ISZERO DUP2 EQ PUSH2 0x100A JUMPI PUSH1 0x0 DUP1 REVERT INVALID COINBASE NUMBER MSIZE GASPRICE KECCAK256 POP PUSH16 0x6F6C20646F6573206E6F742065786973 PUSH21 0x4143593A20506F736974696F6E KECCAK256 PUSH5 0x6F6573206E PUSH16 0x74206578697374000000006077685936 0xC8 AND SWAP14 MULMOD KECCAK256 0x4A SAR SWAP8 0xDB SLT 0xE4 OR SGT PC DUP13 CODESIZE 0xE1 0xD2 SWAP11 PUSH2 0x867D RETURNDATASIZE 0xCE 0xE9 DUP11 SELFDESTRUCT LOG2 PUSH5 0x6970667358 0x22 SLT KECCAK256 0x1F SWAP9 CALLVALUE 0xD7 0xB7 SWAP15 0xDE DUP10 0x24 EXTCODECOPY STATICCALL SSTORE 0x27 MSIZE 0xB5 SWAP2 0xC3 DUP4 0xC0 DUP9 PUSH27 0x69108193A72559CA2F3DCE64736F6C634300080600330000000000 "
		},
		"gasEstimates": {
			"creation": {
				"codeDepositCost": "2906400",
				"executionCost": "infinite",
				"totalCost": "infinite"
			},
			"external": {
				"DEFAULT_ADMIN_ROLE()": "306",
				"PAUSER_ROLE()": "283",
				"POOL_MANAGER_ROLE()": "infinite",
				"WHITELISTER_ROLE()": "263",
				"availableBalance(bytes32)": "2548",
				"createPool(address,bytes32[],uint256[],bool)": "infinite",
				"deposit(uint256,uint256,uint256)": "infinite",
				"disableSponsorshipForAddress(address)": "infinite",
				"enableSponsorshipForAddress(address)": "infinite",
				"fund(bytes32,uint256)": "infinite",
				"getAccTokenPerShare(uint256,bytes32)": "infinite",
				"getPendingRewards(uint256,uint256,bytes32)": "infinite",
				"getPoolPositionIdAt(uint256,uint256)": "infinite",
				"getPoolPositions(uint256)": "infinite",
				"getPoolRewardTokenAddresses(uint256)": "infinite",
				"getPoolRewardTokens(uint256)": "infinite",
				"getPoolTokenRewardInfo(uint256,bytes32)": "infinite",
				"getRewardDebt(uint256,uint256,bytes32)": "infinite",
				"getRoleAdmin(bytes32)": "2604",
				"getRoleMember(bytes32,uint256)": "infinite",
				"getRoleMemberCount(bytes32)": "infinite",
				"getTotalRewards(uint256,uint256,bytes32)": "infinite",
				"getUserPositionIdAt(address,uint256,uint256)": "5020",
				"getUserPositions(address,uint256)": "infinite",
				"grantRole(bytes32,address)": "infinite",
				"harvest(uint256,uint256,bool,bool)": "infinite",
				"harvestAll(uint256,bool,bool)": "infinite",
				"hasRole(bytes32,address)": "2806",
				"massUpdatePools()": "infinite",
				"numPoolPositions(uint256)": "infinite",
				"numPools()": "2451",
				"numPositions()": "2407",
				"numUserPositions(address,uint256)": "2795",
				"pause()": "infinite",
				"paused()": "2383",
				"pending(uint256,uint256,bytes32)": "infinite",
				"poolInfo(uint256)": "11177",
				"registerToken(bytes32,address)": "infinite",
				"renounceRole(bytes32,address)": "infinite",
				"revokeRole(bytes32,address)": "infinite",
				"rewardPerBlock(bytes32)": "2571",
				"setAllocPoint(uint256,bytes32,uint256,bool)": "infinite",
				"setRewardPerBlock(bytes32,uint256,bool)": "infinite",
				"stakingPosition(uint256,uint256)": "11195",
				"supportsInterface(bytes4)": "infinite",
				"tokenContract(bytes32)": "2523",
				"totalAllocPoint(bytes32)": "2528",
				"unpause()": "infinite",
				"updatePool(uint256)": "infinite",
				"withdraw(uint256,uint256,uint256)": "infinite"
			},
			"internal": {
				"_harvest(uint256,uint256,bool,bool)": "infinite",
				"sqrt(uint256)": "infinite"
			}
		},
		"methodIdentifiers": {
			"DEFAULT_ADMIN_ROLE()": "a217fddf",
			"PAUSER_ROLE()": "e63ab1e9",
			"POOL_MANAGER_ROLE()": "56d73568",
			"WHITELISTER_ROLE()": "570618e1",
			"availableBalance(bytes32)": "ea8960a4",
			"createPool(address,bytes32[],uint256[],bool)": "9214bd4d",
			"deposit(uint256,uint256,uint256)": "00aeef8a",
			"disableSponsorshipForAddress(address)": "d32fff2b",
			"enableSponsorshipForAddress(address)": "b7a5adca",
			"fund(bytes32,uint256)": "e46bbc9e",
			"getAccTokenPerShare(uint256,bytes32)": "849687c7",
			"getPendingRewards(uint256,uint256,bytes32)": "959b87de",
			"getPoolPositionIdAt(uint256,uint256)": "0baf9081",
			"getPoolPositions(uint256)": "a3461b5a",
			"getPoolRewardTokenAddresses(uint256)": "abfd0954",
			"getPoolRewardTokens(uint256)": "c4ee5c44",
			"getPoolTokenRewardInfo(uint256,bytes32)": "265fb54a",
			"getRewardDebt(uint256,uint256,bytes32)": "d3faade9",
			"getRoleAdmin(bytes32)": "248a9ca3",
			"getRoleMember(bytes32,uint256)": "9010d07c",
			"getRoleMemberCount(bytes32)": "ca15c873",
			"getTotalRewards(uint256,uint256,bytes32)": "dd3256d0",
			"getUserPositionIdAt(address,uint256,uint256)": "2803a1af",
			"getUserPositions(address,uint256)": "942b29e3",
			"grantRole(bytes32,address)": "2f2ff15d",
			"harvest(uint256,uint256,bool,bool)": "2ddc65af",
			"harvestAll(uint256,bool,bool)": "3634bba6",
			"hasRole(bytes32,address)": "91d14854",
			"massUpdatePools()": "630b5ba1",
			"numPoolPositions(uint256)": "f9226d31",
			"numPools()": "35c62bc2",
			"numPositions()": "5e71823b",
			"numUserPositions(address,uint256)": "6dce9fbd",
			"pause()": "8456cb59",
			"paused()": "5c975abb",
			"pending(uint256,uint256,bytes32)": "031bda86",
			"poolInfo(uint256)": "1526fe27",
			"registerToken(bytes32,address)": "2ded0fb5",
			"renounceRole(bytes32,address)": "36568abe",
			"revokeRole(bytes32,address)": "d547741f",
			"rewardPerBlock(bytes32)": "793f0851",
			"setAllocPoint(uint256,bytes32,uint256,bool)": "73bf8761",
			"setRewardPerBlock(bytes32,uint256,bool)": "85096902",
			"stakingPosition(uint256,uint256)": "ad4683a4",
			"supportsInterface(bytes4)": "01ffc9a7",
			"tokenContract(bytes32)": "79dd13ca",
			"totalAllocPoint(bytes32)": "38d6ca99",
			"unpause()": "3f4ba83a",
			"updatePool(uint256)": "51eb05a6",
			"withdraw(uint256,uint256,uint256)": "a41fe49f"
		}
	},
	"abi": [
		{
			"inputs": [],
			"stateMutability": "nonpayable",
			"type": "constructor"
		},
		{
			"anonymous": false,
			"inputs": [
				{
					"indexed": true,
					"internalType": "uint256",
					"name": "poolId",
					"type": "uint256"
				},
				{
					"indexed": false,
					"internalType": "bytes32",
					"name": "token",
					"type": "bytes32"
				},
				{
					"indexed": false,
					"internalType": "uint256",
					"name": "newAllocPoint",
					"type": "uint256"
				}
			],
			"name": "AllocPointUpdated",
			"type": "event"
		},
		{
			"anonymous": false,
			"inputs": [
				{
					"indexed": true,
					"internalType": "address",
					"name": "user",
					"type": "address"
				},
				{
					"indexed": true,
					"internalType": "uint256",
					"name": "poolId",
					"type": "uint256"
				},
				{
					"indexed": true,
					"internalType": "uint256",
					"name": "positionId",
					"type": "uint256"
				},
				{
					"indexed": false,
					"internalType": "uint256",
					"name": "amount",
					"type": "uint256"
				}
			],
			"name": "Deposit",
			"type": "event"
		},
		{
			"anonymous": false,
			"inputs": [
				{
					"indexed": true,
					"internalType": "address",
					"name": "user",
					"type": "address"
				},
				{
					"indexed": true,
					"internalType": "uint256",
					"name": "poolId",
					"type": "uint256"
				},
				{
					"indexed": true,
					"internalType": "uint256",
					"name": "positionId",
					"type": "uint256"
				},
				{
					"indexed": false,
					"internalType": "bytes32",
					"name": "token",
					"type": "bytes32"
				},
				{
					"indexed": false,
					"internalType": "uint256",
					"name": "amount",
					"type": "uint256"
				}
			],
			"name": "Harvest",
			"type": "event"
		},
		{
			"anonymous": false,
			"inputs": [
				{
					"indexed": true,
					"internalType": "uint256",
					"name": "poolId",
					"type": "uint256"
				},
				{
					"indexed": false,
					"internalType": "address",
					"name": "lpToken",
					"type": "address"
				}
			],
			"name": "NewPool",
			"type": "event"
		},
		{
			"anonymous": false,
			"inputs": [
				{
					"indexed": true,
					"internalType": "bytes32",
					"name": "token",
					"type": "bytes32"
				},
				{
					"indexed": false,
					"internalType": "address",
					"name": "addr",
					"type": "address"
				}
			],
			"name": "NewToken",
			"type": "event"
		},
		{
			"anonymous": false,
			"inputs": [
				{
					"indexed": false,
					"internalType": "address",
					"name": "account",
					"type": "address"
				}
			],
			"name": "Paused",
			"type": "event"
		},
		{
			"anonymous": false,
			"inputs": [
				{
					"indexed": false,
					"internalType": "bytes32",
					"name": "token",
					"type": "bytes32"
				},
				{
					"indexed": false,
					"internalType": "uint256",
					"name": "newReward",
					"type": "uint256"
				}
			],
			"name": "RewardPerBlockUpdated",
			"type": "event"
		},
		{
			"anonymous": false,
			"inputs": [
				{
					"indexed": true,
					"internalType": "bytes32",
					"name": "role",
					"type": "bytes32"
				},
				{
					"indexed": true,
					"internalType": "bytes32",
					"name": "previousAdminRole",
					"type": "bytes32"
				},
				{
					"indexed": true,
					"internalType": "bytes32",
					"name": "newAdminRole",
					"type": "bytes32"
				}
			],
			"name": "RoleAdminChanged",
			"type": "event"
		},
		{
			"anonymous": false,
			"inputs": [
				{
					"indexed": true,
					"internalType": "bytes32",
					"name": "role",
					"type": "bytes32"
				},
				{
					"indexed": true,
					"internalType": "address",
					"name": "account",
					"type": "address"
				},
				{
					"indexed": true,
					"internalType": "address",
					"name": "sender",
					"type": "address"
				}
			],
			"name": "RoleGranted",
			"type": "event"
		},
		{
			"anonymous": false,
			"inputs": [
				{
					"indexed": true,
					"internalType": "bytes32",
					"name": "role",
					"type": "bytes32"
				},
				{
					"indexed": true,
					"internalType": "address",
					"name": "account",
					"type": "address"
				},
				{
					"indexed": true,
					"internalType": "address",
					"name": "sender",
					"type": "address"
				}
			],
			"name": "RoleRevoked",
			"type": "event"
		},
		{
			"anonymous": false,
			"inputs": [
				{
					"indexed": true,
					"internalType": "bytes32",
					"name": "token",
					"type": "bytes32"
				},
				{
					"indexed": false,
					"internalType": "uint256",
					"name": "amount",
					"type": "uint256"
				}
			],
			"name": "TokenFunded",
			"type": "event"
		},
		{
			"anonymous": false,
			"inputs": [
				{
					"indexed": false,
					"internalType": "address",
					"name": "account",
					"type": "address"
				}
			],
			"name": "Unpaused",
			"type": "event"
		},
		{
			"anonymous": false,
			"inputs": [
				{
					"indexed": true,
					"internalType": "address",
					"name": "user",
					"type": "address"
				},
				{
					"indexed": true,
					"internalType": "uint256",
					"name": "poolId",
					"type": "uint256"
				},
				{
					"indexed": true,
					"internalType": "uint256",
					"name": "positionId",
					"type": "uint256"
				},
				{
					"indexed": false,
					"internalType": "uint256",
					"name": "amount",
					"type": "uint256"
				}
			],
			"name": "Withdraw",
			"type": "event"
		},
		{
			"inputs": [],
			"name": "DEFAULT_ADMIN_ROLE",
			"outputs": [
				{
					"internalType": "bytes32",
					"name": "",
					"type": "bytes32"
				}
			],
			"stateMutability": "view",
			"type": "function"
		},
		{
			"inputs": [],
			"name": "PAUSER_ROLE",
			"outputs": [
				{
					"internalType": "bytes32",
					"name": "",
					"type": "bytes32"
				}
			],
			"stateMutability": "view",
			"type": "function"
		},
		{
			"inputs": [],
			"name": "POOL_MANAGER_ROLE",
			"outputs": [
				{
					"internalType": "bytes32",
					"name": "",
					"type": "bytes32"
				}
			],
			"stateMutability": "view",
			"type": "function"
		},
		{
			"inputs": [],
			"name": "WHITELISTER_ROLE",
			"outputs": [
				{
					"internalType": "bytes32",
					"name": "",
					"type": "bytes32"
				}
			],
			"stateMutability": "view",
			"type": "function"
		},
		{
			"inputs": [
				{
					"internalType": "bytes32",
					"name": "",
					"type": "bytes32"
				}
			],
			"name": "availableBalance",
			"outputs": [
				{
					"internalType": "uint256",
					"name": "",
					"type": "uint256"
				}
			],
			"stateMutability": "view",
			"type": "function"
		},
		{
			"inputs": [
				{
					"internalType": "contract IERC20",
					"name": "_lpToken",
					"type": "address"
				},
				{
					"internalType": "bytes32[]",
					"name": "_rewardTokens",
					"type": "bytes32[]"
				},
				{
					"internalType": "uint256[]",
					"name": "_allocPoints",
					"type": "uint256[]"
				},
				{
					"internalType": "bool",
					"name": "_withUpdate",
					"type": "bool"
				}
			],
			"name": "createPool",
			"outputs": [],
			"stateMutability": "nonpayable",
			"type": "function"
		},
		{
			"inputs": [
				{
					"internalType": "uint256",
					"name": "_poolId",
					"type": "uint256"
				},
				{
					"internalType": "uint256",
					"name": "_amount",
					"type": "uint256"
				},
				{
					"internalType": "uint256",
					"name": "_lockDuration",
					"type": "uint256"
				}
			],
			"name": "deposit",
			"outputs": [],
			"stateMutability": "nonpayable",
			"type": "function"
		},
		{
			"inputs": [
				{
					"internalType": "address",
					"name": "addr",
					"type": "address"
				}
			],
			"name": "disableSponsorshipForAddress",
			"outputs": [],
			"stateMutability": "nonpayable",
			"type": "function"
		},
		{
			"inputs": [
				{
					"internalType": "address",
					"name": "addr",
					"type": "address"
				}
			],
			"name": "enableSponsorshipForAddress",
			"outputs": [],
			"stateMutability": "nonpayable",
			"type": "function"
		},
		{
			"inputs": [
				{
					"internalType": "bytes32",
					"name": "_token",
					"type": "bytes32"
				},
				{
					"internalType": "uint256",
					"name": "_amount",
					"type": "uint256"
				}
			],
			"name": "fund",
			"outputs": [],
			"stateMutability": "nonpayable",
			"type": "function"
		},
		{
			"inputs": [
				{
					"internalType": "uint256",
					"name": "_poolId",
					"type": "uint256"
				},
				{
					"internalType": "bytes32",
					"name": "_token",
					"type": "bytes32"
				}
			],
			"name": "getAccTokenPerShare",
			"outputs": [
				{
					"internalType": "uint256",
					"name": "",
					"type": "uint256"
				}
			],
			"stateMutability": "view",
			"type": "function"
		},
		{
			"inputs": [
				{
					"internalType": "uint256",
					"name": "_poolId",
					"type": "uint256"
				},
				{
					"internalType": "uint256",
					"name": "_id",
					"type": "uint256"
				},
				{
					"internalType": "bytes32",
					"name": "_token",
					"type": "bytes32"
				}
			],
			"name": "getPendingRewards",
			"outputs": [
				{
					"internalType": "uint256",
					"name": "",
					"type": "uint256"
				}
			],
			"stateMutability": "view",
			"type": "function"
		},
		{
			"inputs": [
				{
					"internalType": "uint256",
					"name": "_poolId",
					"type": "uint256"
				},
				{
					"internalType": "uint256",
					"name": "_index",
					"type": "uint256"
				}
			],
			"name": "getPoolPositionIdAt",
			"outputs": [
				{
					"internalType": "uint256",
					"name": "",
					"type": "uint256"
				}
			],
			"stateMutability": "view",
			"type": "function"
		},
		{
			"inputs": [
				{
					"internalType": "uint256",
					"name": "_poolId",
					"type": "uint256"
				}
			],
			"name": "getPoolPositions",
			"outputs": [
				{
					"internalType": "uint256[]",
					"name": "",
					"type": "uint256[]"
				}
			],
			"stateMutability": "view",
			"type": "function"
		},
		{
			"inputs": [
				{
					"internalType": "uint256",
					"name": "_poolId",
					"type": "uint256"
				}
			],
			"name": "getPoolRewardTokenAddresses",
			"outputs": [
				{
					"internalType": "address[]",
					"name": "addresses",
					"type": "address[]"
				}
			],
			"stateMutability": "view",
			"type": "function"
		},
		{
			"inputs": [
				{
					"internalType": "uint256",
					"name": "_poolId",
					"type": "uint256"
				}
			],
			"name": "getPoolRewardTokens",
			"outputs": [
				{
					"internalType": "bytes32[]",
					"name": "",
					"type": "bytes32[]"
				}
			],
			"stateMutability": "view",
			"type": "function"
		},
		{
			"inputs": [
				{
					"internalType": "uint256",
					"name": "_poolId",
					"type": "uint256"
				},
				{
					"internalType": "bytes32",
					"name": "_token",
					"type": "bytes32"
				}
			],
			"name": "getPoolTokenRewardInfo",
			"outputs": [
				{
					"internalType": "uint256",
					"name": "ap",
					"type": "uint256"
				},
				{
					"internalType": "uint256",
					"name": "totalAp",
					"type": "uint256"
				},
				{
					"internalType": "uint256",
					"name": "tokenPerBlock",
					"type": "uint256"
				},
				{
					"internalType": "uint256",
					"name": "tokenInPoolPerBlock",
					"type": "uint256"
				}
			],
			"stateMutability": "view",
			"type": "function"
		},
		{
			"inputs": [
				{
					"internalType": "uint256",
					"name": "_poolId",
					"type": "uint256"
				},
				{
					"internalType": "uint256",
					"name": "_id",
					"type": "uint256"
				},
				{
					"internalType": "bytes32",
					"name": "_token",
					"type": "bytes32"
				}
			],
			"name": "getRewardDebt",
			"outputs": [
				{
					"internalType": "uint256",
					"name": "",
					"type": "uint256"
				}
			],
			"stateMutability": "view",
			"type": "function"
		},
		{
			"inputs": [
				{
					"internalType": "bytes32",
					"name": "role",
					"type": "bytes32"
				}
			],
			"name": "getRoleAdmin",
			"outputs": [
				{
					"internalType": "bytes32",
					"name": "",
					"type": "bytes32"
				}
			],
			"stateMutability": "view",
			"type": "function"
		},
		{
			"inputs": [
				{
					"internalType": "bytes32",
					"name": "role",
					"type": "bytes32"
				},
				{
					"internalType": "uint256",
					"name": "index",
					"type": "uint256"
				}
			],
			"name": "getRoleMember",
			"outputs": [
				{
					"internalType": "address",
					"name": "",
					"type": "address"
				}
			],
			"stateMutability": "view",
			"type": "function"
		},
		{
			"inputs": [
				{
					"internalType": "bytes32",
					"name": "role",
					"type": "bytes32"
				}
			],
			"name": "getRoleMemberCount",
			"outputs": [
				{
					"internalType": "uint256",
					"name": "",
					"type": "uint256"
				}
			],
			"stateMutability": "view",
			"type": "function"
		},
		{
			"inputs": [
				{
					"internalType": "uint256",
					"name": "_poolId",
					"type": "uint256"
				},
				{
					"internalType": "uint256",
					"name": "_id",
					"type": "uint256"
				},
				{
					"internalType": "bytes32",
					"name": "_token",
					"type": "bytes32"
				}
			],
			"name": "getTotalRewards",
			"outputs": [
				{
					"internalType": "uint256",
					"name": "",
					"type": "uint256"
				}
			],
			"stateMutability": "view",
			"type": "function"
		},
		{
			"inputs": [
				{
					"internalType": "address",
					"name": "_addr",
					"type": "address"
				},
				{
					"internalType": "uint256",
					"name": "_poolId",
					"type": "uint256"
				},
				{
					"internalType": "uint256",
					"name": "_index",
					"type": "uint256"
				}
			],
			"name": "getUserPositionIdAt",
			"outputs": [
				{
					"internalType": "uint256",
					"name": "",
					"type": "uint256"
				}
			],
			"stateMutability": "view",
			"type": "function"
		},
		{
			"inputs": [
				{
					"internalType": "address",
					"name": "_addr",
					"type": "address"
				},
				{
					"internalType": "uint256",
					"name": "_poolId",
					"type": "uint256"
				}
			],
			"name": "getUserPositions",
			"outputs": [
				{
					"internalType": "uint256[]",
					"name": "",
					"type": "uint256[]"
				}
			],
			"stateMutability": "view",
			"type": "function"
		},
		{
			"inputs": [
				{
					"internalType": "bytes32",
					"name": "role",
					"type": "bytes32"
				},
				{
					"internalType": "address",
					"name": "account",
					"type": "address"
				}
			],
			"name": "grantRole",
			"outputs": [],
			"stateMutability": "nonpayable",
			"type": "function"
		},
		{
			"inputs": [
				{
					"internalType": "uint256",
					"name": "_poolId",
					"type": "uint256"
				},
				{
					"internalType": "uint256",
					"name": "_positionId",
					"type": "uint256"
				},
				{
					"internalType": "bool",
					"name": "_closeIfEmpty",
					"type": "bool"
				},
				{
					"internalType": "bool",
					"name": "_revertOnFailure",
					"type": "bool"
				}
			],
			"name": "harvest",
			"outputs": [],
			"stateMutability": "nonpayable",
			"type": "function"
		},
		{
			"inputs": [
				{
					"internalType": "uint256",
					"name": "_poolId",
					"type": "uint256"
				},
				{
					"internalType": "bool",
					"name": "_closeIfEmpty",
					"type": "bool"
				},
				{
					"internalType": "bool",
					"name": "_revertOnFailure",
					"type": "bool"
				}
			],
			"name": "harvestAll",
			"outputs": [],
			"stateMutability": "nonpayable",
			"type": "function"
		},
		{
			"inputs": [
				{
					"internalType": "bytes32",
					"name": "role",
					"type": "bytes32"
				},
				{
					"internalType": "address",
					"name": "account",
					"type": "address"
				}
			],
			"name": "hasRole",
			"outputs": [
				{
					"internalType": "bool",
					"name": "",
					"type": "bool"
				}
			],
			"stateMutability": "view",
			"type": "function"
		},
		{
			"inputs": [],
			"name": "massUpdatePools",
			"outputs": [],
			"stateMutability": "nonpayable",
			"type": "function"
		},
		{
			"inputs": [
				{
					"internalType": "uint256",
					"name": "_poolId",
					"type": "uint256"
				}
			],
			"name": "numPoolPositions",
			"outputs": [
				{
					"internalType": "uint256",
					"name": "",
					"type": "uint256"
				}
			],
			"stateMutability": "view",
			"type": "function"
		},
		{
			"inputs": [],
			"name": "numPools",
			"outputs": [
				{
					"internalType": "uint256",
					"name": "",
					"type": "uint256"
				}
			],
			"stateMutability": "view",
			"type": "function"
		},
		{
			"inputs": [],
			"name": "numPositions",
			"outputs": [
				{
					"internalType": "uint256",
					"name": "",
					"type": "uint256"
				}
			],
			"stateMutability": "view",
			"type": "function"
		},
		{
			"inputs": [
				{
					"internalType": "address",
					"name": "_addr",
					"type": "address"
				},
				{
					"internalType": "uint256",
					"name": "_poolId",
					"type": "uint256"
				}
			],
			"name": "numUserPositions",
			"outputs": [
				{
					"internalType": "uint256",
					"name": "",
					"type": "uint256"
				}
			],
			"stateMutability": "view",
			"type": "function"
		},
		{
			"inputs": [],
			"name": "pause",
			"outputs": [],
			"stateMutability": "nonpayable",
			"type": "function"
		},
		{
			"inputs": [],
			"name": "paused",
			"outputs": [
				{
					"internalType": "bool",
					"name": "",
					"type": "bool"
				}
			],
			"stateMutability": "view",
			"type": "function"
		},
		{
			"inputs": [
				{
					"internalType": "uint256",
					"name": "_poolId",
					"type": "uint256"
				},
				{
					"internalType": "uint256",
					"name": "_id",
					"type": "uint256"
				},
				{
					"internalType": "bytes32",
					"name": "_token",
					"type": "bytes32"
				}
			],
			"name": "pending",
			"outputs": [
				{
					"internalType": "uint256",
					"name": "",
					"type": "uint256"
				}
			],
			"stateMutability": "view",
			"type": "function"
		},
		{
			"inputs": [
				{
					"internalType": "uint256",
					"name": "",
					"type": "uint256"
				}
			],
			"name": "poolInfo",
			"outputs": [
				{
					"internalType": "contract IERC20",
					"name": "lpToken",
					"type": "address"
				},
				{
					"internalType": "uint256",
					"name": "lpBalance",
					"type": "uint256"
				},
				{
					"internalType": "uint256",
					"name": "totalLpScore",
					"type": "uint256"
				},
				{
					"internalType": "uint256",
					"name": "lastUpdateBlock",
					"type": "uint256"
				},
				{
					"internalType": "bool",
					"name": "exists",
					"type": "bool"
				}
			],
			"stateMutability": "view",
			"type": "function"
		},
		{
			"inputs": [
				{
					"internalType": "bytes32",
					"name": "_token",
					"type": "bytes32"
				},
				{
					"internalType": "contract IERC20",
					"name": "_erc20",
					"type": "address"
				}
			],
			"name": "registerToken",
			"outputs": [],
			"stateMutability": "nonpayable",
			"type": "function"
		},
		{
			"inputs": [
				{
					"internalType": "bytes32",
					"name": "role",
					"type": "bytes32"
				},
				{
					"internalType": "address",
					"name": "account",
					"type": "address"
				}
			],
			"name": "renounceRole",
			"outputs": [],
			"stateMutability": "nonpayable",
			"type": "function"
		},
		{
			"inputs": [
				{
					"internalType": "bytes32",
					"name": "role",
					"type": "bytes32"
				},
				{
					"internalType": "address",
					"name": "account",
					"type": "address"
				}
			],
			"name": "revokeRole",
			"outputs": [],
			"stateMutability": "nonpayable",
			"type": "function"
		},
		{
			"inputs": [
				{
					"internalType": "bytes32",
					"name": "",
					"type": "bytes32"
				}
			],
			"name": "rewardPerBlock",
			"outputs": [
				{
					"internalType": "uint256",
					"name": "",
					"type": "uint256"
				}
			],
			"stateMutability": "view",
			"type": "function"
		},
		{
			"inputs": [
				{
					"internalType": "uint256",
					"name": "_poolId",
					"type": "uint256"
				},
				{
					"internalType": "bytes32",
					"name": "_token",
					"type": "bytes32"
				},
				{
					"internalType": "uint256",
					"name": "_allocPoint",
					"type": "uint256"
				},
				{
					"internalType": "bool",
					"name": "_withUpdate",
					"type": "bool"
				}
			],
			"name": "setAllocPoint",
			"outputs": [],
			"stateMutability": "nonpayable",
			"type": "function"
		},
		{
			"inputs": [
				{
					"internalType": "bytes32",
					"name": "_token",
					"type": "bytes32"
				},
				{
					"internalType": "uint256",
					"name": "_newReward",
					"type": "uint256"
				},
				{
					"internalType": "bool",
					"name": "_withUpdate",
					"type": "bool"
				}
			],
			"name": "setRewardPerBlock",
			"outputs": [],
			"stateMutability": "nonpayable",
			"type": "function"
		},
		{
			"inputs": [
				{
					"internalType": "uint256",
					"name": "",
					"type": "uint256"
				},
				{
					"internalType": "uint256",
					"name": "",
					"type": "uint256"
				}
			],
			"name": "stakingPosition",
			"outputs": [
				{
					"internalType": "address",
					"name": "addr",
					"type": "address"
				},
				{
					"internalType": "uint256",
					"name": "lpAmount",
					"type": "uint256"
				},
				{
					"internalType": "uint256",
					"name": "stakeTimestamp",
					"type": "uint256"
				},
				{
					"internalType": "uint256",
					"name": "lockDuration",
					"type": "uint256"
				},
				{
					"internalType": "bool",
					"name": "exists",
					"type": "bool"
				}
			],
			"stateMutability": "view",
			"type": "function"
		},
		{
			"inputs": [
				{
					"internalType": "bytes4",
					"name": "interfaceId",
					"type": "bytes4"
				}
			],
			"name": "supportsInterface",
			"outputs": [
				{
					"internalType": "bool",
					"name": "",
					"type": "bool"
				}
			],
			"stateMutability": "view",
			"type": "function"
		},
		{
			"inputs": [
				{
					"internalType": "bytes32",
					"name": "",
					"type": "bytes32"
				}
			],
			"name": "tokenContract",
			"outputs": [
				{
					"internalType": "contract IERC20",
					"name": "",
					"type": "address"
				}
			],
			"stateMutability": "view",
			"type": "function"
		},
		{
			"inputs": [
				{
					"internalType": "bytes32",
					"name": "",
					"type": "bytes32"
				}
			],
			"name": "totalAllocPoint",
			"outputs": [
				{
					"internalType": "uint256",
					"name": "",
					"type": "uint256"
				}
			],
			"stateMutability": "view",
			"type": "function"
		},
		{
			"inputs": [],
			"name": "unpause",
			"outputs": [],
			"stateMutability": "nonpayable",
			"type": "function"
		},
		{
			"inputs": [
				{
					"internalType": "uint256",
					"name": "_poolId",
					"type": "uint256"
				}
			],
			"name": "updatePool",
			"outputs": [],
			"stateMutability": "nonpayable",
			"type": "function"
		},
		{
			"inputs": [
				{
					"internalType": "uint256",
					"name": "_poolId",
					"type": "uint256"
				},
				{
					"internalType": "uint256",
					"name": "_positionId",
					"type": "uint256"
				},
				{
					"internalType": "uint256",
					"name": "_amount",
					"type": "uint256"
				}
			],
			"name": "withdraw",
			"outputs": [],
			"stateMutability": "nonpayable",
			"type": "function"
		}
	]
}