{
  "contractName": "ACYMultiFarm",
  "abi": [
    {
      "inputs": [],
      "stateMutability": "nonpayable",
      "type": "constructor"
    },
    {
      "anonymous": false,
      "inputs": [
        {
          "indexed": true,
          "internalType": "uint256",
          "name": "poolId",
          "type": "uint256"
        },
        {
          "indexed": false,
          "internalType": "bytes32",
          "name": "token",
          "type": "bytes32"
        },
        {
          "indexed": false,
          "internalType": "uint256",
          "name": "newAllocPoint",
          "type": "uint256"
        }
      ],
      "name": "AllocPointUpdated",
      "type": "event"
    },
    {
      "anonymous": false,
      "inputs": [
        {
          "indexed": true,
          "internalType": "address",
          "name": "user",
          "type": "address"
        },
        {
          "indexed": true,
          "internalType": "uint256",
          "name": "poolId",
          "type": "uint256"
        },
        {
          "indexed": true,
          "internalType": "uint256",
          "name": "positionId",
          "type": "uint256"
        },
        {
          "indexed": false,
          "internalType": "uint256",
          "name": "amount",
          "type": "uint256"
        }
      ],
      "name": "Deposit",
      "type": "event"
    },
    {
      "anonymous": false,
      "inputs": [
        {
          "indexed": true,
          "internalType": "address",
          "name": "user",
          "type": "address"
        },
        {
          "indexed": true,
          "internalType": "uint256",
          "name": "poolId",
          "type": "uint256"
        },
        {
          "indexed": true,
          "internalType": "uint256",
          "name": "positionId",
          "type": "uint256"
        },
        {
          "indexed": false,
          "internalType": "bytes32",
          "name": "token",
          "type": "bytes32"
        },
        {
          "indexed": false,
          "internalType": "uint256",
          "name": "amount",
          "type": "uint256"
        }
      ],
      "name": "Harvest",
      "type": "event"
    },
    {
      "anonymous": false,
      "inputs": [
        {
          "indexed": true,
          "internalType": "uint256",
          "name": "poolId",
          "type": "uint256"
        },
        {
          "indexed": false,
          "internalType": "address",
          "name": "lpToken",
          "type": "address"
        },
        {
          "indexed": false,
          "internalType": "uint256",
          "name": "lockDuration",
          "type": "uint256"
        }
      ],
      "name": "NewPool",
      "type": "event"
    },
    {
      "anonymous": false,
      "inputs": [
        {
          "indexed": true,
          "internalType": "bytes32",
          "name": "token",
          "type": "bytes32"
        },
        {
          "indexed": false,
          "internalType": "address",
          "name": "addr",
          "type": "address"
        }
      ],
      "name": "NewToken",
      "type": "event"
    },
    {
      "anonymous": false,
      "inputs": [
        {
          "indexed": false,
          "internalType": "address",
          "name": "account",
          "type": "address"
        }
      ],
      "name": "Paused",
      "type": "event"
    },
    {
      "anonymous": false,
      "inputs": [
        {
          "indexed": false,
          "internalType": "bytes32",
          "name": "token",
          "type": "bytes32"
        },
        {
          "indexed": false,
          "internalType": "uint256",
          "name": "newReward",
          "type": "uint256"
        }
      ],
      "name": "RewardPerBlockUpdated",
      "type": "event"
    },
    {
      "anonymous": false,
      "inputs": [
        {
          "indexed": true,
          "internalType": "bytes32",
          "name": "role",
          "type": "bytes32"
        },
        {
          "indexed": true,
          "internalType": "bytes32",
          "name": "previousAdminRole",
          "type": "bytes32"
        },
        {
          "indexed": true,
          "internalType": "bytes32",
          "name": "newAdminRole",
          "type": "bytes32"
        }
      ],
      "name": "RoleAdminChanged",
      "type": "event"
    },
    {
      "anonymous": false,
      "inputs": [
        {
          "indexed": true,
          "internalType": "bytes32",
          "name": "role",
          "type": "bytes32"
        },
        {
          "indexed": true,
          "internalType": "address",
          "name": "account",
          "type": "address"
        },
        {
          "indexed": true,
          "internalType": "address",
          "name": "sender",
          "type": "address"
        }
      ],
      "name": "RoleGranted",
      "type": "event"
    },
    {
      "anonymous": false,
      "inputs": [
        {
          "indexed": true,
          "internalType": "bytes32",
          "name": "role",
          "type": "bytes32"
        },
        {
          "indexed": true,
          "internalType": "address",
          "name": "account",
          "type": "address"
        },
        {
          "indexed": true,
          "internalType": "address",
          "name": "sender",
          "type": "address"
        }
      ],
      "name": "RoleRevoked",
      "type": "event"
    },
    {
      "anonymous": false,
      "inputs": [
        {
          "indexed": true,
          "internalType": "bytes32",
          "name": "token",
          "type": "bytes32"
        },
        {
          "indexed": false,
          "internalType": "uint256",
          "name": "amount",
          "type": "uint256"
        }
      ],
      "name": "TokenFunded",
      "type": "event"
    },
    {
      "anonymous": false,
      "inputs": [
        {
          "indexed": false,
          "internalType": "address",
          "name": "account",
          "type": "address"
        }
      ],
      "name": "Unpaused",
      "type": "event"
    },
    {
      "anonymous": false,
      "inputs": [
        {
          "indexed": true,
          "internalType": "address",
          "name": "user",
          "type": "address"
        },
        {
          "indexed": true,
          "internalType": "uint256",
          "name": "poolId",
          "type": "uint256"
        },
        {
          "indexed": true,
          "internalType": "uint256",
          "name": "positionId",
          "type": "uint256"
        },
        {
          "indexed": false,
          "internalType": "uint256",
          "name": "amount",
          "type": "uint256"
        }
      ],
      "name": "Withdraw",
      "type": "event"
    },
    {
      "inputs": [],
      "name": "DEFAULT_ADMIN_ROLE",
      "outputs": [
        {
          "internalType": "bytes32",
          "name": "",
          "type": "bytes32"
        }
      ],
      "stateMutability": "view",
      "type": "function"
    },
    {
      "inputs": [],
      "name": "PAUSER_ROLE",
      "outputs": [
        {
          "internalType": "bytes32",
          "name": "",
          "type": "bytes32"
        }
      ],
      "stateMutability": "view",
      "type": "function"
    },
    {
      "inputs": [],
      "name": "POOL_MANAGER_ROLE",
      "outputs": [
        {
          "internalType": "bytes32",
          "name": "",
          "type": "bytes32"
        }
      ],
      "stateMutability": "view",
      "type": "function"
    },
    {
      "inputs": [],
      "name": "WHITELISTER_ROLE",
      "outputs": [
        {
          "internalType": "bytes32",
          "name": "",
          "type": "bytes32"
        }
      ],
      "stateMutability": "view",
      "type": "function"
    },
    {
      "inputs": [
        {
          "internalType": "bytes32",
          "name": "",
          "type": "bytes32"
        }
      ],
      "name": "availableBalance",
      "outputs": [
        {
          "internalType": "uint256",
          "name": "",
          "type": "uint256"
        }
      ],
      "stateMutability": "view",
      "type": "function"
    },
    {
      "inputs": [
        {
          "internalType": "bytes32",
          "name": "role",
          "type": "bytes32"
        }
      ],
      "name": "getRoleAdmin",
      "outputs": [
        {
          "internalType": "bytes32",
          "name": "",
          "type": "bytes32"
        }
      ],
      "stateMutability": "view",
      "type": "function"
    },
    {
      "inputs": [
        {
          "internalType": "bytes32",
          "name": "role",
          "type": "bytes32"
        },
        {
          "internalType": "uint256",
          "name": "index",
          "type": "uint256"
        }
      ],
      "name": "getRoleMember",
      "outputs": [
        {
          "internalType": "address",
          "name": "",
          "type": "address"
        }
      ],
      "stateMutability": "view",
      "type": "function"
    },
    {
      "inputs": [
        {
          "internalType": "bytes32",
          "name": "role",
          "type": "bytes32"
        }
      ],
      "name": "getRoleMemberCount",
      "outputs": [
        {
          "internalType": "uint256",
          "name": "",
          "type": "uint256"
        }
      ],
      "stateMutability": "view",
      "type": "function"
    },
    {
      "inputs": [
        {
          "internalType": "bytes32",
          "name": "role",
          "type": "bytes32"
        },
        {
          "internalType": "address",
          "name": "account",
          "type": "address"
        }
      ],
      "name": "grantRole",
      "outputs": [],
      "stateMutability": "nonpayable",
      "type": "function"
    },
    {
      "inputs": [
        {
          "internalType": "bytes32",
          "name": "role",
          "type": "bytes32"
        },
        {
          "internalType": "address",
          "name": "account",
          "type": "address"
        }
      ],
      "name": "hasRole",
      "outputs": [
        {
          "internalType": "bool",
          "name": "",
          "type": "bool"
        }
      ],
      "stateMutability": "view",
      "type": "function"
    },
    {
      "inputs": [],
      "name": "numPools",
      "outputs": [
        {
          "internalType": "uint256",
          "name": "",
          "type": "uint256"
        }
      ],
      "stateMutability": "view",
      "type": "function"
    },
    {
      "inputs": [],
      "name": "numPositions",
      "outputs": [
        {
          "internalType": "uint256",
          "name": "",
          "type": "uint256"
        }
      ],
      "stateMutability": "view",
      "type": "function"
    },
    {
      "inputs": [],
      "name": "paused",
      "outputs": [
        {
          "internalType": "bool",
          "name": "",
          "type": "bool"
        }
      ],
      "stateMutability": "view",
      "type": "function"
    },
    {
      "inputs": [
        {
          "internalType": "uint256",
          "name": "",
          "type": "uint256"
        }
      ],
      "name": "poolInfo",
      "outputs": [
        {
          "internalType": "contract IERC20",
          "name": "lpToken",
          "type": "address"
        },
        {
          "internalType": "uint256",
          "name": "lockDuration",
          "type": "uint256"
        },
        {
          "internalType": "uint256",
          "name": "lpBalance",
          "type": "uint256"
        },
        {
          "internalType": "uint256",
          "name": "lastUpdateBlock",
          "type": "uint256"
        },
        {
          "internalType": "bool",
          "name": "exists",
          "type": "bool"
        }
      ],
      "stateMutability": "view",
      "type": "function"
    },
    {
      "inputs": [
        {
          "internalType": "bytes32",
          "name": "role",
          "type": "bytes32"
        },
        {
          "internalType": "address",
          "name": "account",
          "type": "address"
        }
      ],
      "name": "renounceRole",
      "outputs": [],
      "stateMutability": "nonpayable",
      "type": "function"
    },
    {
      "inputs": [
        {
          "internalType": "bytes32",
          "name": "role",
          "type": "bytes32"
        },
        {
          "internalType": "address",
          "name": "account",
          "type": "address"
        }
      ],
      "name": "revokeRole",
      "outputs": [],
      "stateMutability": "nonpayable",
      "type": "function"
    },
    {
      "inputs": [
        {
          "internalType": "bytes32",
          "name": "",
          "type": "bytes32"
        }
      ],
      "name": "rewardPerBlock",
      "outputs": [
        {
          "internalType": "uint256",
          "name": "",
          "type": "uint256"
        }
      ],
      "stateMutability": "view",
      "type": "function"
    },
    {
      "inputs": [
        {
          "internalType": "bytes4",
          "name": "interfaceId",
          "type": "bytes4"
        }
      ],
      "name": "supportsInterface",
      "outputs": [
        {
          "internalType": "bool",
          "name": "",
          "type": "bool"
        }
      ],
      "stateMutability": "view",
      "type": "function"
    },
    {
      "inputs": [
        {
          "internalType": "bytes32",
          "name": "",
          "type": "bytes32"
        }
      ],
      "name": "tokenContract",
      "outputs": [
        {
          "internalType": "contract IERC20",
          "name": "",
          "type": "address"
        }
      ],
      "stateMutability": "view",
      "type": "function"
    },
    {
      "inputs": [
        {
          "internalType": "bytes32",
          "name": "",
          "type": "bytes32"
        }
      ],
      "name": "totalAllocPoint",
      "outputs": [
        {
          "internalType": "uint256",
          "name": "",
          "type": "uint256"
        }
      ],
      "stateMutability": "view",
      "type": "function"
    },
    {
      "inputs": [
        {
          "internalType": "bytes32",
          "name": "_token",
          "type": "bytes32"
        },
        {
          "internalType": "contract IERC20",
          "name": "_erc20",
          "type": "address"
        }
      ],
      "name": "registerToken",
      "outputs": [],
      "stateMutability": "nonpayable",
      "type": "function"
    },
    {
      "inputs": [
        {
          "internalType": "contract IERC20",
          "name": "_lpToken",
          "type": "address"
        },
        {
          "internalType": "uint256",
          "name": "_lockDuration",
          "type": "uint256"
        },
        {
          "internalType": "bytes32[]",
          "name": "_rewardTokens",
          "type": "bytes32[]"
        },
        {
          "internalType": "uint256[]",
          "name": "_allocPoints",
          "type": "uint256[]"
        },
        {
          "internalType": "bool",
          "name": "_withUpdate",
          "type": "bool"
        }
      ],
      "name": "createPool",
      "outputs": [],
      "stateMutability": "nonpayable",
      "type": "function"
    },
    {
      "inputs": [
        {
          "internalType": "bytes32",
          "name": "_token",
          "type": "bytes32"
        },
        {
          "internalType": "uint256",
          "name": "_amount",
          "type": "uint256"
        }
      ],
      "name": "fund",
      "outputs": [],
      "stateMutability": "nonpayable",
      "type": "function"
    },
    {
      "inputs": [
        {
          "internalType": "uint256",
          "name": "_poolId",
          "type": "uint256"
        },
        {
          "internalType": "bytes32",
          "name": "_token",
          "type": "bytes32"
        },
        {
          "internalType": "uint256",
          "name": "_allocPoint",
          "type": "uint256"
        },
        {
          "internalType": "bool",
          "name": "_withUpdate",
          "type": "bool"
        }
      ],
      "name": "setAllocPoint",
      "outputs": [],
      "stateMutability": "nonpayable",
      "type": "function"
    },
    {
      "inputs": [
        {
          "internalType": "bytes32",
          "name": "_token",
          "type": "bytes32"
        },
        {
          "internalType": "uint256",
          "name": "_newReward",
          "type": "uint256"
        },
        {
          "internalType": "bool",
          "name": "_withUpdate",
          "type": "bool"
        }
      ],
      "name": "setRewardPerBlock",
      "outputs": [],
      "stateMutability": "nonpayable",
      "type": "function"
    },
    {
      "inputs": [],
      "name": "pause",
      "outputs": [],
      "stateMutability": "nonpayable",
      "type": "function"
    },
    {
      "inputs": [],
      "name": "unpause",
      "outputs": [],
      "stateMutability": "nonpayable",
      "type": "function"
    },
    {
      "inputs": [
        {
          "internalType": "address",
          "name": "addr",
          "type": "address"
        }
      ],
      "name": "enableSponsorshipForAddress",
      "outputs": [],
      "stateMutability": "nonpayable",
      "type": "function"
    },
    {
      "inputs": [
        {
          "internalType": "address",
          "name": "addr",
          "type": "address"
        }
      ],
      "name": "disableSponsorshipForAddress",
      "outputs": [],
      "stateMutability": "nonpayable",
      "type": "function"
    },
    {
      "inputs": [
        {
          "internalType": "uint256",
          "name": "_poolId",
          "type": "uint256"
        },
        {
          "internalType": "uint256",
          "name": "_amount",
          "type": "uint256"
        }
      ],
      "name": "deposit",
      "outputs": [],
      "stateMutability": "nonpayable",
      "type": "function"
    },
    {
      "inputs": [
        {
          "internalType": "uint256",
          "name": "_poolId",
          "type": "uint256"
        },
        {
          "internalType": "uint256",
          "name": "_positionId",
          "type": "uint256"
        },
        {
          "internalType": "uint256",
          "name": "_amount",
          "type": "uint256"
        }
      ],
      "name": "withdraw",
      "outputs": [],
      "stateMutability": "nonpayable",
      "type": "function"
    },
    {
      "inputs": [
        {
          "internalType": "uint256",
          "name": "_poolId",
          "type": "uint256"
        },
        {
          "internalType": "uint256",
          "name": "_positionId",
          "type": "uint256"
        },
        {
          "internalType": "bool",
          "name": "_closeIfEmpty",
          "type": "bool"
        },
        {
          "internalType": "bool",
          "name": "_revertOnFailure",
          "type": "bool"
        }
      ],
      "name": "harvest",
      "outputs": [],
      "stateMutability": "nonpayable",
      "type": "function"
    },
    {
      "inputs": [
        {
          "internalType": "uint256",
          "name": "_poolId",
          "type": "uint256"
        },
        {
          "internalType": "bool",
          "name": "_closeIfEmpty",
          "type": "bool"
        },
        {
          "internalType": "bool",
          "name": "_revertOnFailure",
          "type": "bool"
        }
      ],
      "name": "harvestAll",
      "outputs": [],
      "stateMutability": "nonpayable",
      "type": "function"
    },
    {
      "inputs": [
        {
          "internalType": "uint256",
          "name": "_poolId",
          "type": "uint256"
        }
      ],
      "name": "updatePool",
      "outputs": [],
      "stateMutability": "nonpayable",
      "type": "function"
    },
    {
      "inputs": [],
      "name": "massUpdatePools",
      "outputs": [],
      "stateMutability": "nonpayable",
      "type": "function"
    },
    {
      "inputs": [
        {
          "internalType": "uint256",
          "name": "_poolId",
          "type": "uint256"
        },
        {
          "internalType": "uint256",
          "name": "_id",
          "type": "uint256"
        },
        {
          "internalType": "bytes32",
          "name": "_token",
          "type": "bytes32"
        }
      ],
      "name": "pending",
      "outputs": [
        {
          "internalType": "uint256",
          "name": "",
          "type": "uint256"
        }
      ],
      "stateMutability": "view",
      "type": "function"
    },
    {
      "inputs": [
        {
          "internalType": "address",
          "name": "_addr",
          "type": "address"
        },
        {
          "internalType": "uint256",
          "name": "_poolId",
          "type": "uint256"
        }
      ],
      "name": "getUserPositions",
      "outputs": [
        {
          "internalType": "uint256[]",
          "name": "",
          "type": "uint256[]"
        }
      ],
      "stateMutability": "view",
      "type": "function"
    },
    {
      "inputs": [
        {
          "internalType": "bytes32",
          "name": "_token",
          "type": "bytes32"
        }
      ],
      "name": "numFundedBlocks",
      "outputs": [
        {
          "internalType": "uint256",
          "name": "",
          "type": "uint256"
        }
      ],
      "stateMutability": "view",
      "type": "function"
    }
  ],
  "bytecode": "0x6080604052600060045560006006553480156200001b57600080fd5b506002805460ff191690556001600355620000577f6077685936c8169d09204a1d97db12e41713588c38e1d29a61867d3dcee98aff33620000b5565b620000837f65d7a28e3265b37a6474929f336521b332c1681b933f6cb9f3376673440d862a33620000b5565b620000af7f8619cecd8b9e095ab43867f5b69d492180450fe862e6b50bfbfb24b75dd84c8a33620000b5565b6200021a565b620000cc8282620000f860201b62001aec1760201c565b6000828152600160209081526040909120620000f391839062001afa62000108821b17901c565b505050565b62000104828262000128565b5050565b60006200011f836001600160a01b038416620001c8565b90505b92915050565b6000828152602081815260408083206001600160a01b038516845290915290205460ff1662000104576000828152602081815260408083206001600160a01b03851684529091529020805460ff19166001179055620001843390565b6001600160a01b0316816001600160a01b0316837f2f8788117e7eff1d82e926ec794901d17c78024a50270940304540a733656f0d60405160405180910390a45050565b6000818152600183016020526040812054620002115750815460018181018455600084815260208082209093018490558454848252828601909352604090209190915562000122565b50600062000122565b612f5e806200022a6000396000f3fe608060405234801561001057600080fd5b50600436106102325760003560e01c806373bf876111610130578063a41fe49f116100b8578063dad16efa1161007c578063dad16efa1461056e578063e2bbb15814610581578063e46bbc9e14610594578063e63ab1e9146105a7578063ea8960a4146105ce57600080fd5b8063a41fe49f1461050f578063b7a5adca14610522578063ca15c87314610535578063d32fff2b14610548578063d547741f1461055b57600080fd5b806385096902116100ff57806385096902146104ae5780639010d07c146104c157806391d14854146104d4578063942b29e3146104e7578063a217fddf1461050757600080fd5b806373bf876114610432578063793f08511461044557806379dd13ca146104655780638456cb59146104a657600080fd5b80633634bba6116101be57806356d735681161018257806356d73568146103da578063570618e1146103ef5780635c975abb146104165780635e71823b14610421578063630b5ba11461042a57600080fd5b80633634bba61461037957806336568abe1461038c57806338d6ca991461039f5780633f4ba83a146103bf57806351eb05a6146103c757600080fd5b8063248a9ca311610205578063248a9ca3146103125780632ddc65af146103355780632ded0fb51461034a5780632f2ff15d1461035d57806335c62bc21461037057600080fd5b806301ffc9a714610237578063031bda861461025f5780630e2bfe58146102805780631526fe2714610293575b600080fd5b61024a610245366004612a90565b6105ee565b60405190151581526020015b60405180910390f35b61027261026d366004612c2a565b610619565b604051908152602001610256565b61027261028e3660046129ec565b6107f8565b6102de6102a13660046129ec565b6005602081905260009182526040909120805460018201546004830154938301546007909301546001600160a01b03909216939092909160ff1685565b604080516001600160a01b03909616865260208601949094529284019190915260608301521515608082015260a001610256565b6102726103203660046129ec565b60009081526020819052604090206001015490565b610348610343366004612beb565b6108fd565b005b610348610358366004612a05565b61090f565b61034861036b366004612a05565b61098d565b61027260045481565b610348610387366004612b73565b6109b4565b61034861039a366004612a05565b610a26565b6102726103ad3660046129ec565b600b6020526000908152604090205481565b610348610a48565b6103486103d53660046129ec565b610a7e565b610272600080516020612f0983398151915281565b6102727f8619cecd8b9e095ab43867f5b69d492180450fe862e6b50bfbfb24b75dd84c8a81565b60025460ff1661024a565b61027260065481565b610348610bf1565b610348610440366004612baa565b610c17565b6102726104533660046129ec565b600a6020526000908152604090205481565b61048e6104733660046129ec565b600c602052600090815260409020546001600160a01b031681565b6040516001600160a01b039091168152602001610256565b610348610d2e565b6103486104bc366004612a57565b610d61565b61048e6104cf366004612a35565b610dd9565b61024a6104e2366004612a05565b610df1565b6104fa6104f53660046129a3565b610e1a565b6040516102569190612d34565b610272600081565b61034861051d366004612c2a565b610e49565b610348610530366004612986565b611301565b6102726105433660046129ec565b6113e0565b610348610556366004612986565b6113f7565b610348610569366004612a05565b61149e565b61034861057c366004612aba565b6114a8565b61034861058f366004612a35565b6117d5565b6103486105a2366004612a35565b6119fb565b6102727f65d7a28e3265b37a6474929f336521b332c1681b933f6cb9f3376673440d862a81565b6102726105dc3660046129ec565b60096020526000908152604090205481565b60006001600160e01b03198216635a05180f60e01b1480610613575061061382611b0f565b92915050565b60008381526005602090815260408083206007810154825180840190935260188352600080516020612ee9833981519152938301939093529160ff1661067b5760405162461bcd60e51b81526004016106729190612d6c565b60405180910390fd5b50600085815260076020908152604080832087845282529182902060058101548351808501909452601c84527f4143593a20506f736974696f6e20646f6573206e6f742065786973740000000092840192909252919060ff166106f15760405162461bcd60e51b81526004016106729190612d6c565b506000848152600683016020526040902054600483015480156107935760008460050154436107209190612df8565b6000888152600b602090815260408083205460038a01835281842054600a9093529083205493945091926107549085612dd9565b61075e9190612dd9565b6107689190612db7565b90508261077a8264e8d4a51000612dd9565b6107849190612db7565b61078e9085612d9f565b935050505b6000868152600484016020526040902054600184015464e8d4a51000906107bb908590612dd9565b6107c59190612db7565b60008881526003860160205260409020546107e09190612d9f565b6107ea9190612df8565b9450505050505b9392505050565b6000818152600c60209081526040808320548151808301909252601282527120a1ac9d102ab735b737bbb7103a37b5b2b760711b928201929092526001600160a01b03909116908161085d5760405162461bcd60e51b81526004016106729190612d6c565b506040516370a0823160e01b81523060048201526000906001600160a01b038316906370a082319060240160206040518083038186803b1580156108a057600080fd5b505afa1580156108b4573d6000803e3d6000fd5b505050506040513d601f19601f820116820180604052508101906108d89190612b5a565b6000858152600a60205260409020549091506108f48183612db7565b95945050505050565b61090984848484611b44565b50505050565b600080516020612f098339815191526109288133611f46565b6000838152600c602090815260409182902080546001600160a01b0319166001600160a01b038616908117909155915191825284917ff80339a3e391e45ece64c63579ae16b439563d8317481bb8200fcb0671f93590910160405180910390a2505050565b6109978282611f84565b60008281526001602052604090206109af9082611afa565b505050565b60005b33600090815260086020908152604080832087845290915290206109da90611faa565b811015610909573360009081526008602090815260408083208784529091528120610a059083611fb4565b9050610a1385828686611b44565b5080610a1e81612e52565b9150506109b7565b610a308282611fc0565b60008281526001602052604090206109af908261203a565b7f65d7a28e3265b37a6474929f336521b332c1681b933f6cb9f3376673440d862a610a738133611f46565b610a7b61204f565b50565b6000818152600560209081526040918290206007810154835180850190945260188452600080516020612ee983398151915292840192909252919060ff16610ad95760405162461bcd60e51b81526004016106729190612d6c565b5080600501544311610ae9575050565b600481015480610afe57504360059091015550565b6000826005015443610b109190612df8565b905060005b6002840154811015610be1576000846002018281548110610b3857610b38612e99565b6000918252602080832090910154808352600b825260408084205460038a01845281852054600a909452908420549194509190610b759087612dd9565b610b7f9190612dd9565b610b899190612db7565b905084610b9b8264e8d4a51000612dd9565b610ba59190612db7565b600083815260068801602052604081208054909190610bc5908490612d9f565b9250508190555050508080610bd990612e52565b915050610b15565b5043836005018190555050505050565b60005b600454811015610a7b57610c0781610a7e565b610c1081612e52565b9050610bf4565b600080516020612f09833981519152610c308133611f46565b6000858152600560209081526040918290206007810154835180850190945260188452600080516020612ee983398151915292840192909252919060ff16610c8b5760405162461bcd60e51b81526004016106729190612d6c565b508215610c9a57610c9a610bf1565b6000858152600382016020908152604080832054600b909252909120548591610cc291612df8565b610ccc9190612d9f565b6000868152600b602090815260408083209390935560038401815290829020869055815187815290810186905287917f6096a506a56b62e1e89ba38de21bee0baa72624ed4a165d1e3b4ba0b34899a52910160405180910390a2505050505050565b7f65d7a28e3265b37a6474929f336521b332c1681b933f6cb9f3376673440d862a610d598133611f46565b610a7b6120e2565b600080516020612f09833981519152610d7a8133611f46565b8115610d8857610d88610bf1565b6000848152600a602090815260409182902085905581518681529081018590527f756cb3b03a8aade0ed86a377d5b21dbb522872b6500426a0d908a88b7e61618a910160405180910390a150505050565b60008281526001602052604081206107f19083611fb4565b6000918252602082815260408084206001600160a01b0393909316845291905290205460ff1690565b6001600160a01b038216600090815260086020908152604080832084845290915290206060906107f19061215d565b60026003541415610e9c5760405162461bcd60e51b815260206004820152601f60248201527f5265656e7472616e637947756172643a207265656e7472616e742063616c6c006044820152606401610672565b6002600355610eaa83610a7e565b60008111610ef35760405162461bcd60e51b815260206004820152601660248201527504143593a2043616e6e6f7420776974686472617720360541b6044820152606401610672565b6000838152600560209081526040918290206007810154835180850190945260188452600080516020612ee983398151915292840192909252919060ff16610f4e5760405162461bcd60e51b81526004016106729190612d6c565b508060040154821115610fa35760405162461bcd60e51b815260206004820152601c60248201527f4143593a20496e73756666696369656e74204c502062616c616e6365000000006044820152606401610672565b600084815260076020908152604080832086845282529182902060058101548351808501909452601c84527f4143593a20506f736974696f6e20646f6573206e6f742065786973740000000092840192909252919060ff166110185760405162461bcd60e51b81526004016106729190612d6c565b5080546040805180820190915260118152701050d64e88155b985d5d1a1bdc9a5e9959607a1b6020820152906001600160a01b0316331461106c5760405162461bcd60e51b81526004016106729190612d6c565b50600182015460028201546110819042612df8565b10156110c65760405162461bcd60e51b81526020600482015260146024820152734143593a204e6f206561726c7920756e6c6f636b60601b6044820152606401610672565b806001015483111561111a5760405162461bcd60e51b815260206004820152601c60248201527f4143593a20496e73756666696369656e74204c502062616c616e6365000000006044820152606401610672565b60005b60028301548110156111d757600083600201828154811061114057611140612e99565b600091825260208083209091015480835260048601825260408084205460068901909352832054600187015491945064e8d4a51000916111809190612dd9565b61118a9190612db7565b6111949190612df8565b90508084600301600084815260200190815260200160002060008282546111bb9190612d9f565b92505081905550505080806111cf90612e52565b91505061111d565b50828160010160008282546111ec9190612df8565b92505081905550828260040160008282546112079190612df8565b90915550600090505b600283015481101561129957600083600201828154811061123357611233612e99565b9060005260206000200154905064e8d4a5100084600601600083815260200190815260200160002054846001015461126b9190612dd9565b6112759190612db7565b6000918252600484016020526040909120558061129181612e52565b915050611210565b5081546112b0906001600160a01b0316338561216a565b8385336001600160a01b03167f02f25270a4d87bea75db541cdfe559334a275b4a233520ed6c0a2429667cca94866040516112ed91815260200190565b60405180910390a450506001600355505050565b7f8619cecd8b9e095ab43867f5b69d492180450fe862e6b50bfbfb24b75dd84c8a61132c8133611f46565b604080516001808252818301909252600161011160931b01916000919060208083019080368337019050509050838160008151811061136d5761136d612e99565b6001600160a01b039283166020918202929092010152604051630809469f60e11b8152908316906310128d3e906113a8908490600401612ce7565b600060405180830381600087803b1580156113c257600080fd5b505af11580156113d6573d6000803e3d6000fd5b5050505050505050565b600081815260016020526040812061061390611faa565b7f8619cecd8b9e095ab43867f5b69d492180450fe862e6b50bfbfb24b75dd84c8a6114228133611f46565b604080516001808252818301909252600161011160931b01916000919060208083019080368337019050509050838160008151811061146357611463612e99565b6001600160a01b03928316602091820292909201015260405163694996db60e11b81529083169063d2932db6906113a8908490600401612ce7565b610a3082826121cd565b600080516020612f098339815191526114c18133611f46565b6001600160a01b0388166115175760405162461bcd60e51b815260206004820152601760248201527f4143593a20496e76616c6964204c5020616464726573730000000000000000006044820152606401610672565b84831461155d5760405162461bcd60e51b815260206004820152601460248201527308286b2744098cadccee8d040dad2e6dac2e8c6d60631b6044820152606401610672565b60005b8581101561160257600087878381811061157c5761157c612e99565b602090810292909201356000818152600c8452604090819020548151808301909252601282527120a1ac9d102ab735b737bbb7103a37b5b2b760711b94820194909452909350916001600160a01b0316151590506115ed5760405162461bcd60e51b81526004016106729190612d6c565b505080806115fa90612e52565b915050611560565b50811561161157611611610bf1565b600480546000918261162283612e52565b90915550600081815260056020526040902080546001600160a01b0319166001600160a01b038c16178155600181018a90559091506116656002820189896128da565b5043600582015560078101805460ff1916600117905560005b8781101561178457600089898381811061169a5761169a612e99565b9050602002013590508787838181106116b5576116b5612e99565b90506020020135836003016000838152602001908152602001600020819055508787838181106116e7576116e7612e99565b90506020020135600b600083815260200190815260200160002060008282546117109190612d9f565b909155508490507f6096a506a56b62e1e89ba38de21bee0baa72624ed4a165d1e3b4ba0b34899a52828a8a8681811061174b5761174b612e99565b90506020020135604051611769929190918252602082015260400190565b60405180910390a2508061177c81612e52565b91505061167e565b50604080516001600160a01b038c168152602081018b905283917feb5b1b786d9b00ebba09bbefa89ef219c929ae75f21e3ac1a70d57b6f75911b6910160405180910390a250505050505050505050565b60025460ff161561181b5760405162461bcd60e51b815260206004820152601060248201526f14185d5cd8589b194e881c185d5cd95960821b6044820152606401610672565b61182482610a7e565b6000828152600560209081526040918290206007810154835180850190945260188452600080516020612ee983398151915292840192909252919060ff1661187f5760405162461bcd60e51b81526004016106729190612d6c565b50600680546000918261189183612e52565b909155506000858152600760209081526040808320848452825280832080546001600160a01b03191633908117825560018083018a905542600284015560058301805460ff19169091179055845260088352818420898552909252909120919250906118fd90836121f3565b5060005b600284015481101561198a57600084600201828154811061192457611924612e99565b9060005260206000200154905064e8d4a5100085600601600083815260200190815260200160002054846001015461195c9190612dd9565b6119669190612db7565b6000918252600484016020526040909120558061198281612e52565b915050611901565b5082546119a2906001600160a01b03163330876121ff565b838360040160008282546119b69190612d9f565b90915550506040518481528290869033907f36af321ec8d3c75236829c5317affd40ddb308863a1236d2d277a4025cccee1e9060200160405180910390a45050505050565b600080516020612f09833981519152611a148133611f46565b6000838152600c6020908152604091829020548251808401909352601283527120a1ac9d102ab735b737bbb7103a37b5b2b760711b918301919091526001600160a01b03169081611a785760405162461bcd60e51b81526004016106729190612d6c565b50611a8e6001600160a01b0382163330866121ff565b60008481526009602052604081208054859290611aac908490612d9f565b909155505060405183815284907f68f079265ae908d13eb803490bb7e3056a61413040af8e0f0e2eebb98648c79d9060200160405180910390a250505050565b611af68282612237565b5050565b60006107f1836001600160a01b0384166122bb565b60006001600160e01b03198216637965db0b60e01b148061061357506301ffc9a760e01b6001600160e01b0319831614610613565b60026003541415611b975760405162461bcd60e51b815260206004820152601f60248201527f5265656e7472616e637947756172643a207265656e7472616e742063616c6c006044820152606401610672565b6002600355611ba584610a7e565b6000848152600560209081526040918290206007810154835180850190945260188452600080516020612ee983398151915292840192909252919060ff16611c005760405162461bcd60e51b81526004016106729190612d6c565b50600085815260076020908152604080832087845282529182902060058101548351808501909452601c84527f4143593a20506f736974696f6e20646f6573206e6f742065786973740000000092840192909252919060ff16611c765760405162461bcd60e51b81526004016106729190612d6c565b5080546040805180820190915260118152701050d64e88155b985d5d1a1bdc9a5e9959607a1b6020820152906001600160a01b03163314611cca5760405162461bcd60e51b81526004016106729190612d6c565b5060005b6002830154811015611ec6576000836002018281548110611cf157611cf1612e99565b600091825260208083209091015480835260048601825260408084205460068901909352832054600187015491945064e8d4a5100091611d319190612dd9565b611d3b9190612db7565b6000848152600387016020526040902054611d569190612d9f565b611d609190612df8565b6000838152600960205260409020549091508111611e51576000828152600385016020908152604080832083905560068801909152902054600185015464e8d4a5100091611dad91612dd9565b611db79190612db7565b6000838152600486016020908152604080832093909355600c90522054611de8906001600160a01b0316338361216a565b60008281526009602052604081208054839290611e06908490612df8565b9091555050604080518381526020810183905289918b9133917f779f6d843e7d40a6f05a1e46d3741bc2fd3949f52997fc3b95221af725f1b12f910160405180910390a45050611eb4565b8515611eb1576040517f4143593a20496e73756666696369656e742066756e64696e6720666f722000006020820152603e8101839052605e015b60408051601f198184030181529082905262461bcd60e51b825261067291600401612d6c565b50505b80611ebe81612e52565b915050611cce565b506001810154158015611ed65750835b15611f39576000868152600760209081526040808320888452825280832080546001600160a01b03191681556001810184905560028101849055600501805460ff19169055338352600882528083208984529091529020611f37908661230a565b505b5050600160035550505050565b611f508282610df1565b611af657611f68816001600160a01b03166014612316565b611f73836020612316565b604051602001611e8b929190612c72565b600082815260208190526040902060010154611fa08133611f46565b6109af8383612237565b6000610613825490565b60006107f183836124b2565b6001600160a01b03811633146120305760405162461bcd60e51b815260206004820152602f60248201527f416363657373436f6e74726f6c3a2063616e206f6e6c792072656e6f756e636560448201526e103937b632b9903337b91039b2b63360891b6064820152608401610672565b611af682826124dc565b60006107f1836001600160a01b038416612541565b60025460ff166120985760405162461bcd60e51b815260206004820152601460248201527314185d5cd8589b194e881b9bdd081c185d5cd95960621b6044820152606401610672565b6002805460ff191690557f5db9ee0a495bf2e6ff9c91a7834c1ba4fdd244a5e8aa4e537bd38aeae4b073aa335b6040516001600160a01b03909116815260200160405180910390a1565b60025460ff16156121285760405162461bcd60e51b815260206004820152601060248201526f14185d5cd8589b194e881c185d5cd95960821b6044820152606401610672565b6002805460ff191660011790557f62e78cea01bee320cd4e420270b5ea74000d11b0c9f74754ebdbfc544b05a2586120c53390565b606060006107f183612634565b6040516001600160a01b0383166024820152604481018290526109af90849063a9059cbb60e01b906064015b60408051601f198184030181529190526020810180516001600160e01b03166001600160e01b031990931692909217909152612690565b6000828152602081905260409020600101546121e98133611f46565b6109af83836124dc565b60006107f183836122bb565b6040516001600160a01b03808516602483015283166044820152606481018290526109099085906323b872dd60e01b90608401612196565b6122418282610df1565b611af6576000828152602081815260408083206001600160a01b03851684529091529020805460ff191660011790556122773390565b6001600160a01b0316816001600160a01b0316837f2f8788117e7eff1d82e926ec794901d17c78024a50270940304540a733656f0d60405160405180910390a45050565b600081815260018301602052604081205461230257508154600181810184556000848152602080822090930184905584548482528286019093526040902091909155610613565b506000610613565b60006107f18383612541565b60606000612325836002612dd9565b612330906002612d9f565b67ffffffffffffffff81111561234857612348612eaf565b6040519080825280601f01601f191660200182016040528015612372576020820181803683370190505b509050600360fc1b8160008151811061238d5761238d612e99565b60200101906001600160f81b031916908160001a905350600f60fb1b816001815181106123bc576123bc612e99565b60200101906001600160f81b031916908160001a90535060006123e0846002612dd9565b6123eb906001612d9f565b90505b6001811115612463576f181899199a1a9b1b9c1cb0b131b232b360811b85600f166010811061241f5761241f612e99565b1a60f81b82828151811061243557612435612e99565b60200101906001600160f81b031916908160001a90535060049490941c9361245c81612e3b565b90506123ee565b5083156107f15760405162461bcd60e51b815260206004820181905260248201527f537472696e67733a20686578206c656e67746820696e73756666696369656e746044820152606401610672565b60008260000182815481106124c9576124c9612e99565b9060005260206000200154905092915050565b6124e68282610df1565b15611af6576000828152602081815260408083206001600160a01b0385168085529252808320805460ff1916905551339285917ff6391f5c32d9c69d2a47ea670b442974b53935d1edc7fd64eb21e047a839171b9190a45050565b6000818152600183016020526040812054801561262a576000612565600183612df8565b855490915060009061257990600190612df8565b90508181146125de57600086600001828154811061259957612599612e99565b90600052602060002001549050808760000184815481106125bc576125bc612e99565b6000918252602080832090910192909255918252600188019052604090208390555b85548690806125ef576125ef612e83565b600190038181906000526020600020016000905590558560010160008681526020019081526020016000206000905560019350505050610613565b6000915050610613565b60608160000180548060200260200160405190810160405280929190818152602001828054801561268457602002820191906000526020600020905b815481526020019060010190808311612670575b50505050509050919050565b60006126e5826040518060400160405280602081526020017f5361666545524332303a206c6f772d6c6576656c2063616c6c206661696c6564815250856001600160a01b03166127629092919063ffffffff16565b8051909150156109af578080602001905181019061270391906129cf565b6109af5760405162461bcd60e51b815260206004820152602a60248201527f5361666545524332303a204552433230206f7065726174696f6e20646964206e6044820152691bdd081cdd58d8d9595960b21b6064820152608401610672565b60606127718484600085612779565b949350505050565b6060824710156127da5760405162461bcd60e51b815260206004820152602660248201527f416464726573733a20696e73756666696369656e742062616c616e636520666f6044820152651c8818d85b1b60d21b6064820152608401610672565b843b6128285760405162461bcd60e51b815260206004820152601d60248201527f416464726573733a2063616c6c20746f206e6f6e2d636f6e74726163740000006044820152606401610672565b600080866001600160a01b031685876040516128449190612c56565b60006040518083038185875af1925050503d8060008114612881576040519150601f19603f3d011682016040523d82523d6000602084013e612886565b606091505b50915091506128968282866128a1565b979650505050505050565b606083156128b05750816107f1565b8251156128c05782518084602001fd5b8160405162461bcd60e51b81526004016106729190612d6c565b828054828255906000526020600020908101928215612915579160200282015b828111156129155782358255916020019190600101906128fa565b50612921929150612925565b5090565b5b808211156129215760008155600101612926565b60008083601f84011261294c57600080fd5b50813567ffffffffffffffff81111561296457600080fd5b6020830191508360208260051b850101111561297f57600080fd5b9250929050565b60006020828403121561299857600080fd5b81356107f181612ec5565b600080604083850312156129b657600080fd5b82356129c181612ec5565b946020939093013593505050565b6000602082840312156129e157600080fd5b81516107f181612eda565b6000602082840312156129fe57600080fd5b5035919050565b60008060408385031215612a1857600080fd5b823591506020830135612a2a81612ec5565b809150509250929050565b60008060408385031215612a4857600080fd5b50508035926020909101359150565b600080600060608486031215612a6c57600080fd5b83359250602084013591506040840135612a8581612eda565b809150509250925092565b600060208284031215612aa257600080fd5b81356001600160e01b0319811681146107f157600080fd5b600080600080600080600060a0888a031215612ad557600080fd5b8735612ae081612ec5565b965060208801359550604088013567ffffffffffffffff80821115612b0457600080fd5b612b108b838c0161293a565b909750955060608a0135915080821115612b2957600080fd5b50612b368a828b0161293a565b9094509250506080880135612b4a81612eda565b8091505092959891949750929550565b600060208284031215612b6c57600080fd5b5051919050565b600080600060608486031215612b8857600080fd5b833592506020840135612b9a81612eda565b91506040840135612a8581612eda565b60008060008060808587031215612bc057600080fd5b8435935060208501359250604085013591506060850135612be081612eda565b939692955090935050565b60008060008060808587031215612c0157600080fd5b84359350602085013592506040850135612c1a81612eda565b91506060850135612be081612eda565b600080600060608486031215612c3f57600080fd5b505081359360208301359350604090920135919050565b60008251612c68818460208701612e0f565b9190910192915050565b7f416363657373436f6e74726f6c3a206163636f756e7420000000000000000000815260008351612caa816017850160208801612e0f565b7001034b99036b4b9b9b4b733903937b6329607d1b6017918401918201528351612cdb816028840160208801612e0f565b01602801949350505050565b6020808252825182820181905260009190848201906040850190845b81811015612d285783516001600160a01b031683529284019291840191600101612d03565b50909695505050505050565b6020808252825182820181905260009190848201906040850190845b81811015612d2857835183529284019291840191600101612d50565b6020815260008251806020840152612d8b816040850160208701612e0f565b601f01601f19169190910160400192915050565b60008219821115612db257612db2612e6d565b500190565b600082612dd457634e487b7160e01b600052601260045260246000fd5b500490565b6000816000190483118215151615612df357612df3612e6d565b500290565b600082821015612e0a57612e0a612e6d565b500390565b60005b83811015612e2a578181015183820152602001612e12565b838111156109095750506000910152565b600081612e4a57612e4a612e6d565b506000190190565b6000600019821415612e6657612e66612e6d565b5060010190565b634e487b7160e01b600052601160045260246000fd5b634e487b7160e01b600052603160045260246000fd5b634e487b7160e01b600052603260045260246000fd5b634e487b7160e01b600052604160045260246000fd5b6001600160a01b0381168114610a7b57600080fd5b8015158114610a7b57600080fdfe4143593a20506f6f6c20646f6573206e6f7420657869737400000000000000006077685936c8169d09204a1d97db12e41713588c38e1d29a61867d3dcee98affa26469706673582212206e209e1ca6247b9686e12476008e37725d0942ec984a1b7c7c2bd98843ec448164736f6c63430008060033",
  "immutableReferences": {},
  "source": "// SPDX-License-Identifier: MIT\npragma solidity 0.8.6;\n\nimport \"@openzeppelin/contracts/access/AccessControlEnumerable.sol\";\nimport \"@openzeppelin/contracts/security/Pausable.sol\";\nimport \"@openzeppelin/contracts/security/ReentrancyGuard.sol\";\nimport \"@openzeppelin/contracts/token/ERC20/IERC20.sol\";\nimport \"@openzeppelin/contracts/token/ERC20/utils/SafeERC20.sol\";\nimport \"@openzeppelin/contracts/utils/math/SafeMath.sol\";\nimport \"@openzeppelin/contracts/utils/structs/EnumerableSet.sol\";\n\nimport \"./interfaces/ISponsorWhitelistControl.sol\";\n\n// references:\n// https://github.com/moon-migration/moonswap-core/blob/master/contracts/farm/ConfluxMultiFarm.sol\n// https://github.com/ltonetwork/uniswap-farming/blob/master/contracts/Farm.sol\n// https://github.com/pancakeswap/pancake-farm/blob/master/contracts/MasterChef.sol\n\n// TODO: do we need emergencyWithdraw?\n\n\ncontract ACYMultiFarm is AccessControlEnumerable, Pausable, ReentrancyGuard {\n    using EnumerableSet for EnumerableSet.UintSet;\n    using SafeERC20 for IERC20;\n\n\n    // ---------------------------\n    // ---------- roles ----------\n    // ---------------------------\n    bytes32 public constant POOL_MANAGER_ROLE = keccak256(\"POOL_MANAGER_ROLE\");\n    bytes32 public constant PAUSER_ROLE = keccak256(\"PAUSER_ROLE\");\n    bytes32 public constant WHITELISTER_ROLE = keccak256(\"WHITELISTER_ROLE\");\n\n\n    // ---------------------------\n    // ---------- errors ---------\n    // ---------------------------\n    string constant POOL_NOT_EXIST = \"ACY: Pool does not exist\";\n    string constant POSITION_NOT_EXIST = \"ACY: Position does not exist\";\n    string constant POSITION_UNAUTHORIZED = \"ACY: Unauthorized\";\n    string constant TOKEN_UNKNOWN = \"ACY: Unknown token\";\n\n\n    // -------------------------------------\n    // ---------- data structures ----------\n    // -------------------------------------\n\n    struct PoolInfo {\n        // the LP token the user has to stake\n        IERC20 lpToken;\n\n        // LP lock duration in seconds\n        uint256 lockDuration;\n\n        // a set of reward tokens a user can receive in this pool\n        bytes32[] rewardTokens;\n\n        // `allocPoint[token] / totalAllocPoint[token]` portion of `token` rewards go to this pool\n        mapping (bytes32 => uint256) allocPoint;\n\n        // current LP balance in this pool\n        uint256 lpBalance;\n\n        // block number where this pool was last updated\n        uint256 lastUpdateBlock;\n\n        // accumulated reward token per share, for each token\n        mapping (bytes32 => uint256) accTokenPerShare;\n\n        // flag for checking if a pool exists\n        bool exists;\n    }\n\n    struct StakingPosition {\n        // user address\n        address addr;\n\n        // current amount of LP staked\n        // note: this will NOT increase but it can decrease (partial withdraw after unlock)\n        uint256 lpAmount;\n\n        // time when this position was created\n        uint256 stakeTimestamp;\n\n        // pending rewards calculated but not harvested yet, for each token\n        mapping (bytes32 => uint256) pendingRewards;\n\n        // reward debt, reward already released and accounted for, for each token\n        mapping (bytes32 => uint256) rewardDebt;\n\n        // flag for checking if a position exists\n        bool exists;\n    }\n\n\n    // -------------------------------------\n    // ---------- state variables ----------\n    // -------------------------------------\n\n    // pools\n    uint256 public numPools = 0;\n    mapping (uint256 => PoolInfo) public poolInfo; // pool ID => pool\n\n    // staking positions\n    uint256 public numPositions = 0;\n    mapping (uint256 => mapping (uint256 => StakingPosition)) stakingPosition; // pool ID => position ID => user\n\n    mapping (address => mapping (uint256 => EnumerableSet.UintSet)) private userPositions;\n\n    // amount of rewards available, for each token\n    mapping (bytes32 => uint256) public availableBalance;\n\n    // reward per block, for each token\n    mapping (bytes32 => uint256) public rewardPerBlock;\n\n    // sum of all allocation points, for each token\n    mapping (bytes32 => uint256) public totalAllocPoint;\n\n    // address of token contract, for each token\n    mapping (bytes32 => IERC20) public tokenContract;\n\n\n    // ----------------------------\n    // ---------- events ----------\n    // ----------------------------\n    event Deposit(address indexed user, uint256 indexed poolId, uint256 indexed positionId, uint256 amount);\n    event Withdraw(address indexed user, uint256 indexed poolId, uint256 indexed positionId, uint256 amount);\n    event Harvest(address indexed user, uint256 indexed poolId, uint256 indexed positionId, bytes32 token, uint256 amount);\n\n    event NewToken(bytes32 indexed token, address addr);\n    event NewPool(uint256 indexed poolId, address lpToken, uint256 lockDuration);\n    event TokenFunded(bytes32 indexed token, uint256 amount);\n    event AllocPointUpdated(uint256 indexed poolId, bytes32 token, uint256 newAllocPoint);\n    event RewardPerBlockUpdated(bytes32 token, uint256 newReward);\n\n\n    // ------------------------------------------\n    // ---------- restricted interface ----------\n    // ------------------------------------------\n\n    constructor() {\n        _setupRole(POOL_MANAGER_ROLE, msg.sender);\n        _setupRole(PAUSER_ROLE, msg.sender);\n        _setupRole(WHITELISTER_ROLE, msg.sender);\n    }\n\n    function registerToken(bytes32 _token, IERC20 _erc20) public onlyRole(POOL_MANAGER_ROLE) {\n        tokenContract[_token] = _erc20;\n        emit NewToken(_token, address(_erc20));\n    }\n\n    function createPool(IERC20 _lpToken, uint256 _lockDuration, bytes32[] calldata _rewardTokens, uint256[] calldata _allocPoints, bool _withUpdate) public onlyRole(POOL_MANAGER_ROLE) {\n        // check input format\n        require(address(_lpToken) != address(0), \"ACY: Invalid LP address\");\n        require(_rewardTokens.length == _allocPoints.length, \"ACY: Length mismatch\");\n\n        // check if tokens exist\n        for (uint ii = 0; ii < _rewardTokens.length; ii++) {\n            bytes32 token = _rewardTokens[ii];\n            require(address(tokenContract[token]) != address(0), TOKEN_UNKNOWN);\n        }\n\n        // update pools\n        if (_withUpdate) {\n            massUpdatePools();\n        }\n\n        // initialize new pool\n        uint256 poolId = numPools++;\n        PoolInfo storage pool = poolInfo[poolId];\n\n        pool.lpToken = _lpToken;\n        pool.lockDuration = _lockDuration;\n        pool.rewardTokens = _rewardTokens;\n        pool.lastUpdateBlock = block.number;\n        pool.exists = true;\n\n        for (uint ii = 0; ii < _rewardTokens.length; ii++) {\n            bytes32 token = _rewardTokens[ii];\n            pool.allocPoint[token] = _allocPoints[ii];\n            totalAllocPoint[token] += _allocPoints[ii];\n\n            emit AllocPointUpdated(poolId, token, _allocPoints[ii]);\n        }\n\n        emit NewPool(poolId, address(_lpToken), _lockDuration);\n    }\n\n    function fund(bytes32 _token, uint256 _amount) external onlyRole(POOL_MANAGER_ROLE) {\n        IERC20 erc20 = tokenContract[_token];\n        require(address(erc20) != address(0), TOKEN_UNKNOWN);\n\n        erc20.safeTransferFrom(msg.sender, address(this), _amount);\n        availableBalance[_token] += _amount;\n\n        emit TokenFunded(_token, _amount);\n    }\n\n    function setAllocPoint(uint256 _poolId, bytes32 _token, uint256 _allocPoint, bool _withUpdate) external onlyRole(POOL_MANAGER_ROLE) {\n        PoolInfo storage pool = poolInfo[_poolId];\n        require(pool.exists, POOL_NOT_EXIST);\n\n        if (_withUpdate) {\n            massUpdatePools();\n        }\n\n        totalAllocPoint[_token] = totalAllocPoint[_token] - pool.allocPoint[_token] + _allocPoint;\n        pool.allocPoint[_token] = _allocPoint;\n\n        emit AllocPointUpdated(_poolId, _token, _allocPoint);\n    }\n\n    function setRewardPerBlock(bytes32 _token, uint256 _newReward, bool _withUpdate) external onlyRole(POOL_MANAGER_ROLE) {\n        if (_withUpdate) {\n            massUpdatePools();\n        }\n\n        rewardPerBlock[_token] = _newReward;\n        emit RewardPerBlockUpdated(_token, _newReward);\n    }\n\n    function pause() public onlyRole(PAUSER_ROLE) {\n        _pause();\n    }\n\n    function unpause() public onlyRole(PAUSER_ROLE) {\n        _unpause();\n    }\n\n    function enableSponsorshipForAddress(address addr) external onlyRole(WHITELISTER_ROLE) {\n        ISponsorWhitelistControl swc = ISponsorWhitelistControl(0x0888000000000000000000000000000000000001);\n        address[] memory a = new address[](1);\n        a[0] = address(addr);\n        swc.addPrivilege(a);\n    }\n\n    function disableSponsorshipForAddress(address addr) external onlyRole(WHITELISTER_ROLE) {\n        ISponsorWhitelistControl swc = ISponsorWhitelistControl(0x0888000000000000000000000000000000000001);\n        address[] memory a = new address[](1);\n        a[0] = address(addr);\n        swc.removePrivilege(a);\n    }\n\n\n    // --------------------------------------\n    // ---------- public interface ----------\n    // --------------------------------------\n\n    function deposit(uint256 _poolId, uint256 _amount) external whenNotPaused() {\n        updatePool(_poolId);\n\n        PoolInfo storage pool = poolInfo[_poolId];\n        require(pool.exists, POOL_NOT_EXIST);\n\n        uint256 positionId = numPositions++;\n        StakingPosition storage user = stakingPosition[_poolId][positionId];\n        user.addr = msg.sender;\n        user.lpAmount = _amount;\n        user.stakeTimestamp = block.timestamp;\n        user.exists = true;\n\n        userPositions[msg.sender][_poolId].add(positionId);\n\n        for (uint ii = 0; ii < pool.rewardTokens.length; ii++) {\n            bytes32 token = pool.rewardTokens[ii];\n            user.rewardDebt[token] = (user.lpAmount * pool.accTokenPerShare[token]) / 1e12;\n        }\n\n        pool.lpToken.safeTransferFrom(msg.sender, address(this), _amount);\n        pool.lpBalance += _amount;\n\n        emit Deposit(msg.sender, _poolId, positionId, _amount);\n    }\n\n    function withdraw(uint256 _poolId, uint256 _positionId, uint256 _amount) external nonReentrant {\n        updatePool(_poolId);\n\n        require(_amount > 0, \"ACY: Cannot withdraw 0\");\n\n        PoolInfo storage pool = poolInfo[_poolId];\n        require(pool.exists, POOL_NOT_EXIST);\n        require(_amount <= pool.lpBalance, \"ACY: Insufficient LP balance\");\n\n        StakingPosition storage user = stakingPosition[_poolId][_positionId];\n        require(user.exists, POSITION_NOT_EXIST);\n        require(user.addr == msg.sender, POSITION_UNAUTHORIZED);\n        require(block.timestamp - user.stakeTimestamp >= pool.lockDuration, \"ACY: No early unlock\");\n        require(_amount <= user.lpAmount, \"ACY: Insufficient LP balance\");\n\n        // store pending rewards\n        for (uint ii = 0; ii < pool.rewardTokens.length; ii++) {\n            bytes32 token = pool.rewardTokens[ii];\n            uint256 pending = (user.lpAmount * pool.accTokenPerShare[token]) / 1e12 - user.rewardDebt[token];\n            user.pendingRewards[token] += pending;\n        }\n\n        // update LP balances\n        user.lpAmount -= _amount;\n        pool.lpBalance -= _amount;\n\n        // update reward debt\n        for (uint ii = 0; ii < pool.rewardTokens.length; ii++) {\n            bytes32 token = pool.rewardTokens[ii];\n            user.rewardDebt[token] = (user.lpAmount * pool.accTokenPerShare[token]) / 1e12;\n        }\n\n        pool.lpToken.safeTransfer(msg.sender, _amount);\n\n        emit Withdraw(msg.sender, _poolId, _positionId, _amount);\n    }\n\n    function _harvest(uint256 _poolId, uint256 _positionId, bool _closeIfEmpty, bool _revertOnFailure) private nonReentrant {\n        updatePool(_poolId);\n\n        PoolInfo storage pool = poolInfo[_poolId];\n        require(pool.exists, POOL_NOT_EXIST);\n\n        StakingPosition storage user = stakingPosition[_poolId][_positionId];\n        require(user.exists, POSITION_NOT_EXIST);\n        require(user.addr == msg.sender, POSITION_UNAUTHORIZED);\n\n        // collect and transfer rewards\n        for (uint ii = 0; ii < pool.rewardTokens.length; ii++) {\n            bytes32 token = pool.rewardTokens[ii];\n            uint256 pending = user.pendingRewards[token] + (user.lpAmount * pool.accTokenPerShare[token]) / 1e12 - user.rewardDebt[token];\n\n            // we have enough funding to pay out rewards\n            if (availableBalance[token] >= pending) {\n                user.pendingRewards[token] = 0;\n                user.rewardDebt[token] = (user.lpAmount * pool.accTokenPerShare[token]) / 1e12;\n\n                tokenContract[token].safeTransfer(msg.sender, pending);\n                availableBalance[token] -= pending;\n\n                emit Harvest(msg.sender, _poolId, _positionId, token, pending);\n                continue;\n            }\n\n            // revert or silently ignore\n            if (_revertOnFailure) {\n                revert(string(abi.encodePacked(\"ACY: Insufficient funding for \", token)));\n            }\n        }\n\n        if (user.lpAmount == 0 && _closeIfEmpty) {\n            delete stakingPosition[_poolId][_positionId];\n            userPositions[msg.sender][_poolId].remove(_positionId);\n        }\n    }\n\n    function harvest(uint256 _poolId, uint256 _positionId, bool _closeIfEmpty, bool _revertOnFailure) external {\n        _harvest(_poolId, _positionId, _closeIfEmpty, _revertOnFailure);\n    }\n\n    function harvestAll(uint256 _poolId, bool _closeIfEmpty, bool _revertOnFailure) external {\n        for (uint ii = 0; ii < userPositions[msg.sender][_poolId].length(); ii++) {\n            uint256 positionId = userPositions[msg.sender][_poolId].at(ii);\n            _harvest(_poolId, positionId, _closeIfEmpty, _revertOnFailure);\n        }\n    }\n\n    function updatePool(uint256 _poolId) public {\n        PoolInfo storage pool = poolInfo[_poolId];\n        require(pool.exists, POOL_NOT_EXIST);\n\n        if (block.number <= pool.lastUpdateBlock) {\n            return;\n        }\n\n        uint256 lpSupply = pool.lpBalance;\n\n        if (lpSupply == 0) {\n            pool.lastUpdateBlock = block.number;\n            return;\n        }\n\n        uint256 numBlocks = block.number - pool.lastUpdateBlock;\n\n        for (uint ii = 0; ii < pool.rewardTokens.length; ii++) {\n            bytes32 token = pool.rewardTokens[ii];\n            uint256 tokenReward = numBlocks * rewardPerBlock[token] * pool.allocPoint[token] / totalAllocPoint[token];\n            pool.accTokenPerShare[token] += tokenReward * 1e12 / lpSupply;\n        }\n\n        pool.lastUpdateBlock = block.number;\n    }\n\n    function massUpdatePools() public {\n        for (uint256 pid = 0; pid < numPools; ++pid) {\n            updatePool(pid);\n        }\n    }\n\n\n    // -------------------------------------\n    // ---------- query interface ----------\n    // -------------------------------------\n\n    function pending(uint256 _poolId, uint256 _id, bytes32 _token) public view returns (uint256) {\n        PoolInfo storage pool = poolInfo[_poolId];\n        require(pool.exists, POOL_NOT_EXIST);\n\n        StakingPosition storage user = stakingPosition[_poolId][_id];\n        require(user.exists, POSITION_NOT_EXIST);\n\n        uint256 accTokenPerShare = pool.accTokenPerShare[_token];\n        uint256 lpSupply = pool.lpBalance;\n\n        if (lpSupply != 0) {\n            uint256 numBlocks = block.number - pool.lastUpdateBlock;\n            uint256 tokenReward = numBlocks * rewardPerBlock[_token] * pool.allocPoint[_token] / totalAllocPoint[_token];\n            accTokenPerShare += tokenReward * 1e12 / lpSupply;\n        }\n\n        return user.pendingRewards[_token] + user.lpAmount * accTokenPerShare / 1e12 - user.rewardDebt[_token];\n    }\n\n    // TODO: pagination?\n    function getUserPositions(address _addr, uint256 _poolId) public view returns (uint256[] memory) {\n        return userPositions[_addr][_poolId].values();\n    }\n\n    // TODO: this is not correct as it does not take pending rewards into account\n    function numFundedBlocks(bytes32 _token) public view returns (uint256) {\n        IERC20 erc20 = tokenContract[_token];\n        require(address(erc20) != address(0), TOKEN_UNKNOWN);\n\n        uint256 tokenSupply = erc20.balanceOf(address(this));\n        uint256 perBlock = rewardPerBlock[_token];\n\n        return tokenSupply / perBlock;\n    }\n}",
  "sourcePath": "/Users/chwizdo/Projects/ACY/acy-farm/contracts/ACYMultiFarm.sol",
  "compiler": {
    "name": "solc",
    "version": "0.8.6+commit.11564f7e.Emscripten.clang"
  },
  "schemaVersion": "3.4.3",
  "updatedAt": "2021-09-23T13:44:07.836Z",
  "devdoc": {
    "kind": "dev",
    "methods": {
      "getRoleAdmin(bytes32)": {
        "details": "Returns the admin role that controls `role`. See {grantRole} and {revokeRole}. To change a role's admin, use {_setRoleAdmin}."
      },
      "getRoleMember(bytes32,uint256)": {
        "details": "Returns one of the accounts that have `role`. `index` must be a value between 0 and {getRoleMemberCount}, non-inclusive. Role bearers are not sorted in any particular way, and their ordering may change at any point. WARNING: When using {getRoleMember} and {getRoleMemberCount}, make sure you perform all queries on the same block. See the following https://forum.openzeppelin.com/t/iterating-over-elements-on-enumerableset-in-openzeppelin-contracts/2296[forum post] for more information."
      },
      "getRoleMemberCount(bytes32)": {
        "details": "Returns the number of accounts that have `role`. Can be used together with {getRoleMember} to enumerate all bearers of a role."
      },
      "grantRole(bytes32,address)": {
        "details": "Overload {grantRole} to track enumerable memberships"
      },
      "hasRole(bytes32,address)": {
        "details": "Returns `true` if `account` has been granted `role`."
      },
      "paused()": {
        "details": "Returns true if the contract is paused, and false otherwise."
      },
      "renounceRole(bytes32,address)": {
        "details": "Overload {renounceRole} to track enumerable memberships"
      },
      "revokeRole(bytes32,address)": {
        "details": "Overload {revokeRole} to track enumerable memberships"
      },
      "supportsInterface(bytes4)": {
        "details": "See {IERC165-supportsInterface}."
      }
    },
    "version": 1
  },
  "userdoc": {
    "kind": "user",
    "methods": {},
    "version": 1
  }
}