{
  "contractName": "ACYMultiFarm",
  "abi": [
    {
      "inputs": [],
      "stateMutability": "nonpayable",
      "type": "constructor"
    },
    {
      "anonymous": false,
      "inputs": [
        {
          "indexed": true,
          "internalType": "uint256",
          "name": "poolId",
          "type": "uint256"
        },
        {
          "indexed": false,
          "internalType": "bytes32",
          "name": "token",
          "type": "bytes32"
        },
        {
          "indexed": false,
          "internalType": "uint256",
          "name": "newAllocPoint",
          "type": "uint256"
        }
      ],
      "name": "AllocPointUpdated",
      "type": "event"
    },
    {
      "anonymous": false,
      "inputs": [
        {
          "indexed": true,
          "internalType": "address",
          "name": "user",
          "type": "address"
        },
        {
          "indexed": true,
          "internalType": "uint256",
          "name": "poolId",
          "type": "uint256"
        },
        {
          "indexed": true,
          "internalType": "uint256",
          "name": "positionId",
          "type": "uint256"
        },
        {
          "indexed": false,
          "internalType": "uint256",
          "name": "amount",
          "type": "uint256"
        }
      ],
      "name": "Deposit",
      "type": "event"
    },
    {
      "anonymous": false,
      "inputs": [
        {
          "indexed": true,
          "internalType": "address",
          "name": "user",
          "type": "address"
        },
        {
          "indexed": true,
          "internalType": "uint256",
          "name": "poolId",
          "type": "uint256"
        },
        {
          "indexed": true,
          "internalType": "uint256",
          "name": "positionId",
          "type": "uint256"
        },
        {
          "indexed": false,
          "internalType": "bytes32",
          "name": "token",
          "type": "bytes32"
        },
        {
          "indexed": false,
          "internalType": "uint256",
          "name": "amount",
          "type": "uint256"
        }
      ],
      "name": "Harvest",
      "type": "event"
    },
    {
      "anonymous": false,
      "inputs": [
        {
          "indexed": true,
          "internalType": "uint256",
          "name": "poolId",
          "type": "uint256"
        },
        {
          "indexed": false,
          "internalType": "address",
          "name": "lpToken",
          "type": "address"
        },
        {
          "indexed": false,
          "internalType": "uint256",
          "name": "lockDuration",
          "type": "uint256"
        }
      ],
      "name": "NewPool",
      "type": "event"
    },
    {
      "anonymous": false,
      "inputs": [
        {
          "indexed": true,
          "internalType": "bytes32",
          "name": "token",
          "type": "bytes32"
        },
        {
          "indexed": false,
          "internalType": "address",
          "name": "addr",
          "type": "address"
        }
      ],
      "name": "NewToken",
      "type": "event"
    },
    {
      "anonymous": false,
      "inputs": [
        {
          "indexed": false,
          "internalType": "address",
          "name": "account",
          "type": "address"
        }
      ],
      "name": "Paused",
      "type": "event"
    },
    {
      "anonymous": false,
      "inputs": [
        {
          "indexed": false,
          "internalType": "bytes32",
          "name": "token",
          "type": "bytes32"
        },
        {
          "indexed": false,
          "internalType": "uint256",
          "name": "newReward",
          "type": "uint256"
        }
      ],
      "name": "RewardPerBlockUpdated",
      "type": "event"
    },
    {
      "anonymous": false,
      "inputs": [
        {
          "indexed": true,
          "internalType": "bytes32",
          "name": "role",
          "type": "bytes32"
        },
        {
          "indexed": true,
          "internalType": "bytes32",
          "name": "previousAdminRole",
          "type": "bytes32"
        },
        {
          "indexed": true,
          "internalType": "bytes32",
          "name": "newAdminRole",
          "type": "bytes32"
        }
      ],
      "name": "RoleAdminChanged",
      "type": "event"
    },
    {
      "anonymous": false,
      "inputs": [
        {
          "indexed": true,
          "internalType": "bytes32",
          "name": "role",
          "type": "bytes32"
        },
        {
          "indexed": true,
          "internalType": "address",
          "name": "account",
          "type": "address"
        },
        {
          "indexed": true,
          "internalType": "address",
          "name": "sender",
          "type": "address"
        }
      ],
      "name": "RoleGranted",
      "type": "event"
    },
    {
      "anonymous": false,
      "inputs": [
        {
          "indexed": true,
          "internalType": "bytes32",
          "name": "role",
          "type": "bytes32"
        },
        {
          "indexed": true,
          "internalType": "address",
          "name": "account",
          "type": "address"
        },
        {
          "indexed": true,
          "internalType": "address",
          "name": "sender",
          "type": "address"
        }
      ],
      "name": "RoleRevoked",
      "type": "event"
    },
    {
      "anonymous": false,
      "inputs": [
        {
          "indexed": true,
          "internalType": "bytes32",
          "name": "token",
          "type": "bytes32"
        },
        {
          "indexed": false,
          "internalType": "uint256",
          "name": "amount",
          "type": "uint256"
        }
      ],
      "name": "TokenFunded",
      "type": "event"
    },
    {
      "anonymous": false,
      "inputs": [
        {
          "indexed": false,
          "internalType": "address",
          "name": "account",
          "type": "address"
        }
      ],
      "name": "Unpaused",
      "type": "event"
    },
    {
      "anonymous": false,
      "inputs": [
        {
          "indexed": true,
          "internalType": "address",
          "name": "user",
          "type": "address"
        },
        {
          "indexed": true,
          "internalType": "uint256",
          "name": "poolId",
          "type": "uint256"
        },
        {
          "indexed": true,
          "internalType": "uint256",
          "name": "positionId",
          "type": "uint256"
        },
        {
          "indexed": false,
          "internalType": "uint256",
          "name": "amount",
          "type": "uint256"
        }
      ],
      "name": "Withdraw",
      "type": "event"
    },
    {
      "inputs": [],
      "name": "DEFAULT_ADMIN_ROLE",
      "outputs": [
        {
          "internalType": "bytes32",
          "name": "",
          "type": "bytes32"
        }
      ],
      "stateMutability": "view",
      "type": "function"
    },
    {
      "inputs": [],
      "name": "PAUSER_ROLE",
      "outputs": [
        {
          "internalType": "bytes32",
          "name": "",
          "type": "bytes32"
        }
      ],
      "stateMutability": "view",
      "type": "function"
    },
    {
      "inputs": [],
      "name": "POOL_MANAGER_ROLE",
      "outputs": [
        {
          "internalType": "bytes32",
          "name": "",
          "type": "bytes32"
        }
      ],
      "stateMutability": "view",
      "type": "function"
    },
    {
      "inputs": [],
      "name": "WHITELISTER_ROLE",
      "outputs": [
        {
          "internalType": "bytes32",
          "name": "",
          "type": "bytes32"
        }
      ],
      "stateMutability": "view",
      "type": "function"
    },
    {
      "inputs": [
        {
          "internalType": "bytes32",
          "name": "",
          "type": "bytes32"
        }
      ],
      "name": "availableBalance",
      "outputs": [
        {
          "internalType": "uint256",
          "name": "",
          "type": "uint256"
        }
      ],
      "stateMutability": "view",
      "type": "function"
    },
    {
      "inputs": [
        {
          "internalType": "bytes32",
          "name": "role",
          "type": "bytes32"
        }
      ],
      "name": "getRoleAdmin",
      "outputs": [
        {
          "internalType": "bytes32",
          "name": "",
          "type": "bytes32"
        }
      ],
      "stateMutability": "view",
      "type": "function"
    },
    {
      "inputs": [
        {
          "internalType": "bytes32",
          "name": "role",
          "type": "bytes32"
        },
        {
          "internalType": "uint256",
          "name": "index",
          "type": "uint256"
        }
      ],
      "name": "getRoleMember",
      "outputs": [
        {
          "internalType": "address",
          "name": "",
          "type": "address"
        }
      ],
      "stateMutability": "view",
      "type": "function"
    },
    {
      "inputs": [
        {
          "internalType": "bytes32",
          "name": "role",
          "type": "bytes32"
        }
      ],
      "name": "getRoleMemberCount",
      "outputs": [
        {
          "internalType": "uint256",
          "name": "",
          "type": "uint256"
        }
      ],
      "stateMutability": "view",
      "type": "function"
    },
    {
      "inputs": [
        {
          "internalType": "bytes32",
          "name": "role",
          "type": "bytes32"
        },
        {
          "internalType": "address",
          "name": "account",
          "type": "address"
        }
      ],
      "name": "grantRole",
      "outputs": [],
      "stateMutability": "nonpayable",
      "type": "function"
    },
    {
      "inputs": [
        {
          "internalType": "bytes32",
          "name": "role",
          "type": "bytes32"
        },
        {
          "internalType": "address",
          "name": "account",
          "type": "address"
        }
      ],
      "name": "hasRole",
      "outputs": [
        {
          "internalType": "bool",
          "name": "",
          "type": "bool"
        }
      ],
      "stateMutability": "view",
      "type": "function"
    },
    {
      "inputs": [],
      "name": "numPools",
      "outputs": [
        {
          "internalType": "uint256",
          "name": "",
          "type": "uint256"
        }
      ],
      "stateMutability": "view",
      "type": "function"
    },
    {
      "inputs": [],
      "name": "numPositions",
      "outputs": [
        {
          "internalType": "uint256",
          "name": "",
          "type": "uint256"
        }
      ],
      "stateMutability": "view",
      "type": "function"
    },
    {
      "inputs": [],
      "name": "paused",
      "outputs": [
        {
          "internalType": "bool",
          "name": "",
          "type": "bool"
        }
      ],
      "stateMutability": "view",
      "type": "function"
    },
    {
      "inputs": [
        {
          "internalType": "uint256",
          "name": "",
          "type": "uint256"
        }
      ],
      "name": "poolInfo",
      "outputs": [
        {
          "internalType": "contract IERC20",
          "name": "lpToken",
          "type": "address"
        },
        {
          "internalType": "uint256",
          "name": "lockDuration",
          "type": "uint256"
        },
        {
          "internalType": "uint256",
          "name": "lpBalance",
          "type": "uint256"
        },
        {
          "internalType": "uint256",
          "name": "lastUpdateBlock",
          "type": "uint256"
        },
        {
          "internalType": "bool",
          "name": "exists",
          "type": "bool"
        }
      ],
      "stateMutability": "view",
      "type": "function"
    },
    {
      "inputs": [
        {
          "internalType": "bytes32",
          "name": "role",
          "type": "bytes32"
        },
        {
          "internalType": "address",
          "name": "account",
          "type": "address"
        }
      ],
      "name": "renounceRole",
      "outputs": [],
      "stateMutability": "nonpayable",
      "type": "function"
    },
    {
      "inputs": [
        {
          "internalType": "bytes32",
          "name": "role",
          "type": "bytes32"
        },
        {
          "internalType": "address",
          "name": "account",
          "type": "address"
        }
      ],
      "name": "revokeRole",
      "outputs": [],
      "stateMutability": "nonpayable",
      "type": "function"
    },
    {
      "inputs": [
        {
          "internalType": "bytes32",
          "name": "",
          "type": "bytes32"
        }
      ],
      "name": "rewardPerBlock",
      "outputs": [
        {
          "internalType": "uint256",
          "name": "",
          "type": "uint256"
        }
      ],
      "stateMutability": "view",
      "type": "function"
    },
    {
      "inputs": [
        {
          "internalType": "uint256",
          "name": "",
          "type": "uint256"
        },
        {
          "internalType": "uint256",
          "name": "",
          "type": "uint256"
        }
      ],
      "name": "stakingPosition",
      "outputs": [
        {
          "internalType": "address",
          "name": "addr",
          "type": "address"
        },
        {
          "internalType": "uint256",
          "name": "lpAmount",
          "type": "uint256"
        },
        {
          "internalType": "uint256",
          "name": "stakeTimestamp",
          "type": "uint256"
        },
        {
          "internalType": "bool",
          "name": "exists",
          "type": "bool"
        }
      ],
      "stateMutability": "view",
      "type": "function"
    },
    {
      "inputs": [
        {
          "internalType": "bytes4",
          "name": "interfaceId",
          "type": "bytes4"
        }
      ],
      "name": "supportsInterface",
      "outputs": [
        {
          "internalType": "bool",
          "name": "",
          "type": "bool"
        }
      ],
      "stateMutability": "view",
      "type": "function"
    },
    {
      "inputs": [
        {
          "internalType": "bytes32",
          "name": "",
          "type": "bytes32"
        }
      ],
      "name": "tokenContract",
      "outputs": [
        {
          "internalType": "contract IERC20",
          "name": "",
          "type": "address"
        }
      ],
      "stateMutability": "view",
      "type": "function"
    },
    {
      "inputs": [
        {
          "internalType": "bytes32",
          "name": "",
          "type": "bytes32"
        }
      ],
      "name": "totalAllocPoint",
      "outputs": [
        {
          "internalType": "uint256",
          "name": "",
          "type": "uint256"
        }
      ],
      "stateMutability": "view",
      "type": "function"
    },
    {
      "inputs": [
        {
          "internalType": "bytes32",
          "name": "_token",
          "type": "bytes32"
        },
        {
          "internalType": "contract IERC20",
          "name": "_erc20",
          "type": "address"
        }
      ],
      "name": "registerToken",
      "outputs": [],
      "stateMutability": "nonpayable",
      "type": "function"
    },
    {
      "inputs": [
        {
          "internalType": "contract IERC20",
          "name": "_lpToken",
          "type": "address"
        },
        {
          "internalType": "uint256",
          "name": "_lockDuration",
          "type": "uint256"
        },
        {
          "internalType": "bytes32[]",
          "name": "_rewardTokens",
          "type": "bytes32[]"
        },
        {
          "internalType": "uint256[]",
          "name": "_allocPoints",
          "type": "uint256[]"
        },
        {
          "internalType": "bool",
          "name": "_withUpdate",
          "type": "bool"
        }
      ],
      "name": "createPool",
      "outputs": [],
      "stateMutability": "nonpayable",
      "type": "function"
    },
    {
      "inputs": [
        {
          "internalType": "bytes32",
          "name": "_token",
          "type": "bytes32"
        },
        {
          "internalType": "uint256",
          "name": "_amount",
          "type": "uint256"
        }
      ],
      "name": "fund",
      "outputs": [],
      "stateMutability": "nonpayable",
      "type": "function"
    },
    {
      "inputs": [
        {
          "internalType": "uint256",
          "name": "_poolId",
          "type": "uint256"
        },
        {
          "internalType": "bytes32",
          "name": "_token",
          "type": "bytes32"
        },
        {
          "internalType": "uint256",
          "name": "_allocPoint",
          "type": "uint256"
        },
        {
          "internalType": "bool",
          "name": "_withUpdate",
          "type": "bool"
        }
      ],
      "name": "setAllocPoint",
      "outputs": [],
      "stateMutability": "nonpayable",
      "type": "function"
    },
    {
      "inputs": [
        {
          "internalType": "bytes32",
          "name": "_token",
          "type": "bytes32"
        },
        {
          "internalType": "uint256",
          "name": "_newReward",
          "type": "uint256"
        },
        {
          "internalType": "bool",
          "name": "_withUpdate",
          "type": "bool"
        }
      ],
      "name": "setRewardPerBlock",
      "outputs": [],
      "stateMutability": "nonpayable",
      "type": "function"
    },
    {
      "inputs": [],
      "name": "pause",
      "outputs": [],
      "stateMutability": "nonpayable",
      "type": "function"
    },
    {
      "inputs": [],
      "name": "unpause",
      "outputs": [],
      "stateMutability": "nonpayable",
      "type": "function"
    },
    {
      "inputs": [
        {
          "internalType": "address",
          "name": "addr",
          "type": "address"
        }
      ],
      "name": "enableSponsorshipForAddress",
      "outputs": [],
      "stateMutability": "nonpayable",
      "type": "function"
    },
    {
      "inputs": [
        {
          "internalType": "address",
          "name": "addr",
          "type": "address"
        }
      ],
      "name": "disableSponsorshipForAddress",
      "outputs": [],
      "stateMutability": "nonpayable",
      "type": "function"
    },
    {
      "inputs": [
        {
          "internalType": "uint256",
          "name": "_poolId",
          "type": "uint256"
        },
        {
          "internalType": "uint256",
          "name": "_amount",
          "type": "uint256"
        }
      ],
      "name": "deposit",
      "outputs": [],
      "stateMutability": "nonpayable",
      "type": "function"
    },
    {
      "inputs": [
        {
          "internalType": "uint256",
          "name": "_poolId",
          "type": "uint256"
        },
        {
          "internalType": "uint256",
          "name": "_positionId",
          "type": "uint256"
        },
        {
          "internalType": "uint256",
          "name": "_amount",
          "type": "uint256"
        }
      ],
      "name": "withdraw",
      "outputs": [],
      "stateMutability": "nonpayable",
      "type": "function"
    },
    {
      "inputs": [
        {
          "internalType": "uint256",
          "name": "_poolId",
          "type": "uint256"
        },
        {
          "internalType": "uint256",
          "name": "_positionId",
          "type": "uint256"
        },
        {
          "internalType": "bool",
          "name": "_closeIfEmpty",
          "type": "bool"
        },
        {
          "internalType": "bool",
          "name": "_revertOnFailure",
          "type": "bool"
        }
      ],
      "name": "harvest",
      "outputs": [],
      "stateMutability": "nonpayable",
      "type": "function"
    },
    {
      "inputs": [
        {
          "internalType": "uint256",
          "name": "_poolId",
          "type": "uint256"
        },
        {
          "internalType": "bool",
          "name": "_closeIfEmpty",
          "type": "bool"
        },
        {
          "internalType": "bool",
          "name": "_revertOnFailure",
          "type": "bool"
        }
      ],
      "name": "harvestAll",
      "outputs": [],
      "stateMutability": "nonpayable",
      "type": "function"
    },
    {
      "inputs": [
        {
          "internalType": "uint256",
          "name": "_poolId",
          "type": "uint256"
        }
      ],
      "name": "updatePool",
      "outputs": [],
      "stateMutability": "nonpayable",
      "type": "function"
    },
    {
      "inputs": [],
      "name": "massUpdatePools",
      "outputs": [],
      "stateMutability": "nonpayable",
      "type": "function"
    },
    {
      "inputs": [
        {
          "internalType": "uint256",
          "name": "_poolId",
          "type": "uint256"
        },
        {
          "internalType": "uint256",
          "name": "_id",
          "type": "uint256"
        },
        {
          "internalType": "bytes32",
          "name": "_token",
          "type": "bytes32"
        }
      ],
      "name": "pending",
      "outputs": [
        {
          "internalType": "uint256",
          "name": "",
          "type": "uint256"
        }
      ],
      "stateMutability": "view",
      "type": "function"
    },
    {
      "inputs": [
        {
          "internalType": "address",
          "name": "_addr",
          "type": "address"
        },
        {
          "internalType": "uint256",
          "name": "_poolId",
          "type": "uint256"
        }
      ],
      "name": "getUserPositions",
      "outputs": [
        {
          "internalType": "uint256[]",
          "name": "",
          "type": "uint256[]"
        }
      ],
      "stateMutability": "view",
      "type": "function"
    },
    {
      "inputs": [
        {
          "internalType": "address",
          "name": "_addr",
          "type": "address"
        },
        {
          "internalType": "uint256",
          "name": "_poolId",
          "type": "uint256"
        }
      ],
      "name": "numUserPositions",
      "outputs": [
        {
          "internalType": "uint256",
          "name": "",
          "type": "uint256"
        }
      ],
      "stateMutability": "view",
      "type": "function"
    },
    {
      "inputs": [
        {
          "internalType": "address",
          "name": "_addr",
          "type": "address"
        },
        {
          "internalType": "uint256",
          "name": "_poolId",
          "type": "uint256"
        },
        {
          "internalType": "uint256",
          "name": "_index",
          "type": "uint256"
        }
      ],
      "name": "getUserPositionIdAt",
      "outputs": [
        {
          "internalType": "uint256",
          "name": "",
          "type": "uint256"
        }
      ],
      "stateMutability": "view",
      "type": "function"
    },
    {
      "inputs": [
        {
          "internalType": "uint256",
          "name": "_poolId",
          "type": "uint256"
        }
      ],
      "name": "getPoolRewardTokens",
      "outputs": [
        {
          "internalType": "bytes32[]",
          "name": "",
          "type": "bytes32[]"
        }
      ],
      "stateMutability": "view",
      "type": "function"
    },
    {
      "inputs": [
        {
          "internalType": "uint256",
          "name": "_poolId",
          "type": "uint256"
        }
      ],
      "name": "getPoolRewardTokenAddresses",
      "outputs": [
        {
          "internalType": "address[]",
          "name": "addresses",
          "type": "address[]"
        }
      ],
      "stateMutability": "view",
      "type": "function"
    },
    {
      "inputs": [
        {
          "internalType": "uint256",
          "name": "_poolId",
          "type": "uint256"
        },
        {
          "internalType": "bytes32",
          "name": "_token",
          "type": "bytes32"
        }
      ],
      "name": "getPoolTokenRewardInfo",
      "outputs": [
        {
          "internalType": "uint256",
          "name": "ap",
          "type": "uint256"
        },
        {
          "internalType": "uint256",
          "name": "totalAp",
          "type": "uint256"
        },
        {
          "internalType": "uint256",
          "name": "tokenPerBlock",
          "type": "uint256"
        },
        {
          "internalType": "uint256",
          "name": "tokenInPoolPerBlock",
          "type": "uint256"
        }
      ],
      "stateMutability": "view",
      "type": "function"
    },
    {
      "inputs": [
        {
          "internalType": "uint256",
          "name": "_poolId",
          "type": "uint256"
        },
        {
          "internalType": "bytes32",
          "name": "_token",
          "type": "bytes32"
        }
      ],
      "name": "getAccTokenPerShare",
      "outputs": [
        {
          "internalType": "uint256",
          "name": "",
          "type": "uint256"
        }
      ],
      "stateMutability": "view",
      "type": "function"
    },
    {
      "inputs": [
        {
          "internalType": "uint256",
          "name": "_poolId",
          "type": "uint256"
        },
        {
          "internalType": "uint256",
          "name": "_id",
          "type": "uint256"
        },
        {
          "internalType": "bytes32",
          "name": "_token",
          "type": "bytes32"
        }
      ],
      "name": "getPendingRewards",
      "outputs": [
        {
          "internalType": "uint256",
          "name": "",
          "type": "uint256"
        }
      ],
      "stateMutability": "view",
      "type": "function"
    },
    {
      "inputs": [
        {
          "internalType": "uint256",
          "name": "_poolId",
          "type": "uint256"
        },
        {
          "internalType": "uint256",
          "name": "_id",
          "type": "uint256"
        },
        {
          "internalType": "bytes32",
          "name": "_token",
          "type": "bytes32"
        }
      ],
      "name": "getRewardDebt",
      "outputs": [
        {
          "internalType": "uint256",
          "name": "",
          "type": "uint256"
        }
      ],
      "stateMutability": "view",
      "type": "function"
    }
  ],
  "bytecode": "0x6080604052600060045560006006553480156200001b57600080fd5b506002805460ff191690556001600355620000577f6077685936c8169d09204a1d97db12e41713588c38e1d29a61867d3dcee98aff33620000b5565b620000837f65d7a28e3265b37a6474929f336521b332c1681b933f6cb9f3376673440d862a33620000b5565b620000af7f8619cecd8b9e095ab43867f5b69d492180450fe862e6b50bfbfb24b75dd84c8a33620000b5565b6200021a565b620000cc8282620000f860201b620020441760201c565b6000828152600160209081526040909120620000f39183906200205262000108821b17901c565b505050565b62000104828262000128565b5050565b60006200011f836001600160a01b038416620001c8565b90505b92915050565b6000828152602081815260408083206001600160a01b038516845290915290205460ff1662000104576000828152602081815260408083206001600160a01b03851684529091529020805460ff19166001179055620001843390565b6001600160a01b0316816001600160a01b0316837f2f8788117e7eff1d82e926ec794901d17c78024a50270940304540a733656f0d60405160405180910390a45050565b6000818152600183016020526040812054620002115750815460018181018455600084815260208082209093018490558454848252828601909352604090209190915562000122565b50600062000122565b613483806200022a6000396000f3fe608060405234801561001057600080fd5b506004361061028a5760003560e01c806379dd13ca1161015c578063ad4683a4116100ce578063d547741f11610087578063d547741f146106de578063dad16efa146106f1578063e2bbb15814610704578063e46bbc9e14610717578063e63ab1e91461072a578063ea8960a41461075157600080fd5b8063ad4683a414610606578063b7a5adca1461067f578063c4ee5c4414610692578063ca15c873146106a5578063d32fff2b146106b8578063d3faade9146106cb57600080fd5b806391d148541161012057806391d1485414610585578063942b29e314610598578063959b87de146105b8578063a217fddf146105cb578063a41fe49f146105d3578063abfd0954146105e657600080fd5b806379dd13ca146105035780638456cb5914610544578063849687c71461054c578063850969021461055f5780639010d07c1461057257600080fd5b806336568abe116102005780635c975abb116101b95780635c975abb146104a15780635e71823b146104ac578063630b5ba1146104b55780636dce9fbd146104bd57806373bf8761146104d0578063793f0851146104e357600080fd5b806336568abe1461041757806338d6ca991461042a5780633f4ba83a1461044a57806351eb05a61461045257806356d7356814610465578063570618e11461047a57600080fd5b80632803a1af116102525780632803a1af146103ad5780632ddc65af146103c05780632ded0fb5146103d55780632f2ff15d146103e857806335c62bc2146103fb5780633634bba61461040457600080fd5b806301ffc9a71461028f578063031bda86146102b75780631526fe27146102d8578063248a9ca314610357578063265fb54a1461037a575b600080fd5b6102a261029d366004612fae565b610771565b60405190151581526020015b60405180910390f35b6102ca6102c536600461312f565b61079c565b6040519081526020016102ae565b6103236102e6366004612f0a565b6005602081905260009182526040909120805460018201546004830154938301546007909301546001600160a01b03909216939092909160ff1685565b604080516001600160a01b03909616865260208601949094529284019190915260608301521515608082015260a0016102ae565b6102ca610365366004612f0a565b60009081526020819052604090206001015490565b61038d610388366004612f53565b610979565b6040805194855260208501939093529183015260608201526080016102ae565b6102ca6103bb366004612eb8565b610a25565b6103d36103ce3660046130f0565b610a5a565b005b6103d36103e3366004612f23565b610a6c565b6103d36103f6366004612f23565b610aea565b6102ca60045481565b6103d3610412366004613078565b610b11565b6103d3610425366004612f23565b610b83565b6102ca610438366004612f0a565b600b6020526000908152604090205481565b6103d3610ba5565b6103d3610460366004612f0a565b610bdb565b6102ca60008051602061342e83398151915281565b6102ca7f8619cecd8b9e095ab43867f5b69d492180450fe862e6b50bfbfb24b75dd84c8a81565b60025460ff166102a2565b6102ca60065481565b6103d3610d56565b6102ca6104cb366004612e8c565b610d7c565b6103d36104de3660046130af565b610da8565b6102ca6104f1366004612f0a565b600a6020526000908152604090205481565b61052c610511366004612f0a565b600c602052600090815260409020546001600160a01b031681565b6040516001600160a01b0390911681526020016102ae565b6103d3610ebf565b6102ca61055a366004612f53565b610ef2565b6103d361056d366004612f75565b610f62565b61052c610580366004612f53565b610fda565b6102a2610593366004612f23565b610ff2565b6105ab6105a6366004612e8c565b61101b565b6040516102ae9190613239565b6102ca6105c636600461312f565b61104a565b6102ca600081565b6103d36105e136600461312f565b6110c3565b6105f96105f4366004612f0a565b611579565b6040516102ae91906131ec565b610653610614366004612f53565b600760209081526000928352604080842090915290825290208054600182015460028301546005909301546001600160a01b0390921692909160ff1684565b604080516001600160a01b039095168552602085019390935291830152151560608201526080016102ae565b6103d361068d366004612e6f565b61171e565b6105ab6106a0366004612f0a565b6117fd565b6102ca6106b3366004612f0a565b6118b7565b6103d36106c6366004612e6f565b6118ce565b6102ca6106d936600461312f565b611975565b6103d36106ec366004612f23565b6119ee565b6103d36106ff366004612fd8565b6119f8565b6103d3610712366004612f53565b611d25565b6103d3610725366004612f53565b611f53565b6102ca7f65d7a28e3265b37a6474929f336521b332c1681b933f6cb9f3376673440d862a81565b6102ca61075f366004612f0a565b60096020526000908152604090205481565b60006001600160e01b03198216635a05180f60e01b1480610796575061079682612067565b92915050565b600083815260056020908152604080832060078101548251808401909352601883526000805160206133ee833981519152938301939093529160ff166107fe5760405162461bcd60e51b81526004016107f59190613271565b60405180910390fd5b50600085815260076020908152604080832087845282529182902060058101548351808501909452601c845260008051602061340e83398151915292840192909252919060ff166108625760405162461bcd60e51b81526004016107f59190613271565b5060008481526006830160205260409020546004830154801561090c57600084600501544361089191906132fd565b6000888152600b602090815260408083205460038a01835281842054600a9093529083205493945091926108c590856132de565b6108cf91906132de565b6108d991906132bc565b9050826108f3826904ee2d6d415b85acef8160201b6132de565b6108fd91906132bc565b61090790856132a4565b935050505b600086815260048401602052604090205460018401546904ee2d6d415b85acef8160201b9061093c9085906132de565b61094691906132bc565b600088815260038601602052604090205461096191906132a4565b61096b91906132fd565b9450505050505b9392505050565b600082815260056020908152604080832060078101548251808401909352601883526000805160206133ee833981519152938301939093528392839283929160ff166109d85760405162461bcd60e51b81526004016107f59190613271565b506000868152600382016020908152604080832054600b835281842054600a9093529220549196509450925083610a0f86856132de565b610a1991906132bc565b91505092959194509250565b6001600160a01b03831660009081526008602090815260408083208584529091528120610a52908361209c565b949350505050565b610a66848484846120a8565b50505050565b60008051602061342e833981519152610a8581336124a8565b6000838152600c602090815260409182902080546001600160a01b0319166001600160a01b038616908117909155915191825284917ff80339a3e391e45ece64c63579ae16b439563d8317481bb8200fcb0671f93590910160405180910390a2505050565b610af482826124e6565b6000828152600160205260409020610b0c9082612052565b505050565b60005b3360009081526008602090815260408083208784529091529020610b379061250c565b811015610a66573360009081526008602090815260408083208784529091528120610b62908361209c565b9050610b70858286866120a8565b5080610b7b81613357565b915050610b14565b610b8d8282612516565b6000828152600160205260409020610b0c9082612590565b7f65d7a28e3265b37a6474929f336521b332c1681b933f6cb9f3376673440d862a610bd081336124a8565b610bd86125a5565b50565b60008181526005602090815260409182902060078101548351808501909452601884526000805160206133ee83398151915292840192909252919060ff16610c365760405162461bcd60e51b81526004016107f59190613271565b5080600501544311610c46575050565b600481015480610c5b57504360059091015550565b6000826005015443610c6d91906132fd565b905060005b6002840154811015610d46576000846002018281548110610c9557610c9561339e565b6000918252602080832090910154808352600b825260408084205460038a01845281852054600a909452908420549194509190610cd290876132de565b610cdc91906132de565b610ce691906132bc565b905084610d00826904ee2d6d415b85acef8160201b6132de565b610d0a91906132bc565b600083815260068801602052604081208054909190610d2a9084906132a4565b9250508190555050508080610d3e90613357565b915050610c72565b5043836005018190555050505050565b60005b600454811015610bd857610d6c81610bdb565b610d7581613357565b9050610d59565b6001600160a01b038216600090815260086020908152604080832084845290915281206109729061250c565b60008051602061342e833981519152610dc181336124a8565b60008581526005602090815260409182902060078101548351808501909452601884526000805160206133ee83398151915292840192909252919060ff16610e1c5760405162461bcd60e51b81526004016107f59190613271565b508215610e2b57610e2b610d56565b6000858152600382016020908152604080832054600b909252909120548591610e53916132fd565b610e5d91906132a4565b6000868152600b602090815260408083209390935560038401815290829020869055815187815290810186905287917f6096a506a56b62e1e89ba38de21bee0baa72624ed4a165d1e3b4ba0b34899a52910160405180910390a2505050505050565b7f65d7a28e3265b37a6474929f336521b332c1681b933f6cb9f3376673440d862a610eea81336124a8565b610bd8612638565b600082815260056020908152604080832060078101548251808401909352601883526000805160206133ee833981519152938301939093529160ff16610f4b5760405162461bcd60e51b81526004016107f59190613271565b506000928352600601602052506040902054919050565b60008051602061342e833981519152610f7b81336124a8565b8115610f8957610f89610d56565b6000848152600a602090815260409182902085905581518681529081018590527f756cb3b03a8aade0ed86a377d5b21dbb522872b6500426a0d908a88b7e61618a910160405180910390a150505050565b6000828152600160205260408120610972908361209c565b6000918252602082815260408084206001600160a01b0393909316845291905290205460ff1690565b6001600160a01b03821660009081526008602090815260408083208484529091529020606090610972906126b3565b6000838152600760209081526040808320858452825280832060058101548251808401909352601c835260008051602061340e833981519152938301939093529160ff166110ab5760405162461bcd60e51b81526004016107f59190613271565b50600092835260030160205250604090205492915050565b600260035414156111165760405162461bcd60e51b815260206004820152601f60248201527f5265656e7472616e637947756172643a207265656e7472616e742063616c6c0060448201526064016107f5565b600260035561112483610bdb565b6000811161116d5760405162461bcd60e51b815260206004820152601660248201527504143593a2043616e6e6f7420776974686472617720360541b60448201526064016107f5565b60008381526005602090815260409182902060078101548351808501909452601884526000805160206133ee83398151915292840192909252919060ff166111c85760405162461bcd60e51b81526004016107f59190613271565b50806004015482111561121d5760405162461bcd60e51b815260206004820152601c60248201527f4143593a20496e73756666696369656e74204c502062616c616e63650000000060448201526064016107f5565b600084815260076020908152604080832086845282529182902060058101548351808501909452601c845260008051602061340e83398151915292840192909252919060ff166112805760405162461bcd60e51b81526004016107f59190613271565b5080546040805180820190915260118152701050d64e88155b985d5d1a1bdc9a5e9959607a1b6020820152906001600160a01b031633146112d45760405162461bcd60e51b81526004016107f59190613271565b50600182015460028201546112e990426132fd565b101561132e5760405162461bcd60e51b81526020600482015260146024820152734143593a204e6f206561726c7920756e6c6f636b60601b60448201526064016107f5565b80600101548311156113825760405162461bcd60e51b815260206004820152601c60248201527f4143593a20496e73756666696369656e74204c502062616c616e63650000000060448201526064016107f5565b60005b60028301548110156114475760008360020182815481106113a8576113a861339e565b60009182526020808320909101548083526004860182526040808420546006890190935283205460018701549194506904ee2d6d415b85acef8160201b916113f091906132de565b6113fa91906132bc565b61140491906132fd565b905080846003016000848152602001908152602001600020600082825461142b91906132a4565b925050819055505050808061143f90613357565b915050611385565b508281600101600082825461145c91906132fd565b925050819055508282600401600082825461147791906132fd565b90915550600090505b60028301548110156115115760008360020182815481106114a3576114a361339e565b906000526020600020015490506904ee2d6d415b85acef8160201b8460060160008381526020019081526020016000205484600101546114e391906132de565b6114ed91906132bc565b6000918252600484016020526040909120558061150981613357565b915050611480565b508154611528906001600160a01b031633856126c0565b8385336001600160a01b03167f02f25270a4d87bea75db541cdfe559334a275b4a233520ed6c0a2429667cca948660405161156591815260200190565b60405180910390a450506001600355505050565b60008181526005602090815260409182902060078101548351808501909452601884526000805160206133ee83398151915292840192909252606092909160ff166115d75760405162461bcd60e51b81526004016107f59190613271565b5060008381526005602052604090206002015467ffffffffffffffff811115611602576116026133b4565b60405190808252806020026020018201604052801561162b578160200160208202803683370190505b50915060005b6000848152600560205260409020600201548110156117175760008260020182815481106116615761166161339e565b6000918252602080832090910154808352600c8252604092839020548351808501909452601284527120a1ac9d102ab735b737bbb7103a37b5b2b760711b9284019290925292506001600160a01b031690816116d05760405162461bcd60e51b81526004016107f59190613271565b50808584815181106116e4576116e461339e565b60200260200101906001600160a01b031690816001600160a01b03168152505050508061171090613357565b9050611631565b5050919050565b7f8619cecd8b9e095ab43867f5b69d492180450fe862e6b50bfbfb24b75dd84c8a61174981336124a8565b604080516001808252818301909252600161011160931b01916000919060208083019080368337019050509050838160008151811061178a5761178a61339e565b6001600160a01b039283166020918202929092010152604051630809469f60e11b8152908316906310128d3e906117c59084906004016131ec565b600060405180830381600087803b1580156117df57600080fd5b505af11580156117f3573d6000803e3d6000fd5b5050505050505050565b60008181526005602090815260409182902060078101548351808501909452601884526000805160206133ee83398151915292840192909252606092909160ff1661185b5760405162461bcd60e51b81526004016107f59190613271565b50806002018054806020026020016040519081016040528092919081815260200182805480156118aa57602002820191906000526020600020905b815481526020019060010190808311611896575b5050505050915050919050565b60008181526001602052604081206107969061250c565b7f8619cecd8b9e095ab43867f5b69d492180450fe862e6b50bfbfb24b75dd84c8a6118f981336124a8565b604080516001808252818301909252600161011160931b01916000919060208083019080368337019050509050838160008151811061193a5761193a61339e565b6001600160a01b03928316602091820292909201015260405163694996db60e11b81529083169063d2932db6906117c59084906004016131ec565b6000838152600760209081526040808320858452825280832060058101548251808401909352601c835260008051602061340e833981519152938301939093529160ff166119d65760405162461bcd60e51b81526004016107f59190613271565b50600092835260040160205250604090205492915050565b610b8d8282612723565b60008051602061342e833981519152611a1181336124a8565b6001600160a01b038816611a675760405162461bcd60e51b815260206004820152601760248201527f4143593a20496e76616c6964204c50206164647265737300000000000000000060448201526064016107f5565b848314611aad5760405162461bcd60e51b815260206004820152601460248201527308286b2744098cadccee8d040dad2e6dac2e8c6d60631b60448201526064016107f5565b60005b85811015611b52576000878783818110611acc57611acc61339e565b602090810292909201356000818152600c8452604090819020548151808301909252601282527120a1ac9d102ab735b737bbb7103a37b5b2b760711b94820194909452909350916001600160a01b031615159050611b3d5760405162461bcd60e51b81526004016107f59190613271565b50508080611b4a90613357565b915050611ab0565b508115611b6157611b61610d56565b6004805460009182611b7283613357565b90915550600081815260056020526040902080546001600160a01b0319166001600160a01b038c16178155600181018a9055909150611bb5600282018989612dc3565b5043600582015560078101805460ff1916600117905560005b87811015611cd4576000898983818110611bea57611bea61339e565b905060200201359050878783818110611c0557611c0561339e565b9050602002013583600301600083815260200190815260200160002081905550878783818110611c3757611c3761339e565b90506020020135600b60008381526020019081526020016000206000828254611c6091906132a4565b909155508490507f6096a506a56b62e1e89ba38de21bee0baa72624ed4a165d1e3b4ba0b34899a52828a8a86818110611c9b57611c9b61339e565b90506020020135604051611cb9929190918252602082015260400190565b60405180910390a25080611ccc81613357565b915050611bce565b50604080516001600160a01b038c168152602081018b905283917feb5b1b786d9b00ebba09bbefa89ef219c929ae75f21e3ac1a70d57b6f75911b6910160405180910390a250505050505050505050565b60025460ff1615611d6b5760405162461bcd60e51b815260206004820152601060248201526f14185d5cd8589b194e881c185d5cd95960821b60448201526064016107f5565b611d7482610bdb565b60008281526005602090815260409182902060078101548351808501909452601884526000805160206133ee83398151915292840192909252919060ff16611dcf5760405162461bcd60e51b81526004016107f59190613271565b506006805460009182611de183613357565b909155506000858152600760209081526040808320848452825280832080546001600160a01b03191633908117825560018083018a905542600284015560058301805460ff1916909117905584526008835281842089855290925290912091925090611e4d9083612749565b5060005b6002840154811015611ee2576000846002018281548110611e7457611e7461339e565b906000526020600020015490506904ee2d6d415b85acef8160201b856006016000838152602001908152602001600020548460010154611eb491906132de565b611ebe91906132bc565b60009182526004840160205260409091205580611eda81613357565b915050611e51565b508254611efa906001600160a01b0316333087612755565b83836004016000828254611f0e91906132a4565b90915550506040518481528290869033907f36af321ec8d3c75236829c5317affd40ddb308863a1236d2d277a4025cccee1e9060200160405180910390a45050505050565b60008051602061342e833981519152611f6c81336124a8565b6000838152600c6020908152604091829020548251808401909352601283527120a1ac9d102ab735b737bbb7103a37b5b2b760711b918301919091526001600160a01b03169081611fd05760405162461bcd60e51b81526004016107f59190613271565b50611fe66001600160a01b038216333086612755565b600084815260096020526040812080548592906120049084906132a4565b909155505060405183815284907f68f079265ae908d13eb803490bb7e3056a61413040af8e0f0e2eebb98648c79d9060200160405180910390a250505050565b61204e828261278d565b5050565b6000610972836001600160a01b038416612811565b60006001600160e01b03198216637965db0b60e01b148061079657506301ffc9a760e01b6001600160e01b0319831614610796565b60006109728383612860565b600260035414156120fb5760405162461bcd60e51b815260206004820152601f60248201527f5265656e7472616e637947756172643a207265656e7472616e742063616c6c0060448201526064016107f5565b600260035561210984610bdb565b60008481526005602090815260409182902060078101548351808501909452601884526000805160206133ee83398151915292840192909252919060ff166121645760405162461bcd60e51b81526004016107f59190613271565b50600085815260076020908152604080832087845282529182902060058101548351808501909452601c845260008051602061340e83398151915292840192909252919060ff166121c85760405162461bcd60e51b81526004016107f59190613271565b5080546040805180820190915260118152701050d64e88155b985d5d1a1bdc9a5e9959607a1b6020820152906001600160a01b0316331461221c5760405162461bcd60e51b81526004016107f59190613271565b5060005b60028301548110156124285760008360020182815481106122435761224361339e565b60009182526020808320909101548083526004860182526040808420546006890190935283205460018701549194506904ee2d6d415b85acef8160201b9161228b91906132de565b61229591906132bc565b60008481526003870160205260409020546122b091906132a4565b6122ba91906132fd565b60008381526009602052604090205490915081116123b357600082815260038501602090815260408083208390556006880190915290205460018501546904ee2d6d415b85acef8160201b9161230f916132de565b61231991906132bc565b6000838152600486016020908152604080832093909355600c9052205461234a906001600160a01b031633836126c0565b600082815260096020526040812080548392906123689084906132fd565b9091555050604080518381526020810183905289918b9133917f779f6d843e7d40a6f05a1e46d3741bc2fd3949f52997fc3b95221af725f1b12f910160405180910390a45050612416565b8515612413576040517f4143593a20496e73756666696369656e742066756e64696e6720666f722000006020820152603e8101839052605e015b60408051601f198184030181529082905262461bcd60e51b82526107f591600401613271565b50505b8061242081613357565b915050612220565b5060018101541580156124385750835b1561249b576000868152600760209081526040808320888452825280832080546001600160a01b03191681556001810184905560028101849055600501805460ff19169055338352600882528083208984529091529020612499908661288a565b505b5050600160035550505050565b6124b28282610ff2565b61204e576124ca816001600160a01b03166014612896565b6124d5836020612896565b6040516020016123ed929190613177565b60008281526020819052604090206001015461250281336124a8565b610b0c838361278d565b6000610796825490565b6001600160a01b03811633146125865760405162461bcd60e51b815260206004820152602f60248201527f416363657373436f6e74726f6c3a2063616e206f6e6c792072656e6f756e636560448201526e103937b632b9903337b91039b2b63360891b60648201526084016107f5565b61204e8282612a32565b6000610972836001600160a01b038416612a97565b60025460ff166125ee5760405162461bcd60e51b815260206004820152601460248201527314185d5cd8589b194e881b9bdd081c185d5cd95960621b60448201526064016107f5565b6002805460ff191690557f5db9ee0a495bf2e6ff9c91a7834c1ba4fdd244a5e8aa4e537bd38aeae4b073aa335b6040516001600160a01b03909116815260200160405180910390a1565b60025460ff161561267e5760405162461bcd60e51b815260206004820152601060248201526f14185d5cd8589b194e881c185d5cd95960821b60448201526064016107f5565b6002805460ff191660011790557f62e78cea01bee320cd4e420270b5ea74000d11b0c9f74754ebdbfc544b05a25861261b3390565b6060600061097283612b8a565b6040516001600160a01b038316602482015260448101829052610b0c90849063a9059cbb60e01b906064015b60408051601f198184030181529190526020810180516001600160e01b03166001600160e01b031990931692909217909152612be6565b60008281526020819052604090206001015461273f81336124a8565b610b0c8383612a32565b60006109728383612811565b6040516001600160a01b0380851660248301528316604482015260648101829052610a669085906323b872dd60e01b906084016126ec565b6127978282610ff2565b61204e576000828152602081815260408083206001600160a01b03851684529091529020805460ff191660011790556127cd3390565b6001600160a01b0316816001600160a01b0316837f2f8788117e7eff1d82e926ec794901d17c78024a50270940304540a733656f0d60405160405180910390a45050565b600081815260018301602052604081205461285857508154600181810184556000848152602080822090930184905584548482528286019093526040902091909155610796565b506000610796565b60008260000182815481106128775761287761339e565b9060005260206000200154905092915050565b60006109728383612a97565b606060006128a58360026132de565b6128b09060026132a4565b67ffffffffffffffff8111156128c8576128c86133b4565b6040519080825280601f01601f1916602001820160405280156128f2576020820181803683370190505b509050600360fc1b8160008151811061290d5761290d61339e565b60200101906001600160f81b031916908160001a905350600f60fb1b8160018151811061293c5761293c61339e565b60200101906001600160f81b031916908160001a90535060006129608460026132de565b61296b9060016132a4565b90505b60018111156129e3576f181899199a1a9b1b9c1cb0b131b232b360811b85600f166010811061299f5761299f61339e565b1a60f81b8282815181106129b5576129b561339e565b60200101906001600160f81b031916908160001a90535060049490941c936129dc81613340565b905061296e565b5083156109725760405162461bcd60e51b815260206004820181905260248201527f537472696e67733a20686578206c656e67746820696e73756666696369656e7460448201526064016107f5565b612a3c8282610ff2565b1561204e576000828152602081815260408083206001600160a01b0385168085529252808320805460ff1916905551339285917ff6391f5c32d9c69d2a47ea670b442974b53935d1edc7fd64eb21e047a839171b9190a45050565b60008181526001830160205260408120548015612b80576000612abb6001836132fd565b8554909150600090612acf906001906132fd565b9050818114612b34576000866000018281548110612aef57612aef61339e565b9060005260206000200154905080876000018481548110612b1257612b1261339e565b6000918252602080832090910192909255918252600188019052604090208390555b8554869080612b4557612b45613388565b600190038181906000526020600020016000905590558560010160008681526020019081526020016000206000905560019350505050610796565b6000915050610796565b606081600001805480602002602001604051908101604052809291908181526020018280548015612bda57602002820191906000526020600020905b815481526020019060010190808311612bc6575b50505050509050919050565b6000612c3b826040518060400160405280602081526020017f5361666545524332303a206c6f772d6c6576656c2063616c6c206661696c6564815250856001600160a01b0316612cb89092919063ffffffff16565b805190915015610b0c5780806020019051810190612c599190612eed565b610b0c5760405162461bcd60e51b815260206004820152602a60248201527f5361666545524332303a204552433230206f7065726174696f6e20646964206e6044820152691bdd081cdd58d8d9595960b21b60648201526084016107f5565b6060610a52848460008585843b612d115760405162461bcd60e51b815260206004820152601d60248201527f416464726573733a2063616c6c20746f206e6f6e2d636f6e747261637400000060448201526064016107f5565b600080866001600160a01b03168587604051612d2d919061315b565b60006040518083038185875af1925050503d8060008114612d6a576040519150601f19603f3d011682016040523d82523d6000602084013e612d6f565b606091505b5091509150612d7f828286612d8a565b979650505050505050565b60608315612d99575081610972565b825115612da95782518084602001fd5b8160405162461bcd60e51b81526004016107f59190613271565b828054828255906000526020600020908101928215612dfe579160200282015b82811115612dfe578235825591602001919060010190612de3565b50612e0a929150612e0e565b5090565b5b80821115612e0a5760008155600101612e0f565b60008083601f840112612e3557600080fd5b50813567ffffffffffffffff811115612e4d57600080fd5b6020830191508360208260051b8501011115612e6857600080fd5b9250929050565b600060208284031215612e8157600080fd5b8135610972816133ca565b60008060408385031215612e9f57600080fd5b8235612eaa816133ca565b946020939093013593505050565b600080600060608486031215612ecd57600080fd5b8335612ed8816133ca565b95602085013595506040909401359392505050565b600060208284031215612eff57600080fd5b8151610972816133df565b600060208284031215612f1c57600080fd5b5035919050565b60008060408385031215612f3657600080fd5b823591506020830135612f48816133ca565b809150509250929050565b60008060408385031215612f6657600080fd5b50508035926020909101359150565b600080600060608486031215612f8a57600080fd5b83359250602084013591506040840135612fa3816133df565b809150509250925092565b600060208284031215612fc057600080fd5b81356001600160e01b03198116811461097257600080fd5b600080600080600080600060a0888a031215612ff357600080fd5b8735612ffe816133ca565b965060208801359550604088013567ffffffffffffffff8082111561302257600080fd5b61302e8b838c01612e23565b909750955060608a013591508082111561304757600080fd5b506130548a828b01612e23565b9094509250506080880135613068816133df565b8091505092959891949750929550565b60008060006060848603121561308d57600080fd5b83359250602084013561309f816133df565b91506040840135612fa3816133df565b600080600080608085870312156130c557600080fd5b84359350602085013592506040850135915060608501356130e5816133df565b939692955090935050565b6000806000806080858703121561310657600080fd5b8435935060208501359250604085013561311f816133df565b915060608501356130e5816133df565b60008060006060848603121561314457600080fd5b505081359360208301359350604090920135919050565b6000825161316d818460208701613314565b9190910192915050565b7f416363657373436f6e74726f6c3a206163636f756e74200000000000000000008152600083516131af816017850160208801613314565b7001034b99036b4b9b9b4b733903937b6329607d1b60179184019182015283516131e0816028840160208801613314565b01602801949350505050565b6020808252825182820181905260009190848201906040850190845b8181101561322d5783516001600160a01b031683529284019291840191600101613208565b50909695505050505050565b6020808252825182820181905260009190848201906040850190845b8181101561322d57835183529284019291840191600101613255565b6020815260008251806020840152613290816040850160208701613314565b601f01601f19169190910160400192915050565b600082198211156132b7576132b7613372565b500190565b6000826132d957634e487b7160e01b600052601260045260246000fd5b500490565b60008160001904831182151516156132f8576132f8613372565b500290565b60008282101561330f5761330f613372565b500390565b60005b8381101561332f578181015183820152602001613317565b83811115610a665750506000910152565b60008161334f5761334f613372565b506000190190565b600060001982141561336b5761336b613372565b5060010190565b634e487b7160e01b600052601160045260246000fd5b634e487b7160e01b600052603160045260246000fd5b634e487b7160e01b600052603260045260246000fd5b634e487b7160e01b600052604160045260246000fd5b6001600160a01b0381168114610bd857600080fd5b8015158114610bd857600080fdfe4143593a20506f6f6c20646f6573206e6f7420657869737400000000000000004143593a20506f736974696f6e20646f6573206e6f74206578697374000000006077685936c8169d09204a1d97db12e41713588c38e1d29a61867d3dcee98affa264697066735822122036a4df5ffa4da6e1c1170e919761df92550bf3da7bf634228e8abb9d8c88f26164736f6c63430008060033",
  "immutableReferences": {},
  "source": "// SPDX-License-Identifier: MIT\npragma solidity 0.8.6;\n\nimport \"@openzeppelin/contracts/access/AccessControlEnumerable.sol\";\nimport \"@openzeppelin/contracts/security/Pausable.sol\";\nimport \"@openzeppelin/contracts/security/ReentrancyGuard.sol\";\nimport \"@openzeppelin/contracts/token/ERC20/IERC20.sol\";\nimport \"@openzeppelin/contracts/token/ERC20/utils/SafeERC20.sol\";\nimport \"@openzeppelin/contracts/utils/math/SafeMath.sol\";\nimport \"@openzeppelin/contracts/utils/structs/EnumerableSet.sol\";\n\nimport \"./interfaces/ISponsorWhitelistControl.sol\";\n\n// references:\n// https://github.com/moon-migration/moonswap-core/blob/master/contracts/farm/ConfluxMultiFarm.sol\n// https://github.com/ltonetwork/uniswap-farming/blob/master/contracts/Farm.sol\n// https://github.com/pancakeswap/pancake-farm/blob/master/contracts/MasterChef.sol\n\n// TODO: do we need emergencyWithdraw?\n\n\ncontract ACYMultiFarm is AccessControlEnumerable, Pausable, ReentrancyGuard {\n    using EnumerableSet for EnumerableSet.UintSet;\n    using SafeERC20 for IERC20;\n\n\n    // ---------------------------\n    // ---------- roles ----------\n    // ---------------------------\n    bytes32 public constant POOL_MANAGER_ROLE = keccak256(\"POOL_MANAGER_ROLE\");\n    bytes32 public constant PAUSER_ROLE = keccak256(\"PAUSER_ROLE\");\n    bytes32 public constant WHITELISTER_ROLE = keccak256(\"WHITELISTER_ROLE\");\n\n\n    // ---------------------------\n    // ---------- errors ---------\n    // ---------------------------\n    string constant POOL_NOT_EXIST = \"ACY: Pool does not exist\";\n    string constant POSITION_NOT_EXIST = \"ACY: Position does not exist\";\n    string constant POSITION_UNAUTHORIZED = \"ACY: Unauthorized\";\n    string constant TOKEN_UNKNOWN = \"ACY: Unknown token\";\n\n\n    // -------------------------------------\n    // ---------- data structures ----------\n    // -------------------------------------\n\n    struct PoolInfo {\n        // the LP token the user has to stake\n        IERC20 lpToken;\n\n        // LP lock duration in seconds\n        uint256 lockDuration;\n\n        // a set of reward tokens a user can receive in this pool\n        bytes32[] rewardTokens;\n\n        // `allocPoint[token] / totalAllocPoint[token]` portion of `token` rewards go to this pool\n        mapping (bytes32 => uint256) allocPoint;\n\n        // current LP balance in this pool\n        uint256 lpBalance;\n\n        // block number where this pool was last updated\n        uint256 lastUpdateBlock;\n\n        // accumulated reward token per share, for each token\n        mapping (bytes32 => uint256) accTokenPerShare;\n\n        // flag for checking if a pool exists\n        bool exists;\n    }\n\n    struct StakingPosition {\n        // user address\n        address addr;\n\n        // current amount of LP staked\n        // note: this will NOT increase but it can decrease (partial withdraw after unlock)\n        uint256 lpAmount;\n\n        // time when this position was created\n        uint256 stakeTimestamp;\n\n        // pending rewards calculated but not harvested yet, for each token\n        mapping (bytes32 => uint256) pendingRewards;\n\n        // reward debt, reward already released and accounted for, for each token\n        mapping (bytes32 => uint256) rewardDebt;\n\n        // flag for checking if a position exists\n        bool exists;\n    }\n\n\n    // -------------------------------------\n    // ---------- state variables ----------\n    // -------------------------------------\n\n    // pools\n    uint256 public numPools = 0;\n    mapping (uint256 => PoolInfo) public poolInfo; // pool ID => pool\n\n    // staking positions\n    uint256 public numPositions = 0;\n    mapping (uint256 => mapping (uint256 => StakingPosition)) public stakingPosition; // pool ID => position ID => user\n\n    mapping (address => mapping (uint256 => EnumerableSet.UintSet)) private userPositions;\n\n    // amount of rewards available, for each token\n    mapping (bytes32 => uint256) public availableBalance;\n\n    // reward per block, for each token\n    mapping (bytes32 => uint256) public rewardPerBlock;\n\n    // sum of all allocation points, for each token\n    mapping (bytes32 => uint256) public totalAllocPoint;\n\n    // address of token contract, for each token\n    mapping (bytes32 => IERC20) public tokenContract;\n\n\n    // ----------------------------\n    // ---------- events ----------\n    // ----------------------------\n    event Deposit(address indexed user, uint256 indexed poolId, uint256 indexed positionId, uint256 amount);\n    event Withdraw(address indexed user, uint256 indexed poolId, uint256 indexed positionId, uint256 amount);\n    event Harvest(address indexed user, uint256 indexed poolId, uint256 indexed positionId, bytes32 token, uint256 amount);\n\n    event NewToken(bytes32 indexed token, address addr);\n    event NewPool(uint256 indexed poolId, address lpToken, uint256 lockDuration);\n    event TokenFunded(bytes32 indexed token, uint256 amount);\n    event AllocPointUpdated(uint256 indexed poolId, bytes32 token, uint256 newAllocPoint);\n    event RewardPerBlockUpdated(bytes32 token, uint256 newReward);\n\n\n    // ------------------------------------------\n    // ---------- restricted interface ----------\n    // ------------------------------------------\n\n    constructor() {\n        _setupRole(POOL_MANAGER_ROLE, msg.sender);\n        _setupRole(PAUSER_ROLE, msg.sender);\n        _setupRole(WHITELISTER_ROLE, msg.sender);\n    }\n\n    function registerToken(bytes32 _token, IERC20 _erc20) public onlyRole(POOL_MANAGER_ROLE) {\n        tokenContract[_token] = _erc20;\n        emit NewToken(_token, address(_erc20));\n    }\n\n    function createPool(IERC20 _lpToken, uint256 _lockDuration, bytes32[] calldata _rewardTokens, uint256[] calldata _allocPoints, bool _withUpdate) public onlyRole(POOL_MANAGER_ROLE) {\n        // check input format\n        require(address(_lpToken) != address(0), \"ACY: Invalid LP address\");\n        require(_rewardTokens.length == _allocPoints.length, \"ACY: Length mismatch\");\n\n        // check if tokens exist\n        for (uint ii = 0; ii < _rewardTokens.length; ii++) {\n            bytes32 token = _rewardTokens[ii];\n            require(address(tokenContract[token]) != address(0), TOKEN_UNKNOWN);\n        }\n\n        // update pools\n        if (_withUpdate) {\n            massUpdatePools();\n        }\n\n        // initialize new pool\n        uint256 poolId = numPools++;\n        PoolInfo storage pool = poolInfo[poolId];\n\n        pool.lpToken = _lpToken;\n        pool.lockDuration = _lockDuration;\n        pool.rewardTokens = _rewardTokens;\n        pool.lastUpdateBlock = block.number;\n        pool.exists = true;\n\n        for (uint ii = 0; ii < _rewardTokens.length; ii++) {\n            bytes32 token = _rewardTokens[ii];\n            pool.allocPoint[token] = _allocPoints[ii];\n            totalAllocPoint[token] += _allocPoints[ii];\n\n            emit AllocPointUpdated(poolId, token, _allocPoints[ii]);\n        }\n\n        emit NewPool(poolId, address(_lpToken), _lockDuration);\n    }\n\n    function fund(bytes32 _token, uint256 _amount) external onlyRole(POOL_MANAGER_ROLE) {\n        IERC20 erc20 = tokenContract[_token];\n        require(address(erc20) != address(0), TOKEN_UNKNOWN);\n\n        erc20.safeTransferFrom(msg.sender, address(this), _amount);\n        availableBalance[_token] += _amount;\n\n        emit TokenFunded(_token, _amount);\n    }\n\n    function setAllocPoint(uint256 _poolId, bytes32 _token, uint256 _allocPoint, bool _withUpdate) external onlyRole(POOL_MANAGER_ROLE) {\n        PoolInfo storage pool = poolInfo[_poolId];\n        require(pool.exists, POOL_NOT_EXIST);\n\n        if (_withUpdate) {\n            massUpdatePools();\n        }\n\n        totalAllocPoint[_token] = totalAllocPoint[_token] - pool.allocPoint[_token] + _allocPoint;\n        pool.allocPoint[_token] = _allocPoint;\n\n        emit AllocPointUpdated(_poolId, _token, _allocPoint);\n    }\n\n    function setRewardPerBlock(bytes32 _token, uint256 _newReward, bool _withUpdate) external onlyRole(POOL_MANAGER_ROLE) {\n        if (_withUpdate) {\n            massUpdatePools();\n        }\n\n        rewardPerBlock[_token] = _newReward;\n        emit RewardPerBlockUpdated(_token, _newReward);\n    }\n\n    function pause() public onlyRole(PAUSER_ROLE) {\n        _pause();\n    }\n\n    function unpause() public onlyRole(PAUSER_ROLE) {\n        _unpause();\n    }\n\n    function enableSponsorshipForAddress(address addr) external onlyRole(WHITELISTER_ROLE) {\n        ISponsorWhitelistControl swc = ISponsorWhitelistControl(0x0888000000000000000000000000000000000001);\n        address[] memory a = new address[](1);\n        a[0] = address(addr);\n        swc.addPrivilege(a);\n    }\n\n    function disableSponsorshipForAddress(address addr) external onlyRole(WHITELISTER_ROLE) {\n        ISponsorWhitelistControl swc = ISponsorWhitelistControl(0x0888000000000000000000000000000000000001);\n        address[] memory a = new address[](1);\n        a[0] = address(addr);\n        swc.removePrivilege(a);\n    }\n\n\n    // --------------------------------------\n    // ---------- public interface ----------\n    // --------------------------------------\n\n    function deposit(uint256 _poolId, uint256 _amount) external whenNotPaused() {\n        updatePool(_poolId);\n\n        PoolInfo storage pool = poolInfo[_poolId];\n        require(pool.exists, POOL_NOT_EXIST);\n\n        uint256 positionId = numPositions++;\n        StakingPosition storage user = stakingPosition[_poolId][positionId];\n        user.addr = msg.sender;\n        user.lpAmount = _amount;\n        user.stakeTimestamp = block.timestamp;\n        user.exists = true;\n\n        userPositions[msg.sender][_poolId].add(positionId);\n\n        for (uint ii = 0; ii < pool.rewardTokens.length; ii++) {\n            bytes32 token = pool.rewardTokens[ii];\n            user.rewardDebt[token] = (user.lpAmount * pool.accTokenPerShare[token]) / 1e32;\n        }\n\n        pool.lpToken.safeTransferFrom(msg.sender, address(this), _amount);\n        pool.lpBalance += _amount;\n\n        emit Deposit(msg.sender, _poolId, positionId, _amount);\n    }\n\n    function withdraw(uint256 _poolId, uint256 _positionId, uint256 _amount) external nonReentrant {\n        updatePool(_poolId);\n\n        require(_amount > 0, \"ACY: Cannot withdraw 0\");\n\n        PoolInfo storage pool = poolInfo[_poolId];\n        require(pool.exists, POOL_NOT_EXIST);\n        require(_amount <= pool.lpBalance, \"ACY: Insufficient LP balance\");\n\n        StakingPosition storage user = stakingPosition[_poolId][_positionId];\n        require(user.exists, POSITION_NOT_EXIST);\n        require(user.addr == msg.sender, POSITION_UNAUTHORIZED);\n        require(block.timestamp - user.stakeTimestamp >= pool.lockDuration, \"ACY: No early unlock\");\n        require(_amount <= user.lpAmount, \"ACY: Insufficient LP balance\");\n\n        // store pending rewards\n        for (uint ii = 0; ii < pool.rewardTokens.length; ii++) {\n            bytes32 token = pool.rewardTokens[ii];\n            uint256 pending = (user.lpAmount * pool.accTokenPerShare[token]) / 1e32 - user.rewardDebt[token];\n            user.pendingRewards[token] += pending;\n        }\n\n        // update LP balances\n        user.lpAmount -= _amount;\n        pool.lpBalance -= _amount;\n\n        // update reward debt\n        for (uint ii = 0; ii < pool.rewardTokens.length; ii++) {\n            bytes32 token = pool.rewardTokens[ii];\n            user.rewardDebt[token] = (user.lpAmount * pool.accTokenPerShare[token]) / 1e32;\n        }\n\n        pool.lpToken.safeTransfer(msg.sender, _amount);\n\n        emit Withdraw(msg.sender, _poolId, _positionId, _amount);\n    }\n\n    function _harvest(uint256 _poolId, uint256 _positionId, bool _closeIfEmpty, bool _revertOnFailure) private nonReentrant {\n        updatePool(_poolId);\n\n        PoolInfo storage pool = poolInfo[_poolId];\n        require(pool.exists, POOL_NOT_EXIST);\n\n        StakingPosition storage user = stakingPosition[_poolId][_positionId];\n        require(user.exists, POSITION_NOT_EXIST);\n        require(user.addr == msg.sender, POSITION_UNAUTHORIZED);\n\n        // collect and transfer rewards\n        for (uint ii = 0; ii < pool.rewardTokens.length; ii++) {\n            bytes32 token = pool.rewardTokens[ii];\n            uint256 pending = user.pendingRewards[token] + (user.lpAmount * pool.accTokenPerShare[token]) / 1e32 - user.rewardDebt[token];\n\n            // we have enough funding to pay out rewards\n            if (availableBalance[token] >= pending) {\n                user.pendingRewards[token] = 0;\n                user.rewardDebt[token] = (user.lpAmount * pool.accTokenPerShare[token]) / 1e32;\n\n                tokenContract[token].safeTransfer(msg.sender, pending);\n                availableBalance[token] -= pending;\n\n                emit Harvest(msg.sender, _poolId, _positionId, token, pending);\n                continue;\n            }\n\n            // revert or silently ignore\n            if (_revertOnFailure) {\n                revert(string(abi.encodePacked(\"ACY: Insufficient funding for \", token)));\n            }\n        }\n\n        if (user.lpAmount == 0 && _closeIfEmpty) {\n            delete stakingPosition[_poolId][_positionId];\n            userPositions[msg.sender][_poolId].remove(_positionId);\n        }\n    }\n\n    function harvest(uint256 _poolId, uint256 _positionId, bool _closeIfEmpty, bool _revertOnFailure) external {\n        _harvest(_poolId, _positionId, _closeIfEmpty, _revertOnFailure);\n    }\n\n    function harvestAll(uint256 _poolId, bool _closeIfEmpty, bool _revertOnFailure) external {\n        for (uint ii = 0; ii < userPositions[msg.sender][_poolId].length(); ii++) {\n            uint256 positionId = userPositions[msg.sender][_poolId].at(ii);\n            _harvest(_poolId, positionId, _closeIfEmpty, _revertOnFailure);\n        }\n    }\n\n    function updatePool(uint256 _poolId) public {\n        PoolInfo storage pool = poolInfo[_poolId];\n        require(pool.exists, POOL_NOT_EXIST);\n\n        if (block.number <= pool.lastUpdateBlock) {\n            return;\n        }\n\n        uint256 lpSupply = pool.lpBalance;\n\n        if (lpSupply == 0) {\n            pool.lastUpdateBlock = block.number;\n            return;\n        }\n\n        uint256 numBlocks = block.number - pool.lastUpdateBlock;\n\n        for (uint ii = 0; ii < pool.rewardTokens.length; ii++) {\n            bytes32 token = pool.rewardTokens[ii];\n            uint256 tokenReward = numBlocks * rewardPerBlock[token] * pool.allocPoint[token] / totalAllocPoint[token];\n            pool.accTokenPerShare[token] += tokenReward * 1e32 / lpSupply;\n        }\n\n        pool.lastUpdateBlock = block.number;\n    }\n\n    function massUpdatePools() public {\n        for (uint256 pid = 0; pid < numPools; ++pid) {\n            updatePool(pid);\n        }\n    }\n\n\n    // -------------------------------------\n    // ---------- query interface ----------\n    // -------------------------------------\n\n    function pending(uint256 _poolId, uint256 _id, bytes32 _token) public view returns (uint256) {\n        PoolInfo storage pool = poolInfo[_poolId];\n        require(pool.exists, POOL_NOT_EXIST);\n\n        StakingPosition storage user = stakingPosition[_poolId][_id];\n        require(user.exists, POSITION_NOT_EXIST);\n\n        uint256 accTokenPerShare = pool.accTokenPerShare[_token];\n        uint256 lpSupply = pool.lpBalance;\n\n        if (lpSupply != 0) {\n            uint256 numBlocks = block.number - pool.lastUpdateBlock;\n            uint256 tokenReward = numBlocks * rewardPerBlock[_token] * pool.allocPoint[_token] / totalAllocPoint[_token];\n            accTokenPerShare += tokenReward * 1e32 / lpSupply;\n        }\n\n        return user.pendingRewards[_token] + user.lpAmount * accTokenPerShare / 1e32 - user.rewardDebt[_token];\n    }\n\n    function getUserPositions(address _addr, uint256 _poolId) public view returns (uint256[] memory) {\n        return userPositions[_addr][_poolId].values();\n    }\n\n    function numUserPositions(address _addr, uint256 _poolId) public view returns (uint256) {\n        return userPositions[_addr][_poolId].length();\n    }\n\n    function getUserPositionIdAt(address _addr, uint256 _poolId, uint256 _index) public view returns (uint256) {\n        return userPositions[_addr][_poolId].at(_index);\n    }\n\n    function getPoolRewardTokens(uint256 _poolId) public view returns (bytes32[] memory) {\n        PoolInfo storage pool = poolInfo[_poolId];\n        require(pool.exists, POOL_NOT_EXIST);\n        return pool.rewardTokens;\n    }\n\n    function getPoolRewardTokenAddresses(uint256 _poolId) public view returns (address[] memory addresses) {\n        PoolInfo storage pool = poolInfo[_poolId];\n        require(pool.exists, POOL_NOT_EXIST);\n\n        addresses = new address[](poolInfo[_poolId].rewardTokens.length);\n\n        for (uint256 ii = 0; ii < poolInfo[_poolId].rewardTokens.length; ++ii) {\n            bytes32 token = pool.rewardTokens[ii];\n            address addr = address(tokenContract[token]);\n            require(addr != address(0), TOKEN_UNKNOWN);\n            addresses[ii] = addr;\n        }\n    }\n\n    function getPoolTokenRewardInfo(uint256 _poolId, bytes32 _token) public view returns (uint256 ap, uint256 totalAp, uint256 tokenPerBlock, uint256 tokenInPoolPerBlock) {\n        PoolInfo storage pool = poolInfo[_poolId];\n        require(pool.exists, POOL_NOT_EXIST);\n\n        ap = pool.allocPoint[_token];\n        totalAp = totalAllocPoint[_token];\n        tokenPerBlock = rewardPerBlock[_token];\n        tokenInPoolPerBlock = tokenPerBlock * ap / totalAp;\n    }\n\n    function getAccTokenPerShare(uint256 _poolId, bytes32 _token) public view returns (uint256) {\n        PoolInfo storage pool = poolInfo[_poolId];\n        require(pool.exists, POOL_NOT_EXIST);\n        return pool.accTokenPerShare[_token];\n    }\n\n    function getPendingRewards(uint256 _poolId, uint256 _id, bytes32 _token) public view returns (uint256) {\n        StakingPosition storage user = stakingPosition[_poolId][_id];\n        require(user.exists, POSITION_NOT_EXIST);\n        return user.pendingRewards[_token];\n    }\n\n    function getRewardDebt(uint256 _poolId, uint256 _id, bytes32 _token) public view returns (uint256) {\n        StakingPosition storage user = stakingPosition[_poolId][_id];\n        require(user.exists, POSITION_NOT_EXIST);\n        return user.rewardDebt[_token];\n    }\n\n    // TODO: this is not correct as it does not take pending rewards into account\n    // function numFundedBlocks(bytes32 _token) public view returns (uint256) {\n    //     IERC20 erc20 = tokenContract[_token];\n    //     require(address(erc20) != address(0), TOKEN_UNKNOWN);\n\n    //     uint256 tokenSupply = erc20.balanceOf(address(this));\n    //     uint256 perBlock = rewardPerBlock[_token];\n\n    //     return tokenSupply / perBlock;\n    // }\n}",
  "sourcePath": "/Users/chwizdo/Projects/ACY/acy-farm/contracts/ACYMultiFarm.sol",
  "compiler": {
    "name": "solc",
    "version": "0.8.6+commit.11564f7e.Emscripten.clang"
  },
  "schemaVersion": "3.4.3",
  "updatedAt": "2021-09-24T16:21:29.765Z",
  "devdoc": {
    "kind": "dev",
    "methods": {
      "getRoleAdmin(bytes32)": {
        "details": "Returns the admin role that controls `role`. See {grantRole} and {revokeRole}. To change a role's admin, use {_setRoleAdmin}."
      },
      "getRoleMember(bytes32,uint256)": {
        "details": "Returns one of the accounts that have `role`. `index` must be a value between 0 and {getRoleMemberCount}, non-inclusive. Role bearers are not sorted in any particular way, and their ordering may change at any point. WARNING: When using {getRoleMember} and {getRoleMemberCount}, make sure you perform all queries on the same block. See the following https://forum.openzeppelin.com/t/iterating-over-elements-on-enumerableset-in-openzeppelin-contracts/2296[forum post] for more information."
      },
      "getRoleMemberCount(bytes32)": {
        "details": "Returns the number of accounts that have `role`. Can be used together with {getRoleMember} to enumerate all bearers of a role."
      },
      "grantRole(bytes32,address)": {
        "details": "Overload {grantRole} to track enumerable memberships"
      },
      "hasRole(bytes32,address)": {
        "details": "Returns `true` if `account` has been granted `role`."
      },
      "paused()": {
        "details": "Returns true if the contract is paused, and false otherwise."
      },
      "renounceRole(bytes32,address)": {
        "details": "Overload {renounceRole} to track enumerable memberships"
      },
      "revokeRole(bytes32,address)": {
        "details": "Overload {revokeRole} to track enumerable memberships"
      },
      "supportsInterface(bytes4)": {
        "details": "See {IERC165-supportsInterface}."
      }
    },
    "version": 1
  },
  "userdoc": {
    "kind": "user",
    "methods": {},
    "version": 1
  }
}