{
	"data": {
		"bytecode": {
			"linkReferences": {},
			"object": "6080604052600060045560006006553480156200001b57600080fd5b506002805460ff191690556001600355620000577f6077685936c8169d09204a1d97db12e41713588c38e1d29a61867d3dcee98aff33620000b5565b620000837f65d7a28e3265b37a6474929f336521b332c1681b933f6cb9f3376673440d862a33620000b5565b620000af7f8619cecd8b9e095ab43867f5b69d492180450fe862e6b50bfbfb24b75dd84c8a33620000b5565b6200021a565b620000c18282620000c5565b5050565b620000dc82826200010860201b620025fa1760201c565b6000828152600160209081526040909120620001039183906200267e620001a8821b17901c565b505050565b6000828152602081815260408083206001600160a01b038516845290915290205460ff16620000c1576000828152602081815260408083206001600160a01b03851684529091529020805460ff19166001179055620001643390565b6001600160a01b0316816001600160a01b0316837f2f8788117e7eff1d82e926ec794901d17c78024a50270940304540a733656f0d60405160405180910390a45050565b6000620001bf836001600160a01b038416620001c8565b90505b92915050565b60008181526001830160205260408120546200021157508154600181810184556000848152602080822090930184905584548482528286019093526040902091909155620001c2565b506000620001c2565b613aff806200022a6000396000f3fe608060405234801561001057600080fd5b50600436106102d55760003560e01c8063793f085111610182578063abfd0954116100e9578063d3faade9116100a2578063e46bbc9e1161007c578063e46bbc9e146107c4578063e63ab1e9146107d7578063ea8960a4146107fe578063f9226d311461081e57600080fd5b8063d3faade91461078b578063d547741f1461079e578063dd3256d0146107b157600080fd5b8063abfd095414610698578063ad4683a4146106b8578063b7a5adca1461073f578063c4ee5c4414610752578063ca15c87314610765578063d32fff2b1461077857600080fd5b806391d148541161013b57806391d1485414610624578063942b29e314610637578063959b87de14610657578063a217fddf1461066a578063a3461b5a14610672578063a41fe49f1461068557600080fd5b8063793f08511461058257806379dd13ca146105a25780638456cb59146105e3578063849687c7146105eb57806385096902146105fe5780639010d07c1461061157600080fd5b80633634bba61161024157806356d73568116101fa5780635e71823b116101d45780635e71823b1461054b578063630b5ba1146105545780636dce9fbd1461055c57806373bf87611461056f57600080fd5b806356d7356814610504578063570618e1146105195780635c975abb1461054057600080fd5b80633634bba61461049057806336568abe146104a357806338d6ca99146104b65780633a70f8d9146104d65780633f4ba83a146104e957806351eb05a6146104f157600080fd5b8063265fb54a11610293578063265fb54a146104085780632803a1af1461043b5780632ddc65af1461044e5780632ded0fb5146104615780632f2ff15d1461047457806335c62bc21461048757600080fd5b8062aeef8a146102da57806301ffc9a7146102ef578063031bda86146103175780630baf9081146103385780631526fe271461034b578063248a9ca3146103e5575b600080fd5b6102ed6102e83660046137ab565b610831565b005b6103026102fd366004613621565b610c74565b60405190151581526020015b60405180910390f35b61032a6103253660046137ab565b610c9f565b60405190815260200161030e565b61032a6103463660046135c6565b610eef565b6103a461035936600461357d565b600560208190526000918252604090912080546003820154600483015493830154600784015460088501546009909501546001600160a01b0390941695929492939192909160ff1687565b604080516001600160a01b0390981688526020880196909652948601939093526060850191909152608084015260a0830152151560c082015260e00161030e565b61032a6103f336600461357d565b60009081526020819052604090206001015490565b61041b6104163660046135c6565b610f07565b60408051948552602085019390935291830152606082015260800161030e565b61032a61044936600461352b565b610fbf565b6102ed61045c36600461376c565b610ff4565b6102ed61046f366004613596565b611006565b6102ed610482366004613596565b611084565b61032a60045481565b6102ed61049e3660046136f4565b6110af565b6102ed6104b1366004613596565b611121565b61032a6104c436600461357d565b600c6020526000908152604090205481565b6102ed6104e436600461364b565b61119f565b6102ed6114dc565b6102ed6104ff36600461357d565b611512565b61032a600080516020613aaa83398151915281565b61032a7f8619cecd8b9e095ab43867f5b69d492180450fe862e6b50bfbfb24b75dd84c8a81565b60025460ff16610302565b61032a60065481565b6102ed6116dc565b61032a61056a3660046134ff565b611702565b6102ed61057d36600461372b565b61172e565b61032a61059036600461357d565b600b6020526000908152604090205481565b6105cb6105b036600461357d565b600d602052600090815260409020546001600160a01b031681565b6040516001600160a01b03909116815260200161030e565b6102ed611845565b61032a6105f93660046135c6565b611878565b6102ed61060c3660046135e8565b6118e8565b6105cb61061f3660046135c6565b611960565b610302610632366004613596565b611978565b61064a6106453660046134ff565b6119a1565b60405161030e91906138b5565b61032a6106653660046137ab565b6119d0565b61032a600081565b61064a61068036600461357d565b611a48565b6102ed6106933660046137ab565b611a62565b6106ab6106a636600461357d565b611fc8565b60405161030e9190613868565b61070b6106c63660046135c6565b60076020818152600093845260408085209091529183529120805460018201546002830154600384015493909401546001600160a01b03909216939092909160ff1685565b604080516001600160a01b03909616865260208601949094529284019190915260608301521515608082015260a00161030e565b6102ed61074d3660046134e2565b61216d565b61064a61076036600461357d565b61224c565b61032a61077336600461357d565b612306565b6102ed6107863660046134e2565b61231d565b61032a6107993660046137ab565b6123c4565b6102ed6107ac366004613596565b61243c565b61032a6107bf3660046137ab565b612462565b6102ed6107d23660046135c6565b6124f2565b61032a7f65d7a28e3265b37a6474929f336521b332c1681b933f6cb9f3376673440d862a81565b61032a61080c36600461357d565b600a6020526000908152604090205481565b61032a61082c36600461357d565b6125e3565b60025460ff161561087c5760405162461bcd60e51b815260206004820152601060248201526f14185d5cd8589b194e881c185d5cd95960821b60448201526064015b60405180910390fd5b600081116108de5760405162461bcd60e51b815260206004820152602960248201527f4143593a206c6f636b206475726174696f6e206d75737420626520677265617460448201526806572207468616e20360bc1b6064820152608401610873565b630784ce008111156109465760405162461bcd60e51b815260206004820152602b60248201527f4143593a206c6f636b206475726174696f6e206d757374206e6f74206265206f60448201526a766572203420796561727360a81b6064820152608401610873565b61094f83611512565b6000838152600560209081526040918290206009810154835180850190945260188452600080516020613a6a83398151915292840192909252919060ff166109aa5760405162461bcd60e51b815260040161087391906138ed565b5080600701544310156040518060400160405280601981526020017f4143593a20506f6f6c20686173206e6f7420737461727465640000000000000081525090610a075760405162461bcd60e51b815260040161087391906138ed565b5060088101541580610a1c5750806008015443105b6040518060400160405280601881526020017f4143593a20506f6f6c20686173207465726d696e61746564000000000000000081525090610a705760405162461bcd60e51b815260040161087391906138ed565b506006805460009182610a82836139d3565b909155506000868152600760208181526040808420858552825280842080546001600160a01b03191633908117825560018083018c9055426002840155600383018b9055948201805460ff1916909517909455928452600882528084208a855290915290912091925090610af69083612693565b506000868152600960205260409020610b0f9083612693565b506000610b456201518083600301546904ee2d6d415b85acef8160201b610b36919061395a565b610b409190613938565b61269f565b8260010154610b54919061395a565b905060005b6001850154811015610be6576000856001018281548110610b7c57610b7c613a1a565b906000526020600020015490506904ee2d6d415b85acef8160201b8660060160008381526020019081526020016000205484610bb8919061395a565b610bc29190613938565b60009182526006850160205260409091205580610bde816139d3565b915050610b59565b508354610bfe906001600160a01b03163330896126f8565b85846003016000828254610c129190613920565b9250508190555080846004016000828254610c2d9190613920565b90915550506040518681528390889033907f36af321ec8d3c75236829c5317affd40ddb308863a1236d2d277a4025cccee1e9060200160405180910390a450505050505050565b60006001600160e01b03198216635a05180f60e01b1480610c995750610c9982612763565b92915050565b60008381526005602090815260408083206009810154825180840190935260188352600080516020613a6a833981519152938301939093529160ff16610cf85760405162461bcd60e51b815260040161087391906138ed565b506000858152600760208181526040808420888552825292839020918201548351808501909452601c8452600080516020613a8a8339815191529184019190915290919060ff16610d5c5760405162461bcd60e51b815260040161087391906138ed565b50600084815260068301602052604081205460088401549091901580610d855750836008015443105b610d93578360080154610d95565b435b90508360040154600014158015610db957506000868152600c602052604090205415155b15610e50576000846005015482610dd09190613979565b6000888152600c602090815260408083205460028a01835281842054600b909352908320549394509192610e04908561395a565b610e0e919061395a565b610e189190613938565b6004870154909150610e37826904ee2d6d415b85acef8160201b61395a565b610e419190613938565b610e4b9085613920565b935050505b6000610e766201518085600301546904ee2d6d415b85acef8160201b610b36919061395a565b8460010154610e85919061395a565b60008881526006860160205260409020549091506904ee2d6d415b85acef8160201b610eb1858461395a565b610ebb9190613938565b6000898152600487016020526040902054610ed69190613920565b610ee09190613979565b955050505050505b9392505050565b6000828152600960205260408120610ee89083612798565b60008281526005602090815260408083206009810154825180840190935260188352600080516020613a6a833981519152938301939093528392839283929160ff16610f665760405162461bcd60e51b815260040161087391906138ed565b506000868152600282016020908152604080832054600c835281842054600b9093529220549196509450925083610f9e576000610fb3565b83610fa9868561395a565b610fb39190613938565b91505092959194509250565b6001600160a01b03831660009081526008602090815260408083208584529091528120610fec9083612798565b949350505050565b611000848484846127a4565b50505050565b600080516020613aaa83398151915261101f8133612c33565b6000838152600d602090815260409182902080546001600160a01b0319166001600160a01b038616908117909155915191825284917ff80339a3e391e45ece64c63579ae16b439563d8317481bb8200fcb0671f93590910160405180910390a2505050565b6000828152602081905260409020600101546110a08133612c33565b6110aa8383612c71565b505050565b60005b33600090815260086020908152604080832087845290915290206110d590612c93565b8110156110005733600090815260086020908152604080832087845290915281206111009083612798565b905061110e858286866127a4565b5080611119816139d3565b9150506110b2565b6001600160a01b03811633146111915760405162461bcd60e51b815260206004820152602f60248201527f416363657373436f6e74726f6c3a2063616e206f6e6c792072656e6f756e636560448201526e103937b632b9903337b91039b2b63360891b6064820152608401610873565b61119b8282612c9d565b5050565b600080516020613aaa8339815191526111b88133612c33565b6001600160a01b03891661120e5760405162461bcd60e51b815260206004820152601760248201527f4143593a20496e76616c6964204c5020616464726573730000000000000000006044820152606401610873565b8685146112545760405162461bcd60e51b815260206004820152601460248201527308286b2744098cadccee8d040dad2e6dac2e8c6d60631b6044820152606401610873565b60005b878110156112f957600089898381811061127357611273613a1a565b602090810292909201356000818152600d8452604090819020548151808301909252601282527120a1ac9d102ab735b737bbb7103a37b5b2b760711b94820194909452909350916001600160a01b0316151590506112e45760405162461bcd60e51b815260040161087391906138ed565b505080806112f1906139d3565b915050611257565b508115611308576113086116dc565b6004805460009182611319836139d3565b90915550600081815260056020526040902080546001600160a01b0319166001600160a01b038d16178155909150611355600182018b8b613436565b504386106113635785611365565b435b6005820155600781018690556008810185905560098101805460ff1916600117905560005b898110156114905760008b8b838181106113a6576113a6613a1a565b9050602002013590508989838181106113c1576113c1613a1a565b90506020020135836002016000838152602001908152602001600020819055508989838181106113f3576113f3613a1a565b90506020020135600c6000838152602001908152602001600020600082825461141c9190613920565b909155508490507f6096a506a56b62e1e89ba38de21bee0baa72624ed4a165d1e3b4ba0b34899a52828c8c8681811061145757611457613a1a565b90506020020135604051611475929190918252602082015260400190565b60405180910390a25080611488816139d3565b91505061138a565b506040516001600160a01b038c16815282907fcfdb757a17c7073437a01260a6760f5026efd70c96fb9a3f54d03c6ed2c372c39060200160405180910390a25050505050505050505050565b7f65d7a28e3265b37a6474929f336521b332c1681b933f6cb9f3376673440d862a6115078133612c33565b61150f612cbf565b50565b6000818152600560209081526040918290206009810154835180850190945260188452600080516020613a6a83398151915292840192909252919060ff1661156d5760405162461bcd60e51b815260040161087391906138ed565b5060008160080154600014806115865750816008015443105b611594578160080154611596565b435b9050816005015481116115a857505050565b60048201546115ba5760059091015550565b60008260050154826115cc9190613979565b905060005b60018401548110156116d15760008460010182815481106115f4576115f4613a1a565b90600052602060002001549050846004015460001415801561162357506000818152600c602052604090205415155b156116be576000818152600c602090815260408083205460028901835281842054600b9093529083205490919061165a908761395a565b611664919061395a565b61166e9190613938565b600487015490915061168d826904ee2d6d415b85acef8160201b61395a565b6116979190613938565b6000838152600688016020526040812080549091906116b7908490613920565b9091555050505b50806116c9816139d3565b9150506115d1565b505060059091015550565b60005b60045481101561150f576116f281611512565b6116fb816139d3565b90506116df565b6001600160a01b03821660009081526008602090815260408083208484529091528120610ee890612c93565b600080516020613aaa8339815191526117478133612c33565b6000858152600560209081526040918290206009810154835180850190945260188452600080516020613a6a83398151915292840192909252919060ff166117a25760405162461bcd60e51b815260040161087391906138ed565b5082156117b1576117b16116dc565b6000858152600282016020908152604080832054600c9092529091205485916117d991613979565b6117e39190613920565b6000868152600c602090815260408083209390935560028401815290829020869055815187815290810186905287917f6096a506a56b62e1e89ba38de21bee0baa72624ed4a165d1e3b4ba0b34899a52910160405180910390a2505050505050565b7f65d7a28e3265b37a6474929f336521b332c1681b933f6cb9f3376673440d862a6118708133612c33565b61150f612d52565b60008281526005602090815260408083206009810154825180840190935260188352600080516020613a6a833981519152938301939093529160ff166118d15760405162461bcd60e51b815260040161087391906138ed565b506000928352600601602052506040902054919050565b600080516020613aaa8339815191526119018133612c33565b811561190f5761190f6116dc565b6000848152600b602090815260409182902085905581518681529081018590527f756cb3b03a8aade0ed86a377d5b21dbb522872b6500426a0d908a88b7e61618a910160405180910390a150505050565b6000828152600160205260408120610ee89083612798565b6000918252602082815260408084206001600160a01b0393909316845291905290205460ff1690565b6001600160a01b03821660009081526008602090815260408083208484529091529020606090610ee890612dcd565b60008381526007602081815260408084208685528252808420928301548151808301909252601c8252600080516020613a8a833981519152928201929092529060ff16611a305760405162461bcd60e51b815260040161087391906138ed565b50600092835260040160205250604090205492915050565b6000818152600960205260409020606090610c9990612dcd565b60026003541415611ab55760405162461bcd60e51b815260206004820152601f60248201527f5265656e7472616e637947756172643a207265656e7472616e742063616c6c006044820152606401610873565b6002600355611ac383611512565b60008111611b0c5760405162461bcd60e51b815260206004820152601660248201527504143593a2043616e6e6f7420776974686472617720360541b6044820152606401610873565b6000838152600560209081526040918290206009810154835180850190945260188452600080516020613a6a83398151915292840192909252919060ff16611b675760405162461bcd60e51b815260040161087391906138ed565b508060030154821115611bbc5760405162461bcd60e51b815260206004820152601c60248201527f4143593a20496e73756666696369656e74204c502062616c616e6365000000006044820152606401610873565b6000848152600760208181526040808420878552825292839020918201548351808501909452601c8452600080516020613a8a8339815191529184019190915290919060ff16611c1f5760405162461bcd60e51b815260040161087391906138ed565b5080546040805180820190915260118152701050d64e88155b985d5d1a1bdc9a5e9959607a1b6020820152906001600160a01b03163314611c735760405162461bcd60e51b815260040161087391906138ed565b5060038101546002820154611c889042613979565b1015611ccd5760405162461bcd60e51b81526020600482015260146024820152734143593a204e6f206561726c7920756e6c6f636b60601b6044820152606401610873565b8060010154831115611d215760405162461bcd60e51b815260206004820152601c60248201527f4143593a20496e73756666696369656e74204c502062616c616e6365000000006044820152606401610873565b6000611d476201518083600301546904ee2d6d415b85acef8160201b610b36919061395a565b8260010154611d56919061395a565b905060005b6001840154811015611e19576000846001018281548110611d7e57611d7e613a1a565b600091825260208083209091015480835260068088018352604080852054918a01909352918320549093506904ee2d6d415b85acef8160201b90611dc2908761395a565b611dcc9190613938565b611dd69190613979565b9050808560040160008481526020019081526020016000206000828254611dfd9190613920565b9250508190555050508080611e11906139d3565b915050611d5b565b5083826001016000828254611e2e9190613979565b9250508190555083836003016000828254611e499190613979565b90915550506003820154611e73906201518090610b36906904ee2d6d415b85acef8160201b61395a565b611e7d908561395a565b836004016000828254611e909190613979565b925050819055506000611ebd6201518084600301546904ee2d6d415b85acef8160201b610b36919061395a565b8360010154611ecc919061395a565b905060005b6001850154811015611f5e576000856001018281548110611ef457611ef4613a1a565b906000526020600020015490506904ee2d6d415b85acef8160201b8660060160008381526020019081526020016000205484611f30919061395a565b611f3a9190613938565b60009182526006860160205260409091205580611f56816139d3565b915050611ed1565b508354611f75906001600160a01b03163387612dda565b8587336001600160a01b03167f02f25270a4d87bea75db541cdfe559334a275b4a233520ed6c0a2429667cca9488604051611fb291815260200190565b60405180910390a4505060016003555050505050565b6000818152600560209081526040918290206009810154835180850190945260188452600080516020613a6a83398151915292840192909252606092909160ff166120265760405162461bcd60e51b815260040161087391906138ed565b5060008381526005602052604090206001015467ffffffffffffffff81111561205157612051613a30565b60405190808252806020026020018201604052801561207a578160200160208202803683370190505b50915060005b6000848152600560205260409020600101548110156121665760008260010182815481106120b0576120b0613a1a565b6000918252602080832090910154808352600d8252604092839020548351808501909452601284527120a1ac9d102ab735b737bbb7103a37b5b2b760711b9284019290925292506001600160a01b0316908161211f5760405162461bcd60e51b815260040161087391906138ed565b508085848151811061213357612133613a1a565b60200260200101906001600160a01b031690816001600160a01b03168152505050508061215f906139d3565b9050612080565b5050919050565b7f8619cecd8b9e095ab43867f5b69d492180450fe862e6b50bfbfb24b75dd84c8a6121988133612c33565b604080516001808252818301909252600161011160931b0191600091906020808301908036833701905050905083816000815181106121d9576121d9613a1a565b6001600160a01b039283166020918202929092010152604051630809469f60e11b8152908316906310128d3e90612214908490600401613868565b600060405180830381600087803b15801561222e57600080fd5b505af1158015612242573d6000803e3d6000fd5b5050505050505050565b6000818152600560209081526040918290206009810154835180850190945260188452600080516020613a6a83398151915292840192909252606092909160ff166122aa5760405162461bcd60e51b815260040161087391906138ed565b50806001018054806020026020016040519081016040528092919081815260200182805480156122f957602002820191906000526020600020905b8154815260200190600101908083116122e5575b5050505050915050919050565b6000818152600160205260408120610c9990612c93565b7f8619cecd8b9e095ab43867f5b69d492180450fe862e6b50bfbfb24b75dd84c8a6123488133612c33565b604080516001808252818301909252600161011160931b01916000919060208083019080368337019050509050838160008151811061238957612389613a1a565b6001600160a01b03928316602091820292909201015260405163694996db60e11b81529083169063d2932db690612214908490600401613868565b60008381526007602081815260408084208685528252808420928301548151808301909252601c8252600080516020613a8a833981519152928201929092529060ff166124245760405162461bcd60e51b815260040161087391906138ed565b50600092835260060160205250604090205492915050565b6000828152602081905260409020600101546124588133612c33565b6110aa8383612c9d565b60008381526007602081815260408084208685528252808420928301548151808301909252601c8252600080516020613a8a833981519152928201929092529060ff166124c25760405162461bcd60e51b815260040161087391906138ed565b506124ce858585610c9f565b60008481526005830160205260409020546124e99190613920565b95945050505050565b600080516020613aaa83398151915261250b8133612c33565b6000838152600d6020908152604091829020548251808401909352601283527120a1ac9d102ab735b737bbb7103a37b5b2b760711b918301919091526001600160a01b0316908161256f5760405162461bcd60e51b815260040161087391906138ed565b506125856001600160a01b0382163330866126f8565b6000848152600a6020526040812080548592906125a3908490613920565b909155505060405183815284907f68f079265ae908d13eb803490bb7e3056a61413040af8e0f0e2eebb98648c79d9060200160405180910390a250505050565b6000818152600960205260408120610c9990612c93565b6126048282611978565b61119b576000828152602081815260408083206001600160a01b03851684529091529020805460ff1916600117905561263a3390565b6001600160a01b0316816001600160a01b0316837f2f8788117e7eff1d82e926ec794901d17c78024a50270940304540a733656f0d60405160405180910390a45050565b6000610ee8836001600160a01b038416612e0a565b6000610ee88383612e0a565b60008060026126af846001613920565b6126b99190613938565b90508291505b818110156126f2579050806002816126d78186613938565b6126e19190613920565b6126eb9190613938565b90506126bf565b50919050565b6040516001600160a01b03808516602483015283166044820152606481018290526110009085906323b872dd60e01b906084015b60408051601f198184030181529190526020810180516001600160e01b03166001600160e01b031990931692909217909152612e59565b60006001600160e01b03198216637965db0b60e01b1480610c9957506301ffc9a760e01b6001600160e01b0319831614610c99565b6000610ee88383612f2b565b600260035414156127f75760405162461bcd60e51b815260206004820152601f60248201527f5265656e7472616e637947756172643a207265656e7472616e742063616c6c006044820152606401610873565b600260035561280584611512565b6000848152600560209081526040918290206009810154835180850190945260188452600080516020613a6a83398151915292840192909252919060ff166128605760405162461bcd60e51b815260040161087391906138ed565b506000858152600760208181526040808420888552825292839020918201548351808501909452601c8452600080516020613a8a8339815191529184019190915290919060ff166128c45760405162461bcd60e51b815260040161087391906138ed565b5080546040805180820190915260118152701050d64e88155b985d5d1a1bdc9a5e9959607a1b6020820152906001600160a01b031633146129185760405162461bcd60e51b815260040161087391906138ed565b506000806129406201518084600301546904ee2d6d415b85acef8160201b610b36919061395a565b836001015461294f919061395a565b905060005b6001850154811015612b8857600085600101828154811061297757612977613a1a565b600091825260208083209091015480835260068089018352604080852054918b01909352918320549093506904ee2d6d415b85acef8160201b906129bb908761395a565b6129c59190613938565b60008481526004890160205260409020546129e09190613920565b6129ea9190613979565b9050806129f8575050612b76565b6000828152600a60205260409020548111612b0f576000828152600487016020908152604080832083905560068a019091529020546904ee2d6d415b85acef8160201b90612a46908661395a565b612a509190613938565b6000838152600688016020908152604080832093909355600d90522054612a81906001600160a01b03163383612dda565b6000828152600a602052604081208054839290612a9f908490613979565b9091555050600082815260058701602052604081208054839290612ac4908490613920565b909155505060408051838152602081018390528b918d9133917f779f6d843e7d40a6f05a1e46d3741bc2fd3949f52997fc3b95221af725f1b12f910160405180910390a45050612b76565b600194508715612b73576040517f4143593a20496e73756666696369656e742066756e64696e6720666f722000006020820152603e8101839052605e015b60408051601f198184030181529082905262461bcd60e51b8252610873916004016138ed565b50505b80612b80816139d3565b915050612954565b50858015612b94575081155b8015612ba257506001830154155b15612c245760008881526007602081815260408084208b8552825280842080546001600160a01b0319168155600181018590556002810185905560038101859055909201805460ff19169055338352600881528183208b845290529020612c099088612f55565b506000888152600960205260409020612c229088612f55565b505b50506001600355505050505050565b612c3d8282611978565b61119b57612c55816001600160a01b03166014612f61565b612c60836020612f61565b604051602001612b4d9291906137f3565b612c7b82826125fa565b60008281526001602052604090206110aa908261267e565b6000610c99825490565b612ca782826130fd565b60008281526001602052604090206110aa9082613162565b60025460ff16612d085760405162461bcd60e51b815260206004820152601460248201527314185d5cd8589b194e881b9bdd081c185d5cd95960621b6044820152606401610873565b6002805460ff191690557f5db9ee0a495bf2e6ff9c91a7834c1ba4fdd244a5e8aa4e537bd38aeae4b073aa335b6040516001600160a01b03909116815260200160405180910390a1565b60025460ff1615612d985760405162461bcd60e51b815260206004820152601060248201526f14185d5cd8589b194e881c185d5cd95960821b6044820152606401610873565b6002805460ff191660011790557f62e78cea01bee320cd4e420270b5ea74000d11b0c9f74754ebdbfc544b05a258612d353390565b60606000610ee883613177565b6040516001600160a01b0383166024820152604481018290526110aa90849063a9059cbb60e01b9060640161272c565b6000818152600183016020526040812054612e5157508154600181810184556000848152602080822090930184905584548482528286019093526040902091909155610c99565b506000610c99565b6000612eae826040518060400160405280602081526020017f5361666545524332303a206c6f772d6c6576656c2063616c6c206661696c6564815250856001600160a01b03166131d39092919063ffffffff16565b8051909150156110aa5780806020019051810190612ecc9190613560565b6110aa5760405162461bcd60e51b815260206004820152602a60248201527f5361666545524332303a204552433230206f7065726174696f6e20646964206e6044820152691bdd081cdd58d8d9595960b21b6064820152608401610873565b6000826000018281548110612f4257612f42613a1a565b9060005260206000200154905092915050565b6000610ee883836131e2565b60606000612f7083600261395a565b612f7b906002613920565b67ffffffffffffffff811115612f9357612f93613a30565b6040519080825280601f01601f191660200182016040528015612fbd576020820181803683370190505b509050600360fc1b81600081518110612fd857612fd8613a1a565b60200101906001600160f81b031916908160001a905350600f60fb1b8160018151811061300757613007613a1a565b60200101906001600160f81b031916908160001a905350600061302b84600261395a565b613036906001613920565b90505b60018111156130ae576f181899199a1a9b1b9c1cb0b131b232b360811b85600f166010811061306a5761306a613a1a565b1a60f81b82828151811061308057613080613a1a565b60200101906001600160f81b031916908160001a90535060049490941c936130a7816139bc565b9050613039565b508315610ee85760405162461bcd60e51b815260206004820181905260248201527f537472696e67733a20686578206c656e67746820696e73756666696369656e746044820152606401610873565b6131078282611978565b1561119b576000828152602081815260408083206001600160a01b0385168085529252808320805460ff1916905551339285917ff6391f5c32d9c69d2a47ea670b442974b53935d1edc7fd64eb21e047a839171b9190a45050565b6000610ee8836001600160a01b0384166131e2565b6060816000018054806020026020016040519081016040528092919081815260200182805480156131c757602002820191906000526020600020905b8154815260200190600101908083116131b3575b50505050509050919050565b6060610fec84846000856132d5565b600081815260018301602052604081205480156132cb576000613206600183613979565b855490915060009061321a90600190613979565b905081811461327f57600086600001828154811061323a5761323a613a1a565b906000526020600020015490508087600001848154811061325d5761325d613a1a565b6000918252602080832090910192909255918252600188019052604090208390555b855486908061329057613290613a04565b600190038181906000526020600020016000905590558560010160008681526020019081526020016000206000905560019350505050610c99565b6000915050610c99565b6060824710156133365760405162461bcd60e51b815260206004820152602660248201527f416464726573733a20696e73756666696369656e742062616c616e636520666f6044820152651c8818d85b1b60d21b6064820152608401610873565b843b6133845760405162461bcd60e51b815260206004820152601d60248201527f416464726573733a2063616c6c20746f206e6f6e2d636f6e74726163740000006044820152606401610873565b600080866001600160a01b031685876040516133a091906137d7565b60006040518083038185875af1925050503d80600081146133dd576040519150601f19603f3d011682016040523d82523d6000602084013e6133e2565b606091505b50915091506133f28282866133fd565b979650505050505050565b6060831561340c575081610ee8565b82511561341c5782518084602001fd5b8160405162461bcd60e51b815260040161087391906138ed565b828054828255906000526020600020908101928215613471579160200282015b82811115613471578235825591602001919060010190613456565b5061347d929150613481565b5090565b5b8082111561347d5760008155600101613482565b60008083601f8401126134a857600080fd5b50813567ffffffffffffffff8111156134c057600080fd5b6020830191508360208260051b85010111156134db57600080fd5b9250929050565b6000602082840312156134f457600080fd5b8135610ee881613a46565b6000806040838503121561351257600080fd5b823561351d81613a46565b946020939093013593505050565b60008060006060848603121561354057600080fd5b833561354b81613a46565b95602085013595506040909401359392505050565b60006020828403121561357257600080fd5b8151610ee881613a5b565b60006020828403121561358f57600080fd5b5035919050565b600080604083850312156135a957600080fd5b8235915060208301356135bb81613a46565b809150509250929050565b600080604083850312156135d957600080fd5b50508035926020909101359150565b6000806000606084860312156135fd57600080fd5b8335925060208401359150604084013561361681613a5b565b809150509250925092565b60006020828403121561363357600080fd5b81356001600160e01b031981168114610ee857600080fd5b60008060008060008060008060c0898b03121561366757600080fd5b883561367281613a46565b9750602089013567ffffffffffffffff8082111561368f57600080fd5b61369b8c838d01613496565b909950975060408b01359150808211156136b457600080fd5b506136c18b828c01613496565b909650945050606089013592506080890135915060a08901356136e381613a5b565b809150509295985092959890939650565b60008060006060848603121561370957600080fd5b83359250602084013561371b81613a5b565b9150604084013561361681613a5b565b6000806000806080858703121561374157600080fd5b843593506020850135925060408501359150606085013561376181613a5b565b939692955090935050565b6000806000806080858703121561378257600080fd5b8435935060208501359250604085013561379b81613a5b565b9150606085013561376181613a5b565b6000806000606084860312156137c057600080fd5b505081359360208301359350604090920135919050565b600082516137e9818460208701613990565b9190910192915050565b7f416363657373436f6e74726f6c3a206163636f756e742000000000000000000081526000835161382b816017850160208801613990565b7001034b99036b4b9b9b4b733903937b6329607d1b601791840191820152835161385c816028840160208801613990565b01602801949350505050565b6020808252825182820181905260009190848201906040850190845b818110156138a95783516001600160a01b031683529284019291840191600101613884565b50909695505050505050565b6020808252825182820181905260009190848201906040850190845b818110156138a9578351835292840192918401916001016138d1565b602081526000825180602084015261390c816040850160208701613990565b601f01601f19169190910160400192915050565b60008219821115613933576139336139ee565b500190565b60008261395557634e487b7160e01b600052601260045260246000fd5b500490565b6000816000190483118215151615613974576139746139ee565b500290565b60008282101561398b5761398b6139ee565b500390565b60005b838110156139ab578181015183820152602001613993565b838111156110005750506000910152565b6000816139cb576139cb6139ee565b506000190190565b60006000198214156139e7576139e76139ee565b5060010190565b634e487b7160e01b600052601160045260246000fd5b634e487b7160e01b600052603160045260246000fd5b634e487b7160e01b600052603260045260246000fd5b634e487b7160e01b600052604160045260246000fd5b6001600160a01b038116811461150f57600080fd5b801515811461150f57600080fdfe4143593a20506f6f6c20646f6573206e6f7420657869737400000000000000004143593a20506f736974696f6e20646f6573206e6f74206578697374000000006077685936c8169d09204a1d97db12e41713588c38e1d29a61867d3dcee98affa2646970667358221220ba3b4ea1e2bee233c211963241b8c8789cfceb11b9ffa0e62b3074eae7e697cd64736f6c63430008060033",
			"opcodes": "PUSH1 0x80 PUSH1 0x40 MSTORE PUSH1 0x0 PUSH1 0x4 SSTORE PUSH1 0x0 PUSH1 0x6 SSTORE CALLVALUE DUP1 ISZERO PUSH3 0x1B JUMPI PUSH1 0x0 DUP1 REVERT JUMPDEST POP PUSH1 0x2 DUP1 SLOAD PUSH1 0xFF NOT AND SWAP1 SSTORE PUSH1 0x1 PUSH1 0x3 SSTORE PUSH3 0x57 PUSH32 0x6077685936C8169D09204A1D97DB12E41713588C38E1D29A61867D3DCEE98AFF CALLER PUSH3 0xB5 JUMP JUMPDEST PUSH3 0x83 PUSH32 0x65D7A28E3265B37A6474929F336521B332C1681B933F6CB9F3376673440D862A CALLER PUSH3 0xB5 JUMP JUMPDEST PUSH3 0xAF PUSH32 0x8619CECD8B9E095AB43867F5B69D492180450FE862E6B50BFBFB24B75DD84C8A CALLER PUSH3 0xB5 JUMP JUMPDEST PUSH3 0x21A JUMP JUMPDEST PUSH3 0xC1 DUP3 DUP3 PUSH3 0xC5 JUMP JUMPDEST POP POP JUMP JUMPDEST PUSH3 0xDC DUP3 DUP3 PUSH3 0x108 PUSH1 0x20 SHL PUSH3 0x25FA OR PUSH1 0x20 SHR JUMP JUMPDEST PUSH1 0x0 DUP3 DUP2 MSTORE PUSH1 0x1 PUSH1 0x20 SWAP1 DUP2 MSTORE PUSH1 0x40 SWAP1 SWAP2 KECCAK256 PUSH3 0x103 SWAP2 DUP4 SWAP1 PUSH3 0x267E PUSH3 0x1A8 DUP3 SHL OR SWAP1 SHR JUMP JUMPDEST POP POP POP JUMP JUMPDEST PUSH1 0x0 DUP3 DUP2 MSTORE PUSH1 0x20 DUP2 DUP2 MSTORE PUSH1 0x40 DUP1 DUP4 KECCAK256 PUSH1 0x1 PUSH1 0x1 PUSH1 0xA0 SHL SUB DUP6 AND DUP5 MSTORE SWAP1 SWAP2 MSTORE SWAP1 KECCAK256 SLOAD PUSH1 0xFF AND PUSH3 0xC1 JUMPI PUSH1 0x0 DUP3 DUP2 MSTORE PUSH1 0x20 DUP2 DUP2 MSTORE PUSH1 0x40 DUP1 DUP4 KECCAK256 PUSH1 0x1 PUSH1 0x1 PUSH1 0xA0 SHL SUB DUP6 AND DUP5 MSTORE SWAP1 SWAP2 MSTORE SWAP1 KECCAK256 DUP1 SLOAD PUSH1 0xFF NOT AND PUSH1 0x1 OR SWAP1 SSTORE PUSH3 0x164 CALLER SWAP1 JUMP JUMPDEST PUSH1 0x1 PUSH1 0x1 PUSH1 0xA0 SHL SUB AND DUP2 PUSH1 0x1 PUSH1 0x1 PUSH1 0xA0 SHL SUB AND DUP4 PUSH32 0x2F8788117E7EFF1D82E926EC794901D17C78024A50270940304540A733656F0D PUSH1 0x40 MLOAD PUSH1 0x40 MLOAD DUP1 SWAP2 SUB SWAP1 LOG4 POP POP JUMP JUMPDEST PUSH1 0x0 PUSH3 0x1BF DUP4 PUSH1 0x1 PUSH1 0x1 PUSH1 0xA0 SHL SUB DUP5 AND PUSH3 0x1C8 JUMP JUMPDEST SWAP1 POP JUMPDEST SWAP3 SWAP2 POP POP JUMP JUMPDEST PUSH1 0x0 DUP2 DUP2 MSTORE PUSH1 0x1 DUP4 ADD PUSH1 0x20 MSTORE PUSH1 0x40 DUP2 KECCAK256 SLOAD PUSH3 0x211 JUMPI POP DUP2 SLOAD PUSH1 0x1 DUP2 DUP2 ADD DUP5 SSTORE PUSH1 0x0 DUP5 DUP2 MSTORE PUSH1 0x20 DUP1 DUP3 KECCAK256 SWAP1 SWAP4 ADD DUP5 SWAP1 SSTORE DUP5 SLOAD DUP5 DUP3 MSTORE DUP3 DUP7 ADD SWAP1 SWAP4 MSTORE PUSH1 0x40 SWAP1 KECCAK256 SWAP2 SWAP1 SWAP2 SSTORE PUSH3 0x1C2 JUMP JUMPDEST POP PUSH1 0x0 PUSH3 0x1C2 JUMP JUMPDEST PUSH2 0x3AFF DUP1 PUSH3 0x22A PUSH1 0x0 CODECOPY PUSH1 0x0 RETURN INVALID PUSH1 0x80 PUSH1 0x40 MSTORE CALLVALUE DUP1 ISZERO PUSH2 0x10 JUMPI PUSH1 0x0 DUP1 REVERT JUMPDEST POP PUSH1 0x4 CALLDATASIZE LT PUSH2 0x2D5 JUMPI PUSH1 0x0 CALLDATALOAD PUSH1 0xE0 SHR DUP1 PUSH4 0x793F0851 GT PUSH2 0x182 JUMPI DUP1 PUSH4 0xABFD0954 GT PUSH2 0xE9 JUMPI DUP1 PUSH4 0xD3FAADE9 GT PUSH2 0xA2 JUMPI DUP1 PUSH4 0xE46BBC9E GT PUSH2 0x7C JUMPI DUP1 PUSH4 0xE46BBC9E EQ PUSH2 0x7C4 JUMPI DUP1 PUSH4 0xE63AB1E9 EQ PUSH2 0x7D7 JUMPI DUP1 PUSH4 0xEA8960A4 EQ PUSH2 0x7FE JUMPI DUP1 PUSH4 0xF9226D31 EQ PUSH2 0x81E JUMPI PUSH1 0x0 DUP1 REVERT JUMPDEST DUP1 PUSH4 0xD3FAADE9 EQ PUSH2 0x78B JUMPI DUP1 PUSH4 0xD547741F EQ PUSH2 0x79E JUMPI DUP1 PUSH4 0xDD3256D0 EQ PUSH2 0x7B1 JUMPI PUSH1 0x0 DUP1 REVERT JUMPDEST DUP1 PUSH4 0xABFD0954 EQ PUSH2 0x698 JUMPI DUP1 PUSH4 0xAD4683A4 EQ PUSH2 0x6B8 JUMPI DUP1 PUSH4 0xB7A5ADCA EQ PUSH2 0x73F JUMPI DUP1 PUSH4 0xC4EE5C44 EQ PUSH2 0x752 JUMPI DUP1 PUSH4 0xCA15C873 EQ PUSH2 0x765 JUMPI DUP1 PUSH4 0xD32FFF2B EQ PUSH2 0x778 JUMPI PUSH1 0x0 DUP1 REVERT JUMPDEST DUP1 PUSH4 0x91D14854 GT PUSH2 0x13B JUMPI DUP1 PUSH4 0x91D14854 EQ PUSH2 0x624 JUMPI DUP1 PUSH4 0x942B29E3 EQ PUSH2 0x637 JUMPI DUP1 PUSH4 0x959B87DE EQ PUSH2 0x657 JUMPI DUP1 PUSH4 0xA217FDDF EQ PUSH2 0x66A JUMPI DUP1 PUSH4 0xA3461B5A EQ PUSH2 0x672 JUMPI DUP1 PUSH4 0xA41FE49F EQ PUSH2 0x685 JUMPI PUSH1 0x0 DUP1 REVERT JUMPDEST DUP1 PUSH4 0x793F0851 EQ PUSH2 0x582 JUMPI DUP1 PUSH4 0x79DD13CA EQ PUSH2 0x5A2 JUMPI DUP1 PUSH4 0x8456CB59 EQ PUSH2 0x5E3 JUMPI DUP1 PUSH4 0x849687C7 EQ PUSH2 0x5EB JUMPI DUP1 PUSH4 0x85096902 EQ PUSH2 0x5FE JUMPI DUP1 PUSH4 0x9010D07C EQ PUSH2 0x611 JUMPI PUSH1 0x0 DUP1 REVERT JUMPDEST DUP1 PUSH4 0x3634BBA6 GT PUSH2 0x241 JUMPI DUP1 PUSH4 0x56D73568 GT PUSH2 0x1FA JUMPI DUP1 PUSH4 0x5E71823B GT PUSH2 0x1D4 JUMPI DUP1 PUSH4 0x5E71823B EQ PUSH2 0x54B JUMPI DUP1 PUSH4 0x630B5BA1 EQ PUSH2 0x554 JUMPI DUP1 PUSH4 0x6DCE9FBD EQ PUSH2 0x55C JUMPI DUP1 PUSH4 0x73BF8761 EQ PUSH2 0x56F JUMPI PUSH1 0x0 DUP1 REVERT JUMPDEST DUP1 PUSH4 0x56D73568 EQ PUSH2 0x504 JUMPI DUP1 PUSH4 0x570618E1 EQ PUSH2 0x519 JUMPI DUP1 PUSH4 0x5C975ABB EQ PUSH2 0x540 JUMPI PUSH1 0x0 DUP1 REVERT JUMPDEST DUP1 PUSH4 0x3634BBA6 EQ PUSH2 0x490 JUMPI DUP1 PUSH4 0x36568ABE EQ PUSH2 0x4A3 JUMPI DUP1 PUSH4 0x38D6CA99 EQ PUSH2 0x4B6 JUMPI DUP1 PUSH4 0x3A70F8D9 EQ PUSH2 0x4D6 JUMPI DUP1 PUSH4 0x3F4BA83A EQ PUSH2 0x4E9 JUMPI DUP1 PUSH4 0x51EB05A6 EQ PUSH2 0x4F1 JUMPI PUSH1 0x0 DUP1 REVERT JUMPDEST DUP1 PUSH4 0x265FB54A GT PUSH2 0x293 JUMPI DUP1 PUSH4 0x265FB54A EQ PUSH2 0x408 JUMPI DUP1 PUSH4 0x2803A1AF EQ PUSH2 0x43B JUMPI DUP1 PUSH4 0x2DDC65AF EQ PUSH2 0x44E JUMPI DUP1 PUSH4 0x2DED0FB5 EQ PUSH2 0x461 JUMPI DUP1 PUSH4 0x2F2FF15D EQ PUSH2 0x474 JUMPI DUP1 PUSH4 0x35C62BC2 EQ PUSH2 0x487 JUMPI PUSH1 0x0 DUP1 REVERT JUMPDEST DUP1 PUSH3 0xAEEF8A EQ PUSH2 0x2DA JUMPI DUP1 PUSH4 0x1FFC9A7 EQ PUSH2 0x2EF JUMPI DUP1 PUSH4 0x31BDA86 EQ PUSH2 0x317 JUMPI DUP1 PUSH4 0xBAF9081 EQ PUSH2 0x338 JUMPI DUP1 PUSH4 0x1526FE27 EQ PUSH2 0x34B JUMPI DUP1 PUSH4 0x248A9CA3 EQ PUSH2 0x3E5 JUMPI JUMPDEST PUSH1 0x0 DUP1 REVERT JUMPDEST PUSH2 0x2ED PUSH2 0x2E8 CALLDATASIZE PUSH1 0x4 PUSH2 0x37AB JUMP JUMPDEST PUSH2 0x831 JUMP JUMPDEST STOP JUMPDEST PUSH2 0x302 PUSH2 0x2FD CALLDATASIZE PUSH1 0x4 PUSH2 0x3621 JUMP JUMPDEST PUSH2 0xC74 JUMP JUMPDEST PUSH1 0x40 MLOAD SWAP1 ISZERO ISZERO DUP2 MSTORE PUSH1 0x20 ADD JUMPDEST PUSH1 0x40 MLOAD DUP1 SWAP2 SUB SWAP1 RETURN JUMPDEST PUSH2 0x32A PUSH2 0x325 CALLDATASIZE PUSH1 0x4 PUSH2 0x37AB JUMP JUMPDEST PUSH2 0xC9F JUMP JUMPDEST PUSH1 0x40 MLOAD SWAP1 DUP2 MSTORE PUSH1 0x20 ADD PUSH2 0x30E JUMP JUMPDEST PUSH2 0x32A PUSH2 0x346 CALLDATASIZE PUSH1 0x4 PUSH2 0x35C6 JUMP JUMPDEST PUSH2 0xEEF JUMP JUMPDEST PUSH2 0x3A4 PUSH2 0x359 CALLDATASIZE PUSH1 0x4 PUSH2 0x357D JUMP JUMPDEST PUSH1 0x5 PUSH1 0x20 DUP2 SWAP1 MSTORE PUSH1 0x0 SWAP2 DUP3 MSTORE PUSH1 0x40 SWAP1 SWAP2 KECCAK256 DUP1 SLOAD PUSH1 0x3 DUP3 ADD SLOAD PUSH1 0x4 DUP4 ADD SLOAD SWAP4 DUP4 ADD SLOAD PUSH1 0x7 DUP5 ADD SLOAD PUSH1 0x8 DUP6 ADD SLOAD PUSH1 0x9 SWAP1 SWAP6 ADD SLOAD PUSH1 0x1 PUSH1 0x1 PUSH1 0xA0 SHL SUB SWAP1 SWAP5 AND SWAP6 SWAP3 SWAP5 SWAP3 SWAP4 SWAP2 SWAP3 SWAP1 SWAP2 PUSH1 0xFF AND DUP8 JUMP JUMPDEST PUSH1 0x40 DUP1 MLOAD PUSH1 0x1 PUSH1 0x1 PUSH1 0xA0 SHL SUB SWAP1 SWAP9 AND DUP9 MSTORE PUSH1 0x20 DUP9 ADD SWAP7 SWAP1 SWAP7 MSTORE SWAP5 DUP7 ADD SWAP4 SWAP1 SWAP4 MSTORE PUSH1 0x60 DUP6 ADD SWAP2 SWAP1 SWAP2 MSTORE PUSH1 0x80 DUP5 ADD MSTORE PUSH1 0xA0 DUP4 ADD MSTORE ISZERO ISZERO PUSH1 0xC0 DUP3 ADD MSTORE PUSH1 0xE0 ADD PUSH2 0x30E JUMP JUMPDEST PUSH2 0x32A PUSH2 0x3F3 CALLDATASIZE PUSH1 0x4 PUSH2 0x357D JUMP JUMPDEST PUSH1 0x0 SWAP1 DUP2 MSTORE PUSH1 0x20 DUP2 SWAP1 MSTORE PUSH1 0x40 SWAP1 KECCAK256 PUSH1 0x1 ADD SLOAD SWAP1 JUMP JUMPDEST PUSH2 0x41B PUSH2 0x416 CALLDATASIZE PUSH1 0x4 PUSH2 0x35C6 JUMP JUMPDEST PUSH2 0xF07 JUMP JUMPDEST PUSH1 0x40 DUP1 MLOAD SWAP5 DUP6 MSTORE PUSH1 0x20 DUP6 ADD SWAP4 SWAP1 SWAP4 MSTORE SWAP2 DUP4 ADD MSTORE PUSH1 0x60 DUP3 ADD MSTORE PUSH1 0x80 ADD PUSH2 0x30E JUMP JUMPDEST PUSH2 0x32A PUSH2 0x449 CALLDATASIZE PUSH1 0x4 PUSH2 0x352B JUMP JUMPDEST PUSH2 0xFBF JUMP JUMPDEST PUSH2 0x2ED PUSH2 0x45C CALLDATASIZE PUSH1 0x4 PUSH2 0x376C JUMP JUMPDEST PUSH2 0xFF4 JUMP JUMPDEST PUSH2 0x2ED PUSH2 0x46F CALLDATASIZE PUSH1 0x4 PUSH2 0x3596 JUMP JUMPDEST PUSH2 0x1006 JUMP JUMPDEST PUSH2 0x2ED PUSH2 0x482 CALLDATASIZE PUSH1 0x4 PUSH2 0x3596 JUMP JUMPDEST PUSH2 0x1084 JUMP JUMPDEST PUSH2 0x32A PUSH1 0x4 SLOAD DUP2 JUMP JUMPDEST PUSH2 0x2ED PUSH2 0x49E CALLDATASIZE PUSH1 0x4 PUSH2 0x36F4 JUMP JUMPDEST PUSH2 0x10AF JUMP JUMPDEST PUSH2 0x2ED PUSH2 0x4B1 CALLDATASIZE PUSH1 0x4 PUSH2 0x3596 JUMP JUMPDEST PUSH2 0x1121 JUMP JUMPDEST PUSH2 0x32A PUSH2 0x4C4 CALLDATASIZE PUSH1 0x4 PUSH2 0x357D JUMP JUMPDEST PUSH1 0xC PUSH1 0x20 MSTORE PUSH1 0x0 SWAP1 DUP2 MSTORE PUSH1 0x40 SWAP1 KECCAK256 SLOAD DUP2 JUMP JUMPDEST PUSH2 0x2ED PUSH2 0x4E4 CALLDATASIZE PUSH1 0x4 PUSH2 0x364B JUMP JUMPDEST PUSH2 0x119F JUMP JUMPDEST PUSH2 0x2ED PUSH2 0x14DC JUMP JUMPDEST PUSH2 0x2ED PUSH2 0x4FF CALLDATASIZE PUSH1 0x4 PUSH2 0x357D JUMP JUMPDEST PUSH2 0x1512 JUMP JUMPDEST PUSH2 0x32A PUSH1 0x0 DUP1 MLOAD PUSH1 0x20 PUSH2 0x3AAA DUP4 CODECOPY DUP2 MLOAD SWAP2 MSTORE DUP2 JUMP JUMPDEST PUSH2 0x32A PUSH32 0x8619CECD8B9E095AB43867F5B69D492180450FE862E6B50BFBFB24B75DD84C8A DUP2 JUMP JUMPDEST PUSH1 0x2 SLOAD PUSH1 0xFF AND PUSH2 0x302 JUMP JUMPDEST PUSH2 0x32A PUSH1 0x6 SLOAD DUP2 JUMP JUMPDEST PUSH2 0x2ED PUSH2 0x16DC JUMP JUMPDEST PUSH2 0x32A PUSH2 0x56A CALLDATASIZE PUSH1 0x4 PUSH2 0x34FF JUMP JUMPDEST PUSH2 0x1702 JUMP JUMPDEST PUSH2 0x2ED PUSH2 0x57D CALLDATASIZE PUSH1 0x4 PUSH2 0x372B JUMP JUMPDEST PUSH2 0x172E JUMP JUMPDEST PUSH2 0x32A PUSH2 0x590 CALLDATASIZE PUSH1 0x4 PUSH2 0x357D JUMP JUMPDEST PUSH1 0xB PUSH1 0x20 MSTORE PUSH1 0x0 SWAP1 DUP2 MSTORE PUSH1 0x40 SWAP1 KECCAK256 SLOAD DUP2 JUMP JUMPDEST PUSH2 0x5CB PUSH2 0x5B0 CALLDATASIZE PUSH1 0x4 PUSH2 0x357D JUMP JUMPDEST PUSH1 0xD PUSH1 0x20 MSTORE PUSH1 0x0 SWAP1 DUP2 MSTORE PUSH1 0x40 SWAP1 KECCAK256 SLOAD PUSH1 0x1 PUSH1 0x1 PUSH1 0xA0 SHL SUB AND DUP2 JUMP JUMPDEST PUSH1 0x40 MLOAD PUSH1 0x1 PUSH1 0x1 PUSH1 0xA0 SHL SUB SWAP1 SWAP2 AND DUP2 MSTORE PUSH1 0x20 ADD PUSH2 0x30E JUMP JUMPDEST PUSH2 0x2ED PUSH2 0x1845 JUMP JUMPDEST PUSH2 0x32A PUSH2 0x5F9 CALLDATASIZE PUSH1 0x4 PUSH2 0x35C6 JUMP JUMPDEST PUSH2 0x1878 JUMP JUMPDEST PUSH2 0x2ED PUSH2 0x60C CALLDATASIZE PUSH1 0x4 PUSH2 0x35E8 JUMP JUMPDEST PUSH2 0x18E8 JUMP JUMPDEST PUSH2 0x5CB PUSH2 0x61F CALLDATASIZE PUSH1 0x4 PUSH2 0x35C6 JUMP JUMPDEST PUSH2 0x1960 JUMP JUMPDEST PUSH2 0x302 PUSH2 0x632 CALLDATASIZE PUSH1 0x4 PUSH2 0x3596 JUMP JUMPDEST PUSH2 0x1978 JUMP JUMPDEST PUSH2 0x64A PUSH2 0x645 CALLDATASIZE PUSH1 0x4 PUSH2 0x34FF JUMP JUMPDEST PUSH2 0x19A1 JUMP JUMPDEST PUSH1 0x40 MLOAD PUSH2 0x30E SWAP2 SWAP1 PUSH2 0x38B5 JUMP JUMPDEST PUSH2 0x32A PUSH2 0x665 CALLDATASIZE PUSH1 0x4 PUSH2 0x37AB JUMP JUMPDEST PUSH2 0x19D0 JUMP JUMPDEST PUSH2 0x32A PUSH1 0x0 DUP2 JUMP JUMPDEST PUSH2 0x64A PUSH2 0x680 CALLDATASIZE PUSH1 0x4 PUSH2 0x357D JUMP JUMPDEST PUSH2 0x1A48 JUMP JUMPDEST PUSH2 0x2ED PUSH2 0x693 CALLDATASIZE PUSH1 0x4 PUSH2 0x37AB JUMP JUMPDEST PUSH2 0x1A62 JUMP JUMPDEST PUSH2 0x6AB PUSH2 0x6A6 CALLDATASIZE PUSH1 0x4 PUSH2 0x357D JUMP JUMPDEST PUSH2 0x1FC8 JUMP JUMPDEST PUSH1 0x40 MLOAD PUSH2 0x30E SWAP2 SWAP1 PUSH2 0x3868 JUMP JUMPDEST PUSH2 0x70B PUSH2 0x6C6 CALLDATASIZE PUSH1 0x4 PUSH2 0x35C6 JUMP JUMPDEST PUSH1 0x7 PUSH1 0x20 DUP2 DUP2 MSTORE PUSH1 0x0 SWAP4 DUP5 MSTORE PUSH1 0x40 DUP1 DUP6 KECCAK256 SWAP1 SWAP2 MSTORE SWAP2 DUP4 MSTORE SWAP2 KECCAK256 DUP1 SLOAD PUSH1 0x1 DUP3 ADD SLOAD PUSH1 0x2 DUP4 ADD SLOAD PUSH1 0x3 DUP5 ADD SLOAD SWAP4 SWAP1 SWAP5 ADD SLOAD PUSH1 0x1 PUSH1 0x1 PUSH1 0xA0 SHL SUB SWAP1 SWAP3 AND SWAP4 SWAP1 SWAP3 SWAP1 SWAP2 PUSH1 0xFF AND DUP6 JUMP JUMPDEST PUSH1 0x40 DUP1 MLOAD PUSH1 0x1 PUSH1 0x1 PUSH1 0xA0 SHL SUB SWAP1 SWAP7 AND DUP7 MSTORE PUSH1 0x20 DUP7 ADD SWAP5 SWAP1 SWAP5 MSTORE SWAP3 DUP5 ADD SWAP2 SWAP1 SWAP2 MSTORE PUSH1 0x60 DUP4 ADD MSTORE ISZERO ISZERO PUSH1 0x80 DUP3 ADD MSTORE PUSH1 0xA0 ADD PUSH2 0x30E JUMP JUMPDEST PUSH2 0x2ED PUSH2 0x74D CALLDATASIZE PUSH1 0x4 PUSH2 0x34E2 JUMP JUMPDEST PUSH2 0x216D JUMP JUMPDEST PUSH2 0x64A PUSH2 0x760 CALLDATASIZE PUSH1 0x4 PUSH2 0x357D JUMP JUMPDEST PUSH2 0x224C JUMP JUMPDEST PUSH2 0x32A PUSH2 0x773 CALLDATASIZE PUSH1 0x4 PUSH2 0x357D JUMP JUMPDEST PUSH2 0x2306 JUMP JUMPDEST PUSH2 0x2ED PUSH2 0x786 CALLDATASIZE PUSH1 0x4 PUSH2 0x34E2 JUMP JUMPDEST PUSH2 0x231D JUMP JUMPDEST PUSH2 0x32A PUSH2 0x799 CALLDATASIZE PUSH1 0x4 PUSH2 0x37AB JUMP JUMPDEST PUSH2 0x23C4 JUMP JUMPDEST PUSH2 0x2ED PUSH2 0x7AC CALLDATASIZE PUSH1 0x4 PUSH2 0x3596 JUMP JUMPDEST PUSH2 0x243C JUMP JUMPDEST PUSH2 0x32A PUSH2 0x7BF CALLDATASIZE PUSH1 0x4 PUSH2 0x37AB JUMP JUMPDEST PUSH2 0x2462 JUMP JUMPDEST PUSH2 0x2ED PUSH2 0x7D2 CALLDATASIZE PUSH1 0x4 PUSH2 0x35C6 JUMP JUMPDEST PUSH2 0x24F2 JUMP JUMPDEST PUSH2 0x32A PUSH32 0x65D7A28E3265B37A6474929F336521B332C1681B933F6CB9F3376673440D862A DUP2 JUMP JUMPDEST PUSH2 0x32A PUSH2 0x80C CALLDATASIZE PUSH1 0x4 PUSH2 0x357D JUMP JUMPDEST PUSH1 0xA PUSH1 0x20 MSTORE PUSH1 0x0 SWAP1 DUP2 MSTORE PUSH1 0x40 SWAP1 KECCAK256 SLOAD DUP2 JUMP JUMPDEST PUSH2 0x32A PUSH2 0x82C CALLDATASIZE PUSH1 0x4 PUSH2 0x357D JUMP JUMPDEST PUSH2 0x25E3 JUMP JUMPDEST PUSH1 0x2 SLOAD PUSH1 0xFF AND ISZERO PUSH2 0x87C JUMPI PUSH1 0x40 MLOAD PUSH3 0x461BCD PUSH1 0xE5 SHL DUP2 MSTORE PUSH1 0x20 PUSH1 0x4 DUP3 ADD MSTORE PUSH1 0x10 PUSH1 0x24 DUP3 ADD MSTORE PUSH16 0x14185D5CD8589B194E881C185D5CD959 PUSH1 0x82 SHL PUSH1 0x44 DUP3 ADD MSTORE PUSH1 0x64 ADD JUMPDEST PUSH1 0x40 MLOAD DUP1 SWAP2 SUB SWAP1 REVERT JUMPDEST PUSH1 0x0 DUP2 GT PUSH2 0x8DE JUMPI PUSH1 0x40 MLOAD PUSH3 0x461BCD PUSH1 0xE5 SHL DUP2 MSTORE PUSH1 0x20 PUSH1 0x4 DUP3 ADD MSTORE PUSH1 0x29 PUSH1 0x24 DUP3 ADD MSTORE PUSH32 0x4143593A206C6F636B206475726174696F6E206D757374206265206772656174 PUSH1 0x44 DUP3 ADD MSTORE PUSH9 0x6572207468616E203 PUSH1 0xBC SHL PUSH1 0x64 DUP3 ADD MSTORE PUSH1 0x84 ADD PUSH2 0x873 JUMP JUMPDEST PUSH4 0x784CE00 DUP2 GT ISZERO PUSH2 0x946 JUMPI PUSH1 0x40 MLOAD PUSH3 0x461BCD PUSH1 0xE5 SHL DUP2 MSTORE PUSH1 0x20 PUSH1 0x4 DUP3 ADD MSTORE PUSH1 0x2B PUSH1 0x24 DUP3 ADD MSTORE PUSH32 0x4143593A206C6F636B206475726174696F6E206D757374206E6F74206265206F PUSH1 0x44 DUP3 ADD MSTORE PUSH11 0x7665722034207965617273 PUSH1 0xA8 SHL PUSH1 0x64 DUP3 ADD MSTORE PUSH1 0x84 ADD PUSH2 0x873 JUMP JUMPDEST PUSH2 0x94F DUP4 PUSH2 0x1512 JUMP JUMPDEST PUSH1 0x0 DUP4 DUP2 MSTORE PUSH1 0x5 PUSH1 0x20 SWAP1 DUP2 MSTORE PUSH1 0x40 SWAP2 DUP3 SWAP1 KECCAK256 PUSH1 0x9 DUP2 ADD SLOAD DUP4 MLOAD DUP1 DUP6 ADD SWAP1 SWAP5 MSTORE PUSH1 0x18 DUP5 MSTORE PUSH1 0x0 DUP1 MLOAD PUSH1 0x20 PUSH2 0x3A6A DUP4 CODECOPY DUP2 MLOAD SWAP2 MSTORE SWAP3 DUP5 ADD SWAP3 SWAP1 SWAP3 MSTORE SWAP2 SWAP1 PUSH1 0xFF AND PUSH2 0x9AA JUMPI PUSH1 0x40 MLOAD PUSH3 0x461BCD PUSH1 0xE5 SHL DUP2 MSTORE PUSH1 0x4 ADD PUSH2 0x873 SWAP2 SWAP1 PUSH2 0x38ED JUMP JUMPDEST POP DUP1 PUSH1 0x7 ADD SLOAD NUMBER LT ISZERO PUSH1 0x40 MLOAD DUP1 PUSH1 0x40 ADD PUSH1 0x40 MSTORE DUP1 PUSH1 0x19 DUP2 MSTORE PUSH1 0x20 ADD PUSH32 0x4143593A20506F6F6C20686173206E6F74207374617274656400000000000000 DUP2 MSTORE POP SWAP1 PUSH2 0xA07 JUMPI PUSH1 0x40 MLOAD PUSH3 0x461BCD PUSH1 0xE5 SHL DUP2 MSTORE PUSH1 0x4 ADD PUSH2 0x873 SWAP2 SWAP1 PUSH2 0x38ED JUMP JUMPDEST POP PUSH1 0x8 DUP2 ADD SLOAD ISZERO DUP1 PUSH2 0xA1C JUMPI POP DUP1 PUSH1 0x8 ADD SLOAD NUMBER LT JUMPDEST PUSH1 0x40 MLOAD DUP1 PUSH1 0x40 ADD PUSH1 0x40 MSTORE DUP1 PUSH1 0x18 DUP2 MSTORE PUSH1 0x20 ADD PUSH32 0x4143593A20506F6F6C20686173207465726D696E617465640000000000000000 DUP2 MSTORE POP SWAP1 PUSH2 0xA70 JUMPI PUSH1 0x40 MLOAD PUSH3 0x461BCD PUSH1 0xE5 SHL DUP2 MSTORE PUSH1 0x4 ADD PUSH2 0x873 SWAP2 SWAP1 PUSH2 0x38ED JUMP JUMPDEST POP PUSH1 0x6 DUP1 SLOAD PUSH1 0x0 SWAP2 DUP3 PUSH2 0xA82 DUP4 PUSH2 0x39D3 JUMP JUMPDEST SWAP1 SWAP2 SSTORE POP PUSH1 0x0 DUP7 DUP2 MSTORE PUSH1 0x7 PUSH1 0x20 DUP2 DUP2 MSTORE PUSH1 0x40 DUP1 DUP5 KECCAK256 DUP6 DUP6 MSTORE DUP3 MSTORE DUP1 DUP5 KECCAK256 DUP1 SLOAD PUSH1 0x1 PUSH1 0x1 PUSH1 0xA0 SHL SUB NOT AND CALLER SWAP1 DUP2 OR DUP3 SSTORE PUSH1 0x1 DUP1 DUP4 ADD DUP13 SWAP1 SSTORE TIMESTAMP PUSH1 0x2 DUP5 ADD SSTORE PUSH1 0x3 DUP4 ADD DUP12 SWAP1 SSTORE SWAP5 DUP3 ADD DUP1 SLOAD PUSH1 0xFF NOT AND SWAP1 SWAP6 OR SWAP1 SWAP5 SSTORE SWAP3 DUP5 MSTORE PUSH1 0x8 DUP3 MSTORE DUP1 DUP5 KECCAK256 DUP11 DUP6 MSTORE SWAP1 SWAP2 MSTORE SWAP1 SWAP2 KECCAK256 SWAP2 SWAP3 POP SWAP1 PUSH2 0xAF6 SWAP1 DUP4 PUSH2 0x2693 JUMP JUMPDEST POP PUSH1 0x0 DUP7 DUP2 MSTORE PUSH1 0x9 PUSH1 0x20 MSTORE PUSH1 0x40 SWAP1 KECCAK256 PUSH2 0xB0F SWAP1 DUP4 PUSH2 0x2693 JUMP JUMPDEST POP PUSH1 0x0 PUSH2 0xB45 PUSH3 0x15180 DUP4 PUSH1 0x3 ADD SLOAD PUSH10 0x4EE2D6D415B85ACEF81 PUSH1 0x20 SHL PUSH2 0xB36 SWAP2 SWAP1 PUSH2 0x395A JUMP JUMPDEST PUSH2 0xB40 SWAP2 SWAP1 PUSH2 0x3938 JUMP JUMPDEST PUSH2 0x269F JUMP JUMPDEST DUP3 PUSH1 0x1 ADD SLOAD PUSH2 0xB54 SWAP2 SWAP1 PUSH2 0x395A JUMP JUMPDEST SWAP1 POP PUSH1 0x0 JUMPDEST PUSH1 0x1 DUP6 ADD SLOAD DUP2 LT ISZERO PUSH2 0xBE6 JUMPI PUSH1 0x0 DUP6 PUSH1 0x1 ADD DUP3 DUP2 SLOAD DUP2 LT PUSH2 0xB7C JUMPI PUSH2 0xB7C PUSH2 0x3A1A JUMP JUMPDEST SWAP1 PUSH1 0x0 MSTORE PUSH1 0x20 PUSH1 0x0 KECCAK256 ADD SLOAD SWAP1 POP PUSH10 0x4EE2D6D415B85ACEF81 PUSH1 0x20 SHL DUP7 PUSH1 0x6 ADD PUSH1 0x0 DUP4 DUP2 MSTORE PUSH1 0x20 ADD SWAP1 DUP2 MSTORE PUSH1 0x20 ADD PUSH1 0x0 KECCAK256 SLOAD DUP5 PUSH2 0xBB8 SWAP2 SWAP1 PUSH2 0x395A JUMP JUMPDEST PUSH2 0xBC2 SWAP2 SWAP1 PUSH2 0x3938 JUMP JUMPDEST PUSH1 0x0 SWAP2 DUP3 MSTORE PUSH1 0x6 DUP6 ADD PUSH1 0x20 MSTORE PUSH1 0x40 SWAP1 SWAP2 KECCAK256 SSTORE DUP1 PUSH2 0xBDE DUP2 PUSH2 0x39D3 JUMP JUMPDEST SWAP2 POP POP PUSH2 0xB59 JUMP JUMPDEST POP DUP4 SLOAD PUSH2 0xBFE SWAP1 PUSH1 0x1 PUSH1 0x1 PUSH1 0xA0 SHL SUB AND CALLER ADDRESS DUP10 PUSH2 0x26F8 JUMP JUMPDEST DUP6 DUP5 PUSH1 0x3 ADD PUSH1 0x0 DUP3 DUP3 SLOAD PUSH2 0xC12 SWAP2 SWAP1 PUSH2 0x3920 JUMP JUMPDEST SWAP3 POP POP DUP2 SWAP1 SSTORE POP DUP1 DUP5 PUSH1 0x4 ADD PUSH1 0x0 DUP3 DUP3 SLOAD PUSH2 0xC2D SWAP2 SWAP1 PUSH2 0x3920 JUMP JUMPDEST SWAP1 SWAP2 SSTORE POP POP PUSH1 0x40 MLOAD DUP7 DUP2 MSTORE DUP4 SWAP1 DUP9 SWAP1 CALLER SWAP1 PUSH32 0x36AF321EC8D3C75236829C5317AFFD40DDB308863A1236D2D277A4025CCCEE1E SWAP1 PUSH1 0x20 ADD PUSH1 0x40 MLOAD DUP1 SWAP2 SUB SWAP1 LOG4 POP POP POP POP POP POP POP JUMP JUMPDEST PUSH1 0x0 PUSH1 0x1 PUSH1 0x1 PUSH1 0xE0 SHL SUB NOT DUP3 AND PUSH4 0x5A05180F PUSH1 0xE0 SHL EQ DUP1 PUSH2 0xC99 JUMPI POP PUSH2 0xC99 DUP3 PUSH2 0x2763 JUMP JUMPDEST SWAP3 SWAP2 POP POP JUMP JUMPDEST PUSH1 0x0 DUP4 DUP2 MSTORE PUSH1 0x5 PUSH1 0x20 SWAP1 DUP2 MSTORE PUSH1 0x40 DUP1 DUP4 KECCAK256 PUSH1 0x9 DUP2 ADD SLOAD DUP3 MLOAD DUP1 DUP5 ADD SWAP1 SWAP4 MSTORE PUSH1 0x18 DUP4 MSTORE PUSH1 0x0 DUP1 MLOAD PUSH1 0x20 PUSH2 0x3A6A DUP4 CODECOPY DUP2 MLOAD SWAP2 MSTORE SWAP4 DUP4 ADD SWAP4 SWAP1 SWAP4 MSTORE SWAP2 PUSH1 0xFF AND PUSH2 0xCF8 JUMPI PUSH1 0x40 MLOAD PUSH3 0x461BCD PUSH1 0xE5 SHL DUP2 MSTORE PUSH1 0x4 ADD PUSH2 0x873 SWAP2 SWAP1 PUSH2 0x38ED JUMP JUMPDEST POP PUSH1 0x0 DUP6 DUP2 MSTORE PUSH1 0x7 PUSH1 0x20 DUP2 DUP2 MSTORE PUSH1 0x40 DUP1 DUP5 KECCAK256 DUP9 DUP6 MSTORE DUP3 MSTORE SWAP3 DUP4 SWAP1 KECCAK256 SWAP2 DUP3 ADD SLOAD DUP4 MLOAD DUP1 DUP6 ADD SWAP1 SWAP5 MSTORE PUSH1 0x1C DUP5 MSTORE PUSH1 0x0 DUP1 MLOAD PUSH1 0x20 PUSH2 0x3A8A DUP4 CODECOPY DUP2 MLOAD SWAP2 MSTORE SWAP2 DUP5 ADD SWAP2 SWAP1 SWAP2 MSTORE SWAP1 SWAP2 SWAP1 PUSH1 0xFF AND PUSH2 0xD5C JUMPI PUSH1 0x40 MLOAD PUSH3 0x461BCD PUSH1 0xE5 SHL DUP2 MSTORE PUSH1 0x4 ADD PUSH2 0x873 SWAP2 SWAP1 PUSH2 0x38ED JUMP JUMPDEST POP PUSH1 0x0 DUP5 DUP2 MSTORE PUSH1 0x6 DUP4 ADD PUSH1 0x20 MSTORE PUSH1 0x40 DUP2 KECCAK256 SLOAD PUSH1 0x8 DUP5 ADD SLOAD SWAP1 SWAP2 SWAP1 ISZERO DUP1 PUSH2 0xD85 JUMPI POP DUP4 PUSH1 0x8 ADD SLOAD NUMBER LT JUMPDEST PUSH2 0xD93 JUMPI DUP4 PUSH1 0x8 ADD SLOAD PUSH2 0xD95 JUMP JUMPDEST NUMBER JUMPDEST SWAP1 POP DUP4 PUSH1 0x4 ADD SLOAD PUSH1 0x0 EQ ISZERO DUP1 ISZERO PUSH2 0xDB9 JUMPI POP PUSH1 0x0 DUP7 DUP2 MSTORE PUSH1 0xC PUSH1 0x20 MSTORE PUSH1 0x40 SWAP1 KECCAK256 SLOAD ISZERO ISZERO JUMPDEST ISZERO PUSH2 0xE50 JUMPI PUSH1 0x0 DUP5 PUSH1 0x5 ADD SLOAD DUP3 PUSH2 0xDD0 SWAP2 SWAP1 PUSH2 0x3979 JUMP JUMPDEST PUSH1 0x0 DUP9 DUP2 MSTORE PUSH1 0xC PUSH1 0x20 SWAP1 DUP2 MSTORE PUSH1 0x40 DUP1 DUP4 KECCAK256 SLOAD PUSH1 0x2 DUP11 ADD DUP4 MSTORE DUP2 DUP5 KECCAK256 SLOAD PUSH1 0xB SWAP1 SWAP4 MSTORE SWAP1 DUP4 KECCAK256 SLOAD SWAP4 SWAP5 POP SWAP2 SWAP3 PUSH2 0xE04 SWAP1 DUP6 PUSH2 0x395A JUMP JUMPDEST PUSH2 0xE0E SWAP2 SWAP1 PUSH2 0x395A JUMP JUMPDEST PUSH2 0xE18 SWAP2 SWAP1 PUSH2 0x3938 JUMP JUMPDEST PUSH1 0x4 DUP8 ADD SLOAD SWAP1 SWAP2 POP PUSH2 0xE37 DUP3 PUSH10 0x4EE2D6D415B85ACEF81 PUSH1 0x20 SHL PUSH2 0x395A JUMP JUMPDEST PUSH2 0xE41 SWAP2 SWAP1 PUSH2 0x3938 JUMP JUMPDEST PUSH2 0xE4B SWAP1 DUP6 PUSH2 0x3920 JUMP JUMPDEST SWAP4 POP POP POP JUMPDEST PUSH1 0x0 PUSH2 0xE76 PUSH3 0x15180 DUP6 PUSH1 0x3 ADD SLOAD PUSH10 0x4EE2D6D415B85ACEF81 PUSH1 0x20 SHL PUSH2 0xB36 SWAP2 SWAP1 PUSH2 0x395A JUMP JUMPDEST DUP5 PUSH1 0x1 ADD SLOAD PUSH2 0xE85 SWAP2 SWAP1 PUSH2 0x395A JUMP JUMPDEST PUSH1 0x0 DUP9 DUP2 MSTORE PUSH1 0x6 DUP7 ADD PUSH1 0x20 MSTORE PUSH1 0x40 SWAP1 KECCAK256 SLOAD SWAP1 SWAP2 POP PUSH10 0x4EE2D6D415B85ACEF81 PUSH1 0x20 SHL PUSH2 0xEB1 DUP6 DUP5 PUSH2 0x395A JUMP JUMPDEST PUSH2 0xEBB SWAP2 SWAP1 PUSH2 0x3938 JUMP JUMPDEST PUSH1 0x0 DUP10 DUP2 MSTORE PUSH1 0x4 DUP8 ADD PUSH1 0x20 MSTORE PUSH1 0x40 SWAP1 KECCAK256 SLOAD PUSH2 0xED6 SWAP2 SWAP1 PUSH2 0x3920 JUMP JUMPDEST PUSH2 0xEE0 SWAP2 SWAP1 PUSH2 0x3979 JUMP JUMPDEST SWAP6 POP POP POP POP POP POP JUMPDEST SWAP4 SWAP3 POP POP POP JUMP JUMPDEST PUSH1 0x0 DUP3 DUP2 MSTORE PUSH1 0x9 PUSH1 0x20 MSTORE PUSH1 0x40 DUP2 KECCAK256 PUSH2 0xEE8 SWAP1 DUP4 PUSH2 0x2798 JUMP JUMPDEST PUSH1 0x0 DUP3 DUP2 MSTORE PUSH1 0x5 PUSH1 0x20 SWAP1 DUP2 MSTORE PUSH1 0x40 DUP1 DUP4 KECCAK256 PUSH1 0x9 DUP2 ADD SLOAD DUP3 MLOAD DUP1 DUP5 ADD SWAP1 SWAP4 MSTORE PUSH1 0x18 DUP4 MSTORE PUSH1 0x0 DUP1 MLOAD PUSH1 0x20 PUSH2 0x3A6A DUP4 CODECOPY DUP2 MLOAD SWAP2 MSTORE SWAP4 DUP4 ADD SWAP4 SWAP1 SWAP4 MSTORE DUP4 SWAP3 DUP4 SWAP3 DUP4 SWAP3 SWAP2 PUSH1 0xFF AND PUSH2 0xF66 JUMPI PUSH1 0x40 MLOAD PUSH3 0x461BCD PUSH1 0xE5 SHL DUP2 MSTORE PUSH1 0x4 ADD PUSH2 0x873 SWAP2 SWAP1 PUSH2 0x38ED JUMP JUMPDEST POP PUSH1 0x0 DUP7 DUP2 MSTORE PUSH1 0x2 DUP3 ADD PUSH1 0x20 SWAP1 DUP2 MSTORE PUSH1 0x40 DUP1 DUP4 KECCAK256 SLOAD PUSH1 0xC DUP4 MSTORE DUP2 DUP5 KECCAK256 SLOAD PUSH1 0xB SWAP1 SWAP4 MSTORE SWAP3 KECCAK256 SLOAD SWAP2 SWAP7 POP SWAP5 POP SWAP3 POP DUP4 PUSH2 0xF9E JUMPI PUSH1 0x0 PUSH2 0xFB3 JUMP JUMPDEST DUP4 PUSH2 0xFA9 DUP7 DUP6 PUSH2 0x395A JUMP JUMPDEST PUSH2 0xFB3 SWAP2 SWAP1 PUSH2 0x3938 JUMP JUMPDEST SWAP2 POP POP SWAP3 SWAP6 SWAP2 SWAP5 POP SWAP3 POP JUMP JUMPDEST PUSH1 0x1 PUSH1 0x1 PUSH1 0xA0 SHL SUB DUP4 AND PUSH1 0x0 SWAP1 DUP2 MSTORE PUSH1 0x8 PUSH1 0x20 SWAP1 DUP2 MSTORE PUSH1 0x40 DUP1 DUP4 KECCAK256 DUP6 DUP5 MSTORE SWAP1 SWAP2 MSTORE DUP2 KECCAK256 PUSH2 0xFEC SWAP1 DUP4 PUSH2 0x2798 JUMP JUMPDEST SWAP5 SWAP4 POP POP POP POP JUMP JUMPDEST PUSH2 0x1000 DUP5 DUP5 DUP5 DUP5 PUSH2 0x27A4 JUMP JUMPDEST POP POP POP POP JUMP JUMPDEST PUSH1 0x0 DUP1 MLOAD PUSH1 0x20 PUSH2 0x3AAA DUP4 CODECOPY DUP2 MLOAD SWAP2 MSTORE PUSH2 0x101F DUP2 CALLER PUSH2 0x2C33 JUMP JUMPDEST PUSH1 0x0 DUP4 DUP2 MSTORE PUSH1 0xD PUSH1 0x20 SWAP1 DUP2 MSTORE PUSH1 0x40 SWAP2 DUP3 SWAP1 KECCAK256 DUP1 SLOAD PUSH1 0x1 PUSH1 0x1 PUSH1 0xA0 SHL SUB NOT AND PUSH1 0x1 PUSH1 0x1 PUSH1 0xA0 SHL SUB DUP7 AND SWAP1 DUP2 OR SWAP1 SWAP2 SSTORE SWAP2 MLOAD SWAP2 DUP3 MSTORE DUP5 SWAP2 PUSH32 0xF80339A3E391E45ECE64C63579AE16B439563D8317481BB8200FCB0671F93590 SWAP2 ADD PUSH1 0x40 MLOAD DUP1 SWAP2 SUB SWAP1 LOG2 POP POP POP JUMP JUMPDEST PUSH1 0x0 DUP3 DUP2 MSTORE PUSH1 0x20 DUP2 SWAP1 MSTORE PUSH1 0x40 SWAP1 KECCAK256 PUSH1 0x1 ADD SLOAD PUSH2 0x10A0 DUP2 CALLER PUSH2 0x2C33 JUMP JUMPDEST PUSH2 0x10AA DUP4 DUP4 PUSH2 0x2C71 JUMP JUMPDEST POP POP POP JUMP JUMPDEST PUSH1 0x0 JUMPDEST CALLER PUSH1 0x0 SWAP1 DUP2 MSTORE PUSH1 0x8 PUSH1 0x20 SWAP1 DUP2 MSTORE PUSH1 0x40 DUP1 DUP4 KECCAK256 DUP8 DUP5 MSTORE SWAP1 SWAP2 MSTORE SWAP1 KECCAK256 PUSH2 0x10D5 SWAP1 PUSH2 0x2C93 JUMP JUMPDEST DUP2 LT ISZERO PUSH2 0x1000 JUMPI CALLER PUSH1 0x0 SWAP1 DUP2 MSTORE PUSH1 0x8 PUSH1 0x20 SWAP1 DUP2 MSTORE PUSH1 0x40 DUP1 DUP4 KECCAK256 DUP8 DUP5 MSTORE SWAP1 SWAP2 MSTORE DUP2 KECCAK256 PUSH2 0x1100 SWAP1 DUP4 PUSH2 0x2798 JUMP JUMPDEST SWAP1 POP PUSH2 0x110E DUP6 DUP3 DUP7 DUP7 PUSH2 0x27A4 JUMP JUMPDEST POP DUP1 PUSH2 0x1119 DUP2 PUSH2 0x39D3 JUMP JUMPDEST SWAP2 POP POP PUSH2 0x10B2 JUMP JUMPDEST PUSH1 0x1 PUSH1 0x1 PUSH1 0xA0 SHL SUB DUP2 AND CALLER EQ PUSH2 0x1191 JUMPI PUSH1 0x40 MLOAD PUSH3 0x461BCD PUSH1 0xE5 SHL DUP2 MSTORE PUSH1 0x20 PUSH1 0x4 DUP3 ADD MSTORE PUSH1 0x2F PUSH1 0x24 DUP3 ADD MSTORE PUSH32 0x416363657373436F6E74726F6C3A2063616E206F6E6C792072656E6F756E6365 PUSH1 0x44 DUP3 ADD MSTORE PUSH15 0x103937B632B9903337B91039B2B633 PUSH1 0x89 SHL PUSH1 0x64 DUP3 ADD MSTORE PUSH1 0x84 ADD PUSH2 0x873 JUMP JUMPDEST PUSH2 0x119B DUP3 DUP3 PUSH2 0x2C9D JUMP JUMPDEST POP POP JUMP JUMPDEST PUSH1 0x0 DUP1 MLOAD PUSH1 0x20 PUSH2 0x3AAA DUP4 CODECOPY DUP2 MLOAD SWAP2 MSTORE PUSH2 0x11B8 DUP2 CALLER PUSH2 0x2C33 JUMP JUMPDEST PUSH1 0x1 PUSH1 0x1 PUSH1 0xA0 SHL SUB DUP10 AND PUSH2 0x120E JUMPI PUSH1 0x40 MLOAD PUSH3 0x461BCD PUSH1 0xE5 SHL DUP2 MSTORE PUSH1 0x20 PUSH1 0x4 DUP3 ADD MSTORE PUSH1 0x17 PUSH1 0x24 DUP3 ADD MSTORE PUSH32 0x4143593A20496E76616C6964204C502061646472657373000000000000000000 PUSH1 0x44 DUP3 ADD MSTORE PUSH1 0x64 ADD PUSH2 0x873 JUMP JUMPDEST DUP7 DUP6 EQ PUSH2 0x1254 JUMPI PUSH1 0x40 MLOAD PUSH3 0x461BCD PUSH1 0xE5 SHL DUP2 MSTORE PUSH1 0x20 PUSH1 0x4 DUP3 ADD MSTORE PUSH1 0x14 PUSH1 0x24 DUP3 ADD MSTORE PUSH20 0x8286B2744098CADCCEE8D040DAD2E6DAC2E8C6D PUSH1 0x63 SHL PUSH1 0x44 DUP3 ADD MSTORE PUSH1 0x64 ADD PUSH2 0x873 JUMP JUMPDEST PUSH1 0x0 JUMPDEST DUP8 DUP2 LT ISZERO PUSH2 0x12F9 JUMPI PUSH1 0x0 DUP10 DUP10 DUP4 DUP2 DUP2 LT PUSH2 0x1273 JUMPI PUSH2 0x1273 PUSH2 0x3A1A JUMP JUMPDEST PUSH1 0x20 SWAP1 DUP2 MUL SWAP3 SWAP1 SWAP3 ADD CALLDATALOAD PUSH1 0x0 DUP2 DUP2 MSTORE PUSH1 0xD DUP5 MSTORE PUSH1 0x40 SWAP1 DUP2 SWAP1 KECCAK256 SLOAD DUP2 MLOAD DUP1 DUP4 ADD SWAP1 SWAP3 MSTORE PUSH1 0x12 DUP3 MSTORE PUSH18 0x20A1AC9D102AB735B737BBB7103A37B5B2B7 PUSH1 0x71 SHL SWAP5 DUP3 ADD SWAP5 SWAP1 SWAP5 MSTORE SWAP1 SWAP4 POP SWAP2 PUSH1 0x1 PUSH1 0x1 PUSH1 0xA0 SHL SUB AND ISZERO ISZERO SWAP1 POP PUSH2 0x12E4 JUMPI PUSH1 0x40 MLOAD PUSH3 0x461BCD PUSH1 0xE5 SHL DUP2 MSTORE PUSH1 0x4 ADD PUSH2 0x873 SWAP2 SWAP1 PUSH2 0x38ED JUMP JUMPDEST POP POP DUP1 DUP1 PUSH2 0x12F1 SWAP1 PUSH2 0x39D3 JUMP JUMPDEST SWAP2 POP POP PUSH2 0x1257 JUMP JUMPDEST POP DUP2 ISZERO PUSH2 0x1308 JUMPI PUSH2 0x1308 PUSH2 0x16DC JUMP JUMPDEST PUSH1 0x4 DUP1 SLOAD PUSH1 0x0 SWAP2 DUP3 PUSH2 0x1319 DUP4 PUSH2 0x39D3 JUMP JUMPDEST SWAP1 SWAP2 SSTORE POP PUSH1 0x0 DUP2 DUP2 MSTORE PUSH1 0x5 PUSH1 0x20 MSTORE PUSH1 0x40 SWAP1 KECCAK256 DUP1 SLOAD PUSH1 0x1 PUSH1 0x1 PUSH1 0xA0 SHL SUB NOT AND PUSH1 0x1 PUSH1 0x1 PUSH1 0xA0 SHL SUB DUP14 AND OR DUP2 SSTORE SWAP1 SWAP2 POP PUSH2 0x1355 PUSH1 0x1 DUP3 ADD DUP12 DUP12 PUSH2 0x3436 JUMP JUMPDEST POP NUMBER DUP7 LT PUSH2 0x1363 JUMPI DUP6 PUSH2 0x1365 JUMP JUMPDEST NUMBER JUMPDEST PUSH1 0x5 DUP3 ADD SSTORE PUSH1 0x7 DUP2 ADD DUP7 SWAP1 SSTORE PUSH1 0x8 DUP2 ADD DUP6 SWAP1 SSTORE PUSH1 0x9 DUP2 ADD DUP1 SLOAD PUSH1 0xFF NOT AND PUSH1 0x1 OR SWAP1 SSTORE PUSH1 0x0 JUMPDEST DUP10 DUP2 LT ISZERO PUSH2 0x1490 JUMPI PUSH1 0x0 DUP12 DUP12 DUP4 DUP2 DUP2 LT PUSH2 0x13A6 JUMPI PUSH2 0x13A6 PUSH2 0x3A1A JUMP JUMPDEST SWAP1 POP PUSH1 0x20 MUL ADD CALLDATALOAD SWAP1 POP DUP10 DUP10 DUP4 DUP2 DUP2 LT PUSH2 0x13C1 JUMPI PUSH2 0x13C1 PUSH2 0x3A1A JUMP JUMPDEST SWAP1 POP PUSH1 0x20 MUL ADD CALLDATALOAD DUP4 PUSH1 0x2 ADD PUSH1 0x0 DUP4 DUP2 MSTORE PUSH1 0x20 ADD SWAP1 DUP2 MSTORE PUSH1 0x20 ADD PUSH1 0x0 KECCAK256 DUP2 SWAP1 SSTORE POP DUP10 DUP10 DUP4 DUP2 DUP2 LT PUSH2 0x13F3 JUMPI PUSH2 0x13F3 PUSH2 0x3A1A JUMP JUMPDEST SWAP1 POP PUSH1 0x20 MUL ADD CALLDATALOAD PUSH1 0xC PUSH1 0x0 DUP4 DUP2 MSTORE PUSH1 0x20 ADD SWAP1 DUP2 MSTORE PUSH1 0x20 ADD PUSH1 0x0 KECCAK256 PUSH1 0x0 DUP3 DUP3 SLOAD PUSH2 0x141C SWAP2 SWAP1 PUSH2 0x3920 JUMP JUMPDEST SWAP1 SWAP2 SSTORE POP DUP5 SWAP1 POP PUSH32 0x6096A506A56B62E1E89BA38DE21BEE0BAA72624ED4A165D1E3B4BA0B34899A52 DUP3 DUP13 DUP13 DUP7 DUP2 DUP2 LT PUSH2 0x1457 JUMPI PUSH2 0x1457 PUSH2 0x3A1A JUMP JUMPDEST SWAP1 POP PUSH1 0x20 MUL ADD CALLDATALOAD PUSH1 0x40 MLOAD PUSH2 0x1475 SWAP3 SWAP2 SWAP1 SWAP2 DUP3 MSTORE PUSH1 0x20 DUP3 ADD MSTORE PUSH1 0x40 ADD SWAP1 JUMP JUMPDEST PUSH1 0x40 MLOAD DUP1 SWAP2 SUB SWAP1 LOG2 POP DUP1 PUSH2 0x1488 DUP2 PUSH2 0x39D3 JUMP JUMPDEST SWAP2 POP POP PUSH2 0x138A JUMP JUMPDEST POP PUSH1 0x40 MLOAD PUSH1 0x1 PUSH1 0x1 PUSH1 0xA0 SHL SUB DUP13 AND DUP2 MSTORE DUP3 SWAP1 PUSH32 0xCFDB757A17C7073437A01260A6760F5026EFD70C96FB9A3F54D03C6ED2C372C3 SWAP1 PUSH1 0x20 ADD PUSH1 0x40 MLOAD DUP1 SWAP2 SUB SWAP1 LOG2 POP POP POP POP POP POP POP POP POP POP POP JUMP JUMPDEST PUSH32 0x65D7A28E3265B37A6474929F336521B332C1681B933F6CB9F3376673440D862A PUSH2 0x1507 DUP2 CALLER PUSH2 0x2C33 JUMP JUMPDEST PUSH2 0x150F PUSH2 0x2CBF JUMP JUMPDEST POP JUMP JUMPDEST PUSH1 0x0 DUP2 DUP2 MSTORE PUSH1 0x5 PUSH1 0x20 SWAP1 DUP2 MSTORE PUSH1 0x40 SWAP2 DUP3 SWAP1 KECCAK256 PUSH1 0x9 DUP2 ADD SLOAD DUP4 MLOAD DUP1 DUP6 ADD SWAP1 SWAP5 MSTORE PUSH1 0x18 DUP5 MSTORE PUSH1 0x0 DUP1 MLOAD PUSH1 0x20 PUSH2 0x3A6A DUP4 CODECOPY DUP2 MLOAD SWAP2 MSTORE SWAP3 DUP5 ADD SWAP3 SWAP1 SWAP3 MSTORE SWAP2 SWAP1 PUSH1 0xFF AND PUSH2 0x156D JUMPI PUSH1 0x40 MLOAD PUSH3 0x461BCD PUSH1 0xE5 SHL DUP2 MSTORE PUSH1 0x4 ADD PUSH2 0x873 SWAP2 SWAP1 PUSH2 0x38ED JUMP JUMPDEST POP PUSH1 0x0 DUP2 PUSH1 0x8 ADD SLOAD PUSH1 0x0 EQ DUP1 PUSH2 0x1586 JUMPI POP DUP2 PUSH1 0x8 ADD SLOAD NUMBER LT JUMPDEST PUSH2 0x1594 JUMPI DUP2 PUSH1 0x8 ADD SLOAD PUSH2 0x1596 JUMP JUMPDEST NUMBER JUMPDEST SWAP1 POP DUP2 PUSH1 0x5 ADD SLOAD DUP2 GT PUSH2 0x15A8 JUMPI POP POP POP JUMP JUMPDEST PUSH1 0x4 DUP3 ADD SLOAD PUSH2 0x15BA JUMPI PUSH1 0x5 SWAP1 SWAP2 ADD SSTORE POP JUMP JUMPDEST PUSH1 0x0 DUP3 PUSH1 0x5 ADD SLOAD DUP3 PUSH2 0x15CC SWAP2 SWAP1 PUSH2 0x3979 JUMP JUMPDEST SWAP1 POP PUSH1 0x0 JUMPDEST PUSH1 0x1 DUP5 ADD SLOAD DUP2 LT ISZERO PUSH2 0x16D1 JUMPI PUSH1 0x0 DUP5 PUSH1 0x1 ADD DUP3 DUP2 SLOAD DUP2 LT PUSH2 0x15F4 JUMPI PUSH2 0x15F4 PUSH2 0x3A1A JUMP JUMPDEST SWAP1 PUSH1 0x0 MSTORE PUSH1 0x20 PUSH1 0x0 KECCAK256 ADD SLOAD SWAP1 POP DUP5 PUSH1 0x4 ADD SLOAD PUSH1 0x0 EQ ISZERO DUP1 ISZERO PUSH2 0x1623 JUMPI POP PUSH1 0x0 DUP2 DUP2 MSTORE PUSH1 0xC PUSH1 0x20 MSTORE PUSH1 0x40 SWAP1 KECCAK256 SLOAD ISZERO ISZERO JUMPDEST ISZERO PUSH2 0x16BE JUMPI PUSH1 0x0 DUP2 DUP2 MSTORE PUSH1 0xC PUSH1 0x20 SWAP1 DUP2 MSTORE PUSH1 0x40 DUP1 DUP4 KECCAK256 SLOAD PUSH1 0x2 DUP10 ADD DUP4 MSTORE DUP2 DUP5 KECCAK256 SLOAD PUSH1 0xB SWAP1 SWAP4 MSTORE SWAP1 DUP4 KECCAK256 SLOAD SWAP1 SWAP2 SWAP1 PUSH2 0x165A SWAP1 DUP8 PUSH2 0x395A JUMP JUMPDEST PUSH2 0x1664 SWAP2 SWAP1 PUSH2 0x395A JUMP JUMPDEST PUSH2 0x166E SWAP2 SWAP1 PUSH2 0x3938 JUMP JUMPDEST PUSH1 0x4 DUP8 ADD SLOAD SWAP1 SWAP2 POP PUSH2 0x168D DUP3 PUSH10 0x4EE2D6D415B85ACEF81 PUSH1 0x20 SHL PUSH2 0x395A JUMP JUMPDEST PUSH2 0x1697 SWAP2 SWAP1 PUSH2 0x3938 JUMP JUMPDEST PUSH1 0x0 DUP4 DUP2 MSTORE PUSH1 0x6 DUP9 ADD PUSH1 0x20 MSTORE PUSH1 0x40 DUP2 KECCAK256 DUP1 SLOAD SWAP1 SWAP2 SWAP1 PUSH2 0x16B7 SWAP1 DUP5 SWAP1 PUSH2 0x3920 JUMP JUMPDEST SWAP1 SWAP2 SSTORE POP POP POP JUMPDEST POP DUP1 PUSH2 0x16C9 DUP2 PUSH2 0x39D3 JUMP JUMPDEST SWAP2 POP POP PUSH2 0x15D1 JUMP JUMPDEST POP POP PUSH1 0x5 SWAP1 SWAP2 ADD SSTORE POP JUMP JUMPDEST PUSH1 0x0 JUMPDEST PUSH1 0x4 SLOAD DUP2 LT ISZERO PUSH2 0x150F JUMPI PUSH2 0x16F2 DUP2 PUSH2 0x1512 JUMP JUMPDEST PUSH2 0x16FB DUP2 PUSH2 0x39D3 JUMP JUMPDEST SWAP1 POP PUSH2 0x16DF JUMP JUMPDEST PUSH1 0x1 PUSH1 0x1 PUSH1 0xA0 SHL SUB DUP3 AND PUSH1 0x0 SWAP1 DUP2 MSTORE PUSH1 0x8 PUSH1 0x20 SWAP1 DUP2 MSTORE PUSH1 0x40 DUP1 DUP4 KECCAK256 DUP5 DUP5 MSTORE SWAP1 SWAP2 MSTORE DUP2 KECCAK256 PUSH2 0xEE8 SWAP1 PUSH2 0x2C93 JUMP JUMPDEST PUSH1 0x0 DUP1 MLOAD PUSH1 0x20 PUSH2 0x3AAA DUP4 CODECOPY DUP2 MLOAD SWAP2 MSTORE PUSH2 0x1747 DUP2 CALLER PUSH2 0x2C33 JUMP JUMPDEST PUSH1 0x0 DUP6 DUP2 MSTORE PUSH1 0x5 PUSH1 0x20 SWAP1 DUP2 MSTORE PUSH1 0x40 SWAP2 DUP3 SWAP1 KECCAK256 PUSH1 0x9 DUP2 ADD SLOAD DUP4 MLOAD DUP1 DUP6 ADD SWAP1 SWAP5 MSTORE PUSH1 0x18 DUP5 MSTORE PUSH1 0x0 DUP1 MLOAD PUSH1 0x20 PUSH2 0x3A6A DUP4 CODECOPY DUP2 MLOAD SWAP2 MSTORE SWAP3 DUP5 ADD SWAP3 SWAP1 SWAP3 MSTORE SWAP2 SWAP1 PUSH1 0xFF AND PUSH2 0x17A2 JUMPI PUSH1 0x40 MLOAD PUSH3 0x461BCD PUSH1 0xE5 SHL DUP2 MSTORE PUSH1 0x4 ADD PUSH2 0x873 SWAP2 SWAP1 PUSH2 0x38ED JUMP JUMPDEST POP DUP3 ISZERO PUSH2 0x17B1 JUMPI PUSH2 0x17B1 PUSH2 0x16DC JUMP JUMPDEST PUSH1 0x0 DUP6 DUP2 MSTORE PUSH1 0x2 DUP3 ADD PUSH1 0x20 SWAP1 DUP2 MSTORE PUSH1 0x40 DUP1 DUP4 KECCAK256 SLOAD PUSH1 0xC SWAP1 SWAP3 MSTORE SWAP1 SWAP2 KECCAK256 SLOAD DUP6 SWAP2 PUSH2 0x17D9 SWAP2 PUSH2 0x3979 JUMP JUMPDEST PUSH2 0x17E3 SWAP2 SWAP1 PUSH2 0x3920 JUMP JUMPDEST PUSH1 0x0 DUP7 DUP2 MSTORE PUSH1 0xC PUSH1 0x20 SWAP1 DUP2 MSTORE PUSH1 0x40 DUP1 DUP4 KECCAK256 SWAP4 SWAP1 SWAP4 SSTORE PUSH1 0x2 DUP5 ADD DUP2 MSTORE SWAP1 DUP3 SWAP1 KECCAK256 DUP7 SWAP1 SSTORE DUP2 MLOAD DUP8 DUP2 MSTORE SWAP1 DUP2 ADD DUP7 SWAP1 MSTORE DUP8 SWAP2 PUSH32 0x6096A506A56B62E1E89BA38DE21BEE0BAA72624ED4A165D1E3B4BA0B34899A52 SWAP2 ADD PUSH1 0x40 MLOAD DUP1 SWAP2 SUB SWAP1 LOG2 POP POP POP POP POP POP JUMP JUMPDEST PUSH32 0x65D7A28E3265B37A6474929F336521B332C1681B933F6CB9F3376673440D862A PUSH2 0x1870 DUP2 CALLER PUSH2 0x2C33 JUMP JUMPDEST PUSH2 0x150F PUSH2 0x2D52 JUMP JUMPDEST PUSH1 0x0 DUP3 DUP2 MSTORE PUSH1 0x5 PUSH1 0x20 SWAP1 DUP2 MSTORE PUSH1 0x40 DUP1 DUP4 KECCAK256 PUSH1 0x9 DUP2 ADD SLOAD DUP3 MLOAD DUP1 DUP5 ADD SWAP1 SWAP4 MSTORE PUSH1 0x18 DUP4 MSTORE PUSH1 0x0 DUP1 MLOAD PUSH1 0x20 PUSH2 0x3A6A DUP4 CODECOPY DUP2 MLOAD SWAP2 MSTORE SWAP4 DUP4 ADD SWAP4 SWAP1 SWAP4 MSTORE SWAP2 PUSH1 0xFF AND PUSH2 0x18D1 JUMPI PUSH1 0x40 MLOAD PUSH3 0x461BCD PUSH1 0xE5 SHL DUP2 MSTORE PUSH1 0x4 ADD PUSH2 0x873 SWAP2 SWAP1 PUSH2 0x38ED JUMP JUMPDEST POP PUSH1 0x0 SWAP3 DUP4 MSTORE PUSH1 0x6 ADD PUSH1 0x20 MSTORE POP PUSH1 0x40 SWAP1 KECCAK256 SLOAD SWAP2 SWAP1 POP JUMP JUMPDEST PUSH1 0x0 DUP1 MLOAD PUSH1 0x20 PUSH2 0x3AAA DUP4 CODECOPY DUP2 MLOAD SWAP2 MSTORE PUSH2 0x1901 DUP2 CALLER PUSH2 0x2C33 JUMP JUMPDEST DUP2 ISZERO PUSH2 0x190F JUMPI PUSH2 0x190F PUSH2 0x16DC JUMP JUMPDEST PUSH1 0x0 DUP5 DUP2 MSTORE PUSH1 0xB PUSH1 0x20 SWAP1 DUP2 MSTORE PUSH1 0x40 SWAP2 DUP3 SWAP1 KECCAK256 DUP6 SWAP1 SSTORE DUP2 MLOAD DUP7 DUP2 MSTORE SWAP1 DUP2 ADD DUP6 SWAP1 MSTORE PUSH32 0x756CB3B03A8AADE0ED86A377D5B21DBB522872B6500426A0D908A88B7E61618A SWAP2 ADD PUSH1 0x40 MLOAD DUP1 SWAP2 SUB SWAP1 LOG1 POP POP POP POP JUMP JUMPDEST PUSH1 0x0 DUP3 DUP2 MSTORE PUSH1 0x1 PUSH1 0x20 MSTORE PUSH1 0x40 DUP2 KECCAK256 PUSH2 0xEE8 SWAP1 DUP4 PUSH2 0x2798 JUMP JUMPDEST PUSH1 0x0 SWAP2 DUP3 MSTORE PUSH1 0x20 DUP3 DUP2 MSTORE PUSH1 0x40 DUP1 DUP5 KECCAK256 PUSH1 0x1 PUSH1 0x1 PUSH1 0xA0 SHL SUB SWAP4 SWAP1 SWAP4 AND DUP5 MSTORE SWAP2 SWAP1 MSTORE SWAP1 KECCAK256 SLOAD PUSH1 0xFF AND SWAP1 JUMP JUMPDEST PUSH1 0x1 PUSH1 0x1 PUSH1 0xA0 SHL SUB DUP3 AND PUSH1 0x0 SWAP1 DUP2 MSTORE PUSH1 0x8 PUSH1 0x20 SWAP1 DUP2 MSTORE PUSH1 0x40 DUP1 DUP4 KECCAK256 DUP5 DUP5 MSTORE SWAP1 SWAP2 MSTORE SWAP1 KECCAK256 PUSH1 0x60 SWAP1 PUSH2 0xEE8 SWAP1 PUSH2 0x2DCD JUMP JUMPDEST PUSH1 0x0 DUP4 DUP2 MSTORE PUSH1 0x7 PUSH1 0x20 DUP2 DUP2 MSTORE PUSH1 0x40 DUP1 DUP5 KECCAK256 DUP7 DUP6 MSTORE DUP3 MSTORE DUP1 DUP5 KECCAK256 SWAP3 DUP4 ADD SLOAD DUP2 MLOAD DUP1 DUP4 ADD SWAP1 SWAP3 MSTORE PUSH1 0x1C DUP3 MSTORE PUSH1 0x0 DUP1 MLOAD PUSH1 0x20 PUSH2 0x3A8A DUP4 CODECOPY DUP2 MLOAD SWAP2 MSTORE SWAP3 DUP3 ADD SWAP3 SWAP1 SWAP3 MSTORE SWAP1 PUSH1 0xFF AND PUSH2 0x1A30 JUMPI PUSH1 0x40 MLOAD PUSH3 0x461BCD PUSH1 0xE5 SHL DUP2 MSTORE PUSH1 0x4 ADD PUSH2 0x873 SWAP2 SWAP1 PUSH2 0x38ED JUMP JUMPDEST POP PUSH1 0x0 SWAP3 DUP4 MSTORE PUSH1 0x4 ADD PUSH1 0x20 MSTORE POP PUSH1 0x40 SWAP1 KECCAK256 SLOAD SWAP3 SWAP2 POP POP JUMP JUMPDEST PUSH1 0x0 DUP2 DUP2 MSTORE PUSH1 0x9 PUSH1 0x20 MSTORE PUSH1 0x40 SWAP1 KECCAK256 PUSH1 0x60 SWAP1 PUSH2 0xC99 SWAP1 PUSH2 0x2DCD JUMP JUMPDEST PUSH1 0x2 PUSH1 0x3 SLOAD EQ ISZERO PUSH2 0x1AB5 JUMPI PUSH1 0x40 MLOAD PUSH3 0x461BCD PUSH1 0xE5 SHL DUP2 MSTORE PUSH1 0x20 PUSH1 0x4 DUP3 ADD MSTORE PUSH1 0x1F PUSH1 0x24 DUP3 ADD MSTORE PUSH32 0x5265656E7472616E637947756172643A207265656E7472616E742063616C6C00 PUSH1 0x44 DUP3 ADD MSTORE PUSH1 0x64 ADD PUSH2 0x873 JUMP JUMPDEST PUSH1 0x2 PUSH1 0x3 SSTORE PUSH2 0x1AC3 DUP4 PUSH2 0x1512 JUMP JUMPDEST PUSH1 0x0 DUP2 GT PUSH2 0x1B0C JUMPI PUSH1 0x40 MLOAD PUSH3 0x461BCD PUSH1 0xE5 SHL DUP2 MSTORE PUSH1 0x20 PUSH1 0x4 DUP3 ADD MSTORE PUSH1 0x16 PUSH1 0x24 DUP3 ADD MSTORE PUSH22 0x4143593A2043616E6E6F74207769746864726177203 PUSH1 0x54 SHL PUSH1 0x44 DUP3 ADD MSTORE PUSH1 0x64 ADD PUSH2 0x873 JUMP JUMPDEST PUSH1 0x0 DUP4 DUP2 MSTORE PUSH1 0x5 PUSH1 0x20 SWAP1 DUP2 MSTORE PUSH1 0x40 SWAP2 DUP3 SWAP1 KECCAK256 PUSH1 0x9 DUP2 ADD SLOAD DUP4 MLOAD DUP1 DUP6 ADD SWAP1 SWAP5 MSTORE PUSH1 0x18 DUP5 MSTORE PUSH1 0x0 DUP1 MLOAD PUSH1 0x20 PUSH2 0x3A6A DUP4 CODECOPY DUP2 MLOAD SWAP2 MSTORE SWAP3 DUP5 ADD SWAP3 SWAP1 SWAP3 MSTORE SWAP2 SWAP1 PUSH1 0xFF AND PUSH2 0x1B67 JUMPI PUSH1 0x40 MLOAD PUSH3 0x461BCD PUSH1 0xE5 SHL DUP2 MSTORE PUSH1 0x4 ADD PUSH2 0x873 SWAP2 SWAP1 PUSH2 0x38ED JUMP JUMPDEST POP DUP1 PUSH1 0x3 ADD SLOAD DUP3 GT ISZERO PUSH2 0x1BBC JUMPI PUSH1 0x40 MLOAD PUSH3 0x461BCD PUSH1 0xE5 SHL DUP2 MSTORE PUSH1 0x20 PUSH1 0x4 DUP3 ADD MSTORE PUSH1 0x1C PUSH1 0x24 DUP3 ADD MSTORE PUSH32 0x4143593A20496E73756666696369656E74204C502062616C616E636500000000 PUSH1 0x44 DUP3 ADD MSTORE PUSH1 0x64 ADD PUSH2 0x873 JUMP JUMPDEST PUSH1 0x0 DUP5 DUP2 MSTORE PUSH1 0x7 PUSH1 0x20 DUP2 DUP2 MSTORE PUSH1 0x40 DUP1 DUP5 KECCAK256 DUP8 DUP6 MSTORE DUP3 MSTORE SWAP3 DUP4 SWAP1 KECCAK256 SWAP2 DUP3 ADD SLOAD DUP4 MLOAD DUP1 DUP6 ADD SWAP1 SWAP5 MSTORE PUSH1 0x1C DUP5 MSTORE PUSH1 0x0 DUP1 MLOAD PUSH1 0x20 PUSH2 0x3A8A DUP4 CODECOPY DUP2 MLOAD SWAP2 MSTORE SWAP2 DUP5 ADD SWAP2 SWAP1 SWAP2 MSTORE SWAP1 SWAP2 SWAP1 PUSH1 0xFF AND PUSH2 0x1C1F JUMPI PUSH1 0x40 MLOAD PUSH3 0x461BCD PUSH1 0xE5 SHL DUP2 MSTORE PUSH1 0x4 ADD PUSH2 0x873 SWAP2 SWAP1 PUSH2 0x38ED JUMP JUMPDEST POP DUP1 SLOAD PUSH1 0x40 DUP1 MLOAD DUP1 DUP3 ADD SWAP1 SWAP2 MSTORE PUSH1 0x11 DUP2 MSTORE PUSH17 0x1050D64E88155B985D5D1A1BDC9A5E9959 PUSH1 0x7A SHL PUSH1 0x20 DUP3 ADD MSTORE SWAP1 PUSH1 0x1 PUSH1 0x1 PUSH1 0xA0 SHL SUB AND CALLER EQ PUSH2 0x1C73 JUMPI PUSH1 0x40 MLOAD PUSH3 0x461BCD PUSH1 0xE5 SHL DUP2 MSTORE PUSH1 0x4 ADD PUSH2 0x873 SWAP2 SWAP1 PUSH2 0x38ED JUMP JUMPDEST POP PUSH1 0x3 DUP2 ADD SLOAD PUSH1 0x2 DUP3 ADD SLOAD PUSH2 0x1C88 SWAP1 TIMESTAMP PUSH2 0x3979 JUMP JUMPDEST LT ISZERO PUSH2 0x1CCD JUMPI PUSH1 0x40 MLOAD PUSH3 0x461BCD PUSH1 0xE5 SHL DUP2 MSTORE PUSH1 0x20 PUSH1 0x4 DUP3 ADD MSTORE PUSH1 0x14 PUSH1 0x24 DUP3 ADD MSTORE PUSH20 0x4143593A204E6F206561726C7920756E6C6F636B PUSH1 0x60 SHL PUSH1 0x44 DUP3 ADD MSTORE PUSH1 0x64 ADD PUSH2 0x873 JUMP JUMPDEST DUP1 PUSH1 0x1 ADD SLOAD DUP4 GT ISZERO PUSH2 0x1D21 JUMPI PUSH1 0x40 MLOAD PUSH3 0x461BCD PUSH1 0xE5 SHL DUP2 MSTORE PUSH1 0x20 PUSH1 0x4 DUP3 ADD MSTORE PUSH1 0x1C PUSH1 0x24 DUP3 ADD MSTORE PUSH32 0x4143593A20496E73756666696369656E74204C502062616C616E636500000000 PUSH1 0x44 DUP3 ADD MSTORE PUSH1 0x64 ADD PUSH2 0x873 JUMP JUMPDEST PUSH1 0x0 PUSH2 0x1D47 PUSH3 0x15180 DUP4 PUSH1 0x3 ADD SLOAD PUSH10 0x4EE2D6D415B85ACEF81 PUSH1 0x20 SHL PUSH2 0xB36 SWAP2 SWAP1 PUSH2 0x395A JUMP JUMPDEST DUP3 PUSH1 0x1 ADD SLOAD PUSH2 0x1D56 SWAP2 SWAP1 PUSH2 0x395A JUMP JUMPDEST SWAP1 POP PUSH1 0x0 JUMPDEST PUSH1 0x1 DUP5 ADD SLOAD DUP2 LT ISZERO PUSH2 0x1E19 JUMPI PUSH1 0x0 DUP5 PUSH1 0x1 ADD DUP3 DUP2 SLOAD DUP2 LT PUSH2 0x1D7E JUMPI PUSH2 0x1D7E PUSH2 0x3A1A JUMP JUMPDEST PUSH1 0x0 SWAP2 DUP3 MSTORE PUSH1 0x20 DUP1 DUP4 KECCAK256 SWAP1 SWAP2 ADD SLOAD DUP1 DUP4 MSTORE PUSH1 0x6 DUP1 DUP9 ADD DUP4 MSTORE PUSH1 0x40 DUP1 DUP6 KECCAK256 SLOAD SWAP2 DUP11 ADD SWAP1 SWAP4 MSTORE SWAP2 DUP4 KECCAK256 SLOAD SWAP1 SWAP4 POP PUSH10 0x4EE2D6D415B85ACEF81 PUSH1 0x20 SHL SWAP1 PUSH2 0x1DC2 SWAP1 DUP8 PUSH2 0x395A JUMP JUMPDEST PUSH2 0x1DCC SWAP2 SWAP1 PUSH2 0x3938 JUMP JUMPDEST PUSH2 0x1DD6 SWAP2 SWAP1 PUSH2 0x3979 JUMP JUMPDEST SWAP1 POP DUP1 DUP6 PUSH1 0x4 ADD PUSH1 0x0 DUP5 DUP2 MSTORE PUSH1 0x20 ADD SWAP1 DUP2 MSTORE PUSH1 0x20 ADD PUSH1 0x0 KECCAK256 PUSH1 0x0 DUP3 DUP3 SLOAD PUSH2 0x1DFD SWAP2 SWAP1 PUSH2 0x3920 JUMP JUMPDEST SWAP3 POP POP DUP2 SWAP1 SSTORE POP POP POP DUP1 DUP1 PUSH2 0x1E11 SWAP1 PUSH2 0x39D3 JUMP JUMPDEST SWAP2 POP POP PUSH2 0x1D5B JUMP JUMPDEST POP DUP4 DUP3 PUSH1 0x1 ADD PUSH1 0x0 DUP3 DUP3 SLOAD PUSH2 0x1E2E SWAP2 SWAP1 PUSH2 0x3979 JUMP JUMPDEST SWAP3 POP POP DUP2 SWAP1 SSTORE POP DUP4 DUP4 PUSH1 0x3 ADD PUSH1 0x0 DUP3 DUP3 SLOAD PUSH2 0x1E49 SWAP2 SWAP1 PUSH2 0x3979 JUMP JUMPDEST SWAP1 SWAP2 SSTORE POP POP PUSH1 0x3 DUP3 ADD SLOAD PUSH2 0x1E73 SWAP1 PUSH3 0x15180 SWAP1 PUSH2 0xB36 SWAP1 PUSH10 0x4EE2D6D415B85ACEF81 PUSH1 0x20 SHL PUSH2 0x395A JUMP JUMPDEST PUSH2 0x1E7D SWAP1 DUP6 PUSH2 0x395A JUMP JUMPDEST DUP4 PUSH1 0x4 ADD PUSH1 0x0 DUP3 DUP3 SLOAD PUSH2 0x1E90 SWAP2 SWAP1 PUSH2 0x3979 JUMP JUMPDEST SWAP3 POP POP DUP2 SWAP1 SSTORE POP PUSH1 0x0 PUSH2 0x1EBD PUSH3 0x15180 DUP5 PUSH1 0x3 ADD SLOAD PUSH10 0x4EE2D6D415B85ACEF81 PUSH1 0x20 SHL PUSH2 0xB36 SWAP2 SWAP1 PUSH2 0x395A JUMP JUMPDEST DUP4 PUSH1 0x1 ADD SLOAD PUSH2 0x1ECC SWAP2 SWAP1 PUSH2 0x395A JUMP JUMPDEST SWAP1 POP PUSH1 0x0 JUMPDEST PUSH1 0x1 DUP6 ADD SLOAD DUP2 LT ISZERO PUSH2 0x1F5E JUMPI PUSH1 0x0 DUP6 PUSH1 0x1 ADD DUP3 DUP2 SLOAD DUP2 LT PUSH2 0x1EF4 JUMPI PUSH2 0x1EF4 PUSH2 0x3A1A JUMP JUMPDEST SWAP1 PUSH1 0x0 MSTORE PUSH1 0x20 PUSH1 0x0 KECCAK256 ADD SLOAD SWAP1 POP PUSH10 0x4EE2D6D415B85ACEF81 PUSH1 0x20 SHL DUP7 PUSH1 0x6 ADD PUSH1 0x0 DUP4 DUP2 MSTORE PUSH1 0x20 ADD SWAP1 DUP2 MSTORE PUSH1 0x20 ADD PUSH1 0x0 KECCAK256 SLOAD DUP5 PUSH2 0x1F30 SWAP2 SWAP1 PUSH2 0x395A JUMP JUMPDEST PUSH2 0x1F3A SWAP2 SWAP1 PUSH2 0x3938 JUMP JUMPDEST PUSH1 0x0 SWAP2 DUP3 MSTORE PUSH1 0x6 DUP7 ADD PUSH1 0x20 MSTORE PUSH1 0x40 SWAP1 SWAP2 KECCAK256 SSTORE DUP1 PUSH2 0x1F56 DUP2 PUSH2 0x39D3 JUMP JUMPDEST SWAP2 POP POP PUSH2 0x1ED1 JUMP JUMPDEST POP DUP4 SLOAD PUSH2 0x1F75 SWAP1 PUSH1 0x1 PUSH1 0x1 PUSH1 0xA0 SHL SUB AND CALLER DUP8 PUSH2 0x2DDA JUMP JUMPDEST DUP6 DUP8 CALLER PUSH1 0x1 PUSH1 0x1 PUSH1 0xA0 SHL SUB AND PUSH32 0x2F25270A4D87BEA75DB541CDFE559334A275B4A233520ED6C0A2429667CCA94 DUP9 PUSH1 0x40 MLOAD PUSH2 0x1FB2 SWAP2 DUP2 MSTORE PUSH1 0x20 ADD SWAP1 JUMP JUMPDEST PUSH1 0x40 MLOAD DUP1 SWAP2 SUB SWAP1 LOG4 POP POP PUSH1 0x1 PUSH1 0x3 SSTORE POP POP POP POP POP JUMP JUMPDEST PUSH1 0x0 DUP2 DUP2 MSTORE PUSH1 0x5 PUSH1 0x20 SWAP1 DUP2 MSTORE PUSH1 0x40 SWAP2 DUP3 SWAP1 KECCAK256 PUSH1 0x9 DUP2 ADD SLOAD DUP4 MLOAD DUP1 DUP6 ADD SWAP1 SWAP5 MSTORE PUSH1 0x18 DUP5 MSTORE PUSH1 0x0 DUP1 MLOAD PUSH1 0x20 PUSH2 0x3A6A DUP4 CODECOPY DUP2 MLOAD SWAP2 MSTORE SWAP3 DUP5 ADD SWAP3 SWAP1 SWAP3 MSTORE PUSH1 0x60 SWAP3 SWAP1 SWAP2 PUSH1 0xFF AND PUSH2 0x2026 JUMPI PUSH1 0x40 MLOAD PUSH3 0x461BCD PUSH1 0xE5 SHL DUP2 MSTORE PUSH1 0x4 ADD PUSH2 0x873 SWAP2 SWAP1 PUSH2 0x38ED JUMP JUMPDEST POP PUSH1 0x0 DUP4 DUP2 MSTORE PUSH1 0x5 PUSH1 0x20 MSTORE PUSH1 0x40 SWAP1 KECCAK256 PUSH1 0x1 ADD SLOAD PUSH8 0xFFFFFFFFFFFFFFFF DUP2 GT ISZERO PUSH2 0x2051 JUMPI PUSH2 0x2051 PUSH2 0x3A30 JUMP JUMPDEST PUSH1 0x40 MLOAD SWAP1 DUP1 DUP3 MSTORE DUP1 PUSH1 0x20 MUL PUSH1 0x20 ADD DUP3 ADD PUSH1 0x40 MSTORE DUP1 ISZERO PUSH2 0x207A JUMPI DUP2 PUSH1 0x20 ADD PUSH1 0x20 DUP3 MUL DUP1 CALLDATASIZE DUP4 CALLDATACOPY ADD SWAP1 POP JUMPDEST POP SWAP2 POP PUSH1 0x0 JUMPDEST PUSH1 0x0 DUP5 DUP2 MSTORE PUSH1 0x5 PUSH1 0x20 MSTORE PUSH1 0x40 SWAP1 KECCAK256 PUSH1 0x1 ADD SLOAD DUP2 LT ISZERO PUSH2 0x2166 JUMPI PUSH1 0x0 DUP3 PUSH1 0x1 ADD DUP3 DUP2 SLOAD DUP2 LT PUSH2 0x20B0 JUMPI PUSH2 0x20B0 PUSH2 0x3A1A JUMP JUMPDEST PUSH1 0x0 SWAP2 DUP3 MSTORE PUSH1 0x20 DUP1 DUP4 KECCAK256 SWAP1 SWAP2 ADD SLOAD DUP1 DUP4 MSTORE PUSH1 0xD DUP3 MSTORE PUSH1 0x40 SWAP3 DUP4 SWAP1 KECCAK256 SLOAD DUP4 MLOAD DUP1 DUP6 ADD SWAP1 SWAP5 MSTORE PUSH1 0x12 DUP5 MSTORE PUSH18 0x20A1AC9D102AB735B737BBB7103A37B5B2B7 PUSH1 0x71 SHL SWAP3 DUP5 ADD SWAP3 SWAP1 SWAP3 MSTORE SWAP3 POP PUSH1 0x1 PUSH1 0x1 PUSH1 0xA0 SHL SUB AND SWAP1 DUP2 PUSH2 0x211F JUMPI PUSH1 0x40 MLOAD PUSH3 0x461BCD PUSH1 0xE5 SHL DUP2 MSTORE PUSH1 0x4 ADD PUSH2 0x873 SWAP2 SWAP1 PUSH2 0x38ED JUMP JUMPDEST POP DUP1 DUP6 DUP5 DUP2 MLOAD DUP2 LT PUSH2 0x2133 JUMPI PUSH2 0x2133 PUSH2 0x3A1A JUMP JUMPDEST PUSH1 0x20 MUL PUSH1 0x20 ADD ADD SWAP1 PUSH1 0x1 PUSH1 0x1 PUSH1 0xA0 SHL SUB AND SWAP1 DUP2 PUSH1 0x1 PUSH1 0x1 PUSH1 0xA0 SHL SUB AND DUP2 MSTORE POP POP POP POP DUP1 PUSH2 0x215F SWAP1 PUSH2 0x39D3 JUMP JUMPDEST SWAP1 POP PUSH2 0x2080 JUMP JUMPDEST POP POP SWAP2 SWAP1 POP JUMP JUMPDEST PUSH32 0x8619CECD8B9E095AB43867F5B69D492180450FE862E6B50BFBFB24B75DD84C8A PUSH2 0x2198 DUP2 CALLER PUSH2 0x2C33 JUMP JUMPDEST PUSH1 0x40 DUP1 MLOAD PUSH1 0x1 DUP1 DUP3 MSTORE DUP2 DUP4 ADD SWAP1 SWAP3 MSTORE PUSH1 0x1 PUSH2 0x111 PUSH1 0x93 SHL ADD SWAP2 PUSH1 0x0 SWAP2 SWAP1 PUSH1 0x20 DUP1 DUP4 ADD SWAP1 DUP1 CALLDATASIZE DUP4 CALLDATACOPY ADD SWAP1 POP POP SWAP1 POP DUP4 DUP2 PUSH1 0x0 DUP2 MLOAD DUP2 LT PUSH2 0x21D9 JUMPI PUSH2 0x21D9 PUSH2 0x3A1A JUMP JUMPDEST PUSH1 0x1 PUSH1 0x1 PUSH1 0xA0 SHL SUB SWAP3 DUP4 AND PUSH1 0x20 SWAP2 DUP3 MUL SWAP3 SWAP1 SWAP3 ADD ADD MSTORE PUSH1 0x40 MLOAD PUSH4 0x809469F PUSH1 0xE1 SHL DUP2 MSTORE SWAP1 DUP4 AND SWAP1 PUSH4 0x10128D3E SWAP1 PUSH2 0x2214 SWAP1 DUP5 SWAP1 PUSH1 0x4 ADD PUSH2 0x3868 JUMP JUMPDEST PUSH1 0x0 PUSH1 0x40 MLOAD DUP1 DUP4 SUB DUP2 PUSH1 0x0 DUP8 DUP1 EXTCODESIZE ISZERO DUP1 ISZERO PUSH2 0x222E JUMPI PUSH1 0x0 DUP1 REVERT JUMPDEST POP GAS CALL ISZERO DUP1 ISZERO PUSH2 0x2242 JUMPI RETURNDATASIZE PUSH1 0x0 DUP1 RETURNDATACOPY RETURNDATASIZE PUSH1 0x0 REVERT JUMPDEST POP POP POP POP POP POP POP POP JUMP JUMPDEST PUSH1 0x0 DUP2 DUP2 MSTORE PUSH1 0x5 PUSH1 0x20 SWAP1 DUP2 MSTORE PUSH1 0x40 SWAP2 DUP3 SWAP1 KECCAK256 PUSH1 0x9 DUP2 ADD SLOAD DUP4 MLOAD DUP1 DUP6 ADD SWAP1 SWAP5 MSTORE PUSH1 0x18 DUP5 MSTORE PUSH1 0x0 DUP1 MLOAD PUSH1 0x20 PUSH2 0x3A6A DUP4 CODECOPY DUP2 MLOAD SWAP2 MSTORE SWAP3 DUP5 ADD SWAP3 SWAP1 SWAP3 MSTORE PUSH1 0x60 SWAP3 SWAP1 SWAP2 PUSH1 0xFF AND PUSH2 0x22AA JUMPI PUSH1 0x40 MLOAD PUSH3 0x461BCD PUSH1 0xE5 SHL DUP2 MSTORE PUSH1 0x4 ADD PUSH2 0x873 SWAP2 SWAP1 PUSH2 0x38ED JUMP JUMPDEST POP DUP1 PUSH1 0x1 ADD DUP1 SLOAD DUP1 PUSH1 0x20 MUL PUSH1 0x20 ADD PUSH1 0x40 MLOAD SWAP1 DUP2 ADD PUSH1 0x40 MSTORE DUP1 SWAP3 SWAP2 SWAP1 DUP2 DUP2 MSTORE PUSH1 0x20 ADD DUP3 DUP1 SLOAD DUP1 ISZERO PUSH2 0x22F9 JUMPI PUSH1 0x20 MUL DUP3 ADD SWAP2 SWAP1 PUSH1 0x0 MSTORE PUSH1 0x20 PUSH1 0x0 KECCAK256 SWAP1 JUMPDEST DUP2 SLOAD DUP2 MSTORE PUSH1 0x20 ADD SWAP1 PUSH1 0x1 ADD SWAP1 DUP1 DUP4 GT PUSH2 0x22E5 JUMPI JUMPDEST POP POP POP POP POP SWAP2 POP POP SWAP2 SWAP1 POP JUMP JUMPDEST PUSH1 0x0 DUP2 DUP2 MSTORE PUSH1 0x1 PUSH1 0x20 MSTORE PUSH1 0x40 DUP2 KECCAK256 PUSH2 0xC99 SWAP1 PUSH2 0x2C93 JUMP JUMPDEST PUSH32 0x8619CECD8B9E095AB43867F5B69D492180450FE862E6B50BFBFB24B75DD84C8A PUSH2 0x2348 DUP2 CALLER PUSH2 0x2C33 JUMP JUMPDEST PUSH1 0x40 DUP1 MLOAD PUSH1 0x1 DUP1 DUP3 MSTORE DUP2 DUP4 ADD SWAP1 SWAP3 MSTORE PUSH1 0x1 PUSH2 0x111 PUSH1 0x93 SHL ADD SWAP2 PUSH1 0x0 SWAP2 SWAP1 PUSH1 0x20 DUP1 DUP4 ADD SWAP1 DUP1 CALLDATASIZE DUP4 CALLDATACOPY ADD SWAP1 POP POP SWAP1 POP DUP4 DUP2 PUSH1 0x0 DUP2 MLOAD DUP2 LT PUSH2 0x2389 JUMPI PUSH2 0x2389 PUSH2 0x3A1A JUMP JUMPDEST PUSH1 0x1 PUSH1 0x1 PUSH1 0xA0 SHL SUB SWAP3 DUP4 AND PUSH1 0x20 SWAP2 DUP3 MUL SWAP3 SWAP1 SWAP3 ADD ADD MSTORE PUSH1 0x40 MLOAD PUSH4 0x694996DB PUSH1 0xE1 SHL DUP2 MSTORE SWAP1 DUP4 AND SWAP1 PUSH4 0xD2932DB6 SWAP1 PUSH2 0x2214 SWAP1 DUP5 SWAP1 PUSH1 0x4 ADD PUSH2 0x3868 JUMP JUMPDEST PUSH1 0x0 DUP4 DUP2 MSTORE PUSH1 0x7 PUSH1 0x20 DUP2 DUP2 MSTORE PUSH1 0x40 DUP1 DUP5 KECCAK256 DUP7 DUP6 MSTORE DUP3 MSTORE DUP1 DUP5 KECCAK256 SWAP3 DUP4 ADD SLOAD DUP2 MLOAD DUP1 DUP4 ADD SWAP1 SWAP3 MSTORE PUSH1 0x1C DUP3 MSTORE PUSH1 0x0 DUP1 MLOAD PUSH1 0x20 PUSH2 0x3A8A DUP4 CODECOPY DUP2 MLOAD SWAP2 MSTORE SWAP3 DUP3 ADD SWAP3 SWAP1 SWAP3 MSTORE SWAP1 PUSH1 0xFF AND PUSH2 0x2424 JUMPI PUSH1 0x40 MLOAD PUSH3 0x461BCD PUSH1 0xE5 SHL DUP2 MSTORE PUSH1 0x4 ADD PUSH2 0x873 SWAP2 SWAP1 PUSH2 0x38ED JUMP JUMPDEST POP PUSH1 0x0 SWAP3 DUP4 MSTORE PUSH1 0x6 ADD PUSH1 0x20 MSTORE POP PUSH1 0x40 SWAP1 KECCAK256 SLOAD SWAP3 SWAP2 POP POP JUMP JUMPDEST PUSH1 0x0 DUP3 DUP2 MSTORE PUSH1 0x20 DUP2 SWAP1 MSTORE PUSH1 0x40 SWAP1 KECCAK256 PUSH1 0x1 ADD SLOAD PUSH2 0x2458 DUP2 CALLER PUSH2 0x2C33 JUMP JUMPDEST PUSH2 0x10AA DUP4 DUP4 PUSH2 0x2C9D JUMP JUMPDEST PUSH1 0x0 DUP4 DUP2 MSTORE PUSH1 0x7 PUSH1 0x20 DUP2 DUP2 MSTORE PUSH1 0x40 DUP1 DUP5 KECCAK256 DUP7 DUP6 MSTORE DUP3 MSTORE DUP1 DUP5 KECCAK256 SWAP3 DUP4 ADD SLOAD DUP2 MLOAD DUP1 DUP4 ADD SWAP1 SWAP3 MSTORE PUSH1 0x1C DUP3 MSTORE PUSH1 0x0 DUP1 MLOAD PUSH1 0x20 PUSH2 0x3A8A DUP4 CODECOPY DUP2 MLOAD SWAP2 MSTORE SWAP3 DUP3 ADD SWAP3 SWAP1 SWAP3 MSTORE SWAP1 PUSH1 0xFF AND PUSH2 0x24C2 JUMPI PUSH1 0x40 MLOAD PUSH3 0x461BCD PUSH1 0xE5 SHL DUP2 MSTORE PUSH1 0x4 ADD PUSH2 0x873 SWAP2 SWAP1 PUSH2 0x38ED JUMP JUMPDEST POP PUSH2 0x24CE DUP6 DUP6 DUP6 PUSH2 0xC9F JUMP JUMPDEST PUSH1 0x0 DUP5 DUP2 MSTORE PUSH1 0x5 DUP4 ADD PUSH1 0x20 MSTORE PUSH1 0x40 SWAP1 KECCAK256 SLOAD PUSH2 0x24E9 SWAP2 SWAP1 PUSH2 0x3920 JUMP JUMPDEST SWAP6 SWAP5 POP POP POP POP POP JUMP JUMPDEST PUSH1 0x0 DUP1 MLOAD PUSH1 0x20 PUSH2 0x3AAA DUP4 CODECOPY DUP2 MLOAD SWAP2 MSTORE PUSH2 0x250B DUP2 CALLER PUSH2 0x2C33 JUMP JUMPDEST PUSH1 0x0 DUP4 DUP2 MSTORE PUSH1 0xD PUSH1 0x20 SWAP1 DUP2 MSTORE PUSH1 0x40 SWAP2 DUP3 SWAP1 KECCAK256 SLOAD DUP3 MLOAD DUP1 DUP5 ADD SWAP1 SWAP4 MSTORE PUSH1 0x12 DUP4 MSTORE PUSH18 0x20A1AC9D102AB735B737BBB7103A37B5B2B7 PUSH1 0x71 SHL SWAP2 DUP4 ADD SWAP2 SWAP1 SWAP2 MSTORE PUSH1 0x1 PUSH1 0x1 PUSH1 0xA0 SHL SUB AND SWAP1 DUP2 PUSH2 0x256F JUMPI PUSH1 0x40 MLOAD PUSH3 0x461BCD PUSH1 0xE5 SHL DUP2 MSTORE PUSH1 0x4 ADD PUSH2 0x873 SWAP2 SWAP1 PUSH2 0x38ED JUMP JUMPDEST POP PUSH2 0x2585 PUSH1 0x1 PUSH1 0x1 PUSH1 0xA0 SHL SUB DUP3 AND CALLER ADDRESS DUP7 PUSH2 0x26F8 JUMP JUMPDEST PUSH1 0x0 DUP5 DUP2 MSTORE PUSH1 0xA PUSH1 0x20 MSTORE PUSH1 0x40 DUP2 KECCAK256 DUP1 SLOAD DUP6 SWAP3 SWAP1 PUSH2 0x25A3 SWAP1 DUP5 SWAP1 PUSH2 0x3920 JUMP JUMPDEST SWAP1 SWAP2 SSTORE POP POP PUSH1 0x40 MLOAD DUP4 DUP2 MSTORE DUP5 SWAP1 PUSH32 0x68F079265AE908D13EB803490BB7E3056A61413040AF8E0F0E2EEBB98648C79D SWAP1 PUSH1 0x20 ADD PUSH1 0x40 MLOAD DUP1 SWAP2 SUB SWAP1 LOG2 POP POP POP POP JUMP JUMPDEST PUSH1 0x0 DUP2 DUP2 MSTORE PUSH1 0x9 PUSH1 0x20 MSTORE PUSH1 0x40 DUP2 KECCAK256 PUSH2 0xC99 SWAP1 PUSH2 0x2C93 JUMP JUMPDEST PUSH2 0x2604 DUP3 DUP3 PUSH2 0x1978 JUMP JUMPDEST PUSH2 0x119B JUMPI PUSH1 0x0 DUP3 DUP2 MSTORE PUSH1 0x20 DUP2 DUP2 MSTORE PUSH1 0x40 DUP1 DUP4 KECCAK256 PUSH1 0x1 PUSH1 0x1 PUSH1 0xA0 SHL SUB DUP6 AND DUP5 MSTORE SWAP1 SWAP2 MSTORE SWAP1 KECCAK256 DUP1 SLOAD PUSH1 0xFF NOT AND PUSH1 0x1 OR SWAP1 SSTORE PUSH2 0x263A CALLER SWAP1 JUMP JUMPDEST PUSH1 0x1 PUSH1 0x1 PUSH1 0xA0 SHL SUB AND DUP2 PUSH1 0x1 PUSH1 0x1 PUSH1 0xA0 SHL SUB AND DUP4 PUSH32 0x2F8788117E7EFF1D82E926EC794901D17C78024A50270940304540A733656F0D PUSH1 0x40 MLOAD PUSH1 0x40 MLOAD DUP1 SWAP2 SUB SWAP1 LOG4 POP POP JUMP JUMPDEST PUSH1 0x0 PUSH2 0xEE8 DUP4 PUSH1 0x1 PUSH1 0x1 PUSH1 0xA0 SHL SUB DUP5 AND PUSH2 0x2E0A JUMP JUMPDEST PUSH1 0x0 PUSH2 0xEE8 DUP4 DUP4 PUSH2 0x2E0A JUMP JUMPDEST PUSH1 0x0 DUP1 PUSH1 0x2 PUSH2 0x26AF DUP5 PUSH1 0x1 PUSH2 0x3920 JUMP JUMPDEST PUSH2 0x26B9 SWAP2 SWAP1 PUSH2 0x3938 JUMP JUMPDEST SWAP1 POP DUP3 SWAP2 POP JUMPDEST DUP2 DUP2 LT ISZERO PUSH2 0x26F2 JUMPI SWAP1 POP DUP1 PUSH1 0x2 DUP2 PUSH2 0x26D7 DUP2 DUP7 PUSH2 0x3938 JUMP JUMPDEST PUSH2 0x26E1 SWAP2 SWAP1 PUSH2 0x3920 JUMP JUMPDEST PUSH2 0x26EB SWAP2 SWAP1 PUSH2 0x3938 JUMP JUMPDEST SWAP1 POP PUSH2 0x26BF JUMP JUMPDEST POP SWAP2 SWAP1 POP JUMP JUMPDEST PUSH1 0x40 MLOAD PUSH1 0x1 PUSH1 0x1 PUSH1 0xA0 SHL SUB DUP1 DUP6 AND PUSH1 0x24 DUP4 ADD MSTORE DUP4 AND PUSH1 0x44 DUP3 ADD MSTORE PUSH1 0x64 DUP2 ADD DUP3 SWAP1 MSTORE PUSH2 0x1000 SWAP1 DUP6 SWAP1 PUSH4 0x23B872DD PUSH1 0xE0 SHL SWAP1 PUSH1 0x84 ADD JUMPDEST PUSH1 0x40 DUP1 MLOAD PUSH1 0x1F NOT DUP2 DUP5 SUB ADD DUP2 MSTORE SWAP2 SWAP1 MSTORE PUSH1 0x20 DUP2 ADD DUP1 MLOAD PUSH1 0x1 PUSH1 0x1 PUSH1 0xE0 SHL SUB AND PUSH1 0x1 PUSH1 0x1 PUSH1 0xE0 SHL SUB NOT SWAP1 SWAP4 AND SWAP3 SWAP1 SWAP3 OR SWAP1 SWAP2 MSTORE PUSH2 0x2E59 JUMP JUMPDEST PUSH1 0x0 PUSH1 0x1 PUSH1 0x1 PUSH1 0xE0 SHL SUB NOT DUP3 AND PUSH4 0x7965DB0B PUSH1 0xE0 SHL EQ DUP1 PUSH2 0xC99 JUMPI POP PUSH4 0x1FFC9A7 PUSH1 0xE0 SHL PUSH1 0x1 PUSH1 0x1 PUSH1 0xE0 SHL SUB NOT DUP4 AND EQ PUSH2 0xC99 JUMP JUMPDEST PUSH1 0x0 PUSH2 0xEE8 DUP4 DUP4 PUSH2 0x2F2B JUMP JUMPDEST PUSH1 0x2 PUSH1 0x3 SLOAD EQ ISZERO PUSH2 0x27F7 JUMPI PUSH1 0x40 MLOAD PUSH3 0x461BCD PUSH1 0xE5 SHL DUP2 MSTORE PUSH1 0x20 PUSH1 0x4 DUP3 ADD MSTORE PUSH1 0x1F PUSH1 0x24 DUP3 ADD MSTORE PUSH32 0x5265656E7472616E637947756172643A207265656E7472616E742063616C6C00 PUSH1 0x44 DUP3 ADD MSTORE PUSH1 0x64 ADD PUSH2 0x873 JUMP JUMPDEST PUSH1 0x2 PUSH1 0x3 SSTORE PUSH2 0x2805 DUP5 PUSH2 0x1512 JUMP JUMPDEST PUSH1 0x0 DUP5 DUP2 MSTORE PUSH1 0x5 PUSH1 0x20 SWAP1 DUP2 MSTORE PUSH1 0x40 SWAP2 DUP3 SWAP1 KECCAK256 PUSH1 0x9 DUP2 ADD SLOAD DUP4 MLOAD DUP1 DUP6 ADD SWAP1 SWAP5 MSTORE PUSH1 0x18 DUP5 MSTORE PUSH1 0x0 DUP1 MLOAD PUSH1 0x20 PUSH2 0x3A6A DUP4 CODECOPY DUP2 MLOAD SWAP2 MSTORE SWAP3 DUP5 ADD SWAP3 SWAP1 SWAP3 MSTORE SWAP2 SWAP1 PUSH1 0xFF AND PUSH2 0x2860 JUMPI PUSH1 0x40 MLOAD PUSH3 0x461BCD PUSH1 0xE5 SHL DUP2 MSTORE PUSH1 0x4 ADD PUSH2 0x873 SWAP2 SWAP1 PUSH2 0x38ED JUMP JUMPDEST POP PUSH1 0x0 DUP6 DUP2 MSTORE PUSH1 0x7 PUSH1 0x20 DUP2 DUP2 MSTORE PUSH1 0x40 DUP1 DUP5 KECCAK256 DUP9 DUP6 MSTORE DUP3 MSTORE SWAP3 DUP4 SWAP1 KECCAK256 SWAP2 DUP3 ADD SLOAD DUP4 MLOAD DUP1 DUP6 ADD SWAP1 SWAP5 MSTORE PUSH1 0x1C DUP5 MSTORE PUSH1 0x0 DUP1 MLOAD PUSH1 0x20 PUSH2 0x3A8A DUP4 CODECOPY DUP2 MLOAD SWAP2 MSTORE SWAP2 DUP5 ADD SWAP2 SWAP1 SWAP2 MSTORE SWAP1 SWAP2 SWAP1 PUSH1 0xFF AND PUSH2 0x28C4 JUMPI PUSH1 0x40 MLOAD PUSH3 0x461BCD PUSH1 0xE5 SHL DUP2 MSTORE PUSH1 0x4 ADD PUSH2 0x873 SWAP2 SWAP1 PUSH2 0x38ED JUMP JUMPDEST POP DUP1 SLOAD PUSH1 0x40 DUP1 MLOAD DUP1 DUP3 ADD SWAP1 SWAP2 MSTORE PUSH1 0x11 DUP2 MSTORE PUSH17 0x1050D64E88155B985D5D1A1BDC9A5E9959 PUSH1 0x7A SHL PUSH1 0x20 DUP3 ADD MSTORE SWAP1 PUSH1 0x1 PUSH1 0x1 PUSH1 0xA0 SHL SUB AND CALLER EQ PUSH2 0x2918 JUMPI PUSH1 0x40 MLOAD PUSH3 0x461BCD PUSH1 0xE5 SHL DUP2 MSTORE PUSH1 0x4 ADD PUSH2 0x873 SWAP2 SWAP1 PUSH2 0x38ED JUMP JUMPDEST POP PUSH1 0x0 DUP1 PUSH2 0x2940 PUSH3 0x15180 DUP5 PUSH1 0x3 ADD SLOAD PUSH10 0x4EE2D6D415B85ACEF81 PUSH1 0x20 SHL PUSH2 0xB36 SWAP2 SWAP1 PUSH2 0x395A JUMP JUMPDEST DUP4 PUSH1 0x1 ADD SLOAD PUSH2 0x294F SWAP2 SWAP1 PUSH2 0x395A JUMP JUMPDEST SWAP1 POP PUSH1 0x0 JUMPDEST PUSH1 0x1 DUP6 ADD SLOAD DUP2 LT ISZERO PUSH2 0x2B88 JUMPI PUSH1 0x0 DUP6 PUSH1 0x1 ADD DUP3 DUP2 SLOAD DUP2 LT PUSH2 0x2977 JUMPI PUSH2 0x2977 PUSH2 0x3A1A JUMP JUMPDEST PUSH1 0x0 SWAP2 DUP3 MSTORE PUSH1 0x20 DUP1 DUP4 KECCAK256 SWAP1 SWAP2 ADD SLOAD DUP1 DUP4 MSTORE PUSH1 0x6 DUP1 DUP10 ADD DUP4 MSTORE PUSH1 0x40 DUP1 DUP6 KECCAK256 SLOAD SWAP2 DUP12 ADD SWAP1 SWAP4 MSTORE SWAP2 DUP4 KECCAK256 SLOAD SWAP1 SWAP4 POP PUSH10 0x4EE2D6D415B85ACEF81 PUSH1 0x20 SHL SWAP1 PUSH2 0x29BB SWAP1 DUP8 PUSH2 0x395A JUMP JUMPDEST PUSH2 0x29C5 SWAP2 SWAP1 PUSH2 0x3938 JUMP JUMPDEST PUSH1 0x0 DUP5 DUP2 MSTORE PUSH1 0x4 DUP10 ADD PUSH1 0x20 MSTORE PUSH1 0x40 SWAP1 KECCAK256 SLOAD PUSH2 0x29E0 SWAP2 SWAP1 PUSH2 0x3920 JUMP JUMPDEST PUSH2 0x29EA SWAP2 SWAP1 PUSH2 0x3979 JUMP JUMPDEST SWAP1 POP DUP1 PUSH2 0x29F8 JUMPI POP POP PUSH2 0x2B76 JUMP JUMPDEST PUSH1 0x0 DUP3 DUP2 MSTORE PUSH1 0xA PUSH1 0x20 MSTORE PUSH1 0x40 SWAP1 KECCAK256 SLOAD DUP2 GT PUSH2 0x2B0F JUMPI PUSH1 0x0 DUP3 DUP2 MSTORE PUSH1 0x4 DUP8 ADD PUSH1 0x20 SWAP1 DUP2 MSTORE PUSH1 0x40 DUP1 DUP4 KECCAK256 DUP4 SWAP1 SSTORE PUSH1 0x6 DUP11 ADD SWAP1 SWAP2 MSTORE SWAP1 KECCAK256 SLOAD PUSH10 0x4EE2D6D415B85ACEF81 PUSH1 0x20 SHL SWAP1 PUSH2 0x2A46 SWAP1 DUP7 PUSH2 0x395A JUMP JUMPDEST PUSH2 0x2A50 SWAP2 SWAP1 PUSH2 0x3938 JUMP JUMPDEST PUSH1 0x0 DUP4 DUP2 MSTORE PUSH1 0x6 DUP9 ADD PUSH1 0x20 SWAP1 DUP2 MSTORE PUSH1 0x40 DUP1 DUP4 KECCAK256 SWAP4 SWAP1 SWAP4 SSTORE PUSH1 0xD SWAP1 MSTORE KECCAK256 SLOAD PUSH2 0x2A81 SWAP1 PUSH1 0x1 PUSH1 0x1 PUSH1 0xA0 SHL SUB AND CALLER DUP4 PUSH2 0x2DDA JUMP JUMPDEST PUSH1 0x0 DUP3 DUP2 MSTORE PUSH1 0xA PUSH1 0x20 MSTORE PUSH1 0x40 DUP2 KECCAK256 DUP1 SLOAD DUP4 SWAP3 SWAP1 PUSH2 0x2A9F SWAP1 DUP5 SWAP1 PUSH2 0x3979 JUMP JUMPDEST SWAP1 SWAP2 SSTORE POP POP PUSH1 0x0 DUP3 DUP2 MSTORE PUSH1 0x5 DUP8 ADD PUSH1 0x20 MSTORE PUSH1 0x40 DUP2 KECCAK256 DUP1 SLOAD DUP4 SWAP3 SWAP1 PUSH2 0x2AC4 SWAP1 DUP5 SWAP1 PUSH2 0x3920 JUMP JUMPDEST SWAP1 SWAP2 SSTORE POP POP PUSH1 0x40 DUP1 MLOAD DUP4 DUP2 MSTORE PUSH1 0x20 DUP2 ADD DUP4 SWAP1 MSTORE DUP12 SWAP2 DUP14 SWAP2 CALLER SWAP2 PUSH32 0x779F6D843E7D40A6F05A1E46D3741BC2FD3949F52997FC3B95221AF725F1B12F SWAP2 ADD PUSH1 0x40 MLOAD DUP1 SWAP2 SUB SWAP1 LOG4 POP POP PUSH2 0x2B76 JUMP JUMPDEST PUSH1 0x1 SWAP5 POP DUP8 ISZERO PUSH2 0x2B73 JUMPI PUSH1 0x40 MLOAD PUSH32 0x4143593A20496E73756666696369656E742066756E64696E6720666F72200000 PUSH1 0x20 DUP3 ADD MSTORE PUSH1 0x3E DUP2 ADD DUP4 SWAP1 MSTORE PUSH1 0x5E ADD JUMPDEST PUSH1 0x40 DUP1 MLOAD PUSH1 0x1F NOT DUP2 DUP5 SUB ADD DUP2 MSTORE SWAP1 DUP3 SWAP1 MSTORE PUSH3 0x461BCD PUSH1 0xE5 SHL DUP3 MSTORE PUSH2 0x873 SWAP2 PUSH1 0x4 ADD PUSH2 0x38ED JUMP JUMPDEST POP POP JUMPDEST DUP1 PUSH2 0x2B80 DUP2 PUSH2 0x39D3 JUMP JUMPDEST SWAP2 POP POP PUSH2 0x2954 JUMP JUMPDEST POP DUP6 DUP1 ISZERO PUSH2 0x2B94 JUMPI POP DUP2 ISZERO JUMPDEST DUP1 ISZERO PUSH2 0x2BA2 JUMPI POP PUSH1 0x1 DUP4 ADD SLOAD ISZERO JUMPDEST ISZERO PUSH2 0x2C24 JUMPI PUSH1 0x0 DUP9 DUP2 MSTORE PUSH1 0x7 PUSH1 0x20 DUP2 DUP2 MSTORE PUSH1 0x40 DUP1 DUP5 KECCAK256 DUP12 DUP6 MSTORE DUP3 MSTORE DUP1 DUP5 KECCAK256 DUP1 SLOAD PUSH1 0x1 PUSH1 0x1 PUSH1 0xA0 SHL SUB NOT AND DUP2 SSTORE PUSH1 0x1 DUP2 ADD DUP6 SWAP1 SSTORE PUSH1 0x2 DUP2 ADD DUP6 SWAP1 SSTORE PUSH1 0x3 DUP2 ADD DUP6 SWAP1 SSTORE SWAP1 SWAP3 ADD DUP1 SLOAD PUSH1 0xFF NOT AND SWAP1 SSTORE CALLER DUP4 MSTORE PUSH1 0x8 DUP2 MSTORE DUP2 DUP4 KECCAK256 DUP12 DUP5 MSTORE SWAP1 MSTORE SWAP1 KECCAK256 PUSH2 0x2C09 SWAP1 DUP9 PUSH2 0x2F55 JUMP JUMPDEST POP PUSH1 0x0 DUP9 DUP2 MSTORE PUSH1 0x9 PUSH1 0x20 MSTORE PUSH1 0x40 SWAP1 KECCAK256 PUSH2 0x2C22 SWAP1 DUP9 PUSH2 0x2F55 JUMP JUMPDEST POP JUMPDEST POP POP PUSH1 0x1 PUSH1 0x3 SSTORE POP POP POP POP POP POP JUMP JUMPDEST PUSH2 0x2C3D DUP3 DUP3 PUSH2 0x1978 JUMP JUMPDEST PUSH2 0x119B JUMPI PUSH2 0x2C55 DUP2 PUSH1 0x1 PUSH1 0x1 PUSH1 0xA0 SHL SUB AND PUSH1 0x14 PUSH2 0x2F61 JUMP JUMPDEST PUSH2 0x2C60 DUP4 PUSH1 0x20 PUSH2 0x2F61 JUMP JUMPDEST PUSH1 0x40 MLOAD PUSH1 0x20 ADD PUSH2 0x2B4D SWAP3 SWAP2 SWAP1 PUSH2 0x37F3 JUMP JUMPDEST PUSH2 0x2C7B DUP3 DUP3 PUSH2 0x25FA JUMP JUMPDEST PUSH1 0x0 DUP3 DUP2 MSTORE PUSH1 0x1 PUSH1 0x20 MSTORE PUSH1 0x40 SWAP1 KECCAK256 PUSH2 0x10AA SWAP1 DUP3 PUSH2 0x267E JUMP JUMPDEST PUSH1 0x0 PUSH2 0xC99 DUP3 SLOAD SWAP1 JUMP JUMPDEST PUSH2 0x2CA7 DUP3 DUP3 PUSH2 0x30FD JUMP JUMPDEST PUSH1 0x0 DUP3 DUP2 MSTORE PUSH1 0x1 PUSH1 0x20 MSTORE PUSH1 0x40 SWAP1 KECCAK256 PUSH2 0x10AA SWAP1 DUP3 PUSH2 0x3162 JUMP JUMPDEST PUSH1 0x2 SLOAD PUSH1 0xFF AND PUSH2 0x2D08 JUMPI PUSH1 0x40 MLOAD PUSH3 0x461BCD PUSH1 0xE5 SHL DUP2 MSTORE PUSH1 0x20 PUSH1 0x4 DUP3 ADD MSTORE PUSH1 0x14 PUSH1 0x24 DUP3 ADD MSTORE PUSH20 0x14185D5CD8589B194E881B9BDD081C185D5CD959 PUSH1 0x62 SHL PUSH1 0x44 DUP3 ADD MSTORE PUSH1 0x64 ADD PUSH2 0x873 JUMP JUMPDEST PUSH1 0x2 DUP1 SLOAD PUSH1 0xFF NOT AND SWAP1 SSTORE PUSH32 0x5DB9EE0A495BF2E6FF9C91A7834C1BA4FDD244A5E8AA4E537BD38AEAE4B073AA CALLER JUMPDEST PUSH1 0x40 MLOAD PUSH1 0x1 PUSH1 0x1 PUSH1 0xA0 SHL SUB SWAP1 SWAP2 AND DUP2 MSTORE PUSH1 0x20 ADD PUSH1 0x40 MLOAD DUP1 SWAP2 SUB SWAP1 LOG1 JUMP JUMPDEST PUSH1 0x2 SLOAD PUSH1 0xFF AND ISZERO PUSH2 0x2D98 JUMPI PUSH1 0x40 MLOAD PUSH3 0x461BCD PUSH1 0xE5 SHL DUP2 MSTORE PUSH1 0x20 PUSH1 0x4 DUP3 ADD MSTORE PUSH1 0x10 PUSH1 0x24 DUP3 ADD MSTORE PUSH16 0x14185D5CD8589B194E881C185D5CD959 PUSH1 0x82 SHL PUSH1 0x44 DUP3 ADD MSTORE PUSH1 0x64 ADD PUSH2 0x873 JUMP JUMPDEST PUSH1 0x2 DUP1 SLOAD PUSH1 0xFF NOT AND PUSH1 0x1 OR SWAP1 SSTORE PUSH32 0x62E78CEA01BEE320CD4E420270B5EA74000D11B0C9F74754EBDBFC544B05A258 PUSH2 0x2D35 CALLER SWAP1 JUMP JUMPDEST PUSH1 0x60 PUSH1 0x0 PUSH2 0xEE8 DUP4 PUSH2 0x3177 JUMP JUMPDEST PUSH1 0x40 MLOAD PUSH1 0x1 PUSH1 0x1 PUSH1 0xA0 SHL SUB DUP4 AND PUSH1 0x24 DUP3 ADD MSTORE PUSH1 0x44 DUP2 ADD DUP3 SWAP1 MSTORE PUSH2 0x10AA SWAP1 DUP5 SWAP1 PUSH4 0xA9059CBB PUSH1 0xE0 SHL SWAP1 PUSH1 0x64 ADD PUSH2 0x272C JUMP JUMPDEST PUSH1 0x0 DUP2 DUP2 MSTORE PUSH1 0x1 DUP4 ADD PUSH1 0x20 MSTORE PUSH1 0x40 DUP2 KECCAK256 SLOAD PUSH2 0x2E51 JUMPI POP DUP2 SLOAD PUSH1 0x1 DUP2 DUP2 ADD DUP5 SSTORE PUSH1 0x0 DUP5 DUP2 MSTORE PUSH1 0x20 DUP1 DUP3 KECCAK256 SWAP1 SWAP4 ADD DUP5 SWAP1 SSTORE DUP5 SLOAD DUP5 DUP3 MSTORE DUP3 DUP7 ADD SWAP1 SWAP4 MSTORE PUSH1 0x40 SWAP1 KECCAK256 SWAP2 SWAP1 SWAP2 SSTORE PUSH2 0xC99 JUMP JUMPDEST POP PUSH1 0x0 PUSH2 0xC99 JUMP JUMPDEST PUSH1 0x0 PUSH2 0x2EAE DUP3 PUSH1 0x40 MLOAD DUP1 PUSH1 0x40 ADD PUSH1 0x40 MSTORE DUP1 PUSH1 0x20 DUP2 MSTORE PUSH1 0x20 ADD PUSH32 0x5361666545524332303A206C6F772D6C6576656C2063616C6C206661696C6564 DUP2 MSTORE POP DUP6 PUSH1 0x1 PUSH1 0x1 PUSH1 0xA0 SHL SUB AND PUSH2 0x31D3 SWAP1 SWAP3 SWAP2 SWAP1 PUSH4 0xFFFFFFFF AND JUMP JUMPDEST DUP1 MLOAD SWAP1 SWAP2 POP ISZERO PUSH2 0x10AA JUMPI DUP1 DUP1 PUSH1 0x20 ADD SWAP1 MLOAD DUP2 ADD SWAP1 PUSH2 0x2ECC SWAP2 SWAP1 PUSH2 0x3560 JUMP JUMPDEST PUSH2 0x10AA JUMPI PUSH1 0x40 MLOAD PUSH3 0x461BCD PUSH1 0xE5 SHL DUP2 MSTORE PUSH1 0x20 PUSH1 0x4 DUP3 ADD MSTORE PUSH1 0x2A PUSH1 0x24 DUP3 ADD MSTORE PUSH32 0x5361666545524332303A204552433230206F7065726174696F6E20646964206E PUSH1 0x44 DUP3 ADD MSTORE PUSH10 0x1BDD081CDD58D8D95959 PUSH1 0xB2 SHL PUSH1 0x64 DUP3 ADD MSTORE PUSH1 0x84 ADD PUSH2 0x873 JUMP JUMPDEST PUSH1 0x0 DUP3 PUSH1 0x0 ADD DUP3 DUP2 SLOAD DUP2 LT PUSH2 0x2F42 JUMPI PUSH2 0x2F42 PUSH2 0x3A1A JUMP JUMPDEST SWAP1 PUSH1 0x0 MSTORE PUSH1 0x20 PUSH1 0x0 KECCAK256 ADD SLOAD SWAP1 POP SWAP3 SWAP2 POP POP JUMP JUMPDEST PUSH1 0x0 PUSH2 0xEE8 DUP4 DUP4 PUSH2 0x31E2 JUMP JUMPDEST PUSH1 0x60 PUSH1 0x0 PUSH2 0x2F70 DUP4 PUSH1 0x2 PUSH2 0x395A JUMP JUMPDEST PUSH2 0x2F7B SWAP1 PUSH1 0x2 PUSH2 0x3920 JUMP JUMPDEST PUSH8 0xFFFFFFFFFFFFFFFF DUP2 GT ISZERO PUSH2 0x2F93 JUMPI PUSH2 0x2F93 PUSH2 0x3A30 JUMP JUMPDEST PUSH1 0x40 MLOAD SWAP1 DUP1 DUP3 MSTORE DUP1 PUSH1 0x1F ADD PUSH1 0x1F NOT AND PUSH1 0x20 ADD DUP3 ADD PUSH1 0x40 MSTORE DUP1 ISZERO PUSH2 0x2FBD JUMPI PUSH1 0x20 DUP3 ADD DUP2 DUP1 CALLDATASIZE DUP4 CALLDATACOPY ADD SWAP1 POP JUMPDEST POP SWAP1 POP PUSH1 0x3 PUSH1 0xFC SHL DUP2 PUSH1 0x0 DUP2 MLOAD DUP2 LT PUSH2 0x2FD8 JUMPI PUSH2 0x2FD8 PUSH2 0x3A1A JUMP JUMPDEST PUSH1 0x20 ADD ADD SWAP1 PUSH1 0x1 PUSH1 0x1 PUSH1 0xF8 SHL SUB NOT AND SWAP1 DUP2 PUSH1 0x0 BYTE SWAP1 MSTORE8 POP PUSH1 0xF PUSH1 0xFB SHL DUP2 PUSH1 0x1 DUP2 MLOAD DUP2 LT PUSH2 0x3007 JUMPI PUSH2 0x3007 PUSH2 0x3A1A JUMP JUMPDEST PUSH1 0x20 ADD ADD SWAP1 PUSH1 0x1 PUSH1 0x1 PUSH1 0xF8 SHL SUB NOT AND SWAP1 DUP2 PUSH1 0x0 BYTE SWAP1 MSTORE8 POP PUSH1 0x0 PUSH2 0x302B DUP5 PUSH1 0x2 PUSH2 0x395A JUMP JUMPDEST PUSH2 0x3036 SWAP1 PUSH1 0x1 PUSH2 0x3920 JUMP JUMPDEST SWAP1 POP JUMPDEST PUSH1 0x1 DUP2 GT ISZERO PUSH2 0x30AE JUMPI PUSH16 0x181899199A1A9B1B9C1CB0B131B232B3 PUSH1 0x81 SHL DUP6 PUSH1 0xF AND PUSH1 0x10 DUP2 LT PUSH2 0x306A JUMPI PUSH2 0x306A PUSH2 0x3A1A JUMP JUMPDEST BYTE PUSH1 0xF8 SHL DUP3 DUP3 DUP2 MLOAD DUP2 LT PUSH2 0x3080 JUMPI PUSH2 0x3080 PUSH2 0x3A1A JUMP JUMPDEST PUSH1 0x20 ADD ADD SWAP1 PUSH1 0x1 PUSH1 0x1 PUSH1 0xF8 SHL SUB NOT AND SWAP1 DUP2 PUSH1 0x0 BYTE SWAP1 MSTORE8 POP PUSH1 0x4 SWAP5 SWAP1 SWAP5 SHR SWAP4 PUSH2 0x30A7 DUP2 PUSH2 0x39BC JUMP JUMPDEST SWAP1 POP PUSH2 0x3039 JUMP JUMPDEST POP DUP4 ISZERO PUSH2 0xEE8 JUMPI PUSH1 0x40 MLOAD PUSH3 0x461BCD PUSH1 0xE5 SHL DUP2 MSTORE PUSH1 0x20 PUSH1 0x4 DUP3 ADD DUP2 SWAP1 MSTORE PUSH1 0x24 DUP3 ADD MSTORE PUSH32 0x537472696E67733A20686578206C656E67746820696E73756666696369656E74 PUSH1 0x44 DUP3 ADD MSTORE PUSH1 0x64 ADD PUSH2 0x873 JUMP JUMPDEST PUSH2 0x3107 DUP3 DUP3 PUSH2 0x1978 JUMP JUMPDEST ISZERO PUSH2 0x119B JUMPI PUSH1 0x0 DUP3 DUP2 MSTORE PUSH1 0x20 DUP2 DUP2 MSTORE PUSH1 0x40 DUP1 DUP4 KECCAK256 PUSH1 0x1 PUSH1 0x1 PUSH1 0xA0 SHL SUB DUP6 AND DUP1 DUP6 MSTORE SWAP3 MSTORE DUP1 DUP4 KECCAK256 DUP1 SLOAD PUSH1 0xFF NOT AND SWAP1 SSTORE MLOAD CALLER SWAP3 DUP6 SWAP2 PUSH32 0xF6391F5C32D9C69D2A47EA670B442974B53935D1EDC7FD64EB21E047A839171B SWAP2 SWAP1 LOG4 POP POP JUMP JUMPDEST PUSH1 0x0 PUSH2 0xEE8 DUP4 PUSH1 0x1 PUSH1 0x1 PUSH1 0xA0 SHL SUB DUP5 AND PUSH2 0x31E2 JUMP JUMPDEST PUSH1 0x60 DUP2 PUSH1 0x0 ADD DUP1 SLOAD DUP1 PUSH1 0x20 MUL PUSH1 0x20 ADD PUSH1 0x40 MLOAD SWAP1 DUP2 ADD PUSH1 0x40 MSTORE DUP1 SWAP3 SWAP2 SWAP1 DUP2 DUP2 MSTORE PUSH1 0x20 ADD DUP3 DUP1 SLOAD DUP1 ISZERO PUSH2 0x31C7 JUMPI PUSH1 0x20 MUL DUP3 ADD SWAP2 SWAP1 PUSH1 0x0 MSTORE PUSH1 0x20 PUSH1 0x0 KECCAK256 SWAP1 JUMPDEST DUP2 SLOAD DUP2 MSTORE PUSH1 0x20 ADD SWAP1 PUSH1 0x1 ADD SWAP1 DUP1 DUP4 GT PUSH2 0x31B3 JUMPI JUMPDEST POP POP POP POP POP SWAP1 POP SWAP2 SWAP1 POP JUMP JUMPDEST PUSH1 0x60 PUSH2 0xFEC DUP5 DUP5 PUSH1 0x0 DUP6 PUSH2 0x32D5 JUMP JUMPDEST PUSH1 0x0 DUP2 DUP2 MSTORE PUSH1 0x1 DUP4 ADD PUSH1 0x20 MSTORE PUSH1 0x40 DUP2 KECCAK256 SLOAD DUP1 ISZERO PUSH2 0x32CB JUMPI PUSH1 0x0 PUSH2 0x3206 PUSH1 0x1 DUP4 PUSH2 0x3979 JUMP JUMPDEST DUP6 SLOAD SWAP1 SWAP2 POP PUSH1 0x0 SWAP1 PUSH2 0x321A SWAP1 PUSH1 0x1 SWAP1 PUSH2 0x3979 JUMP JUMPDEST SWAP1 POP DUP2 DUP2 EQ PUSH2 0x327F JUMPI PUSH1 0x0 DUP7 PUSH1 0x0 ADD DUP3 DUP2 SLOAD DUP2 LT PUSH2 0x323A JUMPI PUSH2 0x323A PUSH2 0x3A1A JUMP JUMPDEST SWAP1 PUSH1 0x0 MSTORE PUSH1 0x20 PUSH1 0x0 KECCAK256 ADD SLOAD SWAP1 POP DUP1 DUP8 PUSH1 0x0 ADD DUP5 DUP2 SLOAD DUP2 LT PUSH2 0x325D JUMPI PUSH2 0x325D PUSH2 0x3A1A JUMP JUMPDEST PUSH1 0x0 SWAP2 DUP3 MSTORE PUSH1 0x20 DUP1 DUP4 KECCAK256 SWAP1 SWAP2 ADD SWAP3 SWAP1 SWAP3 SSTORE SWAP2 DUP3 MSTORE PUSH1 0x1 DUP9 ADD SWAP1 MSTORE PUSH1 0x40 SWAP1 KECCAK256 DUP4 SWAP1 SSTORE JUMPDEST DUP6 SLOAD DUP7 SWAP1 DUP1 PUSH2 0x3290 JUMPI PUSH2 0x3290 PUSH2 0x3A04 JUMP JUMPDEST PUSH1 0x1 SWAP1 SUB DUP2 DUP2 SWAP1 PUSH1 0x0 MSTORE PUSH1 0x20 PUSH1 0x0 KECCAK256 ADD PUSH1 0x0 SWAP1 SSTORE SWAP1 SSTORE DUP6 PUSH1 0x1 ADD PUSH1 0x0 DUP7 DUP2 MSTORE PUSH1 0x20 ADD SWAP1 DUP2 MSTORE PUSH1 0x20 ADD PUSH1 0x0 KECCAK256 PUSH1 0x0 SWAP1 SSTORE PUSH1 0x1 SWAP4 POP POP POP POP PUSH2 0xC99 JUMP JUMPDEST PUSH1 0x0 SWAP2 POP POP PUSH2 0xC99 JUMP JUMPDEST PUSH1 0x60 DUP3 SELFBALANCE LT ISZERO PUSH2 0x3336 JUMPI PUSH1 0x40 MLOAD PUSH3 0x461BCD PUSH1 0xE5 SHL DUP2 MSTORE PUSH1 0x20 PUSH1 0x4 DUP3 ADD MSTORE PUSH1 0x26 PUSH1 0x24 DUP3 ADD MSTORE PUSH32 0x416464726573733A20696E73756666696369656E742062616C616E636520666F PUSH1 0x44 DUP3 ADD MSTORE PUSH6 0x1C8818D85B1B PUSH1 0xD2 SHL PUSH1 0x64 DUP3 ADD MSTORE PUSH1 0x84 ADD PUSH2 0x873 JUMP JUMPDEST DUP5 EXTCODESIZE PUSH2 0x3384 JUMPI PUSH1 0x40 MLOAD PUSH3 0x461BCD PUSH1 0xE5 SHL DUP2 MSTORE PUSH1 0x20 PUSH1 0x4 DUP3 ADD MSTORE PUSH1 0x1D PUSH1 0x24 DUP3 ADD MSTORE PUSH32 0x416464726573733A2063616C6C20746F206E6F6E2D636F6E7472616374000000 PUSH1 0x44 DUP3 ADD MSTORE PUSH1 0x64 ADD PUSH2 0x873 JUMP JUMPDEST PUSH1 0x0 DUP1 DUP7 PUSH1 0x1 PUSH1 0x1 PUSH1 0xA0 SHL SUB AND DUP6 DUP8 PUSH1 0x40 MLOAD PUSH2 0x33A0 SWAP2 SWAP1 PUSH2 0x37D7 JUMP JUMPDEST PUSH1 0x0 PUSH1 0x40 MLOAD DUP1 DUP4 SUB DUP2 DUP6 DUP8 GAS CALL SWAP3 POP POP POP RETURNDATASIZE DUP1 PUSH1 0x0 DUP2 EQ PUSH2 0x33DD JUMPI PUSH1 0x40 MLOAD SWAP2 POP PUSH1 0x1F NOT PUSH1 0x3F RETURNDATASIZE ADD AND DUP3 ADD PUSH1 0x40 MSTORE RETURNDATASIZE DUP3 MSTORE RETURNDATASIZE PUSH1 0x0 PUSH1 0x20 DUP5 ADD RETURNDATACOPY PUSH2 0x33E2 JUMP JUMPDEST PUSH1 0x60 SWAP2 POP JUMPDEST POP SWAP2 POP SWAP2 POP PUSH2 0x33F2 DUP3 DUP3 DUP7 PUSH2 0x33FD JUMP JUMPDEST SWAP8 SWAP7 POP POP POP POP POP POP POP JUMP JUMPDEST PUSH1 0x60 DUP4 ISZERO PUSH2 0x340C JUMPI POP DUP2 PUSH2 0xEE8 JUMP JUMPDEST DUP3 MLOAD ISZERO PUSH2 0x341C JUMPI DUP3 MLOAD DUP1 DUP5 PUSH1 0x20 ADD REVERT JUMPDEST DUP2 PUSH1 0x40 MLOAD PUSH3 0x461BCD PUSH1 0xE5 SHL DUP2 MSTORE PUSH1 0x4 ADD PUSH2 0x873 SWAP2 SWAP1 PUSH2 0x38ED JUMP JUMPDEST DUP3 DUP1 SLOAD DUP3 DUP3 SSTORE SWAP1 PUSH1 0x0 MSTORE PUSH1 0x20 PUSH1 0x0 KECCAK256 SWAP1 DUP2 ADD SWAP3 DUP3 ISZERO PUSH2 0x3471 JUMPI SWAP2 PUSH1 0x20 MUL DUP3 ADD JUMPDEST DUP3 DUP2 GT ISZERO PUSH2 0x3471 JUMPI DUP3 CALLDATALOAD DUP3 SSTORE SWAP2 PUSH1 0x20 ADD SWAP2 SWAP1 PUSH1 0x1 ADD SWAP1 PUSH2 0x3456 JUMP JUMPDEST POP PUSH2 0x347D SWAP3 SWAP2 POP PUSH2 0x3481 JUMP JUMPDEST POP SWAP1 JUMP JUMPDEST JUMPDEST DUP1 DUP3 GT ISZERO PUSH2 0x347D JUMPI PUSH1 0x0 DUP2 SSTORE PUSH1 0x1 ADD PUSH2 0x3482 JUMP JUMPDEST PUSH1 0x0 DUP1 DUP4 PUSH1 0x1F DUP5 ADD SLT PUSH2 0x34A8 JUMPI PUSH1 0x0 DUP1 REVERT JUMPDEST POP DUP2 CALLDATALOAD PUSH8 0xFFFFFFFFFFFFFFFF DUP2 GT ISZERO PUSH2 0x34C0 JUMPI PUSH1 0x0 DUP1 REVERT JUMPDEST PUSH1 0x20 DUP4 ADD SWAP2 POP DUP4 PUSH1 0x20 DUP3 PUSH1 0x5 SHL DUP6 ADD ADD GT ISZERO PUSH2 0x34DB JUMPI PUSH1 0x0 DUP1 REVERT JUMPDEST SWAP3 POP SWAP3 SWAP1 POP JUMP JUMPDEST PUSH1 0x0 PUSH1 0x20 DUP3 DUP5 SUB SLT ISZERO PUSH2 0x34F4 JUMPI PUSH1 0x0 DUP1 REVERT JUMPDEST DUP2 CALLDATALOAD PUSH2 0xEE8 DUP2 PUSH2 0x3A46 JUMP JUMPDEST PUSH1 0x0 DUP1 PUSH1 0x40 DUP4 DUP6 SUB SLT ISZERO PUSH2 0x3512 JUMPI PUSH1 0x0 DUP1 REVERT JUMPDEST DUP3 CALLDATALOAD PUSH2 0x351D DUP2 PUSH2 0x3A46 JUMP JUMPDEST SWAP5 PUSH1 0x20 SWAP4 SWAP1 SWAP4 ADD CALLDATALOAD SWAP4 POP POP POP JUMP JUMPDEST PUSH1 0x0 DUP1 PUSH1 0x0 PUSH1 0x60 DUP5 DUP7 SUB SLT ISZERO PUSH2 0x3540 JUMPI PUSH1 0x0 DUP1 REVERT JUMPDEST DUP4 CALLDATALOAD PUSH2 0x354B DUP2 PUSH2 0x3A46 JUMP JUMPDEST SWAP6 PUSH1 0x20 DUP6 ADD CALLDATALOAD SWAP6 POP PUSH1 0x40 SWAP1 SWAP5 ADD CALLDATALOAD SWAP4 SWAP3 POP POP POP JUMP JUMPDEST PUSH1 0x0 PUSH1 0x20 DUP3 DUP5 SUB SLT ISZERO PUSH2 0x3572 JUMPI PUSH1 0x0 DUP1 REVERT JUMPDEST DUP2 MLOAD PUSH2 0xEE8 DUP2 PUSH2 0x3A5B JUMP JUMPDEST PUSH1 0x0 PUSH1 0x20 DUP3 DUP5 SUB SLT ISZERO PUSH2 0x358F JUMPI PUSH1 0x0 DUP1 REVERT JUMPDEST POP CALLDATALOAD SWAP2 SWAP1 POP JUMP JUMPDEST PUSH1 0x0 DUP1 PUSH1 0x40 DUP4 DUP6 SUB SLT ISZERO PUSH2 0x35A9 JUMPI PUSH1 0x0 DUP1 REVERT JUMPDEST DUP3 CALLDATALOAD SWAP2 POP PUSH1 0x20 DUP4 ADD CALLDATALOAD PUSH2 0x35BB DUP2 PUSH2 0x3A46 JUMP JUMPDEST DUP1 SWAP2 POP POP SWAP3 POP SWAP3 SWAP1 POP JUMP JUMPDEST PUSH1 0x0 DUP1 PUSH1 0x40 DUP4 DUP6 SUB SLT ISZERO PUSH2 0x35D9 JUMPI PUSH1 0x0 DUP1 REVERT JUMPDEST POP POP DUP1 CALLDATALOAD SWAP3 PUSH1 0x20 SWAP1 SWAP2 ADD CALLDATALOAD SWAP2 POP JUMP JUMPDEST PUSH1 0x0 DUP1 PUSH1 0x0 PUSH1 0x60 DUP5 DUP7 SUB SLT ISZERO PUSH2 0x35FD JUMPI PUSH1 0x0 DUP1 REVERT JUMPDEST DUP4 CALLDATALOAD SWAP3 POP PUSH1 0x20 DUP5 ADD CALLDATALOAD SWAP2 POP PUSH1 0x40 DUP5 ADD CALLDATALOAD PUSH2 0x3616 DUP2 PUSH2 0x3A5B JUMP JUMPDEST DUP1 SWAP2 POP POP SWAP3 POP SWAP3 POP SWAP3 JUMP JUMPDEST PUSH1 0x0 PUSH1 0x20 DUP3 DUP5 SUB SLT ISZERO PUSH2 0x3633 JUMPI PUSH1 0x0 DUP1 REVERT JUMPDEST DUP2 CALLDATALOAD PUSH1 0x1 PUSH1 0x1 PUSH1 0xE0 SHL SUB NOT DUP2 AND DUP2 EQ PUSH2 0xEE8 JUMPI PUSH1 0x0 DUP1 REVERT JUMPDEST PUSH1 0x0 DUP1 PUSH1 0x0 DUP1 PUSH1 0x0 DUP1 PUSH1 0x0 DUP1 PUSH1 0xC0 DUP10 DUP12 SUB SLT ISZERO PUSH2 0x3667 JUMPI PUSH1 0x0 DUP1 REVERT JUMPDEST DUP9 CALLDATALOAD PUSH2 0x3672 DUP2 PUSH2 0x3A46 JUMP JUMPDEST SWAP8 POP PUSH1 0x20 DUP10 ADD CALLDATALOAD PUSH8 0xFFFFFFFFFFFFFFFF DUP1 DUP3 GT ISZERO PUSH2 0x368F JUMPI PUSH1 0x0 DUP1 REVERT JUMPDEST PUSH2 0x369B DUP13 DUP4 DUP14 ADD PUSH2 0x3496 JUMP JUMPDEST SWAP1 SWAP10 POP SWAP8 POP PUSH1 0x40 DUP12 ADD CALLDATALOAD SWAP2 POP DUP1 DUP3 GT ISZERO PUSH2 0x36B4 JUMPI PUSH1 0x0 DUP1 REVERT JUMPDEST POP PUSH2 0x36C1 DUP12 DUP3 DUP13 ADD PUSH2 0x3496 JUMP JUMPDEST SWAP1 SWAP7 POP SWAP5 POP POP PUSH1 0x60 DUP10 ADD CALLDATALOAD SWAP3 POP PUSH1 0x80 DUP10 ADD CALLDATALOAD SWAP2 POP PUSH1 0xA0 DUP10 ADD CALLDATALOAD PUSH2 0x36E3 DUP2 PUSH2 0x3A5B JUMP JUMPDEST DUP1 SWAP2 POP POP SWAP3 SWAP6 SWAP9 POP SWAP3 SWAP6 SWAP9 SWAP1 SWAP4 SWAP7 POP JUMP JUMPDEST PUSH1 0x0 DUP1 PUSH1 0x0 PUSH1 0x60 DUP5 DUP7 SUB SLT ISZERO PUSH2 0x3709 JUMPI PUSH1 0x0 DUP1 REVERT JUMPDEST DUP4 CALLDATALOAD SWAP3 POP PUSH1 0x20 DUP5 ADD CALLDATALOAD PUSH2 0x371B DUP2 PUSH2 0x3A5B JUMP JUMPDEST SWAP2 POP PUSH1 0x40 DUP5 ADD CALLDATALOAD PUSH2 0x3616 DUP2 PUSH2 0x3A5B JUMP JUMPDEST PUSH1 0x0 DUP1 PUSH1 0x0 DUP1 PUSH1 0x80 DUP6 DUP8 SUB SLT ISZERO PUSH2 0x3741 JUMPI PUSH1 0x0 DUP1 REVERT JUMPDEST DUP5 CALLDATALOAD SWAP4 POP PUSH1 0x20 DUP6 ADD CALLDATALOAD SWAP3 POP PUSH1 0x40 DUP6 ADD CALLDATALOAD SWAP2 POP PUSH1 0x60 DUP6 ADD CALLDATALOAD PUSH2 0x3761 DUP2 PUSH2 0x3A5B JUMP JUMPDEST SWAP4 SWAP7 SWAP3 SWAP6 POP SWAP1 SWAP4 POP POP JUMP JUMPDEST PUSH1 0x0 DUP1 PUSH1 0x0 DUP1 PUSH1 0x80 DUP6 DUP8 SUB SLT ISZERO PUSH2 0x3782 JUMPI PUSH1 0x0 DUP1 REVERT JUMPDEST DUP5 CALLDATALOAD SWAP4 POP PUSH1 0x20 DUP6 ADD CALLDATALOAD SWAP3 POP PUSH1 0x40 DUP6 ADD CALLDATALOAD PUSH2 0x379B DUP2 PUSH2 0x3A5B JUMP JUMPDEST SWAP2 POP PUSH1 0x60 DUP6 ADD CALLDATALOAD PUSH2 0x3761 DUP2 PUSH2 0x3A5B JUMP JUMPDEST PUSH1 0x0 DUP1 PUSH1 0x0 PUSH1 0x60 DUP5 DUP7 SUB SLT ISZERO PUSH2 0x37C0 JUMPI PUSH1 0x0 DUP1 REVERT JUMPDEST POP POP DUP2 CALLDATALOAD SWAP4 PUSH1 0x20 DUP4 ADD CALLDATALOAD SWAP4 POP PUSH1 0x40 SWAP1 SWAP3 ADD CALLDATALOAD SWAP2 SWAP1 POP JUMP JUMPDEST PUSH1 0x0 DUP3 MLOAD PUSH2 0x37E9 DUP2 DUP5 PUSH1 0x20 DUP8 ADD PUSH2 0x3990 JUMP JUMPDEST SWAP2 SWAP1 SWAP2 ADD SWAP3 SWAP2 POP POP JUMP JUMPDEST PUSH32 0x416363657373436F6E74726F6C3A206163636F756E7420000000000000000000 DUP2 MSTORE PUSH1 0x0 DUP4 MLOAD PUSH2 0x382B DUP2 PUSH1 0x17 DUP6 ADD PUSH1 0x20 DUP9 ADD PUSH2 0x3990 JUMP JUMPDEST PUSH17 0x1034B99036B4B9B9B4B733903937B6329 PUSH1 0x7D SHL PUSH1 0x17 SWAP2 DUP5 ADD SWAP2 DUP3 ADD MSTORE DUP4 MLOAD PUSH2 0x385C DUP2 PUSH1 0x28 DUP5 ADD PUSH1 0x20 DUP9 ADD PUSH2 0x3990 JUMP JUMPDEST ADD PUSH1 0x28 ADD SWAP5 SWAP4 POP POP POP POP JUMP JUMPDEST PUSH1 0x20 DUP1 DUP3 MSTORE DUP3 MLOAD DUP3 DUP3 ADD DUP2 SWAP1 MSTORE PUSH1 0x0 SWAP2 SWAP1 DUP5 DUP3 ADD SWAP1 PUSH1 0x40 DUP6 ADD SWAP1 DUP5 JUMPDEST DUP2 DUP2 LT ISZERO PUSH2 0x38A9 JUMPI DUP4 MLOAD PUSH1 0x1 PUSH1 0x1 PUSH1 0xA0 SHL SUB AND DUP4 MSTORE SWAP3 DUP5 ADD SWAP3 SWAP2 DUP5 ADD SWAP2 PUSH1 0x1 ADD PUSH2 0x3884 JUMP JUMPDEST POP SWAP1 SWAP7 SWAP6 POP POP POP POP POP POP JUMP JUMPDEST PUSH1 0x20 DUP1 DUP3 MSTORE DUP3 MLOAD DUP3 DUP3 ADD DUP2 SWAP1 MSTORE PUSH1 0x0 SWAP2 SWAP1 DUP5 DUP3 ADD SWAP1 PUSH1 0x40 DUP6 ADD SWAP1 DUP5 JUMPDEST DUP2 DUP2 LT ISZERO PUSH2 0x38A9 JUMPI DUP4 MLOAD DUP4 MSTORE SWAP3 DUP5 ADD SWAP3 SWAP2 DUP5 ADD SWAP2 PUSH1 0x1 ADD PUSH2 0x38D1 JUMP JUMPDEST PUSH1 0x20 DUP2 MSTORE PUSH1 0x0 DUP3 MLOAD DUP1 PUSH1 0x20 DUP5 ADD MSTORE PUSH2 0x390C DUP2 PUSH1 0x40 DUP6 ADD PUSH1 0x20 DUP8 ADD PUSH2 0x3990 JUMP JUMPDEST PUSH1 0x1F ADD PUSH1 0x1F NOT AND SWAP2 SWAP1 SWAP2 ADD PUSH1 0x40 ADD SWAP3 SWAP2 POP POP JUMP JUMPDEST PUSH1 0x0 DUP3 NOT DUP3 GT ISZERO PUSH2 0x3933 JUMPI PUSH2 0x3933 PUSH2 0x39EE JUMP JUMPDEST POP ADD SWAP1 JUMP JUMPDEST PUSH1 0x0 DUP3 PUSH2 0x3955 JUMPI PUSH4 0x4E487B71 PUSH1 0xE0 SHL PUSH1 0x0 MSTORE PUSH1 0x12 PUSH1 0x4 MSTORE PUSH1 0x24 PUSH1 0x0 REVERT JUMPDEST POP DIV SWAP1 JUMP JUMPDEST PUSH1 0x0 DUP2 PUSH1 0x0 NOT DIV DUP4 GT DUP3 ISZERO ISZERO AND ISZERO PUSH2 0x3974 JUMPI PUSH2 0x3974 PUSH2 0x39EE JUMP JUMPDEST POP MUL SWAP1 JUMP JUMPDEST PUSH1 0x0 DUP3 DUP3 LT ISZERO PUSH2 0x398B JUMPI PUSH2 0x398B PUSH2 0x39EE JUMP JUMPDEST POP SUB SWAP1 JUMP JUMPDEST PUSH1 0x0 JUMPDEST DUP4 DUP2 LT ISZERO PUSH2 0x39AB JUMPI DUP2 DUP2 ADD MLOAD DUP4 DUP3 ADD MSTORE PUSH1 0x20 ADD PUSH2 0x3993 JUMP JUMPDEST DUP4 DUP2 GT ISZERO PUSH2 0x1000 JUMPI POP POP PUSH1 0x0 SWAP2 ADD MSTORE JUMP JUMPDEST PUSH1 0x0 DUP2 PUSH2 0x39CB JUMPI PUSH2 0x39CB PUSH2 0x39EE JUMP JUMPDEST POP PUSH1 0x0 NOT ADD SWAP1 JUMP JUMPDEST PUSH1 0x0 PUSH1 0x0 NOT DUP3 EQ ISZERO PUSH2 0x39E7 JUMPI PUSH2 0x39E7 PUSH2 0x39EE JUMP JUMPDEST POP PUSH1 0x1 ADD SWAP1 JUMP JUMPDEST PUSH4 0x4E487B71 PUSH1 0xE0 SHL PUSH1 0x0 MSTORE PUSH1 0x11 PUSH1 0x4 MSTORE PUSH1 0x24 PUSH1 0x0 REVERT JUMPDEST PUSH4 0x4E487B71 PUSH1 0xE0 SHL PUSH1 0x0 MSTORE PUSH1 0x31 PUSH1 0x4 MSTORE PUSH1 0x24 PUSH1 0x0 REVERT JUMPDEST PUSH4 0x4E487B71 PUSH1 0xE0 SHL PUSH1 0x0 MSTORE PUSH1 0x32 PUSH1 0x4 MSTORE PUSH1 0x24 PUSH1 0x0 REVERT JUMPDEST PUSH4 0x4E487B71 PUSH1 0xE0 SHL PUSH1 0x0 MSTORE PUSH1 0x41 PUSH1 0x4 MSTORE PUSH1 0x24 PUSH1 0x0 REVERT JUMPDEST PUSH1 0x1 PUSH1 0x1 PUSH1 0xA0 SHL SUB DUP2 AND DUP2 EQ PUSH2 0x150F JUMPI PUSH1 0x0 DUP1 REVERT JUMPDEST DUP1 ISZERO ISZERO DUP2 EQ PUSH2 0x150F JUMPI PUSH1 0x0 DUP1 REVERT INVALID COINBASE NUMBER MSIZE GASPRICE KECCAK256 POP PUSH16 0x6F6C20646F6573206E6F742065786973 PUSH21 0x4143593A20506F736974696F6E KECCAK256 PUSH5 0x6F6573206E PUSH16 0x74206578697374000000006077685936 0xC8 AND SWAP14 MULMOD KECCAK256 0x4A SAR SWAP8 0xDB SLT 0xE4 OR SGT PC DUP13 CODESIZE 0xE1 0xD2 SWAP11 PUSH2 0x867D RETURNDATASIZE 0xCE 0xE9 DUP11 SELFDESTRUCT LOG2 PUSH5 0x6970667358 0x22 SLT KECCAK256 0xBA EXTCODESIZE 0x4E LOG1 0xE2 0xBE 0xE2 CALLER 0xC2 GT SWAP7 ORIGIN COINBASE 0xB8 0xC8 PUSH25 0x9CFCEB11B9FFA0E62B3074EAE7E697CD64736F6C6343000806 STOP CALLER "
		},
		"gasEstimates": {
			"creation": {
				"codeDepositCost": "3020600",
				"executionCost": "infinite",
				"totalCost": "infinite"
			},
			"external": {
				"DEFAULT_ADMIN_ROLE()": "306",
				"PAUSER_ROLE()": "283",
				"POOL_MANAGER_ROLE()": "infinite",
				"WHITELISTER_ROLE()": "285",
				"availableBalance(bytes32)": "2548",
				"createPool(address,bytes32[],uint256[],uint256,uint256,bool)": "infinite",
				"deposit(uint256,uint256,uint256)": "infinite",
				"disableSponsorshipForAddress(address)": "infinite",
				"enableSponsorshipForAddress(address)": "infinite",
				"fund(bytes32,uint256)": "infinite",
				"getAccTokenPerShare(uint256,bytes32)": "infinite",
				"getPendingRewards(uint256,uint256,bytes32)": "infinite",
				"getPoolPositionIdAt(uint256,uint256)": "infinite",
				"getPoolPositions(uint256)": "infinite",
				"getPoolRewardTokenAddresses(uint256)": "infinite",
				"getPoolRewardTokens(uint256)": "infinite",
				"getPoolTokenRewardInfo(uint256,bytes32)": "infinite",
				"getRewardDebt(uint256,uint256,bytes32)": "infinite",
				"getRoleAdmin(bytes32)": "2604",
				"getRoleMember(bytes32,uint256)": "infinite",
				"getRoleMemberCount(bytes32)": "infinite",
				"getTotalRewards(uint256,uint256,bytes32)": "infinite",
				"getUserPositionIdAt(address,uint256,uint256)": "5020",
				"getUserPositions(address,uint256)": "infinite",
				"grantRole(bytes32,address)": "infinite",
				"harvest(uint256,uint256,bool,bool)": "infinite",
				"harvestAll(uint256,bool,bool)": "infinite",
				"hasRole(bytes32,address)": "2695",
				"massUpdatePools()": "infinite",
				"numPoolPositions(uint256)": "infinite",
				"numPools()": "2451",
				"numPositions()": "2362",
				"numUserPositions(address,uint256)": "2817",
				"pause()": "infinite",
				"paused()": "2405",
				"pending(uint256,uint256,bytes32)": "infinite",
				"poolInfo(uint256)": "15446",
				"registerToken(bytes32,address)": "infinite",
				"renounceRole(bytes32,address)": "infinite",
				"revokeRole(bytes32,address)": "infinite",
				"rewardPerBlock(bytes32)": "2484",
				"setAllocPoint(uint256,bytes32,uint256,bool)": "infinite",
				"setRewardPerBlock(bytes32,uint256,bool)": "infinite",
				"stakingPosition(uint256,uint256)": "11195",
				"supportsInterface(bytes4)": "infinite",
				"tokenContract(bytes32)": "2545",
				"totalAllocPoint(bytes32)": "2528",
				"unpause()": "infinite",
				"updatePool(uint256)": "infinite",
				"withdraw(uint256,uint256,uint256)": "infinite"
			},
			"internal": {
				"_harvest(uint256,uint256,bool,bool)": "infinite",
				"sqrt(uint256)": "infinite"
			}
		},
		"methodIdentifiers": {
			"DEFAULT_ADMIN_ROLE()": "a217fddf",
			"PAUSER_ROLE()": "e63ab1e9",
			"POOL_MANAGER_ROLE()": "56d73568",
			"WHITELISTER_ROLE()": "570618e1",
			"availableBalance(bytes32)": "ea8960a4",
			"createPool(address,bytes32[],uint256[],uint256,uint256,bool)": "3a70f8d9",
			"deposit(uint256,uint256,uint256)": "00aeef8a",
			"disableSponsorshipForAddress(address)": "d32fff2b",
			"enableSponsorshipForAddress(address)": "b7a5adca",
			"fund(bytes32,uint256)": "e46bbc9e",
			"getAccTokenPerShare(uint256,bytes32)": "849687c7",
			"getPendingRewards(uint256,uint256,bytes32)": "959b87de",
			"getPoolPositionIdAt(uint256,uint256)": "0baf9081",
			"getPoolPositions(uint256)": "a3461b5a",
			"getPoolRewardTokenAddresses(uint256)": "abfd0954",
			"getPoolRewardTokens(uint256)": "c4ee5c44",
			"getPoolTokenRewardInfo(uint256,bytes32)": "265fb54a",
			"getRewardDebt(uint256,uint256,bytes32)": "d3faade9",
			"getRoleAdmin(bytes32)": "248a9ca3",
			"getRoleMember(bytes32,uint256)": "9010d07c",
			"getRoleMemberCount(bytes32)": "ca15c873",
			"getTotalRewards(uint256,uint256,bytes32)": "dd3256d0",
			"getUserPositionIdAt(address,uint256,uint256)": "2803a1af",
			"getUserPositions(address,uint256)": "942b29e3",
			"grantRole(bytes32,address)": "2f2ff15d",
			"harvest(uint256,uint256,bool,bool)": "2ddc65af",
			"harvestAll(uint256,bool,bool)": "3634bba6",
			"hasRole(bytes32,address)": "91d14854",
			"massUpdatePools()": "630b5ba1",
			"numPoolPositions(uint256)": "f9226d31",
			"numPools()": "35c62bc2",
			"numPositions()": "5e71823b",
			"numUserPositions(address,uint256)": "6dce9fbd",
			"pause()": "8456cb59",
			"paused()": "5c975abb",
			"pending(uint256,uint256,bytes32)": "031bda86",
			"poolInfo(uint256)": "1526fe27",
			"registerToken(bytes32,address)": "2ded0fb5",
			"renounceRole(bytes32,address)": "36568abe",
			"revokeRole(bytes32,address)": "d547741f",
			"rewardPerBlock(bytes32)": "793f0851",
			"setAllocPoint(uint256,bytes32,uint256,bool)": "73bf8761",
			"setRewardPerBlock(bytes32,uint256,bool)": "85096902",
			"stakingPosition(uint256,uint256)": "ad4683a4",
			"supportsInterface(bytes4)": "01ffc9a7",
			"tokenContract(bytes32)": "79dd13ca",
			"totalAllocPoint(bytes32)": "38d6ca99",
			"unpause()": "3f4ba83a",
			"updatePool(uint256)": "51eb05a6",
			"withdraw(uint256,uint256,uint256)": "a41fe49f"
		}
	},
	"abi": [
		{
			"inputs": [],
			"stateMutability": "nonpayable",
			"type": "constructor"
		},
		{
			"anonymous": false,
			"inputs": [
				{
					"indexed": true,
					"internalType": "uint256",
					"name": "poolId",
					"type": "uint256"
				},
				{
					"indexed": false,
					"internalType": "bytes32",
					"name": "token",
					"type": "bytes32"
				},
				{
					"indexed": false,
					"internalType": "uint256",
					"name": "newAllocPoint",
					"type": "uint256"
				}
			],
			"name": "AllocPointUpdated",
			"type": "event"
		},
		{
			"anonymous": false,
			"inputs": [
				{
					"indexed": true,
					"internalType": "address",
					"name": "user",
					"type": "address"
				},
				{
					"indexed": true,
					"internalType": "uint256",
					"name": "poolId",
					"type": "uint256"
				},
				{
					"indexed": true,
					"internalType": "uint256",
					"name": "positionId",
					"type": "uint256"
				},
				{
					"indexed": false,
					"internalType": "uint256",
					"name": "amount",
					"type": "uint256"
				}
			],
			"name": "Deposit",
			"type": "event"
		},
		{
			"anonymous": false,
			"inputs": [
				{
					"indexed": true,
					"internalType": "address",
					"name": "user",
					"type": "address"
				},
				{
					"indexed": true,
					"internalType": "uint256",
					"name": "poolId",
					"type": "uint256"
				},
				{
					"indexed": true,
					"internalType": "uint256",
					"name": "positionId",
					"type": "uint256"
				},
				{
					"indexed": false,
					"internalType": "bytes32",
					"name": "token",
					"type": "bytes32"
				},
				{
					"indexed": false,
					"internalType": "uint256",
					"name": "amount",
					"type": "uint256"
				}
			],
			"name": "Harvest",
			"type": "event"
		},
		{
			"anonymous": false,
			"inputs": [
				{
					"indexed": true,
					"internalType": "uint256",
					"name": "poolId",
					"type": "uint256"
				},
				{
					"indexed": false,
					"internalType": "address",
					"name": "lpToken",
					"type": "address"
				}
			],
			"name": "NewPool",
			"type": "event"
		},
		{
			"anonymous": false,
			"inputs": [
				{
					"indexed": true,
					"internalType": "bytes32",
					"name": "token",
					"type": "bytes32"
				},
				{
					"indexed": false,
					"internalType": "address",
					"name": "addr",
					"type": "address"
				}
			],
			"name": "NewToken",
			"type": "event"
		},
		{
			"anonymous": false,
			"inputs": [
				{
					"indexed": false,
					"internalType": "address",
					"name": "account",
					"type": "address"
				}
			],
			"name": "Paused",
			"type": "event"
		},
		{
			"anonymous": false,
			"inputs": [
				{
					"indexed": false,
					"internalType": "bytes32",
					"name": "token",
					"type": "bytes32"
				},
				{
					"indexed": false,
					"internalType": "uint256",
					"name": "newReward",
					"type": "uint256"
				}
			],
			"name": "RewardPerBlockUpdated",
			"type": "event"
		},
		{
			"anonymous": false,
			"inputs": [
				{
					"indexed": true,
					"internalType": "bytes32",
					"name": "role",
					"type": "bytes32"
				},
				{
					"indexed": true,
					"internalType": "bytes32",
					"name": "previousAdminRole",
					"type": "bytes32"
				},
				{
					"indexed": true,
					"internalType": "bytes32",
					"name": "newAdminRole",
					"type": "bytes32"
				}
			],
			"name": "RoleAdminChanged",
			"type": "event"
		},
		{
			"anonymous": false,
			"inputs": [
				{
					"indexed": true,
					"internalType": "bytes32",
					"name": "role",
					"type": "bytes32"
				},
				{
					"indexed": true,
					"internalType": "address",
					"name": "account",
					"type": "address"
				},
				{
					"indexed": true,
					"internalType": "address",
					"name": "sender",
					"type": "address"
				}
			],
			"name": "RoleGranted",
			"type": "event"
		},
		{
			"anonymous": false,
			"inputs": [
				{
					"indexed": true,
					"internalType": "bytes32",
					"name": "role",
					"type": "bytes32"
				},
				{
					"indexed": true,
					"internalType": "address",
					"name": "account",
					"type": "address"
				},
				{
					"indexed": true,
					"internalType": "address",
					"name": "sender",
					"type": "address"
				}
			],
			"name": "RoleRevoked",
			"type": "event"
		},
		{
			"anonymous": false,
			"inputs": [
				{
					"indexed": true,
					"internalType": "bytes32",
					"name": "token",
					"type": "bytes32"
				},
				{
					"indexed": false,
					"internalType": "uint256",
					"name": "amount",
					"type": "uint256"
				}
			],
			"name": "TokenFunded",
			"type": "event"
		},
		{
			"anonymous": false,
			"inputs": [
				{
					"indexed": false,
					"internalType": "address",
					"name": "account",
					"type": "address"
				}
			],
			"name": "Unpaused",
			"type": "event"
		},
		{
			"anonymous": false,
			"inputs": [
				{
					"indexed": true,
					"internalType": "address",
					"name": "user",
					"type": "address"
				},
				{
					"indexed": true,
					"internalType": "uint256",
					"name": "poolId",
					"type": "uint256"
				},
				{
					"indexed": true,
					"internalType": "uint256",
					"name": "positionId",
					"type": "uint256"
				},
				{
					"indexed": false,
					"internalType": "uint256",
					"name": "amount",
					"type": "uint256"
				}
			],
			"name": "Withdraw",
			"type": "event"
		},
		{
			"inputs": [],
			"name": "DEFAULT_ADMIN_ROLE",
			"outputs": [
				{
					"internalType": "bytes32",
					"name": "",
					"type": "bytes32"
				}
			],
			"stateMutability": "view",
			"type": "function"
		},
		{
			"inputs": [],
			"name": "PAUSER_ROLE",
			"outputs": [
				{
					"internalType": "bytes32",
					"name": "",
					"type": "bytes32"
				}
			],
			"stateMutability": "view",
			"type": "function"
		},
		{
			"inputs": [],
			"name": "POOL_MANAGER_ROLE",
			"outputs": [
				{
					"internalType": "bytes32",
					"name": "",
					"type": "bytes32"
				}
			],
			"stateMutability": "view",
			"type": "function"
		},
		{
			"inputs": [],
			"name": "WHITELISTER_ROLE",
			"outputs": [
				{
					"internalType": "bytes32",
					"name": "",
					"type": "bytes32"
				}
			],
			"stateMutability": "view",
			"type": "function"
		},
		{
			"inputs": [
				{
					"internalType": "bytes32",
					"name": "",
					"type": "bytes32"
				}
			],
			"name": "availableBalance",
			"outputs": [
				{
					"internalType": "uint256",
					"name": "",
					"type": "uint256"
				}
			],
			"stateMutability": "view",
			"type": "function"
		},
		{
			"inputs": [
				{
					"internalType": "contract IERC20",
					"name": "_lpToken",
					"type": "address"
				},
				{
					"internalType": "bytes32[]",
					"name": "_rewardTokens",
					"type": "bytes32[]"
				},
				{
					"internalType": "uint256[]",
					"name": "_allocPoints",
					"type": "uint256[]"
				},
				{
					"internalType": "uint256",
					"name": "_startBlock",
					"type": "uint256"
				},
				{
					"internalType": "uint256",
					"name": "_endBlock",
					"type": "uint256"
				},
				{
					"internalType": "bool",
					"name": "_withUpdate",
					"type": "bool"
				}
			],
			"name": "createPool",
			"outputs": [],
			"stateMutability": "nonpayable",
			"type": "function"
		},
		{
			"inputs": [
				{
					"internalType": "uint256",
					"name": "_poolId",
					"type": "uint256"
				},
				{
					"internalType": "uint256",
					"name": "_amount",
					"type": "uint256"
				},
				{
					"internalType": "uint256",
					"name": "_lockDuration",
					"type": "uint256"
				}
			],
			"name": "deposit",
			"outputs": [],
			"stateMutability": "nonpayable",
			"type": "function"
		},
		{
			"inputs": [
				{
					"internalType": "address",
					"name": "addr",
					"type": "address"
				}
			],
			"name": "disableSponsorshipForAddress",
			"outputs": [],
			"stateMutability": "nonpayable",
			"type": "function"
		},
		{
			"inputs": [
				{
					"internalType": "address",
					"name": "addr",
					"type": "address"
				}
			],
			"name": "enableSponsorshipForAddress",
			"outputs": [],
			"stateMutability": "nonpayable",
			"type": "function"
		},
		{
			"inputs": [
				{
					"internalType": "bytes32",
					"name": "_token",
					"type": "bytes32"
				},
				{
					"internalType": "uint256",
					"name": "_amount",
					"type": "uint256"
				}
			],
			"name": "fund",
			"outputs": [],
			"stateMutability": "nonpayable",
			"type": "function"
		},
		{
			"inputs": [
				{
					"internalType": "uint256",
					"name": "_poolId",
					"type": "uint256"
				},
				{
					"internalType": "bytes32",
					"name": "_token",
					"type": "bytes32"
				}
			],
			"name": "getAccTokenPerShare",
			"outputs": [
				{
					"internalType": "uint256",
					"name": "",
					"type": "uint256"
				}
			],
			"stateMutability": "view",
			"type": "function"
		},
		{
			"inputs": [
				{
					"internalType": "uint256",
					"name": "_poolId",
					"type": "uint256"
				},
				{
					"internalType": "uint256",
					"name": "_id",
					"type": "uint256"
				},
				{
					"internalType": "bytes32",
					"name": "_token",
					"type": "bytes32"
				}
			],
			"name": "getPendingRewards",
			"outputs": [
				{
					"internalType": "uint256",
					"name": "",
					"type": "uint256"
				}
			],
			"stateMutability": "view",
			"type": "function"
		},
		{
			"inputs": [
				{
					"internalType": "uint256",
					"name": "_poolId",
					"type": "uint256"
				},
				{
					"internalType": "uint256",
					"name": "_index",
					"type": "uint256"
				}
			],
			"name": "getPoolPositionIdAt",
			"outputs": [
				{
					"internalType": "uint256",
					"name": "",
					"type": "uint256"
				}
			],
			"stateMutability": "view",
			"type": "function"
		},
		{
			"inputs": [
				{
					"internalType": "uint256",
					"name": "_poolId",
					"type": "uint256"
				}
			],
			"name": "getPoolPositions",
			"outputs": [
				{
					"internalType": "uint256[]",
					"name": "",
					"type": "uint256[]"
				}
			],
			"stateMutability": "view",
			"type": "function"
		},
		{
			"inputs": [
				{
					"internalType": "uint256",
					"name": "_poolId",
					"type": "uint256"
				}
			],
			"name": "getPoolRewardTokenAddresses",
			"outputs": [
				{
					"internalType": "address[]",
					"name": "addresses",
					"type": "address[]"
				}
			],
			"stateMutability": "view",
			"type": "function"
		},
		{
			"inputs": [
				{
					"internalType": "uint256",
					"name": "_poolId",
					"type": "uint256"
				}
			],
			"name": "getPoolRewardTokens",
			"outputs": [
				{
					"internalType": "bytes32[]",
					"name": "",
					"type": "bytes32[]"
				}
			],
			"stateMutability": "view",
			"type": "function"
		},
		{
			"inputs": [
				{
					"internalType": "uint256",
					"name": "_poolId",
					"type": "uint256"
				},
				{
					"internalType": "bytes32",
					"name": "_token",
					"type": "bytes32"
				}
			],
			"name": "getPoolTokenRewardInfo",
			"outputs": [
				{
					"internalType": "uint256",
					"name": "ap",
					"type": "uint256"
				},
				{
					"internalType": "uint256",
					"name": "totalAp",
					"type": "uint256"
				},
				{
					"internalType": "uint256",
					"name": "tokenPerBlock",
					"type": "uint256"
				},
				{
					"internalType": "uint256",
					"name": "tokenInPoolPerBlock",
					"type": "uint256"
				}
			],
			"stateMutability": "view",
			"type": "function"
		},
		{
			"inputs": [
				{
					"internalType": "uint256",
					"name": "_poolId",
					"type": "uint256"
				},
				{
					"internalType": "uint256",
					"name": "_id",
					"type": "uint256"
				},
				{
					"internalType": "bytes32",
					"name": "_token",
					"type": "bytes32"
				}
			],
			"name": "getRewardDebt",
			"outputs": [
				{
					"internalType": "uint256",
					"name": "",
					"type": "uint256"
				}
			],
			"stateMutability": "view",
			"type": "function"
		},
		{
			"inputs": [
				{
					"internalType": "bytes32",
					"name": "role",
					"type": "bytes32"
				}
			],
			"name": "getRoleAdmin",
			"outputs": [
				{
					"internalType": "bytes32",
					"name": "",
					"type": "bytes32"
				}
			],
			"stateMutability": "view",
			"type": "function"
		},
		{
			"inputs": [
				{
					"internalType": "bytes32",
					"name": "role",
					"type": "bytes32"
				},
				{
					"internalType": "uint256",
					"name": "index",
					"type": "uint256"
				}
			],
			"name": "getRoleMember",
			"outputs": [
				{
					"internalType": "address",
					"name": "",
					"type": "address"
				}
			],
			"stateMutability": "view",
			"type": "function"
		},
		{
			"inputs": [
				{
					"internalType": "bytes32",
					"name": "role",
					"type": "bytes32"
				}
			],
			"name": "getRoleMemberCount",
			"outputs": [
				{
					"internalType": "uint256",
					"name": "",
					"type": "uint256"
				}
			],
			"stateMutability": "view",
			"type": "function"
		},
		{
			"inputs": [
				{
					"internalType": "uint256",
					"name": "_poolId",
					"type": "uint256"
				},
				{
					"internalType": "uint256",
					"name": "_id",
					"type": "uint256"
				},
				{
					"internalType": "bytes32",
					"name": "_token",
					"type": "bytes32"
				}
			],
			"name": "getTotalRewards",
			"outputs": [
				{
					"internalType": "uint256",
					"name": "",
					"type": "uint256"
				}
			],
			"stateMutability": "view",
			"type": "function"
		},
		{
			"inputs": [
				{
					"internalType": "address",
					"name": "_addr",
					"type": "address"
				},
				{
					"internalType": "uint256",
					"name": "_poolId",
					"type": "uint256"
				},
				{
					"internalType": "uint256",
					"name": "_index",
					"type": "uint256"
				}
			],
			"name": "getUserPositionIdAt",
			"outputs": [
				{
					"internalType": "uint256",
					"name": "",
					"type": "uint256"
				}
			],
			"stateMutability": "view",
			"type": "function"
		},
		{
			"inputs": [
				{
					"internalType": "address",
					"name": "_addr",
					"type": "address"
				},
				{
					"internalType": "uint256",
					"name": "_poolId",
					"type": "uint256"
				}
			],
			"name": "getUserPositions",
			"outputs": [
				{
					"internalType": "uint256[]",
					"name": "",
					"type": "uint256[]"
				}
			],
			"stateMutability": "view",
			"type": "function"
		},
		{
			"inputs": [
				{
					"internalType": "bytes32",
					"name": "role",
					"type": "bytes32"
				},
				{
					"internalType": "address",
					"name": "account",
					"type": "address"
				}
			],
			"name": "grantRole",
			"outputs": [],
			"stateMutability": "nonpayable",
			"type": "function"
		},
		{
			"inputs": [
				{
					"internalType": "uint256",
					"name": "_poolId",
					"type": "uint256"
				},
				{
					"internalType": "uint256",
					"name": "_positionId",
					"type": "uint256"
				},
				{
					"internalType": "bool",
					"name": "_closeIfEmpty",
					"type": "bool"
				},
				{
					"internalType": "bool",
					"name": "_revertOnFailure",
					"type": "bool"
				}
			],
			"name": "harvest",
			"outputs": [],
			"stateMutability": "nonpayable",
			"type": "function"
		},
		{
			"inputs": [
				{
					"internalType": "uint256",
					"name": "_poolId",
					"type": "uint256"
				},
				{
					"internalType": "bool",
					"name": "_closeIfEmpty",
					"type": "bool"
				},
				{
					"internalType": "bool",
					"name": "_revertOnFailure",
					"type": "bool"
				}
			],
			"name": "harvestAll",
			"outputs": [],
			"stateMutability": "nonpayable",
			"type": "function"
		},
		{
			"inputs": [
				{
					"internalType": "bytes32",
					"name": "role",
					"type": "bytes32"
				},
				{
					"internalType": "address",
					"name": "account",
					"type": "address"
				}
			],
			"name": "hasRole",
			"outputs": [
				{
					"internalType": "bool",
					"name": "",
					"type": "bool"
				}
			],
			"stateMutability": "view",
			"type": "function"
		},
		{
			"inputs": [],
			"name": "massUpdatePools",
			"outputs": [],
			"stateMutability": "nonpayable",
			"type": "function"
		},
		{
			"inputs": [
				{
					"internalType": "uint256",
					"name": "_poolId",
					"type": "uint256"
				}
			],
			"name": "numPoolPositions",
			"outputs": [
				{
					"internalType": "uint256",
					"name": "",
					"type": "uint256"
				}
			],
			"stateMutability": "view",
			"type": "function"
		},
		{
			"inputs": [],
			"name": "numPools",
			"outputs": [
				{
					"internalType": "uint256",
					"name": "",
					"type": "uint256"
				}
			],
			"stateMutability": "view",
			"type": "function"
		},
		{
			"inputs": [],
			"name": "numPositions",
			"outputs": [
				{
					"internalType": "uint256",
					"name": "",
					"type": "uint256"
				}
			],
			"stateMutability": "view",
			"type": "function"
		},
		{
			"inputs": [
				{
					"internalType": "address",
					"name": "_addr",
					"type": "address"
				},
				{
					"internalType": "uint256",
					"name": "_poolId",
					"type": "uint256"
				}
			],
			"name": "numUserPositions",
			"outputs": [
				{
					"internalType": "uint256",
					"name": "",
					"type": "uint256"
				}
			],
			"stateMutability": "view",
			"type": "function"
		},
		{
			"inputs": [],
			"name": "pause",
			"outputs": [],
			"stateMutability": "nonpayable",
			"type": "function"
		},
		{
			"inputs": [],
			"name": "paused",
			"outputs": [
				{
					"internalType": "bool",
					"name": "",
					"type": "bool"
				}
			],
			"stateMutability": "view",
			"type": "function"
		},
		{
			"inputs": [
				{
					"internalType": "uint256",
					"name": "_poolId",
					"type": "uint256"
				},
				{
					"internalType": "uint256",
					"name": "_id",
					"type": "uint256"
				},
				{
					"internalType": "bytes32",
					"name": "_token",
					"type": "bytes32"
				}
			],
			"name": "pending",
			"outputs": [
				{
					"internalType": "uint256",
					"name": "",
					"type": "uint256"
				}
			],
			"stateMutability": "view",
			"type": "function"
		},
		{
			"inputs": [
				{
					"internalType": "uint256",
					"name": "",
					"type": "uint256"
				}
			],
			"name": "poolInfo",
			"outputs": [
				{
					"internalType": "contract IERC20",
					"name": "lpToken",
					"type": "address"
				},
				{
					"internalType": "uint256",
					"name": "lpBalance",
					"type": "uint256"
				},
				{
					"internalType": "uint256",
					"name": "totalLpScore",
					"type": "uint256"
				},
				{
					"internalType": "uint256",
					"name": "lastUpdateBlock",
					"type": "uint256"
				},
				{
					"internalType": "uint256",
					"name": "startBlock",
					"type": "uint256"
				},
				{
					"internalType": "uint256",
					"name": "endBlock",
					"type": "uint256"
				},
				{
					"internalType": "bool",
					"name": "exists",
					"type": "bool"
				}
			],
			"stateMutability": "view",
			"type": "function"
		},
		{
			"inputs": [
				{
					"internalType": "bytes32",
					"name": "_token",
					"type": "bytes32"
				},
				{
					"internalType": "contract IERC20",
					"name": "_erc20",
					"type": "address"
				}
			],
			"name": "registerToken",
			"outputs": [],
			"stateMutability": "nonpayable",
			"type": "function"
		},
		{
			"inputs": [
				{
					"internalType": "bytes32",
					"name": "role",
					"type": "bytes32"
				},
				{
					"internalType": "address",
					"name": "account",
					"type": "address"
				}
			],
			"name": "renounceRole",
			"outputs": [],
			"stateMutability": "nonpayable",
			"type": "function"
		},
		{
			"inputs": [
				{
					"internalType": "bytes32",
					"name": "role",
					"type": "bytes32"
				},
				{
					"internalType": "address",
					"name": "account",
					"type": "address"
				}
			],
			"name": "revokeRole",
			"outputs": [],
			"stateMutability": "nonpayable",
			"type": "function"
		},
		{
			"inputs": [
				{
					"internalType": "bytes32",
					"name": "",
					"type": "bytes32"
				}
			],
			"name": "rewardPerBlock",
			"outputs": [
				{
					"internalType": "uint256",
					"name": "",
					"type": "uint256"
				}
			],
			"stateMutability": "view",
			"type": "function"
		},
		{
			"inputs": [
				{
					"internalType": "uint256",
					"name": "_poolId",
					"type": "uint256"
				},
				{
					"internalType": "bytes32",
					"name": "_token",
					"type": "bytes32"
				},
				{
					"internalType": "uint256",
					"name": "_allocPoint",
					"type": "uint256"
				},
				{
					"internalType": "bool",
					"name": "_withUpdate",
					"type": "bool"
				}
			],
			"name": "setAllocPoint",
			"outputs": [],
			"stateMutability": "nonpayable",
			"type": "function"
		},
		{
			"inputs": [
				{
					"internalType": "bytes32",
					"name": "_token",
					"type": "bytes32"
				},
				{
					"internalType": "uint256",
					"name": "_newReward",
					"type": "uint256"
				},
				{
					"internalType": "bool",
					"name": "_withUpdate",
					"type": "bool"
				}
			],
			"name": "setRewardPerBlock",
			"outputs": [],
			"stateMutability": "nonpayable",
			"type": "function"
		},
		{
			"inputs": [
				{
					"internalType": "uint256",
					"name": "",
					"type": "uint256"
				},
				{
					"internalType": "uint256",
					"name": "",
					"type": "uint256"
				}
			],
			"name": "stakingPosition",
			"outputs": [
				{
					"internalType": "address",
					"name": "addr",
					"type": "address"
				},
				{
					"internalType": "uint256",
					"name": "lpAmount",
					"type": "uint256"
				},
				{
					"internalType": "uint256",
					"name": "stakeTimestamp",
					"type": "uint256"
				},
				{
					"internalType": "uint256",
					"name": "lockDuration",
					"type": "uint256"
				},
				{
					"internalType": "bool",
					"name": "exists",
					"type": "bool"
				}
			],
			"stateMutability": "view",
			"type": "function"
		},
		{
			"inputs": [
				{
					"internalType": "bytes4",
					"name": "interfaceId",
					"type": "bytes4"
				}
			],
			"name": "supportsInterface",
			"outputs": [
				{
					"internalType": "bool",
					"name": "",
					"type": "bool"
				}
			],
			"stateMutability": "view",
			"type": "function"
		},
		{
			"inputs": [
				{
					"internalType": "bytes32",
					"name": "",
					"type": "bytes32"
				}
			],
			"name": "tokenContract",
			"outputs": [
				{
					"internalType": "contract IERC20",
					"name": "",
					"type": "address"
				}
			],
			"stateMutability": "view",
			"type": "function"
		},
		{
			"inputs": [
				{
					"internalType": "bytes32",
					"name": "",
					"type": "bytes32"
				}
			],
			"name": "totalAllocPoint",
			"outputs": [
				{
					"internalType": "uint256",
					"name": "",
					"type": "uint256"
				}
			],
			"stateMutability": "view",
			"type": "function"
		},
		{
			"inputs": [],
			"name": "unpause",
			"outputs": [],
			"stateMutability": "nonpayable",
			"type": "function"
		},
		{
			"inputs": [
				{
					"internalType": "uint256",
					"name": "_poolId",
					"type": "uint256"
				}
			],
			"name": "updatePool",
			"outputs": [],
			"stateMutability": "nonpayable",
			"type": "function"
		},
		{
			"inputs": [
				{
					"internalType": "uint256",
					"name": "_poolId",
					"type": "uint256"
				},
				{
					"internalType": "uint256",
					"name": "_positionId",
					"type": "uint256"
				},
				{
					"internalType": "uint256",
					"name": "_amount",
					"type": "uint256"
				}
			],
			"name": "withdraw",
			"outputs": [],
			"stateMutability": "nonpayable",
			"type": "function"
		}
	]
}