{
  "_format": "hh-sol-artifact-1",
  "contractName": "DeriLens",
  "sourceName": "contracts/lens/DeriLens.sol",
  "abi": [
    {
      "inputs": [
        {
          "internalType": "address",
          "name": "symbolsLens_",
          "type": "address"
        }
      ],
      "stateMutability": "nonpayable",
      "type": "constructor"
    },
    {
      "inputs": [
        {
          "internalType": "address",
          "name": "pool_",
          "type": "address"
        },
        {
          "internalType": "address",
          "name": "account_",
          "type": "address"
        },
        {
          "components": [
            {
              "internalType": "string",
              "name": "symbol",
              "type": "string"
            },
            {
              "internalType": "int256",
              "name": "indexPrice",
              "type": "int256"
            },
            {
              "internalType": "int256",
              "name": "volatility",
              "type": "int256"
            }
          ],
          "internalType": "struct ISymbolsLens.PriceAndVolatility[]",
          "name": "pvs",
          "type": "tuple[]"
        }
      ],
      "name": "getInfo",
      "outputs": [
        {
          "components": [
            {
              "internalType": "address",
              "name": "pool",
              "type": "address"
            },
            {
              "internalType": "address",
              "name": "implementation",
              "type": "address"
            },
            {
              "internalType": "address",
              "name": "protocolFeeCollector",
              "type": "address"
            },
            {
              "internalType": "address",
              "name": "tokenB0",
              "type": "address"
            },
            {
              "internalType": "address",
              "name": "tokenWETH",
              "type": "address"
            },
            {
              "internalType": "address",
              "name": "vTokenB0",
              "type": "address"
            },
            {
              "internalType": "address",
              "name": "vTokenETH",
              "type": "address"
            },
            {
              "internalType": "address",
              "name": "lToken",
              "type": "address"
            },
            {
              "internalType": "address",
              "name": "pToken",
              "type": "address"
            },
            {
              "internalType": "address",
              "name": "oracleManager",
              "type": "address"
            },
            {
              "internalType": "address",
              "name": "swapper",
              "type": "address"
            },
            {
              "internalType": "address",
              "name": "symbolManager",
              "type": "address"
            },
            {
              "internalType": "uint256",
              "name": "reserveRatioB0",
              "type": "uint256"
            },
            {
              "internalType": "int256",
              "name": "minRatioB0",
              "type": "int256"
            },
            {
              "internalType": "int256",
              "name": "poolInitialMarginMultiplier",
              "type": "int256"
            },
            {
              "internalType": "int256",
              "name": "protocolFeeCollectRatio",
              "type": "int256"
            },
            {
              "internalType": "int256",
              "name": "minLiquidationReward",
              "type": "int256"
            },
            {
              "internalType": "int256",
              "name": "maxLiquidationReward",
              "type": "int256"
            },
            {
              "internalType": "int256",
              "name": "liquidationRewardCutRatio",
              "type": "int256"
            },
            {
              "internalType": "int256",
              "name": "liquidity",
              "type": "int256"
            },
            {
              "internalType": "int256",
              "name": "lpsPnl",
              "type": "int256"
            },
            {
              "internalType": "int256",
              "name": "cumulativePnlPerLiquidity",
              "type": "int256"
            },
            {
              "internalType": "int256",
              "name": "protocolFeeAccrued",
              "type": "int256"
            },
            {
              "internalType": "address",
              "name": "symbolManagerImplementation",
              "type": "address"
            },
            {
              "internalType": "int256",
              "name": "initialMarginRequired",
              "type": "int256"
            },
            {
              "internalType": "uint256",
              "name": "totalSupply",
              "type": "uint256"
            }
          ],
          "internalType": "struct DeriLens.PoolInfo",
          "name": "poolInfo",
          "type": "tuple"
        },
        {
          "components": [
            {
              "internalType": "string",
              "name": "category",
              "type": "string"
            },
            {
              "internalType": "string",
              "name": "symbol",
              "type": "string"
            },
            {
              "internalType": "address",
              "name": "symbolAddress",
              "type": "address"
            },
            {
              "internalType": "address",
              "name": "implementation",
              "type": "address"
            },
            {
              "internalType": "address",
              "name": "manager",
              "type": "address"
            },
            {
              "internalType": "address",
              "name": "oracleManager",
              "type": "address"
            },
            {
              "internalType": "bytes32",
              "name": "symbolId",
              "type": "bytes32"
            },
            {
              "internalType": "int256",
              "name": "feeRatio",
              "type": "int256"
            },
            {
              "internalType": "int256",
              "name": "alpha",
              "type": "int256"
            },
            {
              "internalType": "int256",
              "name": "fundingPeriod",
              "type": "int256"
            },
            {
              "internalType": "int256",
              "name": "minTradeVolume",
              "type": "int256"
            },
            {
              "internalType": "int256",
              "name": "minInitialMarginRatio",
              "type": "int256"
            },
            {
              "internalType": "int256",
              "name": "initialMarginRatio",
              "type": "int256"
            },
            {
              "internalType": "int256",
              "name": "maintenanceMarginRatio",
              "type": "int256"
            },
            {
              "internalType": "int256",
              "name": "pricePercentThreshold",
              "type": "int256"
            },
            {
              "internalType": "uint256",
              "name": "timeThreshold",
              "type": "uint256"
            },
            {
              "internalType": "bool",
              "name": "isCloseOnly",
              "type": "bool"
            },
            {
              "internalType": "bytes32",
              "name": "priceId",
              "type": "bytes32"
            },
            {
              "internalType": "bytes32",
              "name": "volatilityId",
              "type": "bytes32"
            },
            {
              "internalType": "int256",
              "name": "feeRatioITM",
              "type": "int256"
            },
            {
              "internalType": "int256",
              "name": "feeRatioOTM",
              "type": "int256"
            },
            {
              "internalType": "int256",
              "name": "strikePrice",
              "type": "int256"
            },
            {
              "internalType": "bool",
              "name": "isCall",
              "type": "bool"
            },
            {
              "internalType": "int256",
              "name": "netVolume",
              "type": "int256"
            },
            {
              "internalType": "int256",
              "name": "netCost",
              "type": "int256"
            },
            {
              "internalType": "int256",
              "name": "indexPrice",
              "type": "int256"
            },
            {
              "internalType": "uint256",
              "name": "fundingTimestamp",
              "type": "uint256"
            },
            {
              "internalType": "int256",
              "name": "cumulativeFundingPerVolume",
              "type": "int256"
            },
            {
              "internalType": "int256",
              "name": "tradersPnl",
              "type": "int256"
            },
            {
              "internalType": "int256",
              "name": "initialMarginRequired",
              "type": "int256"
            },
            {
              "internalType": "uint256",
              "name": "nPositionHolders",
              "type": "uint256"
            },
            {
              "internalType": "int256",
              "name": "curIndexPrice",
              "type": "int256"
            },
            {
              "internalType": "int256",
              "name": "curVolatility",
              "type": "int256"
            },
            {
              "internalType": "int256",
              "name": "curCumulativeFundingPerVolume",
              "type": "int256"
            },
            {
              "internalType": "int256",
              "name": "K",
              "type": "int256"
            },
            {
              "internalType": "int256",
              "name": "markPrice",
              "type": "int256"
            },
            {
              "internalType": "int256",
              "name": "funding",
              "type": "int256"
            },
            {
              "internalType": "int256",
              "name": "timeValue",
              "type": "int256"
            },
            {
              "internalType": "int256",
              "name": "delta",
              "type": "int256"
            },
            {
              "internalType": "int256",
              "name": "u",
              "type": "int256"
            },
            {
              "internalType": "int256",
              "name": "power",
              "type": "int256"
            },
            {
              "internalType": "int256",
              "name": "hT",
              "type": "int256"
            },
            {
              "internalType": "int256",
              "name": "powerPrice",
              "type": "int256"
            },
            {
              "internalType": "int256",
              "name": "theoreticalPrice",
              "type": "int256"
            }
          ],
          "internalType": "struct ISymbolsLens.SymbolInfo[]",
          "name": "symbolsInfo",
          "type": "tuple[]"
        },
        {
          "components": [
            {
              "internalType": "address",
              "name": "account",
              "type": "address"
            },
            {
              "internalType": "uint256",
              "name": "pTokenId",
              "type": "uint256"
            },
            {
              "internalType": "int256",
              "name": "amountB0",
              "type": "int256"
            },
            {
              "components": [
                {
                  "internalType": "address",
                  "name": "symbolAddress",
                  "type": "address"
                },
                {
                  "internalType": "string",
                  "name": "symbol",
                  "type": "string"
                },
                {
                  "internalType": "int256",
                  "name": "volume",
                  "type": "int256"
                },
                {
                  "internalType": "int256",
                  "name": "cost",
                  "type": "int256"
                },
                {
                  "internalType": "int256",
                  "name": "cumulativeFundingPerVolume",
                  "type": "int256"
                },
                {
                  "internalType": "int256",
                  "name": "margin",
                  "type": "int256"
                },
                {
                  "internalType": "int256",
                  "name": "marginUsed",
                  "type": "int256"
                },
                {
                  "internalType": "uint256",
                  "name": "vaultLiquidity",
                  "type": "uint256"
                },
                {
                  "internalType": "address",
                  "name": "vault",
                  "type": "address"
                }
              ],
              "internalType": "struct DeriLens.PositionInfo[]",
              "name": "positions",
              "type": "tuple[]"
            }
          ],
          "internalType": "struct DeriLens.TdInfo",
          "name": "tdInfo",
          "type": "tuple"
        },
        {
          "components": [
            {
              "internalType": "address",
              "name": "token",
              "type": "address"
            },
            {
              "internalType": "uint256",
              "name": "price",
              "type": "uint256"
            },
            {
              "internalType": "uint256",
              "name": "balance",
              "type": "uint256"
            },
            {
              "internalType": "string",
              "name": "symbol",
              "type": "string"
            }
          ],
          "internalType": "struct DeriLens.TokenInfo[]",
          "name": "tokenInfo",
          "type": "tuple[]"
        }
      ],
      "stateMutability": "view",
      "type": "function"
    },
    {
      "inputs": [
        {
          "internalType": "address",
          "name": "pool_",
          "type": "address"
        },
        {
          "internalType": "address",
          "name": "account_",
          "type": "address"
        }
      ],
      "name": "getLpInfo",
      "outputs": [
        {
          "components": [
            {
              "internalType": "address",
              "name": "account",
              "type": "address"
            },
            {
              "internalType": "uint256",
              "name": "lTokenId",
              "type": "uint256"
            },
            {
              "internalType": "address",
              "name": "vault",
              "type": "address"
            },
            {
              "internalType": "int256",
              "name": "amountB0",
              "type": "int256"
            },
            {
              "internalType": "int256",
              "name": "liquidity",
              "type": "int256"
            },
            {
              "internalType": "int256",
              "name": "cumulativePnlPerLiquidity",
              "type": "int256"
            },
            {
              "internalType": "uint256",
              "name": "vaultLiquidity",
              "type": "uint256"
            }
          ],
          "internalType": "struct DeriLens.LpInfo",
          "name": "info",
          "type": "tuple"
        }
      ],
      "stateMutability": "view",
      "type": "function"
    },
    {
      "inputs": [
        {
          "internalType": "address",
          "name": "pool_",
          "type": "address"
        }
      ],
      "name": "getMarketsInfo",
      "outputs": [
        {
          "components": [
            {
              "internalType": "address",
              "name": "underlying",
              "type": "address"
            },
            {
              "internalType": "address",
              "name": "vToken",
              "type": "address"
            },
            {
              "internalType": "string",
              "name": "underlyingSymbol",
              "type": "string"
            },
            {
              "internalType": "string",
              "name": "vTokenSymbol",
              "type": "string"
            },
            {
              "internalType": "uint256",
              "name": "underlyingPrice",
              "type": "uint256"
            },
            {
              "internalType": "uint256",
              "name": "exchangeRate",
              "type": "uint256"
            },
            {
              "internalType": "uint256",
              "name": "vTokenBalance",
              "type": "uint256"
            }
          ],
          "internalType": "struct DeriLens.MarketInfo[]",
          "name": "infos",
          "type": "tuple[]"
        }
      ],
      "stateMutability": "view",
      "type": "function"
    },
    {
      "inputs": [
        {
          "internalType": "address",
          "name": "pool_",
          "type": "address"
        }
      ],
      "name": "getPoolInfo",
      "outputs": [
        {
          "components": [
            {
              "internalType": "address",
              "name": "pool",
              "type": "address"
            },
            {
              "internalType": "address",
              "name": "implementation",
              "type": "address"
            },
            {
              "internalType": "address",
              "name": "protocolFeeCollector",
              "type": "address"
            },
            {
              "internalType": "address",
              "name": "tokenB0",
              "type": "address"
            },
            {
              "internalType": "address",
              "name": "tokenWETH",
              "type": "address"
            },
            {
              "internalType": "address",
              "name": "vTokenB0",
              "type": "address"
            },
            {
              "internalType": "address",
              "name": "vTokenETH",
              "type": "address"
            },
            {
              "internalType": "address",
              "name": "lToken",
              "type": "address"
            },
            {
              "internalType": "address",
              "name": "pToken",
              "type": "address"
            },
            {
              "internalType": "address",
              "name": "oracleManager",
              "type": "address"
            },
            {
              "internalType": "address",
              "name": "swapper",
              "type": "address"
            },
            {
              "internalType": "address",
              "name": "symbolManager",
              "type": "address"
            },
            {
              "internalType": "uint256",
              "name": "reserveRatioB0",
              "type": "uint256"
            },
            {
              "internalType": "int256",
              "name": "minRatioB0",
              "type": "int256"
            },
            {
              "internalType": "int256",
              "name": "poolInitialMarginMultiplier",
              "type": "int256"
            },
            {
              "internalType": "int256",
              "name": "protocolFeeCollectRatio",
              "type": "int256"
            },
            {
              "internalType": "int256",
              "name": "minLiquidationReward",
              "type": "int256"
            },
            {
              "internalType": "int256",
              "name": "maxLiquidationReward",
              "type": "int256"
            },
            {
              "internalType": "int256",
              "name": "liquidationRewardCutRatio",
              "type": "int256"
            },
            {
              "internalType": "int256",
              "name": "liquidity",
              "type": "int256"
            },
            {
              "internalType": "int256",
              "name": "lpsPnl",
              "type": "int256"
            },
            {
              "internalType": "int256",
              "name": "cumulativePnlPerLiquidity",
              "type": "int256"
            },
            {
              "internalType": "int256",
              "name": "protocolFeeAccrued",
              "type": "int256"
            },
            {
              "internalType": "address",
              "name": "symbolManagerImplementation",
              "type": "address"
            },
            {
              "internalType": "int256",
              "name": "initialMarginRequired",
              "type": "int256"
            },
            {
              "internalType": "uint256",
              "name": "totalSupply",
              "type": "uint256"
            }
          ],
          "internalType": "struct DeriLens.PoolInfo",
          "name": "info",
          "type": "tuple"
        }
      ],
      "stateMutability": "view",
      "type": "function"
    },
    {
      "inputs": [
        {
          "internalType": "address",
          "name": "pool_",
          "type": "address"
        },
        {
          "internalType": "string",
          "name": "symbolName",
          "type": "string"
        },
        {
          "components": [
            {
              "internalType": "string",
              "name": "symbol",
              "type": "string"
            },
            {
              "internalType": "int256",
              "name": "indexPrice",
              "type": "int256"
            },
            {
              "internalType": "int256",
              "name": "volatility",
              "type": "int256"
            }
          ],
          "internalType": "struct ISymbolsLens.PriceAndVolatility[]",
          "name": "pvs",
          "type": "tuple[]"
        }
      ],
      "name": "getSymbolInfo",
      "outputs": [
        {
          "components": [
            {
              "internalType": "string",
              "name": "category",
              "type": "string"
            },
            {
              "internalType": "string",
              "name": "symbol",
              "type": "string"
            },
            {
              "internalType": "address",
              "name": "symbolAddress",
              "type": "address"
            },
            {
              "internalType": "address",
              "name": "implementation",
              "type": "address"
            },
            {
              "internalType": "address",
              "name": "manager",
              "type": "address"
            },
            {
              "internalType": "address",
              "name": "oracleManager",
              "type": "address"
            },
            {
              "internalType": "bytes32",
              "name": "symbolId",
              "type": "bytes32"
            },
            {
              "internalType": "int256",
              "name": "feeRatio",
              "type": "int256"
            },
            {
              "internalType": "int256",
              "name": "alpha",
              "type": "int256"
            },
            {
              "internalType": "int256",
              "name": "fundingPeriod",
              "type": "int256"
            },
            {
              "internalType": "int256",
              "name": "minTradeVolume",
              "type": "int256"
            },
            {
              "internalType": "int256",
              "name": "minInitialMarginRatio",
              "type": "int256"
            },
            {
              "internalType": "int256",
              "name": "initialMarginRatio",
              "type": "int256"
            },
            {
              "internalType": "int256",
              "name": "maintenanceMarginRatio",
              "type": "int256"
            },
            {
              "internalType": "int256",
              "name": "pricePercentThreshold",
              "type": "int256"
            },
            {
              "internalType": "uint256",
              "name": "timeThreshold",
              "type": "uint256"
            },
            {
              "internalType": "bool",
              "name": "isCloseOnly",
              "type": "bool"
            },
            {
              "internalType": "bytes32",
              "name": "priceId",
              "type": "bytes32"
            },
            {
              "internalType": "bytes32",
              "name": "volatilityId",
              "type": "bytes32"
            },
            {
              "internalType": "int256",
              "name": "feeRatioITM",
              "type": "int256"
            },
            {
              "internalType": "int256",
              "name": "feeRatioOTM",
              "type": "int256"
            },
            {
              "internalType": "int256",
              "name": "strikePrice",
              "type": "int256"
            },
            {
              "internalType": "bool",
              "name": "isCall",
              "type": "bool"
            },
            {
              "internalType": "int256",
              "name": "netVolume",
              "type": "int256"
            },
            {
              "internalType": "int256",
              "name": "netCost",
              "type": "int256"
            },
            {
              "internalType": "int256",
              "name": "indexPrice",
              "type": "int256"
            },
            {
              "internalType": "uint256",
              "name": "fundingTimestamp",
              "type": "uint256"
            },
            {
              "internalType": "int256",
              "name": "cumulativeFundingPerVolume",
              "type": "int256"
            },
            {
              "internalType": "int256",
              "name": "tradersPnl",
              "type": "int256"
            },
            {
              "internalType": "int256",
              "name": "initialMarginRequired",
              "type": "int256"
            },
            {
              "internalType": "uint256",
              "name": "nPositionHolders",
              "type": "uint256"
            },
            {
              "internalType": "int256",
              "name": "curIndexPrice",
              "type": "int256"
            },
            {
              "internalType": "int256",
              "name": "curVolatility",
              "type": "int256"
            },
            {
              "internalType": "int256",
              "name": "curCumulativeFundingPerVolume",
              "type": "int256"
            },
            {
              "internalType": "int256",
              "name": "K",
              "type": "int256"
            },
            {
              "internalType": "int256",
              "name": "markPrice",
              "type": "int256"
            },
            {
              "internalType": "int256",
              "name": "funding",
              "type": "int256"
            },
            {
              "internalType": "int256",
              "name": "timeValue",
              "type": "int256"
            },
            {
              "internalType": "int256",
              "name": "delta",
              "type": "int256"
            },
            {
              "internalType": "int256",
              "name": "u",
              "type": "int256"
            },
            {
              "internalType": "int256",
              "name": "power",
              "type": "int256"
            },
            {
              "internalType": "int256",
              "name": "hT",
              "type": "int256"
            },
            {
              "internalType": "int256",
              "name": "powerPrice",
              "type": "int256"
            },
            {
              "internalType": "int256",
              "name": "theoreticalPrice",
              "type": "int256"
            }
          ],
          "internalType": "struct ISymbolsLens.SymbolInfo",
          "name": "info",
          "type": "tuple"
        }
      ],
      "stateMutability": "view",
      "type": "function"
    },
    {
      "inputs": [
        {
          "internalType": "address",
          "name": "pool_",
          "type": "address"
        },
        {
          "components": [
            {
              "internalType": "string",
              "name": "symbol",
              "type": "string"
            },
            {
              "internalType": "int256",
              "name": "indexPrice",
              "type": "int256"
            },
            {
              "internalType": "int256",
              "name": "volatility",
              "type": "int256"
            }
          ],
          "internalType": "struct ISymbolsLens.PriceAndVolatility[]",
          "name": "pvs",
          "type": "tuple[]"
        }
      ],
      "name": "getSymbolsInfo",
      "outputs": [
        {
          "components": [
            {
              "internalType": "string",
              "name": "category",
              "type": "string"
            },
            {
              "internalType": "string",
              "name": "symbol",
              "type": "string"
            },
            {
              "internalType": "address",
              "name": "symbolAddress",
              "type": "address"
            },
            {
              "internalType": "address",
              "name": "implementation",
              "type": "address"
            },
            {
              "internalType": "address",
              "name": "manager",
              "type": "address"
            },
            {
              "internalType": "address",
              "name": "oracleManager",
              "type": "address"
            },
            {
              "internalType": "bytes32",
              "name": "symbolId",
              "type": "bytes32"
            },
            {
              "internalType": "int256",
              "name": "feeRatio",
              "type": "int256"
            },
            {
              "internalType": "int256",
              "name": "alpha",
              "type": "int256"
            },
            {
              "internalType": "int256",
              "name": "fundingPeriod",
              "type": "int256"
            },
            {
              "internalType": "int256",
              "name": "minTradeVolume",
              "type": "int256"
            },
            {
              "internalType": "int256",
              "name": "minInitialMarginRatio",
              "type": "int256"
            },
            {
              "internalType": "int256",
              "name": "initialMarginRatio",
              "type": "int256"
            },
            {
              "internalType": "int256",
              "name": "maintenanceMarginRatio",
              "type": "int256"
            },
            {
              "internalType": "int256",
              "name": "pricePercentThreshold",
              "type": "int256"
            },
            {
              "internalType": "uint256",
              "name": "timeThreshold",
              "type": "uint256"
            },
            {
              "internalType": "bool",
              "name": "isCloseOnly",
              "type": "bool"
            },
            {
              "internalType": "bytes32",
              "name": "priceId",
              "type": "bytes32"
            },
            {
              "internalType": "bytes32",
              "name": "volatilityId",
              "type": "bytes32"
            },
            {
              "internalType": "int256",
              "name": "feeRatioITM",
              "type": "int256"
            },
            {
              "internalType": "int256",
              "name": "feeRatioOTM",
              "type": "int256"
            },
            {
              "internalType": "int256",
              "name": "strikePrice",
              "type": "int256"
            },
            {
              "internalType": "bool",
              "name": "isCall",
              "type": "bool"
            },
            {
              "internalType": "int256",
              "name": "netVolume",
              "type": "int256"
            },
            {
              "internalType": "int256",
              "name": "netCost",
              "type": "int256"
            },
            {
              "internalType": "int256",
              "name": "indexPrice",
              "type": "int256"
            },
            {
              "internalType": "uint256",
              "name": "fundingTimestamp",
              "type": "uint256"
            },
            {
              "internalType": "int256",
              "name": "cumulativeFundingPerVolume",
              "type": "int256"
            },
            {
              "internalType": "int256",
              "name": "tradersPnl",
              "type": "int256"
            },
            {
              "internalType": "int256",
              "name": "initialMarginRequired",
              "type": "int256"
            },
            {
              "internalType": "uint256",
              "name": "nPositionHolders",
              "type": "uint256"
            },
            {
              "internalType": "int256",
              "name": "curIndexPrice",
              "type": "int256"
            },
            {
              "internalType": "int256",
              "name": "curVolatility",
              "type": "int256"
            },
            {
              "internalType": "int256",
              "name": "curCumulativeFundingPerVolume",
              "type": "int256"
            },
            {
              "internalType": "int256",
              "name": "K",
              "type": "int256"
            },
            {
              "internalType": "int256",
              "name": "markPrice",
              "type": "int256"
            },
            {
              "internalType": "int256",
              "name": "funding",
              "type": "int256"
            },
            {
              "internalType": "int256",
              "name": "timeValue",
              "type": "int256"
            },
            {
              "internalType": "int256",
              "name": "delta",
              "type": "int256"
            },
            {
              "internalType": "int256",
              "name": "u",
              "type": "int256"
            },
            {
              "internalType": "int256",
              "name": "power",
              "type": "int256"
            },
            {
              "internalType": "int256",
              "name": "hT",
              "type": "int256"
            },
            {
              "internalType": "int256",
              "name": "powerPrice",
              "type": "int256"
            },
            {
              "internalType": "int256",
              "name": "theoreticalPrice",
              "type": "int256"
            }
          ],
          "internalType": "struct ISymbolsLens.SymbolInfo[]",
          "name": "infos",
          "type": "tuple[]"
        }
      ],
      "stateMutability": "view",
      "type": "function"
    },
    {
      "inputs": [
        {
          "internalType": "address",
          "name": "pool_",
          "type": "address"
        },
        {
          "internalType": "address",
          "name": "account_",
          "type": "address"
        }
      ],
      "name": "getTdInfo",
      "outputs": [
        {
          "components": [
            {
              "internalType": "address",
              "name": "account",
              "type": "address"
            },
            {
              "internalType": "uint256",
              "name": "pTokenId",
              "type": "uint256"
            },
            {
              "internalType": "int256",
              "name": "amountB0",
              "type": "int256"
            },
            {
              "components": [
                {
                  "internalType": "address",
                  "name": "symbolAddress",
                  "type": "address"
                },
                {
                  "internalType": "string",
                  "name": "symbol",
                  "type": "string"
                },
                {
                  "internalType": "int256",
                  "name": "volume",
                  "type": "int256"
                },
                {
                  "internalType": "int256",
                  "name": "cost",
                  "type": "int256"
                },
                {
                  "internalType": "int256",
                  "name": "cumulativeFundingPerVolume",
                  "type": "int256"
                },
                {
                  "internalType": "int256",
                  "name": "margin",
                  "type": "int256"
                },
                {
                  "internalType": "int256",
                  "name": "marginUsed",
                  "type": "int256"
                },
                {
                  "internalType": "uint256",
                  "name": "vaultLiquidity",
                  "type": "uint256"
                },
                {
                  "internalType": "address",
                  "name": "vault",
                  "type": "address"
                }
              ],
              "internalType": "struct DeriLens.PositionInfo[]",
              "name": "positions",
              "type": "tuple[]"
            }
          ],
          "internalType": "struct DeriLens.TdInfo",
          "name": "info",
          "type": "tuple"
        }
      ],
      "stateMutability": "view",
      "type": "function"
    },
    {
      "inputs": [
        {
          "internalType": "address",
          "name": "pool_",
          "type": "address"
        },
        {
          "internalType": "address",
          "name": "account_",
          "type": "address"
        }
      ],
      "name": "getTokenInfo",
      "outputs": [
        {
          "components": [
            {
              "internalType": "address",
              "name": "token",
              "type": "address"
            },
            {
              "internalType": "uint256",
              "name": "price",
              "type": "uint256"
            },
            {
              "internalType": "uint256",
              "name": "balance",
              "type": "uint256"
            },
            {
              "internalType": "string",
              "name": "symbol",
              "type": "string"
            }
          ],
          "internalType": "struct DeriLens.TokenInfo[]",
          "name": "infos",
          "type": "tuple[]"
        }
      ],
      "stateMutability": "view",
      "type": "function"
    },
    {
      "inputs": [],
      "name": "nameId",
      "outputs": [
        {
          "internalType": "bytes32",
          "name": "",
          "type": "bytes32"
        }
      ],
      "stateMutability": "view",
      "type": "function"
    },
    {
      "inputs": [],
      "name": "versionId",
      "outputs": [
        {
          "internalType": "bytes32",
          "name": "",
          "type": "bytes32"
        }
      ],
      "stateMutability": "view",
      "type": "function"
    }
  ],
  "bytecode": "0x60e06040523480156200001157600080fd5b5060405162003636380380620036368339810160408190526200003491620000e3565b60405180604001604052806008815260200167446572694c656e7360c01b81525060405180604001604052806005815260200164199718171960d91b8152508160405160200162000086919062000115565b60408051601f19818403018152908290528051602091820120608052620000b09183910162000115565b60408051808303601f19018152919052805160209091012060a052505060601b6001600160601b03191660c05262000153565b600060208284031215620000f657600080fd5b81516001600160a01b03811681146200010e57600080fd5b9392505050565b6000825160005b818110156200013857602081860181015185830152016200011c565b8181111562000148576000828501525b509190910192915050565b60805160a05160c05160601c6134b162000185600039600061224f0152600060fe0152600061015301526134b16000f3fe608060405234801561001057600080fd5b50600436106100885760003560e01c8063bea66a011161005b578063bea66a011461012e578063c1b0844f1461014e578063d41d331c14610175578063dcd50e091461019557600080fd5b806306bfa9381461008d57806319ae65f5146100b65780635be0be41146100d6578063ac0d925c146100f9575b600080fd5b6100a061009b366004612416565b6101b5565b6040516100ad91906125d7565b60405180910390f35b6100c96100c4366004612416565b610e46565b6040516100ad9190612642565b6100e96100e43660046128fd565b6118b1565b6040516100ad9493929190612cf9565b6101207f000000000000000000000000000000000000000000000000000000000000000081565b6040519081526020016100ad565b61014161013c366004612d49565b61192f565b6040516100ad9190612d82565b6101207f000000000000000000000000000000000000000000000000000000000000000081565b610188610183366004612d49565b611b71565b6040516100ad9190612d90565b6101a86101a3366004612da3565b612235565b6040516100ad9190612df2565b6101bd6122e3565b6001600160a01b03821680825260408051635c60da1b60e01b81529051849291635c60da1b916004808301926020929190829003018186803b15801561020257600080fd5b505afa158015610216573d6000803e3d6000fd5b505050506040513d601f19601f8201168201806040525081019061023a9190612e15565b82602001906001600160a01b031690816001600160a01b031681525050806001600160a01b031663850a15016040518163ffffffff1660e01b815260040160206040518083038186803b15801561029057600080fd5b505afa1580156102a4573d6000803e3d6000fd5b505050506040513d601f19601f820116820180604052508101906102c89190612e15565b82604001906001600160a01b031690816001600160a01b031681525050806001600160a01b031663b016ec9c6040518163ffffffff1660e01b815260040160206040518083038186803b15801561031e57600080fd5b505afa158015610332573d6000803e3d6000fd5b505050506040513d601f19601f820116820180604052508101906103569190612e15565b82606001906001600160a01b031690816001600160a01b031681525050806001600160a01b0316636c2bd60a6040518163ffffffff1660e01b815260040160206040518083038186803b1580156103ac57600080fd5b505afa1580156103c0573d6000803e3d6000fd5b505050506040513d601f19601f820116820180604052508101906103e49190612e15565b82608001906001600160a01b031690816001600160a01b031681525050806001600160a01b031663489525e36040518163ffffffff1660e01b815260040160206040518083038186803b15801561043a57600080fd5b505afa15801561044e573d6000803e3d6000fd5b505050506040513d601f19601f820116820180604052508101906104729190612e15565b8260a001906001600160a01b031690816001600160a01b031681525050806001600160a01b031663363765b26040518163ffffffff1660e01b815260040160206040518083038186803b1580156104c857600080fd5b505afa1580156104dc573d6000803e3d6000fd5b505050506040513d601f19601f820116820180604052508101906105009190612e15565b8260c001906001600160a01b031690816001600160a01b031681525050806001600160a01b031663010ee1846040518163ffffffff1660e01b815260040160206040518083038186803b15801561055657600080fd5b505afa15801561056a573d6000803e3d6000fd5b505050506040513d601f19601f8201168201806040525081019061058e9190612e15565b8260e001906001600160a01b031690816001600160a01b031681525050806001600160a01b03166358a06f076040518163ffffffff1660e01b815260040160206040518083038186803b1580156105e457600080fd5b505afa1580156105f8573d6000803e3d6000fd5b505050506040513d601f19601f8201168201806040525081019061061c9190612e15565b8261010001906001600160a01b031690816001600160a01b031681525050806001600160a01b031663565d878c6040518163ffffffff1660e01b815260040160206040518083038186803b15801561067357600080fd5b505afa158015610687573d6000803e3d6000fd5b505050506040513d601f19601f820116820180604052508101906106ab9190612e15565b8261012001906001600160a01b031690816001600160a01b031681525050806001600160a01b0316632b3297f96040518163ffffffff1660e01b815260040160206040518083038186803b15801561070257600080fd5b505afa158015610716573d6000803e3d6000fd5b505050506040513d601f19601f8201168201806040525081019061073a9190612e15565b8261014001906001600160a01b031690816001600160a01b031681525050806001600160a01b031663501aea916040518163ffffffff1660e01b815260040160206040518083038186803b15801561079157600080fd5b505afa1580156107a5573d6000803e3d6000fd5b505050506040513d601f19601f820116820180604052508101906107c99190612e15565b8261016001906001600160a01b031690816001600160a01b031681525050806001600160a01b03166357a8985d6040518163ffffffff1660e01b815260040160206040518083038186803b15801561082057600080fd5b505afa158015610834573d6000803e3d6000fd5b505050506040513d601f19601f820116820180604052508101906108589190612e32565b82610180018181525050806001600160a01b031663066d0d726040518163ffffffff1660e01b815260040160206040518083038186803b15801561089b57600080fd5b505afa1580156108af573d6000803e3d6000fd5b505050506040513d601f19601f820116820180604052508101906108d39190612e32565b826101a0018181525050806001600160a01b031663e346e7596040518163ffffffff1660e01b815260040160206040518083038186803b15801561091657600080fd5b505afa15801561092a573d6000803e3d6000fd5b505050506040513d601f19601f8201168201806040525081019061094e9190612e32565b826101c0018181525050806001600160a01b031663f94835646040518163ffffffff1660e01b815260040160206040518083038186803b15801561099157600080fd5b505afa1580156109a5573d6000803e3d6000fd5b505050506040513d601f19601f820116820180604052508101906109c99190612e32565b826101e0018181525050806001600160a01b031663ddd18d306040518163ffffffff1660e01b815260040160206040518083038186803b158015610a0c57600080fd5b505afa158015610a20573d6000803e3d6000fd5b505050506040513d601f19601f82011682018060405250810190610a449190612e32565b82610200018181525050806001600160a01b031663ab78ace46040518163ffffffff1660e01b815260040160206040518083038186803b158015610a8757600080fd5b505afa158015610a9b573d6000803e3d6000fd5b505050506040513d601f19601f82011682018060405250810190610abf9190612e32565b82610220018181525050806001600160a01b0316637f8ad37a6040518163ffffffff1660e01b815260040160206040518083038186803b158015610b0257600080fd5b505afa158015610b16573d6000803e3d6000fd5b505050506040513d601f19601f82011682018060405250810190610b3a9190612e32565b82610240018181525050806001600160a01b0316631a6865026040518163ffffffff1660e01b815260040160206040518083038186803b158015610b7d57600080fd5b505afa158015610b91573d6000803e3d6000fd5b505050506040513d601f19601f82011682018060405250810190610bb59190612e32565b82610260018181525050806001600160a01b031663dd19ca1b6040518163ffffffff1660e01b815260040160206040518083038186803b158015610bf857600080fd5b505afa158015610c0c573d6000803e3d6000fd5b505050506040513d601f19601f82011682018060405250810190610c309190612e32565b82610280018181525050806001600160a01b031663e9cc0b076040518163ffffffff1660e01b815260040160206040518083038186803b158015610c7357600080fd5b505afa158015610c87573d6000803e3d6000fd5b505050506040513d601f19601f82011682018060405250810190610cab9190612e32565b826102a0018181525050806001600160a01b031663c58a26bd6040518163ffffffff1660e01b815260040160206040518083038186803b158015610cee57600080fd5b505afa158015610d02573d6000803e3d6000fd5b505050506040513d601f19601f82011682018060405250810190610d269190612e32565b826102c00181815250508161016001516001600160a01b0316635c60da1b6040518163ffffffff1660e01b815260040160206040518083038186803b158015610d6e57600080fd5b505afa158015610d82573d6000803e3d6000fd5b505050506040513d601f19601f82011682018060405250810190610da69190612e15565b826102e001906001600160a01b031690816001600160a01b0316815250508161016001516001600160a01b031663899d03406040518163ffffffff1660e01b815260040160206040518083038186803b158015610e0257600080fd5b505afa158015610e16573d6000803e3d6000fd5b505050506040513d601f19601f82011682018060405250810190610e3a9190612e32565b61030083015250919050565b606060008290506000816001600160a01b031663bba48a906040518163ffffffff1660e01b815260040160206040518083038186803b158015610e8857600080fd5b505afa158015610e9c573d6000803e3d6000fd5b505050506040513d601f19601f82011682018060405250810190610ec09190612e15565b6001600160a01b0316635fe3b5676040518163ffffffff1660e01b815260040160206040518083038186803b158015610ef857600080fd5b505afa158015610f0c573d6000803e3d6000fd5b505050506040513d601f19601f82011682018060405250810190610f309190612e15565b90506000816001600160a01b0316637dc0d1d06040518163ffffffff1660e01b815260040160206040518083038186803b158015610f6d57600080fd5b505afa158015610f81573d6000803e3d6000fd5b505050506040513d601f19601f82011682018060405250810190610fa59190612e15565b90506000836001600160a01b031663b016ec9c6040518163ffffffff1660e01b815260040160206040518083038186803b158015610fe257600080fd5b505afa158015610ff6573d6000803e3d6000fd5b505050506040513d601f19601f8201168201806040525081019061101a9190612e15565b90506000846001600160a01b0316636c2bd60a6040518163ffffffff1660e01b815260040160206040518083038186803b15801561105757600080fd5b505afa15801561106b573d6000803e3d6000fd5b505050506040513d601f19601f8201168201806040525081019061108f9190612e15565b90506000856001600160a01b031663489525e36040518163ffffffff1660e01b815260040160206040518083038186803b1580156110cc57600080fd5b505afa1580156110e0573d6000803e3d6000fd5b505050506040513d601f19601f820116820180604052508101906111049190612e15565b90506000866001600160a01b031663363765b26040518163ffffffff1660e01b815260040160206040518083038186803b15801561114157600080fd5b505afa158015611155573d6000803e3d6000fd5b505050506040513d601f19601f820116820180604052508101906111799190612e15565b90506000866001600160a01b031663b0772d0b6040518163ffffffff1660e01b815260040160006040518083038186803b1580156111b657600080fd5b505afa1580156111ca573d6000803e3d6000fd5b505050506040513d6000823e601f3d908101601f191682016040526111f29190810190612e4b565b9050600081516001600160401b0381111561120f5761120f61270a565b604051908082528060200260200182016040528015611238578160200160208202803683370190505b5090506000805b835181101561143a57600084828151811061125c5761125c612ed9565b60200260200101519050866001600160a01b0316816001600160a01b031614156112bd578884838151811061129357611293612ed9565b6001600160a01b0390921660209283029190910190910152826112b581612eef565b935050611427565b856001600160a01b0316816001600160a01b031614156112ea578784838151811061129357611293612ed9565b6000816001600160a01b0316636f307dc36040518163ffffffff1660e01b815260040160206040518083038186803b15801561132557600080fd5b505afa158015611339573d6000803e3d6000fd5b505050506040513d601f19601f8201168201806040525081019061135d9190612e15565b604051638e8f294b60e01b81526001600160a01b038083166004830152919250818416918f1690638e8f294b9060240160206040518083038186803b1580156113a557600080fd5b505afa1580156113b9573d6000803e3d6000fd5b505050506040513d601f19601f820116820180604052508101906113dd9190612e15565b6001600160a01b0316141561142557808584815181106113ff576113ff612ed9565b6001600160a01b03909216602092830291909101909101528361142181612eef565b9450505b505b508061143281612eef565b91505061123f565b50806001600160401b038111156114535761145361270a565b6040519080825280602002602001820160405280156114d657816020015b6114c36040518060e0016040528060006001600160a01b0316815260200160006001600160a01b0316815260200160608152602001606081526020016000815260200160008152602001600081525090565b8152602001906001900390816114715790505b509a506000905060005b82518110156118a15760006001600160a01b031683828151811061150657611506612ed9565b60200260200101516001600160a01b03161461188f5782818151811061152e5761152e612ed9565b60200260200101518c838151811061154857611548612ed9565b60209081029190910101516001600160a01b039091169052835184908290811061157457611574612ed9565b60200260200101518c838151811061158e5761158e612ed9565b6020026020010151602001906001600160a01b031690816001600160a01b0316815250508281815181106115c4576115c4612ed9565b60200260200101516001600160a01b03166395d89b416040518163ffffffff1660e01b815260040160006040518083038186803b15801561160457600080fd5b505afa158015611618573d6000803e3d6000fd5b505050506040513d6000823e601f3d908101601f191682016040526116409190810190612f65565b8c838151811061165257611652612ed9565b60200260200101516040018190525083818151811061167357611673612ed9565b60200260200101516001600160a01b03166395d89b416040518163ffffffff1660e01b815260040160006040518083038186803b1580156116b357600080fd5b505afa1580156116c7573d6000803e3d6000fd5b505050506040513d6000823e601f3d908101601f191682016040526116ef9190810190612f65565b8c838151811061170157611701612ed9565b602002602001015160600181905250886001600160a01b031663fc57d4df85838151811061173157611731612ed9565b60200260200101516040518263ffffffff1660e01b815260040161176491906001600160a01b0391909116815260200190565b60206040518083038186803b15801561177c57600080fd5b505afa158015611790573d6000803e3d6000fd5b505050506040513d601f19601f820116820180604052508101906117b49190612e32565b8c83815181106117c6576117c6612ed9565b602002602001015160800181815250508381815181106117e8576117e8612ed9565b60200260200101516001600160a01b031663182df0f56040518163ffffffff1660e01b815260040160206040518083038186803b15801561182857600080fd5b505afa15801561183c573d6000803e3d6000fd5b505050506040513d601f19601f820116820180604052508101906118609190612e32565b8c838151811061187257611872612ed9565b602090810291909101015160a001528161188b81612eef565b9250505b8061189981612eef565b9150506114e0565b5050505050505050505050919050565b6118b96122e3565b60606118c36123af565b6118f7604051806080016040528060006001600160a01b031681526020016000815260200160008152602001606081525090565b611900876101b5565b935061190c8786612235565b9250611918878761192f565b91506119248787611b71565b905093509350935093565b6119376123af565b6001600160a01b038083168252604080516243b86160e21b81529051859283169163010ee184916004808301926020929190829003018186803b15801561197d57600080fd5b505afa158015611991573d6000803e3d6000fd5b505050506040513d601f19601f820116820180604052508101906119b59190612e15565b604051635f6669a760e11b81526001600160a01b038581166004830152919091169063beccd34e9060240160206040518083038186803b1580156119f857600080fd5b505afa158015611a0c573d6000803e3d6000fd5b505050506040513d601f19601f82011682018060405250810190611a309190612e32565b6020830181905215611b6a5760208201516040516314775a3960e11b81526000916001600160a01b038416916328eeb47291611a729160040190815260200190565b60806040518083038186803b158015611a8a57600080fd5b505afa158015611a9e573d6000803e3d6000fd5b505050506040513d601f19601f82011682018060405250810190611ac29190612f99565b80516001600160a01b0316604080860182905260208084015160608089019190915282850151608089015284015160a08801528151631ca09b8960e11b815291519394509192633941371292600480840193919291829003018186803b158015611b2b57600080fd5b505afa158015611b3f573d6000803e3d6000fd5b505050506040513d601f19601f82011682018060405250810190611b639190612e32565b60c0840152505b5092915050565b611ba5604051806080016040528060006001600160a01b031681526020016000815260200160008152602001606081525090565b6001600160a01b0380831682526040805163501aea9160e01b8152905185926000929084169163501aea9191600480820192602092909190829003018186803b158015611bf157600080fd5b505afa158015611c05573d6000803e3d6000fd5b505050506040513d601f19601f82011682018060405250810190611c299190612e15565b6001600160a01b03166382a5e6736040518163ffffffff1660e01b815260040160206040518083038186803b158015611c6157600080fd5b505afa158015611c75573d6000803e3d6000fd5b505050506040513d601f19601f82011682018060405250810190611c999190612e32565b9050806001600160401b03811115611cb357611cb361270a565b604051908082528060200260200182016040528015611d3e57816020015b611d2b60405180610100016040528060006001600160a01b0316815260200160608152602001600081526020016000815260200160008152602001600081526020016000815260200160006001600160a01b031681525090565b815260200190600190039081611cd15790505b50606084015260005b8181101561222c576000836001600160a01b031663501aea916040518163ffffffff1660e01b815260040160206040518083038186803b158015611d8a57600080fd5b505afa158015611d9e573d6000803e3d6000fd5b505050506040513d601f19601f82011682018060405250810190611dc29190612e15565b6001600160a01b03166345b5b3dd836040518263ffffffff1660e01b8152600401611def91815260200190565b60206040518083038186803b158015611e0757600080fd5b505afa158015611e1b573d6000803e3d6000fd5b505050506040513d601f19601f82011682018060405250810190611e3f9190612e15565b905060008686606001518481518110611e5a57611e5a612ed9565b602002602001015160200151604051602001611e77929190613007565b60408051808303601f1901815290829052805160209091012063188954f960e11b82526004820181905291506001600160a01b03861690633112a9f29060240160206040518083038186803b158015611ecf57600080fd5b505afa158015611ee3573d6000803e3d6000fd5b505050506040513d601f19601f82011682018060405250810190611f079190612e15565b86606001518481518110611f1d57611f1d612ed9565b602002602001015160e001906001600160a01b031690816001600160a01b03168152505060006001600160a01b031686606001518481518110611f6257611f62612ed9565b602002602001015160e001516001600160a01b0316146120135785606001518381518110611f9257611f92612ed9565b602002602001015160e001516001600160a01b031663394137126040518163ffffffff1660e01b815260040160206040518083038186803b158015611fd657600080fd5b505afa158015611fea573d6000803e3d6000fd5b505050506040513d601f19601f8201168201806040525081019061200e9190612e32565b612016565b60005b8660600151848151811061202c5761202c612ed9565b602002602001015160c00181815250506000829050828760600151858151811061205857612058612ed9565b6020026020010151600001906001600160a01b031690816001600160a01b031681525050806001600160a01b03166395d89b416040518163ffffffff1660e01b815260040160006040518083038186803b1580156120b557600080fd5b505afa1580156120c9573d6000803e3d6000fd5b505050506040513d6000823e601f3d908101601f191682016040526120f19190810190612f65565b8760600151858151811061210757612107612ed9565b602090810291909101810151015260405163055f575160e41b81526001600160a01b038981166004830152600091908316906355f575109060240160606040518083038186803b15801561215a57600080fd5b505afa15801561216e573d6000803e3d6000fd5b505050506040513d601f19601f82011682018060405250810190612192919061303f565b90508060000151886060015186815181106121af576121af612ed9565b602002602001015160400181815250508060200151886060015186815181106121da576121da612ed9565b6020026020010151606001818152505080604001518860600151868151811061220557612205612ed9565b6020026020010151608001818152505050505050808061222490612eef565b915050611d47565b50505092915050565b60405163dcd50e0960e01b81526060906001600160a01b037f0000000000000000000000000000000000000000000000000000000000000000169063dcd50e0990612286908690869060040161309a565b60006040518083038186803b15801561229e57600080fd5b505afa1580156122b2573d6000803e3d6000fd5b505050506040513d6000823e601f3d908101601f191682016040526122da919081019061313a565b90505b92915050565b6040805161032081018252600080825260208201819052918101829052606081018290526080810182905260a0810182905260c0810182905260e08101829052610100810182905261012081018290526101408101829052610160810182905261018081018290526101a081018290526101c081018290526101e08101829052610200810182905261022081018290526102408101829052610260810182905261028081018290526102a081018290526102c081018290526102e0810182905261030081019190915290565b6040518060e0016040528060006001600160a01b031681526020016000815260200160006001600160a01b03168152602001600081526020016000815260200160008152602001600081525090565b6001600160a01b038116811461241357600080fd5b50565b60006020828403121561242857600080fd5b8135612433816123fe565b9392505050565b80516001600160a01b03168252602081015161246160208401826001600160a01b03169052565b50604081015161247c60408401826001600160a01b03169052565b50606081015161249760608401826001600160a01b03169052565b5060808101516124b260808401826001600160a01b03169052565b5060a08101516124cd60a08401826001600160a01b03169052565b5060c08101516124e860c08401826001600160a01b03169052565b5060e081015161250360e08401826001600160a01b03169052565b50610100818101516001600160a01b039081169184019190915261012080830151821690840152610140808301518216908401526101608083015182169084015261018080830151908401526101a080830151908401526101c080830151908401526101e08083015190840152610200808301519084015261022080830151908401526102408083015190840152610260808301519084015261028080830151908401526102a080830151908401526102c080830151908401526102e0808301519091169083015261030090810151910152565b61032081016122dd828461243a565b60005b838110156126015781810151838201526020016125e9565b83811115612610576000848401525b50505050565b6000815180845261262e8160208601602086016125e6565b601f01601f19169290920160200192915050565b60006020808301818452808551808352604092508286019150828160051b87010184880160005b838110156126fc57888303603f19018552815180516001600160a01b0390811685528882015116888501528681015160e0888601819052906126ad82870182612616565b915050606080830151868303828801526126c78382612616565b6080858101519089015260a0808601519089015260c09485015194909701939093525050509386019390860190600101612669565b509098975050505050505050565b634e487b7160e01b600052604160045260246000fd5b604051606081016001600160401b03811182821017156127425761274261270a565b60405290565b60405161058081016001600160401b03811182821017156127425761274261270a565b604051601f8201601f191681016001600160401b03811182821017156127935761279361270a565b604052919050565b60006001600160401b038211156127b4576127b461270a565b5060051b60200190565b60006001600160401b038211156127d7576127d761270a565b50601f01601f191660200190565b600082601f8301126127f657600080fd5b8135602061280b6128068361279b565b61276b565b82815260059290921b8401810191818101908684111561282a57600080fd5b8286015b848110156128f25780356001600160401b038082111561284e5760008081fd5b908801906060828b03601f19018113156128685760008081fd5b612870612720565b87840135838111156128825760008081fd5b84019250603f83018c136128965760008081fd5b8783013560406128a8612806836127be565b8281528e828488010111156128bd5760008081fd5b828287018c83013760009281018b019290925290825284810135828a015291909301359083015250835291830191830161282e565b509695505050505050565b60008060006060848603121561291257600080fd5b833561291d816123fe565b9250602084013561292d816123fe565b915060408401356001600160401b0381111561294857600080fd5b612954868287016127e5565b9150509250925092565b600081518084526020808501808196508360051b8101915082860160005b85811015612bbc5782840389528151610580815181875261299f82880182612616565b91505086820151868203888801526129b78282612616565b9150506040808301516129d4828901826001600160a01b03169052565b50506060828101516001600160a01b039081169188019190915260808084015182169088015260a0808401519091169087015260c0808301519087015260e08083015190870152610100808301519087015261012080830151908701526101408083015190870152610160808301519087015261018080830151908701526101a080830151908701526101c080830151908701526101e080830151908701526102008083015115159087015261022080830151908701526102408083015190870152610260808301519087015261028080830151908701526102a080830151908701526102c0808301511515908701526102e08083015190870152610300808301519087015261032080830151908701526103408083015190870152610360808301519087015261038080830151908701526103a080830151908701526103c080830151908701526103e08083015190870152610400808301519087015261042080830151908701526104408083015190870152610460808301519087015261048080830151908701526104a080830151908701526104c080830151908701526104e08083015190870152610500808301519087015261052080830151908701526105408083015190870152610560918201519190950152978401979084019060010161297c565b5091979650505050505050565b60018060a01b038082511683526020820151602084015280604083015116604084015250606081015160608301526080810151608083015260a081015160a083015260c081015160c08301525050565b6000608080840160018060a01b03808551168652602080860151818801526040808701518189015260608088015186828b015285815180885260a09750878c019150878160051b8d0101868401935060005b82811015612ce857609f198e830301845284516101008a825116845289820151818b860152612c9c82860182612616565b838b0151868c0152898401518a8701528e8401518f8701528d8401518e87015260c0808501519087015260e0938401518d16939095019290925250509387019392870192600101612c6b565b509c9b505050505050505050505050565b6000610440612d08838861243a565b80610320840152612d1b8184018761295e565b9050612d2b610340840186612bc9565b828103610420840152612d3e8185612c19565b979650505050505050565b60008060408385031215612d5c57600080fd5b8235612d67816123fe565b91506020830135612d77816123fe565b809150509250929050565b60e081016122dd8284612bc9565b6020815260006122da6020830184612c19565b60008060408385031215612db657600080fd5b8235612dc1816123fe565b915060208301356001600160401b03811115612ddc57600080fd5b612de8858286016127e5565b9150509250929050565b6020815260006122da602083018461295e565b8051612e10816123fe565b919050565b600060208284031215612e2757600080fd5b8151612433816123fe565b600060208284031215612e4457600080fd5b5051919050565b60006020808385031215612e5e57600080fd5b82516001600160401b03811115612e7457600080fd5b8301601f81018513612e8557600080fd5b8051612e936128068261279b565b81815260059190911b82018301908381019087831115612eb257600080fd5b928401925b82841015612d3e578351612eca816123fe565b82529284019290840190612eb7565b634e487b7160e01b600052603260045260246000fd5b6000600019821415612f1157634e487b7160e01b600052601160045260246000fd5b5060010190565b600082601f830112612f2957600080fd5b8151612f37612806826127be565b818152846020838601011115612f4c57600080fd5b612f5d8260208301602087016125e6565b949350505050565b600060208284031215612f7757600080fd5b81516001600160401b03811115612f8d57600080fd5b612f5d84828501612f18565b600060808284031215612fab57600080fd5b604051608081018181106001600160401b0382111715612fcd57612fcd61270a565b6040528251612fdb816123fe565b808252506020830151602082015260408301516040820152606083015160608201528091505092915050565b6bffffffffffffffffffffffff198360601b168152600082516130318160148501602087016125e6565b919091016014019392505050565b60006060828403121561305157600080fd5b604051606081018181106001600160401b03821117156130735761307361270a565b80604052508251815260208301516020820152604083015160408201528091505092915050565b6001600160a01b03831681526040602080830182905283518383018190526000929160609182860190600581901b87018401888401875b8381101561311a57898303605f19018552815180518885526130f589860182612616565b82890151868a0152918a0151948a0194909452948601949250908501906001016130d1565b50909a9950505050505050505050565b80518015158114612e1057600080fd5b6000602080838503121561314d57600080fd5b82516001600160401b038082111561316457600080fd5b818501915085601f83011261317857600080fd5b81516131866128068261279b565b81815260059190911b830184019084810190888311156131a557600080fd5b8585015b8381101561346e578051858111156131c15760008081fd5b8601610580818c03601f19018113156131da5760008081fd5b6131e2612748565b89830151888111156131f45760008081fd5b6132028e8c83870101612f18565b825250604080840151898111156132195760008081fd5b6132278f8d83880101612f18565b8c840152506060613239818601612e05565b828401526080915061324c828601612e05565b9083015260a061325d858201612e05565b8284015260c09150613270828601612e05565b818401525060e08085015182840152610100915081850151818401525061012080850151828401526101409150818501518184015250610160808501518284015261018091508185015181840152506101a080850151828401526101c091508185015181840152506101e0808501518284015261020091508185015181840152506102206132ff81860161312a565b828401526102409150818501518184015250610260808501518284015261028091508185015181840152506102a080850151828401526102c091508185015181840152506102e061335181860161312a565b82840152610300915081850151818401525061032080850151828401526103409150818501518184015250610360808501518284015261038091508185015181840152506103a080850151828401526103c091508185015181840152506103e08085015182840152610400915081850151818401525061042080850151828401526104409150818501518184015250610460808501518284015261048091508185015181840152506104a080850151828401526104c091508185015181840152506104e08085015182840152610500915081850151818401525061052080850151828401526105409150818501518184015250610560808501518284015283850151818401525050808652505050868301925086810190506131a9565b509897505050505050505056fea26469706673582212200fb9b1b4fc1ae17986bc5a2f17eb3f89065cdc021e4ac34f363f4d54e2920d2664736f6c63430008080033",
  "linkReferences": {},
  "deployedLinkReferences": {}
}